:030000000225F2E4
:1025F200787FE4F6D8FD9060007F007E07E4F0A3C8
:0A260200DFFCDEFA75816602264750
:0C000300000000000000000000000000F1
:0B38D100EF1FAC0670011E4C70F622C9
:1036A600AB07AA06EB1BAE0270011A4E600C7FAA8E
:0B36B6007E051238D175D9AA80EA22E7
:101DB700907120E04480F07F057E001238D1E4FF67
:101DC700FE1236A675A75575AC5C9071327450F04B
:101DD7009071307403F0907136742FF090715C74C9
:101DE70003F090715BE054FCF07F18EF2466FDE48C
:101DF70034718D82F583E4F00FEFB433EE90401128
:101E0700E4935407FF90711CE054F84FF09040178B
:101E1700E493547FFF90711DE054804FF090401081
:101E2700E493FF5401C43333335480FE907123E0AD
:101E3700547F4EF0EFC313543F4440FFA3E0548058
:101E47004FF0904012E493FF540FFE907146E05418
:101E5700F04EF0EFC4540FFF90714FE054F04FF085
:101E6700904013E493543FFF907140E054C04FF00B
:101E7700904014E493907126F0904015E49390718C
:0B1E870028F0904016E49390712AF0C0
:011E9200222D
:10366A00000009C4006400C80101F4004B000A000C
:0E367A0000010F0405020009000A000A000A00
:10370F00E2FE74C12FF582E43464F583E02224FCD9
:08371F0025E0FDF87403082207
:10180200E4FF123711C394085058123711C39404DD
:10181200502878C2C00012370F12371F8002C3331C
:10182200D8FCF45ED000F278C2C00012370F123733
:101832001F8002C333D8FC02193078C3C0001237AC
:101842000F12371D8002C333D8FCF45ED000F27849
:10185200C3C00012370F12371D8002C333D8FC02F7
:101862001930123711C394084068123711C394100B
:101872005060123711C3940C502C78D2C00012372A
:101882000F24F812371F8002C333D8FCF45ED00055
:10189200F278D2C00012370F24F812371F8002C329
:1018A20033D8FC02193078D3C00012370F24F41257
:1018B200371F8002C333D8FCF45ED000F278D3C065
:1018C2000012370F24F412371F8002C333D8FC02F0
:1018D2001930123711C39414502B78E2C00012371A
:1018E2000F24F012371F8002C333D8FCF45ED000FD
:1018F200F278E2C00012370F24F012371F8002C3C1
:1019020033D8FC802978E3C00012370F24EC123759
:101912001F8002C333D8FCF45ED000F278E3C0002B
:1019220012370F24EC12371F8002C333D8FC4ED07B
:0B19320000F20FEF64026003021804D3
:01193D002287
:03005D000230DB93
:1030DB00C0E0C0F0C083C082C0D075D000C000C0BB
:1030EB0001C002C003C004C005C006C0077881E25E
:1030FB0030E607E24440F2122B76D007D006D0051B
:10310B00D004D003D002D001D000D0D0D082D08355
:05311B00D0F0D0E0320D
:102F1E00D2AF43AB0843B6C0907132E04440F043A9
:102F2E00AB087877743FF208744BF2787A7430F20B
:102F3E00788914F27871744FF2187427F2787274DB
:102F4E00A8F2087410F208E4F208F208F2787E741F
:0F2F5E00D0F2087404F208741EF2087402F22212
:1027B800E4FBEB25E025E02480F582E43436F5835C
:1027C800740193FF74C12BF582E43464F583EFF050
:1027D800EB25E025E02482F582E43436F583E493A2
:1027E800FE740193FFEB25E024C3F582E43464F51D
:1027F80083EEF0A3EFF0EB25E024C7F582E4346420
:10280800F583E4F0A37441F0E47F01FEFDFC74C19C
:102818002B123714F9F812040DE53F4FFFE53E4E31
:10282800FEE53D4DFDE53C4C8F3F8E3E8D3DF53C34
:102838000BEB640260030227BA1218021225570232
:022848002F1E41
:10379D0078C2E254BFF2E24440F2907181E4F0222B
:0D37F70078C3E254CFF278C0E24440F222E1
:0D38040078C3E2543FF278C0E24480F22223
:0D38110078D2E254FCF278D0E24401F222B9
:0D381E0078D2E2543FF278D0E24408F22262
:0D382B0078D3E254FCF278D0E24410F2228F
:0D38380078E2E254F3F278E0E24402F2227A
:0D38450078E2E254CFF278E0E24404F2228F
:0D38520078E2E2543FF278E0E24408F2220E
:0D385F0078E3E254F3F278E0E24420F22234
:0D386C0078E3E2543FF278E0E24480F2227B
:0D38790078F2E254FCF278F0E24401F22211
:070B1E0044600C0000000020
:0838DC007890E2541FF2E22291
:10335600E5B154F342B153A8DFD2AF7892E4F20854
:10336600F27890E254E3F2E2441CF2E254FCF2E218
:103376004401F208E2547FF2E24420F278957401A7
:0C338600F2187476F21238DC44A0F22237
:0C38AD001238DC44C0F243A820D2AF2245
:1037AD001238DC44A0F27892E4F208F253A8DF223A
:03001E00022CCDE4
:102CCD00C0E0C0F0C083C082C0D075D000C000C0CD
:102CDD0001C002C003C004C005C006C0077891E260
:102CED0030E72FE24480F274FFFFFEFDFC90600C94
:102CFD0012043CC31203E9501990600C120420EF2A
:102D0D002401FFE43EFEE43DFDE43CFC90600C122A
:102D1D000448D007D006D005D004D003D002D0018E
:0D2D2D00D000D0D0D082D083D0F0D0E032E2
:0E0B250044652A000000004465260000000020
:102FB900C374FF9BFF74FF9AFE74FF99FD74FF9819
:102FC900FC12043CC30203E9120420EF2401FFE4CC
:102FD9003EFEE43DFDE43CFC221204209064A6027E
:102FE900043CE4FCFD7BFF7AFFF9F8D30203D3909C
:0B2FF90064A6020420EE8FF002026AC2
:10329F00E5B154CF42B153A8BFD2AF75D102789CDC
:1032AF00E254E3F2E2441CF2E254FCF2E24401F293
:1032BF0008E2547FF2E24420F278A17401F218740C
:0D32CF0076F2789CE2541FF2E244A0F22255
:1037BD00789CE2541FF2E244C0F243A840D2AF22FB
:101A760090652A1204209064A21204489064A6126B
:101A860004540000000090652A120454000000006F
:101A960090652612043C9064A212042012028D90D6
:101AA60064A61204489065261204540000000090B3
:101AB6006541E0FEA3E0FF122FEB4009122FF890DC
:101AC6006541122FFE122FE59064DF122FB9500FD9
:101AD6009064DF122FE21202809064DF1204481233
:101AE6002FE590642F122FB9500F90642F122FE21A
:101AF60012028090642F12044890651DE0B4012004
:101B0600122FF890651E122FFEC390651FE094C435
:101B160090651EE094094008E4F0A3F090651DF07E
:101B2600906521E0B40120122FF8906524122FFE53
:101B3600C3906525E09464906524E094004008E431
:101B4600F0A3F0906521F0906520E0B40120122FFB
:101B5600F8906522122FFEC3906523E09464906589
:101B660022E094004008E4F0A3F0906520F0906431
:101B7600E3E0FEA3E0FF122FEB400A9064E3E47576
:101B8600F00112026A74FFFFFEFDFC906519122F28
:0F1B9600CA500C906519122FD19065191204488E
:011BA500221D
:03002100022BEBC4
:102BEB00C0E0C0F0C083C082C0D075D000C000C0B0
:102BFB0001C002C003C004C005C006C007789DE237
:102C0B0030E736E24480F274FFFFFEFDFC90652A4C
:102C1B00122FCA500C90652A122FD190652A1204DC
:102C2B00489063ADE0C394FF5003E004F0906484DC
:102C3B00E0C394FF5003E004F0D007D006D005D0DA
:102C4B0004D003D002D001D000D0D0D082D083D01A
:042C5B00F0D0E032A3
:0D0B3300C115C1164165390042653A000048
:10362C00120420EF2401FFE43EFEE43DFDE43CFCEB
:0F363C0022E47F587E02FDFC12043CC30203E926
:10316400E5B254FC42B253A9FED2AF75D1049071BA
:1031740000E054E3F0E0F0E054FCF0E04401F090AF
:1031840071057409F0907104745FF0907100E0545B
:103194001FF0E044A0F0A3E0547FF0E04420F022CC
:10376A00907100E0541FF0E044C0F043A901D2AFC9
:01377A00222C
:03002400021CCAF1
:101CCA00C0E0C0F0C083C082C0D075D000C000C0E0
:0D1CDA0001C002C003C004C005C006C00761
:0E1CE700907101E020E703021D9CE04480F0B4
:101CF500906539E004F0E0C394144025E4F0906465
:101D0500F912362C9064F91204489064F912363DA4
:101D1500400F201B0C9064F912045400000000D2FF
:011D25001BA2
:101D260030821620150F9064F512362C9064F51249
:0B1D36000448123222D2158002C215B0
:101D410090653AE475F00112026AC390653BE09434
:101D51001490653AE094004027E4F0A3F09064E920
:101D610012362C9064E91204489064E912363D4021
:101D71000F201A0C9064E912045400000000D21ADA
:101D810030951620160F9064E512362C9064E512FA
:0B1D910004481233CCD2168002C216A8
:101D9C00D007D006D005D004D003D002D001D0009B
:0B1DAC00D0D0D082D083D0F0D0E03245
:100B4000602D63F1000000000000000000000000C4
:100B50000000000000000000000000000000000095
:100B60000000000000000000000000000000000085
:100B70000043641E0000004364210000004364251C
:100B8000000000C119416428004164290041642427
:080B90000044642A000000008B
:102EC50090642A12042074212FF582E43464F5837A
:102ED500229064A2E0FF241EF582E43464F5832287
:102EE5007D00EF75F00FA424F1F9746335F0FA7BDA
:102EF5000122E5822EF582E43583F58322E4F09004
:102F05006424E014F090000F22906429E4F09064AA
:092F150028F02290642A02043C19
:0E37CD00906543EFF0123886906543E0FF22CE
:1034FC0078C2E2543FF2E254FCF2E24440F29071A2
:10350C0081E04404F0907175E04401F043AA20D2AC
:0B351C00AF75D60175D59F75D2112246
:03004B0002193E59
:10193E00C0E0C0F0C083C082C0D075D000C000C06F
:0D194E0001C002C003C004C005C006C007F0
:10195B009064BAE4F0E5D420E503021A5BE5D7F016
:10196B00201904E0B4A509906424E0C39403400358
:10197B00021A4E9064BAE0B4A515D219122F0E12AA
:10198B0037AD90600C120454000000001238AD907B
:10199B006429E0B401089064BAE0906428F0122E38
:1019AB00C5E06003021A5B9064BAE0FF122F189037
:1019BB0063F175F00FEB120485EA75F00FA4258324
:1019CB00F583C083C082906429E0FE04F0D082D0FE
:1019DB0083122EF7EFF090600C12045400000000FD
:1019EB00906428E0606AE0FFA3E06F706390642866
:1019FB00E0FB90642A120420741E2F122EDDEBF0F4
:101A0B00C219122F0E122EC57401F0906424E0043B
:101A1B00F090642A120420EF2401FFE43EFEE43D23
:101A2B00FDE43CFC90642A120448E47F03FEFDFCB9
:101A3B00122F18C31203E9400A90642A12045400AF
:101A4B000000001237AD90600C120454000000002F
:101A5B00D007D006D005D004D003D002D001D000DF
:0B1A6B00D0D0D082D083D0F0D0E03289
:0D388600E5D430E4FB8FD7E5D430E4FB221D
:0600270090653C1204B1DB
:10002D00E4FEEEC39D501590653C1204918E8275D1
:0C003D00830012016FFF1238860E80E66F
:010049002294
:101BA600E49064A2F0A3F0C21C7F0AFEFDFC9060E4
:101BB6000C12043CD31203E940191237AD90600CA5
:101BC60012045400000000E4906429F0906428F0A8
:101BD600C21922E49064A2F09064A2E0FFC39403C9
:101BE6004003021CC974212F122ECEE07003021C82
:101BF600C09064A2E075F00FA424F2F582E4346389
:101C0600F583E0FE741E2F122EDDE06E601A9064DE
:101C1600A2E02421122ECE122F02C083C082122EE1
:081C2600E5D007D006020543DA
:101C2E00E49064A4F09064A3F0A3F0122ED6E01416
:101C3E00FE9064A4E0FDC39E5022EF75F00FA42425
:101C4E00F1F582E43463F583E5822D122EFAE0FF7E
:101C5E009064A3E02FF0A3E004F080CF9064A3E0A3
:101C6E00F0122ED6E0FEEF75F00FA424F0F582E40C
:101C7E003463F583122EF7E0FF9064A3E06F6002E9
:021C8E00D21C66
:101C9000301C1DC21C9064A2E0FF2421122ECE1223
:101CA0002F02C083C082122EE5D007D00612054352
:101CB0009064A2E02425F582E43464F5837401F095
:091CC0009064A2E004F0021BDEB6
:011CC90022F8
:050B980042653F000072
:1036C100907123E05498F0E0441EF02212028D9094
:0B36D10064A71204489064A7020420C4
:10357D0078C3E24403F2E2440CF218E2440CF27810
:10358D006AE24478F27591FF1236C1907122740788
:08359D00F0439E7043994022A7
:103392005399E0EF24FE601714601C2402701E9003
:1033A2007123E054D8F0E0445AF0439904800E129D
:1033B20036C143990580061236C14399017869E204
:0A33C2004448F27F017E000236A6A7
:1035A5007869E24401F2786BE230E1FA7402F2AF35
:1035B50093EF75F010A4FFAEF0E594C4540FFDEF42
:0335C5004DFF2295
:101F6B00E49064A5F0A3F0A312045400000000E475
:101F7B009064ABF0A3F074FFA3F0A3F0E4A3F0F034
:101F8B001235A59064A5EEF0A3EFF09064AFE0C31B
:101F9B00940240549064ABE0FEA3E0FF9064A5E094
:101FAB00FCA3E0FDD39FEC9E40089064ABECF0A348
:101FBB00EDF09064ADE0FEA3E0FFC3ED9FEC9E500F
:101FCB000F9064A5E0FFA3E09064ADCFF0A3EFF01A
:101FDB009064A712043C9064A5E0FEA3E0FFE4FC30
:101FEB00FD120280A31204489064AFE004F0E0C33A
:101FFB009414408C1236D6C006C0079064ABE0FE3A
:10200B00A3E0FBAA06E4F9F8D007D0061236CDC040
:10201B0006C0079064ADE0FEA3E0FBAA06E4F8D08F
:10202B0007D0061236CD78041203FA9064A5EEF0B1
:03203B00A3EFF020
:01203E00227F
:10377B0075AF3F8FAF75AEB975A402E5A530E1FB10
:01378B00221B
:103405009064A71204B175AF3F8FAF9064AAE0C373
:1034150094014022E5A530E0FB9064A7E475F00136
:1034250012049A120156F5A675AEB975A4019064F9
:07343500AAE014F080D5228B
:10343C009064A31204B19064A6E06027AE070FEE6F
:10344C002400FDE4343F8D82F583E493FE9064A365
:10345C00E475F00112049AEE1201CF9064A6E01408
:04346C00F080D322F7
:1034A200A3F078E3E254FCF2E24401F2907192E478
:1034B200F0229064B3E004F0E0C3940822C2A4C2F4
:0E34C20096D2977F04FE22FFE0FEA8070822A4
:102E6700E4FF78D3E2543FF2E24440F290718DE4FC
:102E7700F0E254CFF2E24410F290718CE4F0123495
:102E8700A4C297C29612000FEF7030FD7F8C1223F9
:102E9700647D017F881223647D017F861223647D10
:102EA700017F8A122364E4FD7F82122364E4FD7F9D
:0E2EB70084122364E4FD7F80122364023095B0
:1036DC00E4FDEE25E0FEEF30E004EE4401FEEFC326
:0936EC0013FF0DEDB408EBAF066D
:0136F50022B2
:022C5F00AC07C0
:102C6100E49064A7F0AF051236DCEC64816019ECE6
:102C710064836014EC6485600FEC6487600AEC6423
:082C8100896005EC648D7043CD
:102C8900E49064A8F0A3F0EC64816004ECB48306DA
:102C9900EF547FFF8017EC64856004ECB48706EF7E
:102CA900543FFF8008ECB48904EF541FFFEFC4546C
:102CB9000FFE9064A8F0EF540FFFA3F0EE75F00A31
:032CC900A42FFF36
:012CCC0022E5
:05284A009064A7EFF00F
:10284F00E4A3F01234A21234BF1238D1E49064A979
:10285F00F01228BE9064A9E09064A71234C98002D8
:10286F00C313D8FC30E004D2A48002C2A47F047E3C
:10287F00001238D11228C840D878E3E254FCF2781D
:10288F00E0E24410F2E49064A9F09064A8E025E03F
:10289F00F01228BE30A4079064A8E04401F012287B
:0E28AF00C840E7C296C297C2A49064A8E0FF9A
:1028BD0022C2967F047E001238D122D2967F047EEA
:0F28CD00001238D19064A9E004F0E0C39408220F
:05373F009064A6EFF00C
:10374400E4FE12284AAE079064A6E0FFAD06022C00
:013754005F15
:0828DC009064B1EFF0A3EDF0F0
:1028E400E41234A21234BF1238D1E49064B3F0126B
:1028F40029629064B3E09064B11234C98002C313B6
:10290400D8FC30E004D2A48002C2A41229511234AB
:10291400B440DCE49064B3F01229629064B3E0FF45
:102924009064B2E0FEA807088002C313D8FC30E02C
:1029340004D2A48002C2A41229511234B440D9C2D0
:0C294400967F047E001238D1C297C2A416
:10295000227F047E001238D1D2967F047E00123886
:0C296000D122C2967F047E001238D122E2
:0E000F007F8012284AEF30E0037F00227F013D
:01001D0022C0
:052364009064ADEFF0F4
:10236900A3EDF0EF6480601D9064ADE0FF648260CE
:1023790014EF6484600FEF6486600AEF6488600577
:05238900EF648C706C94
:10238E00E49064AFF0A3F09064AEE0FFC3940A4013
:10239E0007EF75F00A84A3F09064AEE075F00A843E
:1023AE00AFF09064B0EFF09064AFE0FEC454F04F25
:1023BE009064AEF09064ADE0FF64806004EFB48290
:1023CE00099064AEE0547FF080229064ADE0FF642B
:1023DE00846004EFB486099064AEE0543FF0800C44
:0C23EE009064ADE0B48805A3E0541FF03B
:1023FA00E4FD7F8E1228DC9064ADE0FFA3E0FD12BD
:09240A0028DC7D807F8E0228DCB5
:1031A400906534E0FD7F80122364906533E0FD7FF9
:1031B40082122364906532E0FD7F8412236490655B
:1031C40031E0FD7F86122364906530E0FD7F881234
:0F31D400236490652EA3E02430FD7F8C022364DA
:1031E3009064A6A3E02430FD7F8C1223649064A82E
:1031F300E0FD7F881223649064A9E0FD7F8612239B
:10320300649064AAE0FD7F841223649064ABE0FDC4
:0F3213007F821223649064ACE0FD7F800223640D
:103095007F8112373F90646EEFF07F8312373F9048
:1030A500646DEFF07F8512373F90646CEFF07F879A
:1030B50012373F90646BEFF07F8912373F90646A57
:1030C500EFF07F8D12373FEF24D0FEE43407906494
:0630D50068F0A3CEF0221A
:040B9D004165350079
:1035EB009064A2F090653602049190000612016F70
:1035FB00FE90000802016F9000091201E190000C8F
:01360B00229C
:10152100E49064A2F07FFFA374FFF090653612048B
:10153100B190000112016FFE120156FDEEC39D50E4
:10154100030216B31235EF900001E41201E190009D
:101551000E1204BA120510EFF46008906535742379
:10156100F08009906535E06003E014F01235EF90EA
:10157100000312016F6F601590000512016F600D7D
:10158100900004E41201E19000030216AF900005FF
:1015910012016FFE90000412016FC39E500B1235B1
:1015A100EF900004740102019C1235EF90000212C9
:1015B100016F6F6048EFF4701C1235F5C39E400A4D
:1015C10074051235EB90000280611235EF90000A2C
:1015D10074010216A61235EF900008740112360547
:1015E10012016F6F906536600C120491740112360E
:1015F10002EF0216A6120491900009803DEFF470EB
:10160100411235EF90000912016FD394005003028B
:1016110016A990000B12016FFE90000A12016FD300
:101621009E401174011235EB90000C12016F906411
:10163100A3F080541235EF90000A740112019C024C
:1016410016A91235EF1235FCC394FF50089000081B
:10165100740112019C1235F5B506089064A2740359
:10166100F080201235EF9000071235F86E70399036
:1016710064A274041235EE90000612016F90000806
:101681001201E19064A3EFF01235EFE41236027417
:10169100FF1201E19064A3E09000111201E1906456
:1016A100A2E09000121201E11235EF900002EF1258
:0216B10001E155
:0116B3002214
:1032DC0078E2E2543FF2E24440F2907191E0F01255
:1032EC0037271233561234FC12352712329F1238FC
:1032FC00931238A012357D1227B8122E6712316442
:0D330C001237BD12376A7F017E000236A61F
:102E0800121DB775D95590715EE054FEF075D9BBA7
:102E18001232DCD2A37FE87E031236A6C2A375D98C
:102E2800AA12360C75D9AA7B017A6379AC121521DE
:102E38001222AA7B017A6479831215211224BB120B
:102E4800203F121E9312296C12268C1221DF121BAE
:0F2E5800A61216B4120D66121A7675D9AA80BF8B
:100BA1006027645C000000000000000000000000FD
:100BB1000000000000000000000000000000000034
:0B0BC100000000000000000000000029
:0C38B9007B017A64795C740CF0E4FF225F
:103727007E007F277D007B017A64795C12054390D8
:0837370064A61238B902343C0B
:0E37DB00E4FF12377B9064AA1238B90234055D
:10326100FEE02FFFEC3EFEA3E02FFFEC3EFE22FA34
:103271001204207E00EB2FFFEE3AFE3395E0FDFCB9
:10328100221203FA7E009064A6E022FC9064AB0255
:0E32910004489064AB0204209064A70204205D
:050FAD009064A6EFF0C6
:100FB2009064AB120454000000007FA51238861220
:100FC2003293EF24A5FFE43EFEE43DFDE43C123201
:100FD2008C9064A6E0FF64016032EF6402602DEF42
:100FE20064036028EF64046023EF6405601EEF640D
:100FF200066019EF64096014EF640A600FEF641170
:10100200600AEF64126005EF641370207F0512110D
:101012008D12119FC0001232991232852405FDE40F
:1010220033CD2FFFEE3D12327B0211579064A6E0C2
:10103200FF64076014EF6408600FEF640C600AEF4E
:1010420064146005EF641070337F06123886906472
:10105200A6E0FF12117512119FC000C002C0031258
:10106200329978081232822406FDE433CD2FFBEE4A
:101072003DA3123270D003D0020211579064A6E051
:10108200FF640B6005EF640D70467F0712118D78C7
:10109200101203FA1211751211A9C000C002C00386
:1010A20012329978101232822407FDE433CD2FFBDD
:1010B200EE3DFAA312042078081203FA7E00EB2F09
:1010C200FBEE3A9064A7123270D003D0020211579D
:1010D2009064A6E0640E600302115F7F0B123886F3
:1010E2007F0E123886906468E0FF1238869064683A
:1010F200E0A3E0FF12388690646AE0FF123886901F
:10110200646BE0FF12388690646CE0FF12388690C0
:10111200646DE0FF12388690646EE0FF1211A9C080
:1011220000C001C002C003906468E02419FFE433E8
:10113200FEE0A3E07C002FFFEC3E90646A12326175
:10114200A3E02FFFEC3EA31232613395E0FDFCD009
:1011520003D002D001D00012028012328D123293DB
:10116200E4FEFD12328C1232931238867F017E0029
:031172000236A69C
:101175001238869064A712042078081203FA1238F0
:10118500869064A7120420221238869064A6E0FF98
:101195001238869064A7120420221238869064AB18
:0E11A50012043C221238869064AB12043C22E5
:050BCC0042654100003C
:1035270012383812384512385F12386C123879124F
:10353700382B12381E1238111238041237F778E276
:0B354700E254FCF278E0E24401F222C2
:10241300C3906542E094C8906541E0940050030284
:1024230024BAE4F0A3F090647D30A503F080037434
:1024330001F0D20430A207E490647EF08006906439
:102443007E7401F0D20530A107E490647FF080062A
:1024530090647F7401F0D206208607E4906479F0DB
:1024630080402087089064797401F08035209008BB
:102473009064797402F0802A20930890647974033D
:10248300F0801F2094089064797404F0801420B0C5
:10249300089064797405F0800920A7069064797424
:1024A30006F0D20120A00790648174018004E490B7
:0824B3006481F0A3F0D20A22BB
:100BD100C11A4464E5000000004464E9000000001B
:0E0BE1004464ED000000004464F100000000D8
:0C38C500E4FDFC02043C12043C02028002
:0D38930078D3E254F3F278D0E24420F22220
:1033CC009064ED1204209064E91238CB9064ED12F5
:1033DC0004489064E9120454000000009064F11257
:1033EC0004209064E51238CB9064F1120448906488
:0933FC00E5120454000000002257
:10203F009064A2120454000000009064A61204548D
:10204F00000000007FF47E019064ED1238C5C312CA
:10205F0003E95006201A0302210E7F2E7E0490649E
:10206F00F11238C512029BE47B03FAF9F81203262A
:10207F009064A6120448301A0C9064A21204540003
:10208F000000008027E47F24FEFDFC9064A612046C
:10209F003C12029BE47B0AFAF9F81203269064EDD6
:1020AF0012043C1203269064A21204489064DB12BF
:1020BF0004209064A61238CB9064DB12044890641D
:1020CF00F1120454000000009064ED12045400005B
:1020DF000000C21A9064A212042090647312044884
:1020EF00E47FE77E03FDFC90647312043CD312037C
:0F20FF00E9400A906473120454000003E7D2080A
:01210E0022AE
:100BEF004464F5000000004464F900000000446410
:0E0BFF00FD0000000044650100000000C11B65
:0638E400E4FDFC02043CBF
:0D38A00078C2E254CFF278C0E24404F22274
:103222009064FD1204209064F512043C1202809016
:1032320064FD1204489064F51204540000000090EA
:1032420065011204209064F912043C120280906518
:0F325200011204489064F9120454000000002295
:10296C009064A2120454000000007FF47E01906574
:10297C00011238E4C31203E95003301B6C301B0CFA
:10298C009064A212045400000000801C7FA67E0EEE
:10299C009064FD1238E412029B90650112043C1203
:1029AC0003269064A21204489064FD1204540000A3
:1029BC00000090650112045400000000C21BE47F6B
:1029CC00FF7EFFFDFC9064A212043CC31203E9409D
:1029DC000A9064A21204540000FFFF9064A2120437
:0929EC002090646F120448D20728
:0129F50022BF
:100C0D004464DF000000004464DB00000000426427
:100C1D00E300004464D3000000004464D7000000EA
:010C2D0000C6
:10355200120420EF2401FFE43EFEE43DFDE43CFCC6
:1035620022E4FDFC12043CC30203E912042012020D
:0B3572008DE47B64FAF9F8C30203E962
:101E93007F307E759064DF123563400D9064DF12EE
:101EA3000454000000001237DB7FE87E039064DBFC
:101EB30012356340617F007ECA7D9A7C3B90645CEF
:101EC300123566500C90645C12355290645C1204B7
:101ED300487F407E427D0F7C0090646012356650DF
:101EE30018906460123552906460120448906464E0
:101EF3001235529064641204489064DB120420C3C8
:101F0300EF94E8FFEE9403FEED9400FDEC9400FCE7
:101F13009064DB1204489064D312043C90645C1216
:101F2300356D500E90645C1204209064D312044803
:101F3300D20C9064D712043C90646012356D500E3D
:101F43009064601204209064D7120448D20DC390A9
:101F530064E4E094889064E3E09413400AE4F0A31B
:071F6300F0D20CD20DD20EEA
:011F6A002254
:100C2E00C100C101C102C103C104C105C106C10792
:100C3E00C108C109C10CC10DC10EC10FC110C11136
:100C4E00C112C113C11441651D0042651E00004151
:100C5E0065200041652100426522000042652400A6
:010C6E000085
:10304D00906479E0FFE4FCFDFE9064A702044890D3
:10305D006460E47B64FAF9F812042002032690649C
:10306D00A2E075F00FA422906477E0FEA3E0FFE4E8
:10307D00FCFD22E47BE87A03F9F890645C2290640D
:08308D00A2E0FF75F00FA42280
:1016B400E49064A2F0F09064A2E0FFC394034003BA
:1016C40002180174252FF582E43464F583E0700375
:1016D4000217F812306B24F3F582E43463F583E0E7
:1016E4001204EA17038017088B170D8C17178E172F
:1016F4001294179E9817A29917A69A000017A8D2B9
:10170400000217A8D20C0217A8D20D0217A8D20EF5
:101714000217A8D20FEF75F00FA424F5F582E43474
:1017240063F583E0FDEF75F00FA424F4F582E4344F
:1017340063F583E02DFEE433906468F0A3CEF012E9
:10174400308B24F6F582E43463F583E090646AF028
:10175400EF75F00FA424F7F582E43463F583E09089
:10176400646BF012308B24F8F582E43463F583E083
:1017740090646CF0EF75F00FA424F9F582E43463FF
:10178400F583E090646DF012306B24FAF582E43452
:1017940063F583E090646EF0800AD2128006D2135F
:1017A4008002D214906424E0D394004003E014F047
:1017B4009064A2E0FF2425F582E43464F583E4F028
:1017C400741E2FF582E43464F583E4F074212FF55C
:1017D40082E43464F583E4F0FE7F0FC006C007FDA5
:1017E40012306B24F1F9746335F0FA7B01D007D021
:0D17F400061205439064A2E004F00216BA4C
:0118010022C4
:060D6600200003020E381C
:100D6C009064A212045400000000C20090651DE0C3
:100D7C006003020E3804F012304D7F01120FAD905B
:100D8C00647A1230507F02120FAD90647B12305097
:100D9C007F03120FAD90647D1230507F04120FADA3
:100DAC0090647E1230507F05120FAD90647F12302C
:100DBC00507F06120FAD90646F1204201230567FD4
:100DCC0007120FAD9064731204201230567F081274
:100DDC000FAD90647C1230507F09120FAD12308031
:100DEC001230651230567F0B120FAD12305C123080
:100DFC00567F0C120FAD1230959064A7120454005C
:100E0C000000007F0E120FAD1230741230567F109E
:100E1C00120FAD9064801230507F11120FAD9064A0
:0C0E2C006412305F1230567F14120FADBC
:100E380030010AC20112304D7F01120FAD30020D90
:100E4800C20290647A1230507F02120FAD30040D46
:100E5800C20490647D1230507F04120FAD30050D2E
:100E6800C20590647E1230507F05120FAD30060D1A
:100E7800C20690647F1230507F06120FAD30071003
:100E8800C20790646F1204201230567F07120FAD0C
:100E9800300810C2089064731204201230567F087C
:100EA800120FAD30090DC20990647C1230507F09D1
:100EB800120FAD300A18C20A9064811230507F12A6
:100EC800120FAD9064821230507F13120FAD300CA8
:100ED80010C20C1230801230651230567F0B120F80
:100EE800AD300D0DC20D12305C1230567F0C120F52
:100EF800AD300E16C20EE47B64FAF9F89064641201
:100F080030651230567F14120FAD300F23C20F9088
:100F18006520E0701B78A67C647D017B017A64798A
:100F280068FE7F071201301231E39065207401F0EA
:100F380030100DC2101230741230567F10120FADDF
:100F480030110DC2119064801230507F11120FAD14
:100F5800301219C21290645C120454000000009010
:100F680064DB120454000000001237DB301319C28E
:100F780013906460120454000000009064DB1204B3
:100F880054000000001237DB301419C21490646456
:100F9800120454000000009064DB120454000000A6
:050FA800001237DB22FE
:100C6F005463BF00010153000204730003075300D4
:100C7F0004091D00050CED5E63D301010203040599
:100C8F0002060708090A030B0C0D0E0F04101112B0
:100C9F0013140515161718195363AC0A000000003A
:0E0CAF00033241000000140001FF3470000009
:0F004E00EC75F006A424D3F582E43463F5832225
:102F6D00E4FD9064A4F0A374FFF0ED25E025E024CA
:102F7D00C1F582E43463F583E0FAA3E0D39FEA9EC2
:102F8D00401CED25E025E024BFF582E43463F58394
:102F9D00E0FFA3E09064A4CFF0A3EFF080050DED6A
:0B2FAD00B405C79064A4E0FEA3E0FFA1
:012FB80022F6
:1035C800E4FEFC12004EE0B5071112004EE5822D14
:1035D800F582E43583F583E0FE80050CECB405E361
:0235E800AF062C
:0135EA0022BE
:10347000E49064A2F0A3F07F021233921235A5907B
:1034800064A2EEF0A3EFF09064A2E0FEA3E0FF12CE
:103490002F6D9064A2EEF0A3EFF09064A2E0A3E0A1
:0134A000FF2C
:0134A1002208
:1022AA009063BDE07003022363E0FFA3E0FD1235F3
:1022BA00C8E49063BDF0A3F0EF1204EA22E8012219
:1022CA00F404230006230C0923180B23240E2330BD
:1022DA0010233C13234815235418000023639064E9
:1022EA00A7120454000000CF806A9064A712045415
:1022FA00000100CF805E9064A7120454000000D24F
:10230A0080529064A7120454000100D2804690645F
:10231A00A7120454000000D1803A9064A712045412
:10232A00000100D1802E9064A71204540000007F9F
:10233A0080229064A71204540001007F80169064E2
:10234A00A7120454000000D0800A9064A712045413
:09235A00000100D07F0D120FAD4F
:012363002257
:100CBD0044642F0000000060286433000000000031
:100CCD000000000000000000000000000000000017
:100CDD000000000000000000000000000000000007
:0B0CED0000000041645B0041642E0029
:1037550025E02433F582E43464F58322FDFC12046C
:053765003CC30203E972
:042D3A00AB07AA0633
:102D3E00E49064A5F0A312045400000000AE02AFAC
:102D4E000390645BE0FD04F0ED123755EEF0A3EF57
:102D5E00F090645BE0C394144002E4F0E49064A548
:102D6E00F09064A612043C9064A5E0123755E0FE84
:102D7E00A3E0FFE4FCFD1202809064A612044890CA
:102D8E0064A5E004F0E0B414D8E47B14FAF9F890EA
:082D9E0064A6120420020326C2
:10378C00E4FDED123755EEF0A3EFF00DEDB414F2AD
:01379C00220A
:10312000C3EF940BEE940E40047DFF8034D3EF94F4
:10313000D0EE94074004E4FD8027C3EF94B6EE94EC
:073140000350047D64801AB6
:103147009064A5E4F0A3740AF0EF244AFFEE34FC80
:0A315700FE7D0A7C00120215AD0790
:02316100AF05B8
:013163002249
:10268C00E49064A2F0A3F0A3F07F0312339212271C
:0C269C0019122D3A9064A3EEF0A3EFF0A9
:1026A80090642EE070327FF47E01A31237614028D7
:1026B80090642F1204540000000012271912378C5E
:1026C80090653FE0FEA3E0FF9064A3EEF0A3EFF077
:0826D80012270390642E04F0A8
:1026E000E47F107E2790642F123761401590642F8D
:1026F000120454000000009064A3E0FEA3E0FF1267
:022700002703AD
:10270200221231209064A2EFF090647CF0E4906495
:10271200A3F0A3F0D20922121F6B90653FEEF0A343
:03272200EFF022B3
:100CF80044650500000000446509000000004465E3
:050D08000D00000000D9
:10368800EF2401FFE43EFEE43DFDE43CFC02044877
:0E369800E47FE27E04FDFC12043CC30203E961
:10210F007F04123392121F6B90653FEEF0FAA3EF2C
:10211F00F0FB90650D120420EF2408FFE43EFEE46F
:10212F003DFDE43CFC90650D120448D3EB9400EAAE
:10213F00940890650950151204209065091236888D
:10214F00906505120454000000008007120454002B
:10215F00000000906509123698401190650912042D
:10216F005400000000E4906480F0D211C3906540E9
:10217F00E094C790653FE0940B90650540151204FD
:10218F0020906505123688906509120454000000EE
:10219F000080071204540000000090650512369865
:1021AF004012906505120454000000009064807482
:1021BF0001F0D211E47FE87E03FDFC90650D12362D
:0F21CF009F400C90650D12045400000000D211C7
:0121DE0022DE
:100D0D0044651900000000446511000000004465B1
:050D1D001500000000BC
:1036F6007C0A7D50120516E47B0AFAF9F8120326B5
:09370600E4FB7A10F9F802032635
:0E37E9007E007C007D641202037D96020215B4
:1021DF00E49064A2F0A3F0A3F07F01123392906514
:1021EF001512043CC000C001C002C003121F6BE4F3
:1021FF00FCFDD003D002D001D000120280906515F3
:10220F00120448906511120420EF2401FFE43EFEF2
:10221F00E43DFDE43CFC906511120448E47FE87E48
:10222F0003FDFC90651912043CC31203E9406B9047
:10223F00651512042090651112043C120326906557
:10224F00151204489065151204201236F69064A2F8
:10225F00EEF0A3EFF09064A2A3E0FF1237E9A3EF33
:10226F00F0906515120454000000009065111204DF
:10227F0054000000009065191204540000000090F3
:10228F0064A4E090647AF09064A2E0FFA3E090640D
:0A229F0077CFF0A3EFF0D210D202C7
:0122A9002212
:100D22004C649601010203040502060708090A53EE
:100D320064830A000000000364AF00000014000294
:050D4200FF3004000079
:10364B00E4FFFDFCAB1BAA1AA919A818C30203E9D6
:0F365B00EE75F006A42496F582E43464F583221C
:103004009064A2120454000000009064A674FFF0BF
:10301400AF1BAE1AAD19AC189064A21204487E021C
:1030240012364B70079064A604F0800D7E041236AD
:103034004B70069064A67402F09064A212045400CB
:083044000000009064A6E0FF0B
:01304C002261
:1034D000E49064A2F0FE12365BE0B5071412365B8E
:1034E000E5822DF582E43583F583E09064A2F080D7
:0B34F000050EEEB402E09064A2E0FFC5
:0134FB0022AE
:1024BB00906494E07003022556E0FFA3E0FD123414
:1024CB00D0E4906494F0A3F0EF1204EA24F3012417
:1024DB00FF03250B04251705252306252F08253B70
:1024EB000925470A000025569064A71204540000E2
:1024FB00004780529064A7120454000100478046A5
:10250B009064A712045400020047803A9064A7120B
:10251B00045400030047802E9064A712045400005B
:10252B00004880229064A7120454000100488016D2
:10253B009064A712045400020048800A9064A7120A
:0B254B000454000300487F0D120FAD88
:012556002262
:100D470041601801426019000041601B0041601CAE
:0E0D57000041601D0041601E7F42601FFFFFD3
:10331900E4F561AE3EAD3DAC3C853F178E168D158B
:103329008C14787EE254FCF2E24514F218E515F2A9
:1033390018E516F218E517F2787FE254FBF2E25429
:0D334900FB4404F2E24401F27F010229F688
:1008CC009064A2EFF0E0FF24BDF582E43464F5837C
:1008DC00E004F074BF2FF582E43464F583E4F07423
:1008EC00BD2FF582E43464F583E0C39563500302B5
:1008FC000B1D9064A2E0FB24BDF582E43464F58307
:10090C00E4F090367B9364016003020ACE7F01FE13
:10091C00FDFC74C12BF582E43464F583E0F9F81224
:10092C00040DE51F4FF51FE51E4EF51EE51D4DF59B
:10093C001DE51C4CF51CAF1FAE1EAD1DFC78011245
:10094C0003FAEF5455FBEE5455FAED5455F9EC54AB
:10095C0055F8C3E51F9BF53BE51E9AF53AE51D9945
:10096C00F539E51C98F538AF3BAE3AAD39FC780259
:10097C001203FAEF5433FBEE5433FAED5433F9EC23
:10098C005433F8E53B5433FFE53A5433FEE5395420
:10099C0033FDE5385433FCEB2FF53BEA3EF53AE9F1
:1009AC003DF539E83CF538AF3BAE3AAD39FC78044F
:1009BC001203FAEF253BFFEE353AFEED3539FDEC2F
:1009CC003538FCEF540FF53BEE540FF53AED540F60
:1009DC00F539EC540FF538AF3BAE3AAD39FC78082D
:1009EC001203FAEF253BFFEE353AED3539FDEC35C8
:1009FC0038EFF53BE4F53AEDF539E4F538AE3AACC1
:100A0C003878101203FAEF253BFFEE353AFEEFF57E
:100A1C003BEEF53AE4F539F5389064A2E025E02494
:100A2C00CBF582E43464F583E0FEA3E0D39553EE7A
:100A3C00955240249064A2E0FF25E024CBF582E49B
:100A4C003464F583E0F552A3E0F55374C12FF582BD
:100A5C00E43464F583E0F56490367BE493FFE4FCC6
:100A6C00FDFEAB3BAA3AA939A838D31203E9405290
:100A7C00AF650565D3EF9403748094805003020B2B
:100A8C001DE4F565F51FF51EF51DF51C7F01FEFD3A
:100A9C00FCA964A80112040D8F1B8E1A8D198C18D9
:100AAC00E47F01FEFDFCA80112040D8F338E328D04
:100ABC00318C30E4F552F553756420122A7A4337A1
:100ACC000222E4F5657F01FEFDFC9064A2E0FB24AC
:100ADC00C1F582E43464F583E0F9F812040DE51BEA
:100AEC004FF51BE51A4EF51AE5194DF519E5184C9D
:100AFC00F518E47F01FEFDFCA80312040DE5334F4D
:100B0C00F533E5324EF532E5314DF531E5304CF546
:020B1C00302285
:10058D00E4F56690367FE493FFE566C39F40030272
:10059D0008CBE56625E02400F582E4346085828A87
:1005AD007F548F8B7E0E8E8C758903758889E566D9
:1005BD0025E02400F582E4346085828A8F8B758C6A
:1005CD0012758904758889E56625E02408F582E4AD
:1005DD003460F583E0FCA3E0C3950FEC950E502E2F
:1005ED00E56625E02414F582E43460F583E0FCA390
:1005FD00E0C39513EC95125015AF600560EF9402B2
:10060D0074809480400BE4F5605337FD8003E4F56E
:10061D0060E53730E125E56625E024CBF582E4344D
:10062D0064F583E4F0A3F0E56625E024CFF582E4DC
:10063D003464F583E4F0A3F00206DBE56625E024DF
:10064D0008F582E4346085828A8E8B758C0A7589F3
:10065D00267588892088FDE5F130E00875F107E4FD
:10066D00F50AF50BAE0AE50B7802C333CE33CED8BF
:10067D00F9FFE56625E024CBF582E43464F583EEDD
:10068D00F0A3EFF0E56625E02414F582E4346085EF
:10069D00828A758B12758C0A7589277588892088D1
:1006AD00FDE5F130E00875F107E4F50AF50BAE0A4A
:1006BD00E50B7802C333CE33CED8F9FFE56625E0DE
:1006CD0024CFF582E43464F583EEF0A3EFF0E56614
:1006DD0025E024C3F582E43464F583E0FEA3E078DD
:1006ED0002CEC313CE13D8F9F5518E50E56625E031
:1006FD0024CBF582E43464F583E0FEA3E0FF90366D
:10070D0077E493FC740193FDC3EF9DEE9C4017E5D8
:10071D006625E024CFF582E43464F583E0FEA3E0A2
:10072D00C39DEE9C50028068E56625E024CBF582E2
:10073D00E43464F583E0FEA3E0C39551EE9550409B
:10074D001CE56625E024CFF582E43464F583E0FEF4
:10075D00A3E0C39551EE955040030207E774BB2506
:10076D0066F582E43464F583E004F074BB2566F528
:10077D0082E43464F583E0FF90367CE493FEEFD39E
:10078D009E406474BB2566F582E43464F583E4F021
:10079D00E56625E02404F582E43460F583E0FEA3EC
:1007AD00E0FFE56625E02408F582E43460F583EE8C
:1007BD00F0A3EFF0E56625E02410F582E43460F552
:1007CD0083E0FEA3E0FFE56625E02414F582E43422
:1007DD0060F583EEF0A3EFF0800D74BB2566F58216
:1007ED00E43464F583E4F0E56625E02404F582E461
:1007FD00346085828AE56625E02400F582E4346064
:10080D0085828B758C0A7589207588CB2088FDE5CE
:10081D00F130E00875F107E4F50AF50BE56625E022
:10082D002404F582E4346085828A758B547F0E8FA3
:10083D008C7589237588897E0A8E8A8F8BE566254E
:10084D00E02404F582E4346085828CE4F5897588B2
:10085D0029E56625E02410F582E4346085828AE579
:10086D006625E02400F582E4346085828B8E8C75DC
:10087D0089207588CB2088FDE5F130E00875F107FA
:10088D00E4F50AF50BE56625E02410F582E4346005
:10089D0085828A758B547F0E8F8C75892475888916
:1008AD00758A0A8F8BE56625E02410F582E43460A5
:0F08BD0085828CE4F589758829056602059022ED
:1011B300E4F56690367FE493FFE566C39F40030240
:1011C300136BE56625E024C3F582E43464F583E01C
:1011D300FEA3E07802CEC313CE13D8F9F5518E5097
:1011E300E56625E024CBF582E43464F583E0FEA3D1
:1011F300E0D39551EE9550402EE56625E024CFF5DA
:1012030082E43464F583E0FEA3E0D39551EE955078
:10121300401574BF2566F582E43464F583E4F0AFCA
:10122300661208CC02136690367EE493FFC3E55141
:101233009FFFE5509400FED3EF9400EE940040022C
:1012430080047E007F00E56625E024CBF582E4344C
:1012530064F583E0FCA3E0C39FEC9E4003021359B3
:1012630090367EE493FFC3E5519FFFE5509400FE63
:10127300D3EF9400EE9400400280047E007F00E5EB
:101283006625E024CFF582E43464F583E0FCA3E033
:10129300C39FEC9E400302135974BD2566F582E497
:1012A3003464F583E4F074BF2566F582E43464F5B1
:1012B30083E004F074BF2566F582E43464F583E0CB
:1012C300C39563500302136674BF2566F582E43445
:1012D30064F583E4F07F01FEFDFC74C12566F582AD
:1012E300E43464F583E0F9F812040D1203B8E51F42
:1012F3005FF51FE51E5EF51EE51D5DF51DE51C5C36
:10130300F51CE47F01FEFDFCA966A80112040D1281
:1013130003B8E5335FF533E5325EF532E5315DF56C
:1013230031E5305CF530E47F01FEFDFC74C12566D8
:10133300F582E43464F583E0F9F812040D1203B87E
:10134300E51B5FF51BE51A5EF51AE5195DF519E571
:10135300185CF518800D74BF2566F582E43464F5D6
:0913630083E4F005660211B622D4
:102A7A00E4F56690367FE493FFE566C39F506EE502
:102A8A006625E024CBF582E43464F583E4F0A3F010
:102A9A00E56625E024CFF582E43464F583E4F0A307
:102AAA00F0E56625E02404F582E43460F583E0FE6F
:102ABA00A3E0FFE56625E02408F582E43460F583A7
:102ACA00EEF0A3EFF0E56625E02410F582E4346029
:102ADA00F583E0FEA3E0FFE56625E02414F582E431
:0E2AEA003460F583EEF0A3EFF00566808622DF
:10272500E4F56690367FE493FFE566C39F506790B6
:102735006018E0FF7E00C39410748094805053EFBE
:102745009408748094804025E56625E02400F58290
:10275500E43460F583E0FEA3E0FFE56625E02404AC
:10276500F582E43460F583EE8FF012026AE56625A2
:10277500E02400F582E43460F583E0FEA3E0FFE5A4
:102785006625E02410F582E43460F583EE8FF012BF
:10279500026A0566808D906018E0C3941074809479
:1027A5008040054337048006906018E004F07F01FF
:0327B5000229F600
:102AF800E4FFFEFDFCAB1BAA1AA919A818C3120310
:102B0800E9606390601AE004F07006906019E004D0
:102B1800F0903673E493FE740193FF4E602ED390C9
:102B2800601AE09F906019E09E4021E4F0A3F0F560
:102B38001FF51EF51DF51CF533F532F531F530F5A9
:102B48001BF51AF519F518C218022A7A903675E499
:102B580093FE740193FFD390601AE09F906019E090
:0D2B68009E400AD21822E4906019F0A3F0FC
:012B7500223D
:05136C009064B5EFF0F4
:10137100A3E0FCA3E0FDA3E0FEA3E0F52B8E2A8D04
:10138100298C287884E2F50A08E2F50B758A08753C
:101391008B28758C2475881D2088FDE4FFFEFDFCDB
:1013A100AB27AA26A925A824D31203D34006AC242F
:1013B100A8048013AF27AE26AD25AC241203C5AB1C
:1013C10007AA06A905A80490601FE0FEA3E0FFE4B8
:1013D100FCFDC31203D35041E4FFFEFDFCAB27AA81
:1013E10026A925A8241203D34006AF27AE26800BD9
:1013F100AF27AE26AD25AC241203C590601FEEF0D9
:10140100A3EFF09064B5E025E024C7F582E43464ED
:10141100F583E0A3E090601EF0903670E493FE74D3
:101421000193FFD3906020E09F90601FE09E501BCE
:101431009064B5E025E024C7F582E43464F583E0E7
:10144100A3E090601EF090601B8079E4FFFEFDFC3C
:10145100AB27AA26A925A824D31203D3403490642C
:10146100B5E0FF25E024C7F582E43464F583E0FCB0
:10147100A3E0D39400EC9400404DEF25E024C7F5A0
:1014810082E43464F58374FFF5F012026A90601C03
:1014910080329064B5E0FF25E024C7F582E434642E
:1014A100F583E0FCA3E0C3947FEC94005019EF2591
:1014B100E024C7F582E43464F583E475F001120297
:1014C1006A90601D7401F090601CE064017011A3CA
:1014D100E06401700B90601CF0A3F090601B04F0BD
:1014E10090601BE06401703590601EE0FF9064B570
:1014F100E025E024C7F582E43464F583E4F0A3EF4A
:10150100F074FF90601FF0A3F090601E747FF0E410
:0F15110090601CF0A3F090601BF07F01227F0020
:0115200022A8
:102DA600E49064B4F090366A12042C780112040D93
:102DB6009064B6120448AF6112136CEF602205618D
:102DC600E53730E4095337EF9064B47401F0903678
:102DD6007FE493FFE561C39F4006E4F56143371046
:102DE600C390366E7401939562E493940040089004
:102DF60064B4E064017005D217023319E4FF1229A6
:012E0600F6D5
:012E070022A8
:1029F600EF70607F01FEFDFC74C12561F582E43451
:102A060064F583E0F9F812040D8F178E168D158C78
:102A160014787EE254FCF2E24514F218E515F21839
:102A2600E516F218E517F2E56125E024C7F582E41C
:102A36003464F583E0A3E0547FFF7878E254804F56
:102A4600F2787FE254FBF2E254FB4404F2E24401E2
:102A5600F2801CE56125E024C7F582E43464F58341
:102A6600E0A3E0547FFF7878E254804FF2787FE26B
:042A76004402F22202
:10255700E49064A2F0A3F09064A2E0FEA3E0FFC3BE
:102567009488EE94035031EF248DFFEE34058F826B
:10257700F583E493FF9064A3E02421FD9064A2E037
:1025870034608D82F583EFF09064A3E004F070C7A8
:082597009064A2E004F080BF93
:10259F009063A97401F0A37460F0A37421F0E4F5C3
:1025AF0061F537F536F535F534C217C218F51FF555
:1025BF001EF51DF51CF533F532F531F530F51BF52C
:1025CF001AF519F51890367993FF90367DE493FE3E
:1025DF00A807088002C333D8FCF563756420E4FFB5
:0325EF000229F6C8
:102B76007884E2F50A08E2F50BAE0A7803CEC313B1
:102B8600CE13D8F97802C333CE33CED8F9FFE56138
:102B960025E02400F582E43460F583EEF0A3EFF03F
:102BA60020170F903672E4937005D217023319027C
:102BB6002DA6056190367FE493FFE561C39F401F14
:102BC600787FE254FBF2E254FB4404F2E24401F261
:102BD600E4F561E53720E203022725433701227F2A
:052BE600011229F62296
:0538EA000562022AF84E
:10360C00E53730E01A9063A9A3E0FAA3E0F91205BC
:10361C00101211B3E4F5617F011229F65337FE2223
:10260C00022E08E493A3F8E493A34003F68001F2AE
:10261C0008DFF48029E493A3F85407240CC8C333CF
:10262C00C4540F4420C8834004F456800146F6DF9E
:10263C00E4800B0102040810204080900B1EE47E05
:10264C00019360BCA3FF543F30E509541FFEE49393
:10265C00A360010ECF54C025E060A840B8E493A35A
:10266C00FAE493A3F8E493A3C8C582C8CAC583CA85
:10267C00F0A3C8C582C8CAC583CADFE9DEE780BE3D
:010D6500008D
:10006000E709F608DFFA8046E709F208DFFA803E82
:1000700088828C83E709F0A3DFFA8032E309F6086F
:10008000DFFA8078E309F208DFFA807088828C83D7
:10009000E309F0A3DFFA806489828A83E0A3F6088B
:1000A000DFFA805889828A83E0A3F208DFFA804C65
:1000B00080D280FA80C680D4806980F2803380103C
:1000C00080A680EA809A80A880DA80E280CA8033A5
:1000D00089828A83ECFAE493A3C8C582C8CCC5831D
:1000E000CCF0A3C8C582C8CCC583CCDFE9DEE780ED
:1000F0000D89828A83E493A3F608DFF9ECFAA9F06C
:10010000EDFB2289828A83ECFAE0A3C8C582C8CCC1
:10011000C583CCF0A3C8C582C8CCC583CCDFEADEDA
:10012000E880DB89828A83E493A3F208DFF980CC3C
:1001300088F0EF60010E4E60C388F0ED2402B40435
:100140000050B9F582EB2402B4040050AF232345DC
:0601500082239000B07351
:10015600BB010689828A83E0225002E722BBFE02A7
:09016600E32289828A83E49322DA
:10016F00BB010CE58229F582E5833AF583E0225045
:10017F0006E92582F8E622BBFE06E92582F8E2228F
:0D018F00E58229F582E5833AF583E49322A9
:10019C00BB010FF8E58229F582E5833AF583E02867
:1001AC00F0225009C58229F8E58226F622BBFE0909
:1001BC00C58229F8E22582F222F8EA2583F583E943
:0301CC0093282253
:1001CF00BB010689828A83F0225002F722BBFE010F
:0201DF00F32209
:1001E100F8BB010DE58229F582E5833AF583E8F054
:1001F100225006E92582C8F622BBFE05E92582C800
:02020100F222E7
:10020300EF8DF0A4A8F0CF8CF0A428CE8DF0A42E0F
:02021300FE22C9
:10021500BC000BBE0029EF8DF084FFADF022E4CCCD
:10022500F875F008EF2FFFEE33FEEC33FCEE9DEC96
:10023500984005FCEE9DFE0FD5F0E9E4CEFD22EDDC
:10024500F8F5F0EE8420D21CFEADF075F008EF2F26
:10025500FFED33FD4007985006D5F0F222C398FD17
:050265000FD5F0EA22B4
:10026A00C5F0F8A3E028F0C5F0F8E582158270021F
:06027A001583E038F022BC
:0D028000EF2BFFEE3AFEED39FDEC38FC22CD
:0E028D00C3EF9BFFEE9AFEED99FDEC98FC226C
:10029B00E88FF0A4CC8BF0A42CFCE98EF0A42CFC02
:1002AB008AF0EDA42CFCEA8EF0A4CDA8F08BF0A480
:1002BB002DCC3825F0FDE98FF0A42CCD35F0FCEBDF
:1002CB008EF0A4FEA9F0EB8FF0A4CFC5F02ECD39A4
:0F02DB00FEE43CFCEAA42DCE35F0FDE43CFC2211
:1002EA0075F008758200EF2FFFEE33FECD33CDCCCB
:1002FA0033CCC58233C5829BED9AEC99E58298404E
:10030A000CF582EE9BFEED9AFDEC99FC0FD5F0D62A
:10031A00E4CEFBE4CDFAE4CCF9A88222B800C1B954
:10032A000059BA002DEC8BF084CFCECDFCE5F0CB92
:10033A00F97818EF2FFFEE33FEED33FDEC33FCEBCB
:10034A0033FB10D703994004EB99FB0FD8E5E4F986
:10035A00FA227818EF2FFFEE33FEED33FDEC33FC73
:10036A00C933C910D7059BE99A4007EC9BFCE99A67
:10037A00F90FD8E0E4C9FAE4CCFB2275F010EF2FAC
:10038A00FFEE33FEED33FDCC33CCC833C810D707AC
:10039A009BEC9AE899400AED9BFDEC9AFCE899F8E7
:0E03AA000FD5F0DAE4CDFBE4CCFAE4C8F9227A
:0D03B800CFF4CFCEF4CECDF4CDCCF4CC22DA
:0E03C500C3E49FFFE49EFEE49DFDE49CFC2249
:1003D300EB9FF5F0EA9E42F0E99D42F0EC6480C8A1
:0603E30064809845F02241
:1003E900EB9FF5F0EA9E42F0E99D42F0E89C45F06A
:0103F90022E1
:1003FA00E8600FECC313FCED13FDEE13FEEF13FFE1
:03040A00D8F12204
:10040D00E8600FEFC333FFEE33FEED33FDEC33FC4D
:03041D00D8F122F1
:0C042000E0FCA3E0FDA3E0FEA3E0FF224F
:10042C00E493FC740193FD740293FE740393FF2216
:0C043C00E0F8A3E0F9A3E0FAA3E0FB2243
:0C044800ECF0A3EDF0A3EEF0A3EFF02227
:10045400A8828583F0D083D08212046B12046B12BD
:10046400046B12046BE473E493A3C583C5F0C583E2
:10047400C8C582C8F0A3C583C5F0C583C8C582C8F2
:010484002255
:0C048500A42582F582E5F03583F5832282
:09049100E0FBA3E0FAA3E0F9226C
:10049A00F8E0FBA3A3E0F925F0F0E58215827002EB
:0704AA001583E0FA38F0228F
:0904B100EBF0A3EAF0A3E9F0224C
:1004BA00BB010DE58229F582E5833AF583020491B1
:1004CA005007E92582F802056FBBFE07E92582F885
:1004DA00020578E58229F582E5833AF583020581EA
:1004EA00D083D082F8E4937012740193700DA3A3A1
:1004FA0093F8740193F5828883E4737402936860B5
:06050A00EFA3A3A380DFB4
:060510008A838982E47376
:10051600EC8EF0A4CCC5F0CCCDF8EFA4CEC5F02D72
:10052600FDE43CFCE8A42EC8C5F03DFDE43CFCEF30
:0D053600A4FFE5F028FEE43DFDE43CFC22BE
:10054300EF4E6012EF60010EEDBB010B89828A83CF
:10055300F0A3DFFCDEFA2289F05007F709DFFCA9DC
:0C056300F022BBFEFCF309DFFCA9F02233
:09056F00E6FB08E6FA08E6F922B1
:09057800E2FB08E2FA08E2F922B4
:0C058100E493FB740193FA740293F922D6
:00000001FF
