:0300000002295E74
:10295E00787FE4F6D8FD9060007F007E07E4F0A358
:0A296E00DFFCDEFA7581660229B372
:0C000300000000000000000000000000F1
:0B3CA200EF1FAC0670011E4C70F622F4
:103A8000AB07AA06EB1BAE0270011A4E600C7FAAB0
:0B3A90007E05123CA275D9AA80EA2234
:10211C00907120E04480F07F057E00123CA2E4FF29
:10212C00FE123A8075A75575AC5C9071327450F004
:10213C009071307403F0907136742FF090715C7460
:10214C0003F090715BE054FCF07F18EF2466FDE423
:10215C0034718D82F583E4F00FEFB433EE904011BF
:10216C00E4935407FF90711CE054F84FF090401723
:10217C00E493547FFF90711DE054804FF090401019
:10218C00E493FF5401C43333335480FE907123E045
:10219C00547F4EF0EFC313543F4440FFA3E05480F0
:1021AC004FF0904012E493FF540FFE907146E054B0
:1021BC00F04EF0EFC4540FFF90714FE054F04FF01D
:1021CC00904013E493543FFF907140E054C04FF0A3
:1021DC00904014E493907126F0904015E493907124
:0B21EC0028F0904016E49390712AF058
:0121F70022C5
:103A4400000009C4006400C80101F4004B000A002E
:0E3A540000010F04050200090064000A00646E
:103AD000E2FE74D82FF582E43464F583E02224FCFE
:083AE00025E0FDF87403082243
:101B6700E4FF123AD2C394085058123AD2C39404ED
:101B7700502878C2C000123AD0123AE08002C3332C
:101B8700D8FCF45ED000F278C2C000123AD0123A04
:101B9700E08002C333D8FC021C9578C3C000123A18
:101BA700D0123ADE8002C333D8FCF45ED000F2785C
:101BB700C3C000123AD0123ADE8002C333D8FC0207
:101BC7001C95123AD2C394084068123AD2C39410B3
:101BD7005060123AD2C3940C502C78D2C000123AFB
:101BE700D024F8123AE08002C333D8FCF45ED00068
:101BF700F278D2C000123AD024F8123AE08002C339
:101C070033D8FC021C9578D3C000123AD024F412C2
:101C17003AE08002C333D8FCF45ED000F278D3C038
:101C270000123AD024F4123AE08002C333D8FC02FF
:101C37001C95123AD2C39414502B78E2C000123A82
:101C4700D024F0123AE08002C333D8FCF45ED0000F
:101C5700F278E2C000123AD024F0123AE08002C3D0
:101C670033D8FC802978E3C000123AD024EC123A2A
:101C7700E08002C333D8FCF45ED000F278E3C00002
:101C8700123AD024EC123AE08002C333D8FC4ED08B
:0B1C970000F20FEF64026003021B6903
:011CA200221F
:03005D000234C0AA
:1034C000C0E0C0F0C083C082C0D075D000C000C0D2
:1034D00001C002C003C004C005C006C0077881E275
:1034E00030E607E24440F2122EE2D007D006D005C3
:1034F000D004D003D002D001D000D0D0D082D0836D
:05350000D0F0D0E03224
:10334C00D2AF43AB0843B6C0907132E04440F04377
:10335C00AB087877743FF208744BF2787A7430F2D9
:10336C00788914F27871744FF2187427F2787274A9
:10337C00A8F2087410F208E4F208F208F2787E74ED
:0F338C00D0F2087404F208741EF2087402F222E0
:102B2400E4FBEB25E025E0245AF582E4343AF5830E
:102B3400740193FF74D82BF582E43464F583EFF0C9
:102B4400EB25E025E0245CF582E4343AF583E49354
:102B5400FE740193FFEB25E024DAF582E43464F596
:102B640083EEF0A3EFF0EB25E024DEF582E4346499
:102B7400F583E4F0A37441F0E47F01FEFDFC74D816
:102B84002B123AD5F9F812040DE53F4FFFE53E4EFE
:102B9400FEE53D4DFDE53C4C8F3F8E3E8D3DF53CC5
:102BA4000BEB64026003022B26121B671228C3027C
:022BB400334CA0
:103B5E0078C2E254BFF2E24440F2907181E4F02266
:0D3BC80078C3E254CFF278C0E24440F2220C
:0D3BD50078C3E2543FF278C0E24480F2224F
:0D3BE20078D2E254FCF278D0E24401F222E5
:0D3BEF0078D2E2543FF278D0E24408F2228E
:0D3BFC0078D3E254FCF278D0E24410F222BB
:0D3C090078E2E254F3F278E0E24402F222A5
:0D3C160078E2E254CFF278E0E24404F222BA
:0D3C230078E2E2543FF278E0E24408F22239
:0D3C300078E3E254F3F278E0E24420F2225F
:0D3C3D0078E3E2543FF278E0E24480F222A6
:0D3C4A0078F2E254FCF278F0E24401F2223C
:070E830044600C00000000B8
:083CB8007890E2541FF2E222B1
:10373B00E5B154F342B153A8DFD2AF7892E4F2086B
:10374B00F27890E254E3F2E2441CF2E254FCF2E22F
:10375B004401F208E2547FF2E24420F278957401BE
:0C376B00F2187476F2123CB844A0F2226E
:0C3C7E00123CB844C0F243A820D2AF2290
:103B6E00123CB844A0F27892E4F208F253A8DF2295
:03001E000230A904
:1030A900C0E0C0F0C083C082C0D075D000C000C0ED
:1030B90001C002C003C004C005C006C0077891E280
:1030C90030E72FE24480F274FFFFFEFDFC90600CB4
:1030D90012043CC31203E9501990600C120420EF4A
:1030E9002401FFE43EFEE43DFDE43CFC90600C124B
:1030F9000448D007D006D005D004D003D002D001AF
:0D310900D000D0D0D082D083D0F0D0E03202
:0E0E8A004465410000000044653D000000008A
:1033E700C374FF9BFF74FF9AFE74FF99FD74FF98E7
:1033F700FC12043CC30203E9120420EF2401FFE49A
:103407003EFEE43DFDE43CFC2212042090643202BF
:10341700043CE4FCFD7BFF7AFFF9F8D30203D39069
:0B3427006432020420EE8FF002026A03
:10368400E5B154CF42B153A8BFD2AF75D102789CF3
:10369400E254E3F2E2441CF2E254FCF2E24401F2AA
:1036A40008E2547FF2E24420F278A17401F2187423
:0D36B40076F2789CE2541FF2E244A0F2226C
:103B7E00789CE2541FF2E244C0F243A840D2AF2236
:101DDB0090654112042090642E12044890643212D4
:101DEB0004540000000090654112045400000000F0
:101DFB0090653D12043C90642E12042012028D90CB
:101E0B00643212044890653D1204540000000090A7
:101E1B006558E0FEA3E0FF123419400912342690F6
:101E2B00655812342C1234139064F61233E7500FAA
:101E3B009064F61234101202809064F61204481269
:101E4B00341390645F1233E7500F90645F123410B9
:101E5B0012028090645F120448906534E0B4012054
:101E6B0012342690653512342CC3906536E094C439
:101E7B00906535E094094008E4F0A3F0906534F0E8
:101E8B00906538E0B4012012342690653B12342C57
:101E9B00C390653CE0946490653BE094004008E49B
:101EAB00F0A3F0906538F0906537E0B40120123460
:101EBB002690653912342CC390653AE09464906592
:101ECB0039E094004008E4F0A3F0906537F090649B
:101EDB00FAE0FEA3E0FF123419400A9064FAE475AD
:101EEB00F00112026A74FFFFFEFDFC9065301233A5
:0F1EFB00F8500C9065301233FF90653012044898
:011F0A0022B4
:03002100022F5754
:102F5700C0E0C0F0C083C082C0D075D000C000C040
:102F670001C002C003C004C005C006C007789DE2C7
:102F770030E736E24480F274FFFFFEFDFC906541C6
:102F87001233F8500C9065411233FF9065411204DB
:102F9700489063ADE0C394FF5003E004F09064B43D
:102FA700E0C394FF5003E004F0D007D006D005D06B
:102FB70004D003D002D001D000D0D0D082D083D0AB
:042FC700F0D0E03234
:0D0E9800C11EC11F416550004265510000A0
:103A0600120420EF2401FFE43EFEE43DFDE43CFC0D
:0F3A160022E47F587E02FDFC12043CC30203E948
:10354900E5B254FC42B253A9FED2AF75D1049071D1
:1035590000E054E3F0E0F0E054FCF0E04401F090C6
:1035690071057409F0907104745FF0907100E05472
:103579001FF0E044A0F0A3E0547FF0E04420F022E3
:103B2B00907100E0541FF0E044C0F043A901D2AF04
:013B3B002267
:0300240002202F88
:10202F00C0E0C0F0C083C082C0D075D000C000C077
:0D203F0001C002C003C004C005C006C007F8
:0E204C00907101E020E703022101E04480F0E2
:10205A00906550E004F0E0C394144025E4F09065E4
:10206A0010123A06906510120448906510123A1739
:10207A00400F20240C90651012045400000000D276
:01208A002431
:10208B00308216201E0F90650C123A0690650C12CA
:0B209B000448123607D21E8002C21E4D
:1020A600906551E475F00112026AC3906552E0949E
:1020B60014906551E094004027E4F0A3F090650089
:1020C600123A06906500120448906500123A1740CD
:1020D6000F20230C90650012045400000000D22348
:1020E600309516201F0F9064FC123A069064FC127D
:0B20F6000448123777D21F8002C21F7F
:10210100D007D006D005D004D003D002D001D00032
:0B211100D0D0D082D083D0F0D0E032DC
:100EA500602D63F10000000000000000000000005C
:100EB500000000000000000000000000000000002D
:100EC500000000000000000000000000000000001D
:100ED5000043641E000000436421000000436425B4
:100EE500000000C1224164280041642900416424B6
:080EF5000044642A0000000023
:1032A10090642A12042074212FF582E43464F5839A
:1032B1002290642EE0FF241EF582E43464F583221B
:1032C1007D00EF75F00FA424F1F9746335F0FA7BFA
:1032D1000122E5822EF582E43583F58322E4F09024
:1032E1006424E014F090000F22906429E4F09064CB
:0932F10028F02290642A02043C3A
:0E3B9E00906456EFF0123C57906456E0FF2200
:1038B20078E3E254F3F2E24404F2907193E04404B8
:1038C200F018E254CFF2907175E04413F043AA204D
:0C38D200D2AF75D60175D59F75D21122BA
:03004B00021CA3F1
:101CA300C0E0C0F0C083C082C0D075D000C000C007
:0D1CB30001C002C003C004C005C006C00788
:101CC00090645DE4F0E5D420E503021DC0E5D7F0A3
:101CD000202204E0B4A509906424E0C394034003E7
:101CE000021DB390645DE0B4A515D2221232EA124F
:101CF0003B6E90600C12045400000000123C7E9079
:101D00006429E0B4010890645DE0906428F0123228
:101D1000A1E06003021DC090645DE0FF1232F49008
:101D200063F175F00FEB120485EA75F00FA42583BB
:101D3000F583C083C082906429E0FE04F0D082D095
:101D4000831232D3EFF090600C12045400000000B4
:101D5000906428E0606AE0FFA3E06F7063906428FD
:101D6000E0FB90642A120420741E2F1232B9EBF0AB
:101D7000C2221232EA1232A17401F0906424E0040B
:101D8000F090642A120420EF2401FFE43EFEE43DBB
:101D9000FDE43CFC90642A120448E47F03FEFDFC51
:101DA0001232F4C31203E9400A90642A1204540068
:101DB000000000123B6E90600C1204540000000002
:101DC000D007D006D005D004D003D002D001D00077
:0B1DD000D0D0D082D083D0F0D0E03221
:0D3C5700E5D430E4FB8FD7E5D430E4FB2248
:060027009065531204B1C4
:10002D00E4FEEEC39D50159065531204918E8275BA
:0C003D00830012016FFF123C570E80E69A
:010049002294
:101F0B00E490642EF0A3F0C2157F0AFEFDFC9060F6
:101F1B000C12043CD31203E94019123B6E90600C77
:101F2B0012045400000000E4906429F0906428F03F
:101F3B00C22222E490642EF090642EE0FFC394033F
:101F4B00400302202E74212F1232AAE070030220CC
:101F5B002590642EE075F00FA424F2F582E434632F
:101F6B00F583E0FE741E2F1232B9E06E601A906496
:101F7B002EE024211232AA1232DEC083C08212322A
:081F8B00C1D007D00602054396
:101F9300E4906430F090642FF0A3F01232B2E014B6
:101FA300FE906430E0FDC39E5022EF75F00FA42431
:101FB300F1F582E43463F583E5822D1232D6E0FF36
:101FC30090642FE02FF0A3E004F080CF90642FE023
:101FD300F01232B2E0FEEF75F00FA424F0F582E4C4
:101FE3003463F5831232D3E0FF90642FE06F600215
:021FF300D21505
:101FF50030151DC21590642EE0FF24211232AA125D
:1020050032DEC083C0821232C1D007D0061205432A
:1020150090642EE02425F582E43464F5837401F0A0
:0920250090642EE004F0021F4358
:01202E00228F
:050EFD004265560000F3
:103A9B00907123E05498F0E0441EF02212028D90B6
:0B3AAB006433120448906433020420CE
:1039A30078C3E24403F2E2440CF218E2440CF278E6
:1039B3006AE24478F27591FF123A9B907122740780
:0239C300F022F0
:1037B000EF24FE601714601C2402701E907123E039
:1037C00054D8F0E0445AF0759904800E123A9B7573
:1037D00099058006123A9B7599017869E24448F28E
:0737E0007F017E00023A8028
:10395D007869E24401F2786BE230E1FA7402F2AF79
:10396D0093EF75F010A4FFAEF0E594C4540FFDEF86
:03397D004DFF22D9
:1022D000E4906431F0A3F0A312045400000000E481
:1022E000906437F0A3F074FFA3F0A3F0E4A3F0F040
:1022F00012395D906431EEF0A3EFF090643BE0C3DF
:1023000094024054906437E0FEA3E0FF906431E013
:10231000FCA3E0FDD39FEC9E4008906437ECF0A353
:10232000EDF0906439E0FEA3E0FFC3ED9FEC9E501A
:102330000F906431E0FFA3E0906439CFF0A3EFF099
:1023400090643312043C906431E0FEA3E0FFE4FCAF
:10235000FD120280A312044890643BE004F0E0C345
:102360009414408C123AB0C006C007906437E0FE67
:10237000A3E0FBAA06E4F9F8D007D006123AA7C0FA
:1023800006C007906439E0FEA3E0FBAA06E4F8D09B
:1023900007D006123AA778041203FA906431EEF0DF
:0323A000A3EFF0B8
:0123A3002217
:103B3C0075AF3F8FAF75AEB975A402E5A530E1FB4B
:013B4C002256
:1037E7009064331204B175AF3F8FAF906436E0C376
:1037F70094014022E5A530E0FB906433E475F001C5
:1038070012049A120156F5A675AEB975A401906413
:0738170036E014F080D52219
:10381E0090642F1204B1906432E06027AE070FEE71
:10382E002400FDE4343F8D82F583E493FE90642FF3
:10383E00E475F00112049AEE1201CF906432E01496
:04384E00F080D32211
:10388400A3F078E3E254FCF2E24401F2907192E492
:10389400F02290643FE004F0E0C3940822C2A4C282
:0E38A40096D2977F04FE22FFE0FEA8070822BE
:10324300E4FF78D3E2543FF2E24440F290718DE41C
:10325300F0E254CFF2E24410F290718CE4F01238B1
:1032630086C297C29612000FEF7030FD7F8C122634
:10327300BE7D017F881226BE7D017F861226BE7D1C
:10328300017F8A1226BEE4FD7F821226BEE4FD7F03
:0E329300841226BEE4FD7F801226BE02347A2D
:103AB600E4FDEE25E0FEEF30E004EE4401FEEFC348
:093AC60013FF0DEDB408EBAF068F
:013ACF0022D4
:02303B00AC07E0
:10303D00E4906433F0AF05123AB6EC64816019EC9C
:10304D0064836014EC6485600FEC6487600AEC6443
:08305D00896005EC648D7043ED
:10306500E4906434F0A3F0EC64816004ECB483066E
:10307500EF547FFF8017EC64856004ECB48706EF9E
:10308500543FFF8008ECB48904EF541FFFEFC4548C
:103095000FFE906434F0EF540FFFA3F0EE75F00AC5
:0330A500A42FFF56
:0130A8002205
:052BB600906433EFF014
:102BBB00E4A3F01238841238A1123CA2E4906435DD
:102BCB00F0122C2A906435E09064331238AB8002FB
:102BDB00C313D8FC30E004D2A48002C2A47F047ECD
:102BEB0000123CA2122C3440D878E3E254FCF27869
:102BFB00E0E24410F2E4906435F0906434E025E0B8
:102C0B00F0122C2A30A407906434E04401F0122C0B
:0E2C1B003440E7C296C297C2A4906434E0FF32
:102C290022C2967F047E00123CA222D2967F047EA5
:0F2C390000123CA2906435E004F0E0C39408223E
:053B0000906432EFF0BB
:103B0500E4FE122BB6AE07906432E0FFAD0602303C
:013B15003B74
:082C480090643DEFF0A3EDF0F4
:102C5000E41238841238A1123CA2E490643FF012CE
:102C60002CCE90643FE090643D1238AB8002C313D9
:102C7000D8FC30E004D2A48002C2A4122CBD1238C9
:102C80009640DCE490643FF0122CCE90643FE0FF6D
:102C900090643EE0FEA807088002C313D8FC30E031
:102CA00004D2A48002C2A4122CBD12389640D9C20C
:0C2CB000967F047E00123CA2C297C2A4D2
:102CBC00227F047E00123CA2D2967F047E00123C3E
:0C2CCC00A222C2967F047E00123CA222CD
:0E000F007F80122BB6EF30E0037F00227F01CE
:01001D0022C0
:0526BE00906439EFF00B
:1026C300A3EDF0EF6480601D906439E0FF648260E5
:1026D30014EF6484600FEF6486600AEF648860051A
:0526E300EF648C706C37
:1026E800E490643BF0A3F090643AE0FFC3940A409E
:1026F80007EF75F00A84A3F090643AE075F00A8455
:10270800AFF090643CEFF090643BE0FEC454F04FAF
:1027180090643AF0906439E0FF64806004EFB4821A
:102728000990643AE0547FF08022906439E0FF64B5
:10273800846004EFB4860990643AE0543FF0800C5A
:0C274800906439E0B48805A3E0541FF051
:10275400E4FD7F8E122C48906439E0FFA3E0FD1263
:092764002C487D807F8E022C4878
:1035890090654BE0FD7F801226BE90654AE0FD7F85
:10359900821226BE906549E0FD7F841226BE9065A1
:1035A90048E0FD7F861226BE906547E0FD7F8812C0
:0F35B90026BE906545A3E02430FD7F8C0226BE20
:1035C800906432A3E02430FD7F8C1226BE906434D0
:1035D800E0FD7F881226BE906435E0FD7F861226C6
:1035E800BE906436E0FD7F841226BE906437E0FD0D
:0F35F8007F821226BE906438E0FD7F800226BEDF
:10347A007F81123B0090649EEFF07F83123B0090A5
:10348A00649DEFF07F85123B0090649CEFF07F878C
:10349A00123B0090649BEFF07F89123B0090649A84
:1034AA00EFF07F8D123B00EF24D0FEE434079064E6
:0634BA0098F0A3CEF02201
:040F020041654C00F9
:1039C50090642EF090654D02049190000612016FEF
:1039D500FE90000802016F9000091201E190000CB1
:0139E50022BF
:10188600E490642EF07FFFA374FFF090654D120480
:10189600B190000112016FFE120156FDEEC39D507C
:1018A60003021A181239C9900001E41201E19000EE
:1018B6000E1204BA120510EFF4600890654C7423FA
:1018C600F0800990654CE06003E014F01239C9908D
:1018D600000312016F6F601590000512016F600D15
:1018E600900004E41201E1900003021A149000052E
:1018F60012016FFE90000412016FC39E500B123945
:10190600C9900004740102019C1239C990000212A8
:10191600016F6F6048EFF4701C1239CFC39E400A06
:1019260074051239C590000280611239C990000A07
:101936007401021A0B1239C990000874011239DFBA
:1019460012016F6F90654D600C120491740112398B
:10195600DCEF021A0B120491900009803DEFF4703F
:10196600411239C990000912016FD3940050030245
:101976001A0E90000B12016FFE90000A12016FD32F
:101986009E401174011239C590000C12016F9064CB
:101996002FF080541239C990000A740112019C027A
:1019A6001A0E1239C91239D6C394FF50089000088E
:1019B600740112019C1239CFB5060890642E740387
:1019C600F080201239C99000071239D26E70399012
:1019D600642E74041239C890000612016F90000834
:1019E6001201E190642FEFF01239C9E41239DC7468
:1019F600FF1201E190642FE09000111201E1906462
:101A06002EE09000121201E11239C9900002EF1285
:021A160001E1EC
:011A180022AB
:0B3CAD007379732072657365740A0060
:1036C10078E2E2543FF2E24440F2907191E0F0126C
:1036D1003AE812373B1238B2123935123684123CAD
:1036E10064123C711239A3122B2412324312354950
:0D36F100123B7E123B2B7F017E00023A80CF
:1031E40012211C75D95590715EE054FEF075D9BB5F
:1031F4001236C1D2A37FE87E03123A80C2A37BFFBA
:103204007A3C79AD1205F87B017A6379AC121886A1
:103214001226047B017A6479B312188612276D1280
:1032240023A41221F8122CD81229F8122544121FB3
:0F3234000B121A191210CB121DDB75D9AA80C804
:100F06006027648C00000000000000000000000064
:100F160000000000000000000000000000000000CB
:0B0F26000000000000000000000000C0
:0C3C8A007B017A64798C740CF0E4FF225A
:103AE8007E007F277D007B017A64798C12054390E4
:083AF8006432123C8A02381E00
:0E3BAC00E4FF123B3C906436123C8A0237E77D
:10364600FEE02FFFEC3EFEA3E02FFFEC3EFE22FA4B
:103656001204207E00EB2FFFEE3AFE3395E0FDFCD0
:10366600221203FA7E00906432E022FC9064370254
:0E36760004489064370204209064330204205C
:05131200906432EFF0D1
:10131700906437120454000000007FA5123C571256
:101327003678EF24A5FFE43EFEE43DFDE43C1236AB
:1013370071906432E0FF64016032EF6402602DEF68
:1013470064036028EF64046023EF6405601EEF64A4
:10135700066019EF64096014EF640A600FEF641107
:10136700600AEF64126005EF641370207F051214A2
:10137700F2121504C00012367E12366A2405FDE407
:1013870033CD2FFFEE3D1236600214BC906432E07D
:10139700FF64076014EF6408600FEF640C600AEFE6
:1013A70064146005EF641070337F06123C57906435
:1013B70032E0FF1214DA121504C000C002C0031293
:1013C700367E78081236672406FDE433CD2FFBEE10
:1013D7003DA3123655D003D0020214BC906432E00C
:1013E700FF640B6005EF640D70467F071214F278F7
:1013F700101203FA1214DA12150EC000C002C0034D
:1014070012367E78101236672407FDE433CD2FFBA2
:10141700EE3DFAA312042078081203FA7E00EB2FA0
:10142700FBEE3A906433123655D003D0020214BC57
:10143700906432E0640E60030214C47F0B123C57C1
:101447007F0E123C57906498E0FF123C57906498C7
:10145700E0A3E0FF123C5790649AE0FF123C5790DC
:10146700649BE0FF123C5790649CE0FF123C57904E
:10147700649DE0FF123C5790649EE0FF12150EC07A
:1014870000C001C002C003906498E02419FFE43350
:10149700FEE0A3E07C002FFFEC3E90649A123646F4
:1014A700A3E02FFFEC3EA31236463395E0FDFCD0B8
:1014B70003D002D001D000120280123672123678A1
:1014C700E4FEFD123671123678123C577F017E001A
:0314D700023A8056
:1014DA00123C5790643312042078081203FA123C23
:1014EA005790643312042022123C57906432E0FF72
:1014FA00123C5790643312042022123C57906437EE
:0E150A0012043C22123C5790643712043C221B
:050F31004265580000BC
:10393500123C09123C16123C3D123C4A123BFC1249
:103945003BEF123BE2123BD5123BC878E2E254FC56
:08395500F278E0E24401F222E5
:10281B00C3906559E094C8906558E094005003024A
:10282B0028C2E4F0A3F09064AD30A503F0800374EC
:10283B0001F0D20430A207E49064AEF080069064FD
:10284B00AE7401F0D20530A107E49064AFF08006BE
:10285B009064AF7401F0D206208607E49064A9F06F
:10286B0080402087089064A97401F080352090087F
:10287B009064A97402F0802A2093089064A97403D1
:10288B00F0801F2094089064A97404F0801420B089
:10289B00089064A97405F0800920A7069064A974B8
:1028AB0006F0D20120A0079064B174018004E4907B
:0828BB0064B1F0A3F0D20A227F
:100F3600C1234464FC00000000446500000000007A
:0E0F460044650400000000446508000000003F
:0C3C9600E4FDFC02043C12043C0202802D
:0D3C640078D3E254F3F278D0E24420F2224B
:10377700906504120420906500123C9C9065041229
:103787000448906500120454000000009065081278
:1037970004209064FC123C9C9065081204489064D5
:0937A700FC120454000000002291
:1023A40090642E120454000000009064321204540D
:1023B400000000007FF47E01906504123C96C31275
:1023C40003E950062023030224737F2E7E049065C4
:1023D40008123C9612029BE47B03FAF9F8120326D6
:1023E40090643212044830230C90642E120454007A
:1023F4000000008027E47F24FEFDFC906432120478
:102404003C12029BE47B0AFAF9F812032690650455
:1024140012043C12032690642E1204489064F212B3
:102424000420906432123C9C9064F212044890653B
:1024340008120454000000009065041204540000C3
:102444000000C22390642E1204209064A312044856
:10245400E47FE77E03FDFC9064A312043CD31203E3
:0F246400E9400A9064A3120454000003E7D20871
:012473002246
:100F540044650C0000000044651000000000446576
:0E0F6400140000000044651800000000C124C5
:063CC000E4FDFC02043CDF
:0D3C710078C2E254CFF278C0E24404F2229F
:1036070090651412042090650C12043C12028090FD
:10361700651412044890650C1204540000000090D1
:10362700651812042090651012043C120280906500
:0F3637001812044890651012045400000000227D
:102CD80090642E120454000000007FF47E01906579
:102CE80018123CC0C31203E9500330246C30240C82
:102CF80090642E12045400000000801C7FA67E0EF3
:102D0800906514123CC012029B90651812043C1284
:102D1800032690642E12044890651412045400008F
:102D2800000090651812045400000000C224E47FDB
:102D3800FF7EFFFDFC90642E12043CC31203E940A1
:102D48000A90642E1204540000FFFF90642E1204AF
:092D58002090649F120448D20788
:012D6100224F
:100F72004464F6000000004464F200000000426491
:100F8200FA00004464EA000000004464EE0000003D
:010F9200005E
:10390A00120420EF2401FFE43EFEE43DFDE43CFC0A
:10391A0022E4FDFC12043CC30203E9120420120251
:0B392A008DE47B64FAF9F8C30203E9A6
:1021F8007F307E759064F612391B400D9064F6129C
:10220800045400000000123BAC7FE87E039064F2A7
:1022180012391B40617F007ECA7D9A7C3B90648C9A
:1022280012391E500C90648C12390A90648C120476
:10223800487F407E427D0F7C0090649012391E508A
:102248001890649012390A9064901204489064942B
:1022580012390A9064941204489064F2120420C35C
:10226800EF94E8FFEE9403FEED9400FDEC9400FC7F
:102278009064F21204489064EA12043C90648C1250
:102288003925500E90648C1204209064EA12044898
:10229800D20C9064EE12043C906490123925500ED2
:1022A8009064901204209064EE120448D20DC390FA
:1022B80064FBE094889064FAE09413400AE4F0A385
:0722C800F0D20CD20DD20E82
:0122CF0022EC
:100F9300C100C101C102C103C104C105C106C1072A
:100FA300C108C109C10CC10DC10EC10FC110C111CE
:100FB300C112C113C11441653400426535000041BB
:100FC30065370041653800426539000042653B00E2
:010FD300001D
:103432009064A9E0FFE4FCFDFE906433020448902E
:103442006490E47B64FAF9F8120420020326906483
:103452002EE075F00FA4229064A7E0FEA3E0FFE443
:10346200FCFD22E47BE87A03F9F890648C229064F4
:083472002EE0FF75F00FA4220B
:101A1900E490642EF0F090642EE0FFC39403400339
:101A2900021B6674252FF582E43464F583E07003A4
:101A3900021B5D12345024F3F582E43463F583E02C
:101A49001204EA1A68801A6D8B1A728C1A7C8E1A23
:101A590077941B03981B07991B0B9A00001B0DD247
:101A690000021B0DD20C021B0DD20D021B0DD20E52
:101A7900021B0DD20FEF75F00FA424F5F582E434A3
:101A890063F583E0FDEF75F00FA424F4F582E434E7
:101A990063F583E02DFEE433906498F0A3CEF01251
:101AA900347024F6F582E43463F583E090649AF0A7
:101AB900EF75F00FA424F7F582E43463F583E09021
:101AC900649BF012347024F8F582E43463F583E002
:101AD90090649CF0EF75F00FA424F9F582E4346367
:101AE900F583E090649DF012345024FAF582E434D1
:101AF90063F583E090649EF0800AD2128006D213C7
:101B09008002D214906424E0D394004003E014F0DE
:101B190090642EE0FF2425F582E43464F583E4F033
:101B2900741E2FF582E43464F583E4F074212FF5F3
:101B390082E43464F583E4F0FE7F0FC006C007FD3C
:101B490012345024F1F9746335F0FA7B01D007D0CF
:0D1B59000612054390642EE004F0021A1FEE
:011B6600225C
:0610CB0020000302119D4C
:1010D10090642E12045400000000C200906534E0B8
:1010E100600302119D04F01234327F011213129039
:1010F10064AA1234357F021213129064AB12343594
:101101007F031213129064AD1234357F041213124F
:101111009064AE1234357F051213129064AF12340D
:10112100357F0612131290649F12042012343B7F04
:10113100071213129064A312042012343B7F081289
:1011410013129064AC1234357F09121312123465F4
:1011510012344A12343B7F0B1213121234411234EF
:101161003B7F0C12131212347A9064331204540030
:101171000000007F0E12131212345912343B7F10FB
:101181001213129064B01234357F1112131290644D
:0C1191009412344412343B7F14121312E9
:10119D0030010AC2011234327F0112131230020DD6
:1011AD00C2029064AA1234357F0212131230040D5C
:1011BD00C2049064AD1234357F0412131230050D44
:1011CD00C2059064AE1234357F0512131230060D30
:1011DD00C2069064AF1234357F0612131230071019
:1011ED00C20790649F12042012343B7F0712131222
:1011FD00300810C2089064A312042012343B7F08FB
:10120D0012131230090DC2099064AC1234357F09E6
:10121D00121312300A18C20A9064B11234357F12BB
:10122D001213129064B21234357F13121312300C54
:10123D0010C20C12346512344A12343B7F0B121358
:10124D0012300D0DC20D12344112343B7F0C1213AE
:10125D0012300E16C20EE47B64FAF9F89064941203
:10126D00344A12343B7F14121312300F23C20F90E5
:10127D006537E0701B78327C647D017B017A64797F
:10128D0098FE7F071201301235C89065377401F052
:10129D0030100DC21012345912343B7F101213123C
:1012AD0030110DC2119064B01234357F111213122A
:1012BD00301219C21290648C120454000000009078
:1012CD0064F212045400000000123BAC301319C23A
:1012DD0013906490120454000000009064F2120404
:1012ED005400000000123BAC301419C214906494E9
:1012FD00120454000000009064F212045400000027
:05130D0000123BAC22C0
:100FD4005463BF000101530002047300030753006C
:100FE40004091D00050CED5E63D301010203040531
:100FF40002060708090A030B0C0D0E0F0410111248
:1010040013140515161718195363AC0A00000000D1
:0E101400033241000000140001FF38520000BA
:0F004E00EC75F006A424D3F582E43463F5832225
:10339B00E4FD906430F0A374FFF0ED25E025E0240C
:1033AB00C1F582E43463F583E0FAA3E0D39FEA9E90
:1033BB00401CED25E025E024BFF582E43463F58362
:1033CB00E0FFA3E0906430CFF0A3EFF080050DEDAC
:0B33DB00B405C7906430E0FEA3E0FFE3
:0133E60022C4
:10398000E4FEFC12004EE0B5071112004EE5822D58
:10399000F582E43583F583E0FE80050CECB405E3A5
:0239A000AF0670
:0139A2002202
:10385200E490642EF0A3F07F021237B012395D902B
:10386200642EEEF0A3EFF090642EE0FEA3E0FF12D0
:10387200339B90642EEEF0A3EFF090642EE0A3E071
:01388200FF46
:013883002222
:102604009063BDE070030226BDE0FFA3E0FD123934
:1026140080E49063BDF0A3F0EF1204EA26420126A1
:102624004E04265A0626660926720B267E0E268A34
:102634001026961326A21526AE18000026BD906417
:1026440033120454000000CF806A9064331204549F
:10265400000100CF805E906433120454000000D265
:102664008052906433120454000100D28046906476
:1026740033120454000000D1803A9064331204549D
:10268400000100D1802E9064331204540000007FB6
:1026940080229064331204540001007F80169064F9
:1026A40033120454000000D0800A9064331204549E
:0926B400000100D07F0D12131289
:0126BD0022FA
:1010220044645F0000000060286463000000000068
:1010320000000000000000000000000000000000AE
:10104200000000000000000000000000000000009E
:0B10520000000041648B0041645E0060
:103B160025E02463F582E43464F58322FDFC120477
:053B26003CC30203E9AD
:04311600AB07AA0653
:10311A00E4906431F0A312045400000000AE02AF40
:10312A000390648BE0FD04F0ED123B16EEF0A3EF82
:10313A00F090648BE0C394144002E4F0E4906431AC
:10314A00F090643212043C906431E0123B16E0FEC7
:10315A00A3E0FFE4FCFD120280906432120448905E
:10316A006431E004F0E0B414D8E47B14FAF9F8907E
:08317A00643212042002032656
:103B4D00E4FDED123B16EEF0A3EFF00DEDB414F223
:013B5D002245
:10350500C3EF940BEE940E40047DFF8034D3EF940B
:10351500D0EE94074004E4FD8027C3EF94B6EE9403
:073525000350047D64801ACD
:10352C00906431E4F0A3740AF0EF244AFFEE34FC0B
:0A353C00FE7D0A7C00120215AD07A7
:02354600AF05CF
:013548002260
:1029F800E490642EF0A3F0A3F07F031237B0122AFC
:0C2A08008512311690642FEEF0A3EFF061
:102A140090645EE070327FF47E01A3123B22402872
:102A240090645F12045400000000122A85123B4D8A
:102A3400906556E0FEA3E0FF90642FEEF0A3EFF064
:082A4400122A6F90645E04F099
:102A4C00E47F107E2790645F123B22401590645FF8
:102A5C001204540000000090642FE0FEA3E0FF126B
:022A6C002A6FCF
:102A6E002212350590642EEFF09064ACF0E4906481
:102A7E002FF0A3F0D209221222D0906556EEF0A3C9
:032A8E00EFF02244
:10105D0044651C000000004465200000000044654C
:05106D0024000000005A
:103A6200EF2401FFE43EFEE43DFDE43CFC02044899
:0E3A7200E47FE27E04FDFC12043CC30203E983
:102474007F041237B01222D0906556EEF0FAA3EF23
:10248400F0FB906524120420EF2408FFE43EFEE4F0
:102494003DFDE43CFC906524120448D3EB9400EA2F
:1024A40094089065205015120420906520123A6219
:1024B40090651C12045400000000800712045400AC
:1024C400000000906520123A7240119065201204B9
:1024D4005400000000E49064B0F0D211C39065573A
:1024E400E094C7906556E0940B90651C4015120467
:1024F4002090651C123A629065201204540000007A
:102504000080071204540000000090651C123A7207
:10251400401290651C120454000000009064B074D2
:1025240001F0D211E47FE87E03FDFC906524123AA9
:0F25340079400C90652412045400000000D2116D
:012543002275
:10107200446530000000004465280000000044651B
:051082002C000000003D
:103B8E007C007DF0120516E4FB7A10F9F80203268C
:0E3BBA007E007C007D641202037D96020215DF
:10254400E490642EF0A3F07F011237B090652C1252
:10255400043CC000C001C002C0031222D0E4FCFD50
:10256400D003D002D001D00012028090652C120456
:1025740048906528120420EF2401FFE43EFEE43D68
:10258400FDE43CFC906528120448E47FE87E03FDEA
:10259400FC90653012043CC31203E9406290652C40
:1025A40012042090652812043C12032690652C1214
:1025B400044890652C120420123B8E90642EEFF098
:1025C400E0FF123BBAA3EFF090652C120454000014
:1025D4000000906528120454000000009065301239
:1025E40004540000000090642FE09064AAF090640A
:0F25F4002EE0FF9064A7E4F0A3EFF0D210D20224
:0126030022B4
:102FCB00746F756368206B6579203120636C69635E
:102FDB006B0A00746F756368206B6579203120680C
:102FEB006F6C640A00746F756368206B65792031B0
:102FFB00206C6F6F73650A00746F756368206B6567
:10300B0079203220636C69636B0A00746F75636897
:10301B00206B6579203220686F6C640A00746F75C1
:10302B006368206B65792032206C6F6F73650A00C3
:101087004C64C601010203040502060708090A5356
:1010970064B30A000000000332410000001400029C
:0510A700FF32FA000019
:103A2500E4FFFDFCAB1BAA1AA919A818C30203E9F8
:0F3A3500EE75F006A424C6F582E43464F583220E
:1032FA0090642E1204540000000090643274FFF0AF
:10330A0075D9AA1239E675D9AAAF1BAE1AAD19AC8E
:10331A001890642E1204487E02123A2570079064AF
:10332A003204F0800D7E04123A25700690643274DD
:10333A0002F090642E12045400000000906432E0FF
:01334A00FF83
:01334B00225F
:1038DE00E490642EF0FE123A35E0B50714123A3534
:1038EE00E5822DF582E43583F583E090642EF08039
:0B38FE00050EEEB402E090642EE0FF27
:01390900229B
:10276D009064C4E07003022808E0FFA3E0FD123876
:10277D00DEE49064C4F0A3F0EF24FC602114602E1D
:10278D0014603B24FD60471460592409706D7A2F45
:10279D0079CB1228091204540000004780587A2F73
:1027AD0079DE1228091204540001004780487A2F5F
:1027BD0079F01228121204540002004780387A3042
:1027CD0079031228121204540000004880287BFF60
:1027DD007A3079161205F890643312045400010012
:1027ED004880137BFF7A3079281205F890643312F4
:0B27FD000454000200487F0D1213126C
:10280800227BFF1205F8906433227BFF1205F890B3
:0328180064332204
:1010AC0041601801426019000041601B0041601C46
:0E10BC000041601D0041601E7F42601FFFFF6B
:1036FE00E4F561AE3EAD3DAC3C853F178E168D15A3
:10370E008C14787EE254FCF2E24514F218E515F2C0
:10371E0018E516F218E517F2787FE254FBF2E25440
:0D372E00FB4404F2E24401F27F01022D622F
:100C3100906433EFF0E0FF24D4F582E43464F5836B
:100C4100E004F074D62FF582E43464F583E4F074A3
:100C5100D42FF582E43464F583E0C3956350030235
:100C61000E82906433E0FB24D4F582E43464F5838E
:100C7100E4F0903A559364016003020E337F01FE64
:100C8100FDFC74D82BF582E43464F583E0F9F812A5
:100C9100040DE51F4FF51FE51E4EF51EE51D4DF533
:100CA1001DE51C4CF51CAF1FAE1EAD1DFC780112DD
:100CB10003FAEF5455FBEE5455FAED5455F9EC5443
:100CC10055F8C3E51F9BF53BE51E9AF53AE51D99DD
:100CD100F539E51C98F538AF3BAE3AAD39FC7802F1
:100CE1001203FAEF5433FBEE5433FAED5433F9ECBB
:100CF1005433F8E53B5433FFE53A5433FEE53954B8
:100D010033FDE5385433FCEB2FF53BEA3EF53AE988
:100D11003DF539E83CF538AF3BAE3AAD39FC7804E6
:100D21001203FAEF253BFFEE353AFEED3539FDECC6
:100D31003538FCEF540FF53BEE540FF53AED540FF7
:100D4100F539EC540FF538AF3BAE3AAD39FC7808C4
:100D51001203FAEF253BFFEE353AED3539FDEC355F
:100D610038EFF53BE4F53AEDF539E4F538AE3AAC58
:100D71003878101203FAEF253BFFEE353AFEEFF516
:100D81003BEEF53AE4F539F538906433E025E0249B
:100D9100E2F582E43464F583E0FEA3E0D39553EEFB
:100DA10095524024906433E0FF25E024E2F582E48B
:100DB1003464F583E0F552A3E0F55374D82FF5823E
:100DC100E43464F583E0F564903A55E493FFE4FC80
:100DD100FDFEAB3BAA3AA939A838D31203E9405228
:100DE100AF650565D3EF9403748094805003020EC0
:100DF10082E4F565F51FF51EF51DF51C7F01FEFD6D
:100E0100FCA964A80112040D8F1B8E1A8D198C1870
:100E1100E47F01FEFDFCA80112040D8F338E328D9B
:100E2100318C30E4F552F553756420122DE64337C9
:100E31000222E4F5657F01FEFDFC906433E0FB24B2
:100E4100D8F582E43464F583E0F9F812040DE51B6A
:100E51004FF51BE51A4EF51AE5194DF519E5184C34
:100E6100F518E47F01FEFDFCA80312040DE5334FE4
:100E7100F533E5324EF532E5314DF531E5304CF5DE
:020E810030221D
:1008F200E4F566903A59E493FFE566C39F4003022C
:100902000C30E56625E02400F582E4346085828AB5
:100912007F548F8B7E0E8E8C758903758889E56670
:1009220025E02400F582E4346085828A8F8B758C01
:1009320012758904758889E56625E02408F582E444
:100942003460F583E0FCA3E0C3950FEC950E502EC6
:10095200E56625E02414F582E43460F583E0FCA327
:10096200E0C39513EC95125015AF600560EF940249
:1009720074809480400BE4F5605337FD8003E4F506
:1009820060E53730E125E56625E024E2F582E434CE
:1009920064F583E4F0A3F0E56625E024E6F582E45D
:1009A2003464F583E4F0A3F0020A40E56625E0240E
:1009B20008F582E4346085828A8E8B758C0A75898B
:1009C200267588892088FDE5F130E00875F107E495
:1009D200F50AF50BAE0AE50B7802C333CE33CED857
:1009E200F9FFE56625E024E2F582E43464F583EE5E
:1009F200F0A3EFF0E56625E02414F582E434608587
:100A0200828A758B12758C0A758927758889208868
:100A1200FDE5F130E00875F107E4F50AF50BAE0AE1
:100A2200E50B7802C333CE33CED8F9FFE56625E075
:100A320024E6F582E43464F583EEF0A3EFF0E56694
:100A420025E024DAF582E43464F583E0FEA3E0785D
:100A520002CEC313CE13D8F9F5518E50E56625E0C8
:100A620024E2F582E43464F583E0FEA3E0FF903AE9
:100A720051E493FC740193FDC3EF9DEE9C4017E596
:100A82006625E024E6F582E43464F583E0FEA3E023
:100A9200C39DEE9C50028068E56625E024E2F58263
:100AA200E43464F583E0FEA3E0C39551EE95504033
:100AB2001CE56625E024E6F582E43464F583E0FE75
:100AC200A3E0C39551EE95504003020B4C74D2251E
:100AD20066F582E43464F583E004F074D22566F5A9
:100AE20082E43464F583E0FF903A56E493FEEFD358
:100AF2009E406474D22566F582E43464F583E4F0A2
:100B0200E56625E02404F582E43460F583E0FEA383
:100B1200E0FFE56625E02408F582E43460F583EE23
:100B2200F0A3EFF0E56625E02410F582E43460F5E9
:100B320083E0FEA3E0FFE56625E02414F582E434B9
:100B420060F583EEF0A3EFF0800D74D22566F58296
:100B5200E43464F583E4F0E56625E02404F582E4F8
:100B6200346085828AE56625E02400F582E43460FB
:100B720085828B758C0A7589207588CB2088FDE566
:100B8200F130E00875F107E4F50AF50BE56625E0BA
:100B92002404F582E4346085828A758B547F0E8F3B
:100BA2008C7589237588897E0A8E8A8F8BE56625E6
:100BB200E02404F582E4346085828CE4F58975884A
:100BC20029E56625E02410F582E4346085828AE511
:100BD2006625E02400F582E4346085828B8E8C7574
:100BE20089207588CB2088FDE5F130E00875F10792
:100BF200E4F50AF50BE56625E02410F582E434609D
:100C020085828A758B547F0E8F8C758924758889AD
:100C1200758A0A8F8BE56625E02410F582E434603C
:0F0C220085828CE4F58975882905660208F5221C
:10151800E4F566903A59E493FFE566C39F400302F9
:1015280016D0E56625E024DAF582E43464F583E034
:10153800FEA3E07802CEC313CE13D8F9F5518E502E
:10154800E56625E024E2F582E43464F583E0FEA351
:10155800E0D39551EE9550402EE56625E024E6F55A
:1015680082E43464F583E0FEA3E0D39551EE955010
:10157800401574D62566F582E43464F583E4F0AF4B
:1015880066120C310216CB903A58E493FFC3E5512A
:101598009FFFE5509400FED3EF9400EE94004002C4
:1015A80080047E007F00E56625E024E2F582E434CD
:1015B80064F583E0FCA3E0C39FEC9E40030216BEE3
:1015C800903A58E493FFC3E5519FFFE5509400FE1D
:1015D800D3EF9400EE9400400280047E007F00E583
:1015E8006625E024E6F582E43464F583E0FCA3E0B4
:1015F800C39FEC9E40030216BE74D42566F582E4B0
:101608003464F583E4F074D62566F582E43464F531
:1016180083E004F074D62566F582E43464F583E04B
:10162800C3956350030216CB74D62566F582E4345D
:1016380064F583E4F07F01FEFDFC74D82566F5822D
:10164800E43464F583E0F9F812040D1203B8E51FD9
:101658005FF51FE51E5EF51EE51D5DF51DE51C5CCD
:10166800F51CE47F01FEFDFCA966A80112040D1219
:1016780003B8E5335FF533E5325EF532E5315DF504
:1016880031E5305CF530E47F01FEFDFC74D8256659
:10169800F582E43464F583E0F9F812040D1203B816
:1016A800E51B5FF51BE51A5EF51AE5195DF519E509
:1016B800185CF518800D74D62566F582E43464F557
:0916C80083E4F0056602151B2203
:102DE600E4F566903A59E493FFE566C39F506EE5B5
:102DF6006625E024E2F582E43464F583E4F0A3F08A
:102E0600E56625E024E6F582E43464F583E4F0A380
:102E1600F0E56625E02404F582E43460F583E0FEFF
:102E2600A3E0FFE56625E02408F582E43460F58337
:102E3600EEF0A3EFF0E56625E02410F582E43460B9
:102E4600F583E0FEA3E0FFE56625E02414F582E4C1
:0E2E56003460F583EEF0A3EFF005668086226F
:102A9100E4F566903A59E493FFE566C39F50679069
:102AA1006018E0FF7E00C39410748094805053EF4F
:102AB1009408748094804025E56625E02400F58221
:102AC100E43460F583E0FEA3E0FFE56625E024043D
:102AD100F582E43460F583EE8FF012026AE5662533
:102AE100E02400F582E43460F583E0FEA3E0FFE535
:102AF1006625E02410F582E43460F583EE8FF01250
:102B0100026A0566808D906018E0C3941074809409
:102B11008040054337048006906018E004F07F018F
:032B2100022D6220
:102E6400E4FFFEFDFCAB1BAA1AA919A818C31203A0
:102E7400E9606390601AE004F07006906019E00461
:102E8400F0903A4DE493FE740193FF4E602ED3907C
:102E9400601AE09F906019E09E4021E4F0A3F0F5F1
:102EA4001FF51EF51DF51CF533F532F531F530F53A
:102EB4001BF51AF519F518C221022DE6903A4FE4D4
:102EC40093FE740193FFD390601AE09F906019E021
:0D2ED4009E400AD22122E4906019F0A3F084
:012EE10022CE
:0516D100906458EFF0E9
:1016D600A3E0FCA3E0FDA3E0FEA3E0F54C8E4B8D5A
:1016E6004A8C497884E2F50A08E2F50B758A087592
:1016F6008B49758C4575881D2088FDE4FFFEFDFC31
:10170600AB48AA47A946A845D31203D34006AC4521
:10171600A8048013AF48AE47AD46AC451203C5AB2F
:1017260007AA06A905A80490601FE0FEA3E0FFE44F
:10173600FCFDC31203D35041E4FFFEFDFCAB48AAF7
:1017460047A946A8451203D34006AF48AE47800BCB
:10175600AF48AE47AD46AC451203C590601FEEF0EC
:10176600A3EFF0906458E025E024DEF582E43464CB
:10177600F583E0A3E090601EF0903A4AE493FE748D
:101786000193FFD3906020E09F90601FE09E501B66
:10179600906458E025E024DEF582E43464F583E0C5
:1017A600A3E090601EF090601B8079E4FFFEFDFCD4
:1017B600AB48AA47A946A845D31203D34034906440
:1017C60058E0FF25E024DEF582E43464F583E0FC8E
:1017D600A3E0D39400EC9400404DEF25E024DEF521
:1017E60082E43464F58374FFF5F012026A90601C9B
:1017F6008032906458E0FF25E024DEF582E434640C
:10180600F583E0FCA3E0C3947FEC94005019EF2528
:10181600E024DEF582E43464F583E475F001120217
:101826006A90601D7401F090601CE064017011A361
:10183600E06401700B90601CF0A3F090601B04F054
:1018460090601BE06401703590601EE0FF90645864
:10185600E025E024DEF582E43464F583E4F0A3EFCA
:10186600F074FF90601FF0A3F090601E747FF0E4A8
:0F18760090601CF0A3F090601BF07F01227F00B8
:011885002240
:10318200E4906457F0903A4412042C780112040D32
:10319200906459120448AF611216D1EF60220561A2
:1031A200E53730E4095337EF9064577401F0903AF1
:1031B20059E493FFE561C39F4006E4F5614337108C
:1031C200C3903A487401939562E493940040089046
:1031D2006457E064017005D2200236FEE4FF122D2E
:0131E200628A
:0131E30022C9
:102D6200EF70607F01FEFDFC74D82561F582E434CA
:102D720064F583E0F9F812040D8F178E168D158C09
:102D820014787EE254FCF2E24514F218E515F218CA
:102D9200E516F218E517F2E56125E024DEF582E496
:102DA2003464F583E0A3E0547FFF7878E254804FE7
:102DB200F2787FE254FBF2E254FB4404F2E2440173
:102DC200F2801CE56125E024DEF582E43464F583BB
:102DD200E0A3E0547FFF7878E254804FF2787FE2FC
:042DE2004402F22293
:1028C300E490642EF0A3F090642EE0FEA3E0FFC337
:1028D3009488EE94035031EF24F2FFEE34088F8294
:1028E300F583E493FF90642FE02421FD90642EE0B0
:1028F30034608D82F583EFF090642FE004F070C7AD
:0829030090642EE004F080BF97
:10290B009063A97401F0A37460F0A37421F0E4F553
:10291B0061F537F536F535F534C220C221F51FF5D3
:10292B001EF51DF51CF533F532F531F530F51BF5BC
:10293B001AF519F518903A5393FF903A57E493FE12
:10294B00A807088002C333D8FCF563756420E4FF45
:03295B00022D62E8
:102EE2007884E2F50A08E2F50BAE0A7803CEC31342
:102EF200CE13D8F97802C333CE33CED8F9FFE561C9
:102F020025E02400F582E43460F583EEF0A3EFF0CF
:102F120020200F903A4CE4937005D2200236FE0234
:102F220031820561903A59E493FFE561C39F401FE6
:102F3200787FE254FBF2E254FB4404F2E24401F2F1
:102F4200E4F561E53720E203022A91433701227F4B
:052F520001122D6222B6
:053CC6000562022E64FE
:1039E600E53730E01A9063A9A3E0FAA3E0F91205DF
:1039F60010121518E4F5617F01122D625337FE226D
:102978000231E4E493A3F8E493A34003F68001F260
:1029880008DFF48029E493A3F85407240CC8C33360
:10299800C4540F4420C8834004F456800146F6DF2F
:1029A800E4800B0102040810204080900E83E47E2E
:1029B800019360BCA3FF543F30E509541FFEE49324
:1029C800A360010ECF54C025E060A840B8E493A3EB
:1029D800FAE493A3F8E493A3C8C582C8CAC583CA16
:1029E800F0A3C8C582C8CAC583CADFE9DEE780BECE
:0110CA000025
:10006000E709F608DFFA8046E709F208DFFA803E82
:1000700088828C83E709F0A3DFFA8032E309F6086F
:10008000DFFA8078E309F208DFFA807088828C83D7
:10009000E309F0A3DFFA806489828A83E0A3F6088B
:1000A000DFFA805889828A83E0A3F208DFFA804C65
:1000B00080D280FA80C680D4806980F2803380103C
:1000C00080A680EA809A80A880DA80E280CA8033A5
:1000D00089828A83ECFAE493A3C8C582C8CCC5831D
:1000E000CCF0A3C8C582C8CCC583CCDFE9DEE780ED
:1000F0000D89828A83E493A3F608DFF9ECFAA9F06C
:10010000EDFB2289828A83ECFAE0A3C8C582C8CCC1
:10011000C583CCF0A3C8C582C8CCC583CCDFEADEDA
:10012000E880DB89828A83E493A3F208DFF980CC3C
:1001300088F0EF60010E4E60C388F0ED2402B40435
:100140000050B9F582EB2402B4040050AF232345DC
:0601500082239000B07351
:10015600BB010689828A83E0225002E722BBFE02A7
:09016600E32289828A83E49322DA
:10016F00BB010CE58229F582E5833AF583E0225045
:10017F0006E92582F8E622BBFE06E92582F8E2228F
:0D018F00E58229F582E5833AF583E49322A9
:10019C00BB010FF8E58229F582E5833AF583E02867
:1001AC00F0225009C58229F8E58226F622BBFE0909
:1001BC00C58229F8E22582F222F8EA2583F583E943
:0301CC0093282253
:1001CF00BB010689828A83F0225002F722BBFE010F
:0201DF00F32209
:1001E100F8BB010DE58229F582E5833AF583E8F054
:1001F100225006E92582C8F622BBFE05E92582C800
:02020100F222E7
:10020300EF8DF0A4A8F0CF8CF0A428CE8DF0A42E0F
:02021300FE22C9
:10021500BC000BBE0029EF8DF084FFADF022E4CCCD
:10022500F875F008EF2FFFEE33FEEC33FCEE9DEC96
:10023500984005FCEE9DFE0FD5F0E9E4CEFD22EDDC
:10024500F8F5F0EE8420D21CFEADF075F008EF2F26
:10025500FFED33FD4007985006D5F0F222C398FD17
:050265000FD5F0EA22B4
:10026A00C5F0F8A3E028F0C5F0F8E582158270021F
:06027A001583E038F022BC
:0D028000EF2BFFEE3AFEED39FDEC38FC22CD
:0E028D00C3EF9BFFEE9AFEED99FDEC98FC226C
:10029B00E88FF0A4CC8BF0A42CFCE98EF0A42CFC02
:1002AB008AF0EDA42CFCEA8EF0A4CDA8F08BF0A480
:1002BB002DCC3825F0FDE98FF0A42CCD35F0FCEBDF
:1002CB008EF0A4FEA9F0EB8FF0A4CFC5F02ECD39A4
:0F02DB00FEE43CFCEAA42DCE35F0FDE43CFC2211
:1002EA0075F008758200EF2FFFEE33FECD33CDCCCB
:1002FA0033CCC58233C5829BED9AEC99E58298404E
:10030A000CF582EE9BFEED9AFDEC99FC0FD5F0D62A
:10031A00E4CEFBE4CDFAE4CCF9A88222B800C1B954
:10032A000059BA002DEC8BF084CFCECDFCE5F0CB92
:10033A00F97818EF2FFFEE33FEED33FDEC33FCEBCB
:10034A0033FB10D703994004EB99FB0FD8E5E4F986
:10035A00FA227818EF2FFFEE33FEED33FDEC33FC73
:10036A00C933C910D7059BE99A4007EC9BFCE99A67
:10037A00F90FD8E0E4C9FAE4CCFB2275F010EF2FAC
:10038A00FFEE33FEED33FDCC33CCC833C810D707AC
:10039A009BEC9AE899400AED9BFDEC9AFCE899F8E7
:0E03AA000FD5F0DAE4CDFBE4CCFAE4C8F9227A
:0D03B800CFF4CFCEF4CECDF4CDCCF4CC22DA
:0E03C500C3E49FFFE49EFEE49DFDE49CFC2249
:1003D300EB9FF5F0EA9E42F0E99D42F0EC6480C8A1
:0603E30064809845F02241
:1003E900EB9FF5F0EA9E42F0E99D42F0E89C45F06A
:0103F90022E1
:1003FA00E8600FECC313FCED13FDEE13FEEF13FFE1
:03040A00D8F12204
:10040D00E8600FEFC333FFEE33FEED33FDEC33FC4D
:03041D00D8F122F1
:0C042000E0FCA3E0FDA3E0FEA3E0FF224F
:10042C00E493FC740193FD740293FE740393FF2216
:0C043C00E0F8A3E0F9A3E0FAA3E0FB2243
:0C044800ECF0A3EDF0A3EEF0A3EFF02227
:10045400A8828583F0D083D08212046B12046B12BD
:10046400046B12046BE473E493A3C583C5F0C583E2
:10047400C8C582C8F0A3C583C5F0C583C8C582C8F2
:010484002255
:0C048500A42582F582E5F03583F5832282
:09049100E0FBA3E0FAA3E0F9226C
:10049A00F8E0FBA3A3E0F925F0F0E58215827002EB
:0704AA001583E0FA38F0228F
:0904B100EBF0A3EAF0A3E9F0224C
:1004BA00BB010DE58229F582E5833AF583020491B1
:1004CA005007E92582F802056FBBFE07E92582F885
:1004DA00020578E58229F582E5833AF583020581EA
:1004EA00D083D082F8E4937012740193700DA3A3A1
:1004FA0093F8740193F5828883E4737402936860B5
:06050A00EFA3A3A380DFB4
:060510008A838982E47376
:10051600EC8EF0A4CCC5F0CCCDF8EFA4CEC5F02D72
:10052600FDE43CFCE8A42EC8C5F03DFDE43CFCEF30
:0D053600A4FFE5F028FEE43DFDE43CFC22BE
:10058D00E5402431F582E43464F583E005402290A2
:10059D00642E301C03906431E475F00112049A024C
:1005AD0001562015E97F2ED2158018EF540F249097
:1005BD00D43440D4FF30190BEF24BFB41A005003CC
:1005CD002461FFE541600215410544E544700205D3
:1005DD0043301C0E90642EE475F00112049AEF0264
:1005ED0001CF023B9E7403D21C8003E4C21CF54074
:1005FD0090642E1204B1E4F541F543F544E54160F4
:10060D00077F201205D080F57542FFC216C215C2B4
:10061D0017C218C21AC21BC21D12059CFF700D30E5
:10062D001C057F001205E1AF44AE4322B4255FC225
:10063D00D5C21912059CFF24D0B40A00501A75F0CA
:10064D000A784130D50508B6FF0106C6A426F62066
:10065D00D5047002D21880D924CFB41A00EF5004FB
:10066D00C2E5D2190207E2D21680C6D21580C0D2D9
:10067D001780BCD2D580BAD21A80B47F201205D093
:10068D002017077401B5410040F112058DFF1205C9
:10069D00D002060AD21DD21B809512058DFB1205C4
:1006AD008DFA12058DF94A4B700679B37A087BFFE6
:1006BD0020172EE541602A7E008E8275830012017F
:1006CD006F60060EEE654270F0C2D5EBC0E0EAC079
:1006DD00E0E9C0E0EE120829D0E0F9D0E0FAD0E070
:1006ED00FB120156FF60AAEBC0E0EAC0E0E9C0E0F2
:1006FD001205D0D0E02401F9D0E03400FAD0E0FBAF
:10070D00E5420460DCD542D980877BFF7A087925E4
:10071D00D217809C791080027908C21BC21D8008F7
:10072D00D2D5790A8004790AC2D5E542047002F562
:10073D0042E4FAFDFEFF12058DFC7B082016131214
:10074D00058DFD7B1030150A12058DFE12058DFFEE
:10075D007B20EC3382D592D55013C3E43015069F20
:10076D00FFE49EFEE42016039DFDE49CFCE4CBF823
:10077D00C216EC700CCFCECDCCE824F8F870F38017
:10078D0017C3EF33FFEE33FEED33FDEC33FCEB33EC
:10079D00FB994002FB0FD8E9EB301605F8D0E0C409
:1007AD0048B216C0E00AEC4D4E4F78207B0070C267
:1007BD00EAB5420040BCC0E012082BD0F0D0E020DA
:1007CD001604C4C0E0C4B216C0F01205B9D0F0D5FD
:1007DD00F0EB02060A1204EA06A753072158067821
:1007ED004C06744207254F072D44072D49068D43AE
:0807FD000733550717460717E3
:100805004507174708D350067C2D06802E06A32BD7
:1008150006842306A12008BC2A063C480000069B46
:100825003F3F3F00790AA2D5201814301A09B910A4
:10083500020404B9080104A2D5201B0250010420BA
:1008450017689217B541005034C0E07F2030181961
:100855007F30A217721B721A500F120882C217C27C
:100865001BC21AC21D7F30800F301A03E9C0E01287
:1008750005D0301A03D0E0F9D0E0B541CC301A17D5
:100885007F30B9100C1205D07F583019077F78805A
:1008950003B908031205D03017057F2D0205D07F57
:1008A50020201DF87F2B201BF322921780CF286E66
:1008B500756C6C2900D21612058D3016F8C21678A3
:1008C5004130D50108F602063C2D50434958120522
:1008D5008D2403B405004001E49008CE931205C1B0
:0D08E500743A1205C1D218754104020721B2
:10054300EF4E6012EF60010EEDBB010B89828A83CF
:10055300F0A3DFFCDEFA2289F05007F709DFFCA9DC
:0C056300F022BBFEFCF309DFFCA9F02233
:09056F00E6FB08E6FA08E6F922B1
:09057800E2FB08E2FA08E2F922B4
:0C058100E493FB740193FA740293F922D6
:00000001FF
