:03000000022E933A
:0C2E9300787FE4F6D8FD758166022EDA27
:0C000300000000000000000000000000F1
:0B3D5C00EF1FAC0670011E4C70F62239
:103B4D00AB07AA06EB1BAE0270011A4E600C75D9BD
:0B3B5D00AA7FAA7E05123D5C80EA22D0
:10238400907120E04480F07F057E00123D5CE4FF04
:10239400FE123B4D75A75575AC5C9071327450F0CC
:1023A4009071307403F0907136742FF090715C74F6
:1023B40003F090715BE054FCF07F18EF2466FDE4B9
:1023C40034718D82F583E4F00FEFB433EE90401155
:1023D400E4935407FF90711CE054F84FF0904017B9
:1023E400E493547FFF90711DE054804FF0904010AF
:1023F400E493FF5401C43333335480FE907123E0DB
:10240400547F4EF0EFC313543F4440FFA3E0548085
:102414004FF0904012E493FF540FFE907146E05445
:10242400F04EF0EFC4540FFF90714FE054F04FF0B2
:10243400904013E493543FFF907140E054C04FF038
:10244400904014E493907126F0904015E4939071B9
:0B24540028F0904016E49390712AF0ED
:01245F00225A
:103AD600000009C4006400C80101F4004B000A009C
:0E3AE60000010F04050200090064000A0064DC
:103B9D00E2FE74872FF582E43464F583E02224FC81
:083BAD0025E0FDF87403082275
:101DD800E4FF123B9FC394085058123B9FC39404DE
:101DE800502878C2C000123B9D123BAD8002C3331D
:101DF800D8FCF45ED000F278C2C000123B9D123BC2
:101E0800AD8002C333D8FC021F0678C3C000123B62
:101E18009D123BAB8002C333D8FCF45ED000F2784D
:101E2800C3C000123B9D123BAB8002C333D8FC02F7
:101E38001F06123B9FC394084068123B9FC394102F
:101E48005060123B9FC3940C502C78D2C000123BB8
:101E58009D24F8123BAD8002C333D8FCF45ED00059
:101E6800F278D2C000123B9D24F8123BAD8002C329
:101E780033D8FC021F0678D3C000123B9D24F4120D
:101E88003BAD8002C333D8FCF45ED000F278D3C0F7
:101E980000123B9D24F4123BAD8002C333D8FC02F0
:101EA8001F06123B9FC39414502B78E2C000123BCC
:101EB8009D24F0123BAD8002C333D8FCF45ED00001
:101EC800F278E2C000123B9D24F0123BAD8002C3C1
:101ED80033D8FC802978E3C000123B9D24EC123BE8
:101EE800AD8002C333D8FCF45ED000F278E3C000C2
:101EF800123B9D24EC123BAD8002C333D8FC4ED07C
:0B1F080000F20FEF64026003021DDA1C
:011F130022AB
:03005D00023584E5
:10358400C0E0C0F0C083C082C0D075D000C000C00D
:1035940001C002C003C004C005C006C0077881E2B0
:1035A40030E607E24440F2123122D007D006D005BB
:1035B400D004D003D002D001D000D0D0D082D083A8
:0535C400D0F0D0E03260
:10345400D2AF43AB0843B6C0907132E04440F0436E
:10346400AB087877743FF208744BF2787A7430F2D0
:10347400788914F27871744FF2187427F2787274A0
:10348400A8F2087410F208E4F208F208F2787E74E4
:0F349400D0F2087404F208741EF2087402F222D7
:102C4F00E4FBEB25E025E024ECF582E4343AF58350
:102C5F00740193FF74872BF582E43464F583EFF0EE
:102C6F00EB25E025E024EEF582E4343AF583E49396
:102C7F00FE740193FFEB25E02489F582E43464F5BB
:102C8F0083EEF0A3EFF0EB25E0248DF582E43464BE
:102C9F00F583E4F0A37441F0E47F01FEFDFC74873B
:102CAF002B123BA2F9F812040DE53F4FFFE53E4E04
:102CBF00FEE53D4DFDE53C4C8F3F8E3E8D3DF53C99
:102CCF000BEB64026003022C51121DD8122B210250
:022CDF0034546B
:103C320078C2E254BFF2E24440F2907181E4F02291
:0D3C8E0078C3E254CFF278C0E24440F22245
:0D3C9B0078C3E2543FF278C0E24480F22288
:0D3CA80078D2E254FCF278D0E24401F2221E
:0D3CB50078D2E2543FF278D0E24408F222C7
:0D3CC20078D3E254FCF278D0E24410F222F4
:0D3CCF0078E2E254F3F278E0E24402F222DF
:0D3CDC0078E2E254CFF278E0E24404F222F4
:0D3CE90078E2E2543FF278E0E24408F22273
:0D3CF60078E3E254F3F278E0E24420F22299
:0D3D030078E3E2543FF278E0E24480F222DF
:0D3D100078F2E254FCF278F0E24401F22275
:0712EC0044600C000000004B
:083D72007890E2541FF2E222F6
:1037BF00E5B154F342B153A8DFD2AF7892E4F208E7
:1037CF00F27890E254E3F2E2441CF2E254FCF2E2AB
:1037DF004401F208E2547FF2E24420F2789574013A
:0C37EF00F2187476F2123D7244A0F2222F
:0C3D4400123D7244C0F243A820D2AF220E
:103C4200123D7244A0F27892E4F208F253A8DF2205
:03001E000234A306
:1034A300C0E0C0F0C083C082C0D075D000C000C0EF
:1034B30004C005C006C0077891E230E71DE24480EE
:1034C300F290600C120420EF2401FFE43EFEE43D81
:1034D300FDE43CFC90600C120448D007D006D005F4
:0F34E300D004D000D0D0D082D083D0F0D0E0324F
:0E12F3004465130000000044650F0000000079
:1032DD00C374FF9BFB74FF9AFAE499F9E498F8E044
:1032ED00FEA3E0FFE4FCFD22C374FF9BFF74FF9A75
:1032FD00FE74FF99FD74FF98FC12043CC30203E9B0
:10330D001204209063F502043CEE8FF012026AC3A2
:10331D00229063F5020420120420EF2401FFE43E05
:10332D00FEE43DFDE43CFC227BFF7AFFF9F8D3027D
:02333D0003D3B8
:10374500E5B154CF42B153A8BFD2AF75D102789C31
:10375500E254E3F2E2441CF2E254FCF2E24401F2E8
:1037650008E2547FF2E24420F278A17401F2187461
:0D37750076F2789CE2541FF2E244A0F222AA
:103C5200789CE2541FF2E244C0F243A840D2AF2261
:1016F2009065131204209063F11204489063F5126E
:10170200045400000000906513120454000000000D
:1017120090650F12043C9063F112042012028D9026
:1017220063F512044890650F120454000000009003
:101732006544E0FEA3E0FFE4FCFD123335400C12E9
:10174200331E906544EE8FF012026A1233109064D9
:10175200C11232DDD31203E9404212331E9064C13A
:101762001233169064C2E094649064C1E094004025
:101772002BE0FFA3E09064C3CFF0A3EFF0E490640A
:10178200C1F0A3F09064C51204209064C912044809
:101792009064C512045400000000D223123310904A
:1017A20064B01232DDD31203E9404212331E906458
:1017B200B01233169064B1E094649064B0E0940087
:1017C200402BE0FFA3E09064B2CFF0A3EFF0E490EF
:1017D20064B0F0A3F09064B41204209064B81204D0
:1017E200489064B412045400000000D22212331054
:1017F2009064A51232F5500F9064A512330D1202B7
:10180200809064A51204481233109064CD1232F510
:10181200500F9064CD12330D1202809064CD1204E9
:1018220048906506E0B4011F12331E90650712331B
:1018320016906508E094C4906507E094094008E4B6
:10184200F0A3F0906506F090650AE0B4011F123330
:101852001E90650D12331690650EE0946490650D2E
:10186200E094004008E4F0A3F090650AF090650966
:10187200E0B4011F12331E90650B12331690650CF3
:10188200E0946490650BE094004008E4F0A3F090CB
:101892006509F09064A91232EC123335400A906463
:1018A200A9E475F00112026A74FFFFFEFDFC906468
:1018B200EE123306500C9064EE1233249064EE1252
:0218C2000448D8
:0118C4002201
:030021000233A106
:1033A100C0E0C0F0C083C082C0D075D000C000C0F2
:1033B10004C005C006C007789DE230E728E24480DA
:1033C100F29065131233249065131204489063AD93
:1033D100E0C394FF5003E004F0906445E0C394FF20
:1033E1005003E004F0D007D006D005D004D000D0BF
:0A33F100D0D082D083D0F0D0E032BB
:04130100C11CC11D2D
:103AF400120420EF2401FFE43EFEE43DFDE43CFC1F
:0E3B04002274FFFFFEFDFC12043CC30203E925
:10360B00E5B254FC42B253A9FED2AF75D10490710E
:10361B0000E054E3F0E0F0E054FCF0E04401F09003
:10362B0071057409F0907104745FF0907100E054AF
:10363B001FF0E044A0F0A3E0547FF0E04420F02220
:103C1000907100E0541FF0E044C0F043A901D2AF1E
:013C20002281
:03002400022FA305
:102FA300C0E0C0F0C083C082C0D075D000C000C0F4
:0D2FB30001C002C003C004C005C006C00775
:102FC000907101E030E744E04480F030821B201C27
:102FD000149064C5123B05500C9064C5123AF490ED
:102FE00064C5120448D21C8002C21C30951B201DEF
:102FF000149064B4123B05500C9064B4123AF490EF
:0B30000064B4120448D21D8002C21DFF
:10300B00D007D006D005D004D003D002D001D00019
:0B301B00D0D0D082D083D0F0D0E032C3
:1013050054646300000000000000000000000000BD
:10131500000000000000004164770041647800414E
:10132500647A00C12141647B0041647C0041647999
:081335000044647D000000008B
:1033FB0090647D12042074782FF582E43464F58395
:10340B002290653AE0FF2477F582E43464F5832259
:10341B007D00EF75F014A42463F9746435F0FA7B26
:10342B000122E5822EF582E43583F58322E4F090C8
:10343B006479E014F09000142290647CE4F09064C2
:09344B007BF02290647D02043C38
:0E3C7200906419EFF0123D1D906419E0FF22DE
:1039670078C2E2543FF2E254FCF2E24440F2907132
:1039770081E04404F090716EE04401F043AA20D244
:0B398700AF75D60175D59F75D21122D7
:03004B00021F147D
:101F1400C0E0C0F0C083C082C0D075D000C000C093
:0D1F240001C002C003C004C005C006C00714
:101F3100906420E4F0E5D420E503022031E5D7F0F8
:101F4100202104E0B4A509906479E0C39401400321
:101F5100022024906420E0B4A515D2211234441249
:101F61003C4290600C12045400000000123D449069
:101F7100647CE0B40108906420E090647BF012334B
:101F8100FBE06003022031906420E0FF12344E90A8
:101F9100646375F014EB120485EA75F014A42583CB
:101FA100F583C083C08290647CE0FE04F0D082D0CF
:101FB1008312342DEFF090600C12045400000000E5
:101FC10090647BE0606AE0FFA3E06F706390647BE4
:101FD100E0FB90647D12042074772F123413EBF030
:101FE100C2211234441233FB7401F0906479E0048D
:101FF100F090647D120420EF2401FFE43EFEE43DF5
:10200100FDE43CFC90647D120448E47F01FEFDFC8C
:1020110012344EC31203E9400A90647D1204540045
:10202100000000123C4290600C12045400000000B9
:10203100D007D006D005D004D003D002D001D00003
:0B204100D0D0D082D083D0F0D0E032AD
:0D3D1D00E5D430E4FB8FD7E5D430E4FB2281
:10218000E490653AF0A3F0C2207F0AFEFDFC906067
:102190000C12043CD31203E94019123C4290600C2B
:1021A00012045400000000E490647CF090647BF022
:1021B000C22122E490653AF090653AE0FFC39401B1
:1021C00040030222A374782F123404E07003022229
:1021D0009A90653AE075F014A42464F582E43464BE
:1021E000F583E0FE74772F123413E06E601A906569
:1021F0003AE02478123404123438C083C082123496
:082200001BD007D006020543C4
:10220800E490653CF090653BF0A3F012340CE014C8
:10221800FE90653CE0FDC39E5022EF75F014A424A7
:1022280063F582E43464F583E5822D123430E0FFEF
:1022380090653BE02FF0A3E004F080CF90653BE091
:10224800F012340CE0FEEF75F014A42462F582E479
:102258003464F58312342DE0FF90653BE06F600233
:02226800D22082
:10226A0030201DC22090653AE0FF2478123404120F
:10227A003438C083C08212341BD007D006120543FB
:10228A0090653AE0247AF582E43464F5837401F0C7
:09229A0090653AE004F00221B85D
:0122A3002218
:05133D004265400000C4
:103B6800907123E05498F0E0441EF02212028D90E8
:0B3B780064F41204489064F40204207E
:103B300078C3E24403F2E2440CF218E2440CF2E2ED
:0D3B40004403F2123B689071227407F022DA
:1035C900EF24FE601A14601F1460242403702690EF
:1035D9007123E054D8F0E04442F075990480161242
:1035E9003B68759905800E123B6875990180061232
:1035F9003B68E4F5997869E24448F27F017E00026C
:023609003B4D37
:100027007869E24401F2786BE230E1FA7402F2AFE8
:1000370093EF75F010A4FFAEF0E594C4540FFDEFF5
:030047004DFF2248
:10246000E49064F2F0A3F0A312045400000000E42E
:102470009064F8F0A3F074FFA3F0A3F0E4A3F0F0ED
:102480001200279064F2EEF0A3EFF09064FCE0C33A
:10249000940240549064F8E0FEA3E0FF9064F2E000
:1024A000FCA3E0FDD39FEC9E40089064F8ECF0A301
:1024B000EDF09064FAE0FEA3E0FFC3ED9FEC9E50C8
:1024C0000F9064F2E0FFA3E09064FACFF0A3EFF086
:1024D0009064F412043C9064F2E0FEA3E0FFE4FC9C
:1024E000FD120280A31204489064FCE004F0E0C3F3
:1024F0009414408C123B7DC006C0079064F8E0FE47
:10250000A3E0FBAA06E4F9F8D007D006123B74C09A
:1025100006C0079064FAE0FEA3E0FBAA06E4F8D048
:1025200007D006123B7478041203FA9064F2EEF0BE
:03253000A3EFF026
:012533002285
:103C210075AF3F8FAF75AEB975A402E5A530E1FB65
:013C31002270
:103835009065261204B175AF3F8FAF906529E0C33F
:1038450094014022E5A530E0FB906526E475F00182
:1038550012049A120156F5A675AEB975A4019065C4
:0738650029E014F080D522D8
:1038A1009063F21204B19063F5E06027AE070FEE6A
:1038B1002400FDE4343F8D82F583E493FE9063F2AE
:1038C100E475F00112049AEE1201CF9063F5E01451
:0438D100F080D3228E
:10327600616970313330322069732072756E6E6900
:103286006E670A00616970313330322069732073CA
:103296006C6565700A007965617220256275200A81
:1032A600006D6F6E746820256275200A006461796E
:1032B60020256275200A00686F75722025627520C8
:1032C6000A006D696E20256275200A007365632009
:0732D60025627520000A00CB
:0913420042653D000041653F00D9
:10393900A3F078E3E254FCF2E24401F2907192E4DC
:10394900F0229063F7E004F0E0C3940822C2A4C215
:0E39590096D2977F04FE22FFE0FEA807082208
:10319700E4FF78D3E2543FF2E24440F290718DE4C9
:1031A700F0E254CFF2E24410F290718CE4F012395D
:1031B7003BC297C29612000FEF7BFF60097A327904
:1031C700761205F880387A32798A1205F8E4FD7F9D
:1031D7008C12291E7D017F8812291E7D017F861290
:1031E700291E7D017F8A12291EE4FD7F8212291E76
:1031F700E4FD7F8412291EE4FD7F8012291E02351B
:013207003E88
:103B8300E4FDEE25E0FEEF30E004EE4401FEEFC37A
:093B930013FF0DEDB408EBAF06C1
:013B9C002206
:02320800AC0711
:10320A00E49063F2F0AF05123B83EC64816019EC41
:10321A0064836014EC6485600FEC6487600AEC6474
:08322A00896005EC648D70431E
:10323200E49063F3F0A3F0EC64816004ECB48306E1
:10324200EF547FFF8017EC64856004ECB48706EFCF
:10325200543FFF8008ECB48904EF541FFFEFC454BD
:103262000FFE9063F3F0EF540FFFA3F0EE75F00A38
:03327200A42FFF87
:013275002236
:052CE1009063F2EFF02A
:102CE600E4A3F0123939123956123D5CE49063F4CC
:102CF600F0122D559063F4E09063F2123960800271
:102D0600C313D8FC30E004D2A48002C2A47F047EA0
:102D160000123D5C122D5F40D878E3E254FCF27855
:102D2600E0E24410F2E49063F4F09063F3E025E00F
:102D3600F0122D5530A4079063F3E04401F0122DF4
:0E2D46005F40E7C296C297C2A49063F3E0FF1D
:102D540022C2967F047E00123D5C22D2967F047EBE
:0F2D640000123D5C9063F4E004F0E0C394082299
:053BE4009063F1EFF019
:103BE900E4FE122CE1AE079063F1E0FFAD0602326C
:013BF90008C3
:082D73009063F5EFF0A3EDF011
:102D7B00E4123939123956123D5CE49063F7F012C4
:102D8B002DF99063F7E09063F51239608002C3135D
:102D9B00D8FC30E004D2A48002C2A4122DE8123970
:102DAB004B40DCE49063F7F0122DF99063F7E0FFF2
:102DBB009063F6E0FEA807088002C313D8FC30E04E
:102DCB0004D2A48002C2A4122DE812394B40D9C2FE
:0C2DDB00967F047E00123D5CC297C2A4EB
:102DE700227F047E00123D5CD2967F047E00123D56
:0C2DF7005C22C2967F047E00123D5C222C
:0E000F007F80122CE1EF30E0037F00227F01A2
:01001D0022C0
:05291E009063F1EFF0F1
:10292300A3EDF0EF6480601D9063F1E0FF648260CB
:1029330014EF6484600FEF6486600AEF64886005B7
:05294300EF648C706CD4
:10294800E49063F3F0A3F09063F2E0FFC3940A40CD
:1029580007EF75F00A84A3F09063F2E075F00A843B
:10296800AFF09063F4EFF09063F3E0FEC454F04FDF
:102978009063F2F09063F1E0FF64806004EFB4824A
:10298800099063F2E0547FF080229063F1E0FF64E5
:10299800846004EFB486099063F2E0543FF0800C41
:0C29A8009063F1E0B48805A3E0541FF038
:1029B400E4FD7F8E122D739063F1E0FFA3E0FD121E
:0929C4002D737D807F8E022D73BE
:1022A400E490653D75F00112026AC390653EE094C6
:1022B400C890653DE094004055E4F0A3F07F8D1292
:1022C4003BE47A32799C1223637F89123BE47A32AD
:1022D40079A71223637F87123BE47A3279B31223FE
:1022E4006E7F85123BE47A3279BD12236E7F8312AE
:1022F4003BE47A3279C81223797F81123BE47A3243
:1023040079D21223797BFF7A3279DB1205F8906552
:102314003FE0704AC390653EE0940A90653DE094C6
:1023240000403BE4F0A3F07D187F8C12291E7D0C45
:102334007F8812291E7D1F7F8612291E7D077F8AB2
:1023440012291E7D177F8412291E7D3B7F8212294C
:0E2354001E7D2D7F8012291E90653F7401F0C2
:10236200227BFF9063F4EFF01205F8227BFF90636B
:10237200F4EFF01205F8227BFF9063F4EFF0120500
:02238200F8223F
:10364B0090651DE0FD7F8012291E90651CE0FD7FBB
:10365B008212291E90651BE0FD7F8412291E906546
:10366B001AE0FD7F8612291E906519E0FD7F8812F6
:0F367B00291E906517A3E02430FD7F8C02291EC5
:10368A0090651EA3E02430FD7F8C12291E906520D0
:10369A00E0FD7F8812291E906521E0FD7F861229B0
:1036AA001E906522E0FD7F8412291E906523E0FDAD
:0F36BA007F8212291E906524E0FD7F8002291E69
:10353E007F81123BE490642FEFF07F83123BE49087
:10354E00642EEFF07F85123BE490642DEFF07F87C1
:10355E00123BE490642CEFF07F89123BE490642BD5
:10356E00EFF07F8D123BE4EF24D0FEE4340790643D
:06357E0029F0A3CEF022AB
:04134B0041652A00CE
:103A5600906542F090652B02049190000612016F6A
:103A6600FE90000802016F9000091201E190000C1F
:013A7600222D
:101C3300E4906542F07FFFA374FFF090652B1204DC
:101C4300B190000112016FFE120156FDEEC39D50CB
:101C530003021DD7123A5A900001E41201E19000E9
:101C63000E1204BA120510EFF4600890652A74236B
:101C7300F0800990652AE06003E014F0123A5A906C
:101C8300000312016F6F601590000512016F600D64
:101C9300900004E41201E1900003021DD3900005BB
:101CA30012016FFE90000412016FC39E500B123A93
:101CB3005A900004740102019C123A5A90000212D5
:101CC300016F6F6049EFF4701D123A60C39E400BC1
:101CD3007405123A56900002021D53123A5A9000AC
:101CE3000A7401021DCA123A5A9000087401123A8A
:101CF3007012016F6F90652B600C120491740112C6
:101D03003A6DEF021DCA1204919000098051EFF45D
:101D13007055123A5A90000912016FD39400500380
:101D2300021DCD90000B12016FFE90000A12016F8D
:101D3300D39E4025123A5A90000912016FC39402B0
:101D430090654240057402F080037401F090000C2A
:101D530012016F906543F08051123A5A90000A7451
:101D63000112019C021DCD123A5A123A67C394FF25
:101D73005008900008740112019C123A60B50608DD
:101D83009065427403F0801D123A5A900007123A8C
:101D9300636E70367404123A5690000612016F9007
:101DA30000081201E1906543EFF0123A5AE4123A47
:101DB3006D74FF1201E1906543E09000111201E19F
:101DC300906542E09000121201E1123A5A9000022B
:041DD300EF1201E129
:011DD70022E9
:0B3D67007379732072657365740A00A5
:1037FB0078E2E2543FF2E24440F2907191E0F01231
:10380B003BB51237BF123967123992123745123D49
:10381B002A123D7A123B3012319712360B123C5260
:0A382B00123C107F017E00023B4DAD
:1038D50012238475D95590715EE054FEF075D9BBFD
:1038E5001237FB7BFF7A3D79671205F8D2A37FD0AB
:1038F5007E07123B4DC2A31222A41216F275D9AA55
:0239050080F54B
:10134F006023642100000000000000000000000086
:10135F00000000000000000000000000000000007E
:07136F000000000000000077
:0C3D50007B017A6479217408F0E4FF2202
:103BB5007E007F237D007B017A6479211205439085
:083BC50063F5123D500238A126
:0E3C8000E4FF123C21906529123D50023835B8
:1036C900FEE02FFFEC3EFEA3E02FFFEC3EFE22FAC8
:1036D9001204207E00EB2FFFEE3AFE3395E0FDFC4D
:1036E900221203FA7E009064FDE022FC906502023A
:0E36F90004489065020204209064FE02042042
:0514F2009064FDEFF025
:1014F700906502120454000000007FA5123D1D12E2
:1015070036FBEF24A5FFE43EFEE43DFDE43C123646
:10151700F49064FDE0FF64016032EF6402602DEF38
:1015270064036028EF64046023EF6405601EEF64C2
:10153700066019EF64096014EF640A600FEF641125
:10154700600AEF64126005EF641370207F051216BE
:10155700CC1216DEC0001237011236ED2405FDE469
:1015670033CD2FFFEE3D1236E30216969064FDE071
:10157700FF64076014EF6408600FEF640C600AEF04
:10158700640D6005EF641070337F06123D1D906493
:10159700FDE0FF1216B41216DEC000C002C003122F
:1015A700370178081236EA2406FDE433CD2FFBEE27
:1015B7003DA31236D8D003D0020216969064FDE000
:1015C700640B70467F071216CC78101203FA1216B6
:1015D700B41216E8C000C002C00312370178101217
:1015E70036EA2407FDE433CD2FFBEE3DFAA31204C0
:1015F7002078081203FA7E00EB2FFBEE3A9064FE88
:101607001236D8D003D0020216969064FDE0640E1D
:10161700600302169E7F0B123D1D7F0E123D1D902B
:101627006429E0FF123D1D906429E0A3E0FF123D0D
:101637001D90642BE0FF123D1D90642CE0FF123DCE
:101647001D90642DE0FF123D1D90642EE0FF123DBA
:101657001D90642FE0FF1216E8C000C001C002C051
:1016670003906429E02419FFE433FEE0A3E07C0043
:101677002FFFEC3E90642B1236C9A3E02FFFEC3E00
:10168700A31236C93395E0FDFCD003D002D001D0B8
:10169700001202801236F51236FBE4FEFD1236F414
:0D16A7001236FB123D1D7F017E00023B4DFF
:1016B400123D1D9064FE12042078081203FA123DB4
:1016C4001D9064FE12042022123D1D9064FDE0FF73
:1016D400123D1D9064FE12042022123D1D906502ED
:0E16E40012043C22123D1D90650212043C22AD
:05137600426544000087
:10399200123CCF123CDC123CF6123D03123D1012D7
:1039A2003CC2123CB5123CA8123C9B123C8E78E2FF
:0B39B200E254FCF278E0E24401F22253
:102A7900C3906545E094C8906544E0940050030212
:102A89002B20E4F0A3F090643E30A503F08003749A
:102A990001F0D20430A207E490643FF0800690640C
:102AA9003F7401F0D20530A107E4906440F080063C
:102AB9009064407401F0D206208607E490643AF0ED
:102AC900804020870890643A7401F080352090088E
:102AD90090643A7402F0802A20930890643A74034F
:102AE900F0801F20940890643A7404F0801420B098
:102AF9000890643A7405F0800920A70690643A7436
:102B090006F0D20120A00790644274018004E49089
:082B19006442F0A3F0D20A228D
:10137B00C1224264B000004264B200004864B40071
:10138B00000000000000004464AB0000000041645A
:02139B00AF00A1
:103BFA00E4FAF9F812032690652E0204481204200A
:063C0A0090652E02043C4F
:0D3D2A0078D3E254F3F278D0E24420F22284
:1025340090652E1204540000000020220302260796
:10254400C222E47F037E07FDFC9064B812043C12AF
:10255400029B7B20123BFA9064B8120454000000E2
:10256400009064A1123C071202809064A1120448F6
:10257400E47F24FEFDFC123C0A12029BC006C00745
:102584009064B2E0FEA3E0FBAA06E4F9F8D007D019
:10259400061203267B0A123BFA9064AFE0C3940A46
:1025A4005012E004F09064AB123C07120280906475
:1025B400AB020448E49064AFF09064AB120420E4EE
:1025C4007B0AFAF9F81203269064AB12044890646B
:1025D400AB1204209064341204489064AB12045487
:1025E40000000000E47FE77E03FDFC9064341204E5
:1025F4003CD31203E9400A906434120454000003EB
:03260400E7D20812
:0126070022B0
:10139D004264C100004264C30000C1234864C5001B
:1013AD00000000000000004164BC004464BD00006A
:0213BD0000002E
:073D7A0078C2E254CFF222EF
:1029CD0090653212045400000000202303022A787F
:1029DD00C223E47FA67E0EFDFC9064C912043C1256
:1029ED00029BC006C0079064C3E0FEA3E0FBAA06ED
:1029FD00E4F9F8D007D00612032690653212044888
:102A0D009064BCE0C394055016E004F0A3120420BA
:102A1D0090653212043C1202809064BD020448900D
:102A2D0064BD120420E47B05FAF9F81203269064C4
:102A3D00BD120448E49064BCF07FFF7EFFFDFCA353
:102A4D0012043CC31203E9400A9064BD1204540001
:102A5D0000FFFF9064BD1204209064301204489072
:0B2A6D0064BD12045400000000D207FA
:012A7800223B
:1013BF004464A5000000004464A1000000004264E2
:1013CF00A900004464990000000044649D000000DF
:0113DF00000D
:1039BD00E4FDFC12043CC30203E9120420EF2401D0
:1039CD00FFE43EFEE43DFDE43CFC22120420120225
:0B39DD008DE47B64FAF9F8C30203E9F3
:1026D8007F307E759064A51239BD400D9064A512B7
:1026E800045400000000123C807FE87E039064A13F
:1026F8001239BD40557F007ECA7D9A7C3B9064218B
:102708001239C0500C9064211239C7906421120408
:10271800487F407E427D0F7C009064251239C0506E
:102728000C9064251239C79064251204489064A15E
:10273800120420C3EF94E8FFEE9403FEED9400FD2D
:10274800EC9400FC9064A112044890649912043C33
:102758009064211239D8500E90642112042090649C
:1027680099120448D20C90649D12043C906425127E
:1027780039D8500E90642512042090649D120448A4
:10278800D20DC39064AAE094889064A9E0941340A1
:0927980008E4F0A3F0D20CD20D0C
:0127A1002215
:1013E000C100C101C102C103C104C105C106C107D9
:1013F000C108C109C10CC10DC10EC10FC110C1117D
:10140000C1124165060042650700004165090041BF
:0D141000650A0042650B000042650D0000FA
:1037070090643AE0FFE4FCFDFE9064FE020448E4A6
:103717007BE87A03906421F9F812042002032690CB
:10372700654CE075F014A422906438E0FEA3E0FF36
:0E373700E4FCFD2290654CE0FF75F014A42226
:10204C00E490654CF0F090654CE0FFC394014003C4
:10205C0002217F747A2FF582E43464F583E07003F7
:10206C000221761237262465F582E43464F583E088
:10207C0024D1601924FD7003022120147003022165
:10208C002424136003022126D200022126D20EEF53
:10209C0075F014A42467F582E43464F583E0FDEF55
:1020AC0075F014A42466F582E43464F583E02DFE07
:1020BC00E433906429F0A3CEF012373B2468F58208
:1020CC00E43464F583E090642BF0EF75F014A424F1
:1020DC0069F582E43464F583E090642CF012373BAC
:1020EC00246AF582E43464F583E090642DF0EF7596
:1020FC00F014A4246BF582E43464F583E090642E30
:10210C00F0123726246CF582E43464F583E0906495
:10211C002FF08006D2118002D212906479E0D39411
:10212C00004003E014F090654CE0FF247AF582E463
:10213C003464F583E4F074772FF582E43464F5832A
:10214C00E4F074782FF582E43464F583E4F0FE7FD8
:10215C0014C006C007FD1237262463F9746435F0E9
:10216C00FA7B01D007D00612054390654CE004F0D1
:03217C00022052EC
:01217F00223D
:0610DE002000030211A630
:1010E40090653612045400000000C200906506E0CA
:1010F40060030211A604F01237077F011214F29064
:10110400643B12370A7F021214F290643C12370ACD
:101114007F031214F290643E12370A7F041214F211
:1011240090643F12370A7F051214F290644012371C
:101134000A7F061214F29064301204201237107FD2
:10114400071214F29064341204201237107F08122C
:1011540014F290643D12370A7F091214F212371602
:101164001237107F0B1214F2E47B64FA9064251298
:10117400371E1237107F0C1214F212353E9064FEA3
:10118400120454000000007F0E1214F212372F12C2
:1011940037107F101214F290644112370A7F111233
:0211A40014F243
:1011A60030010AC2011237077F011214F230020D14
:1011B600C20290643B12370A7F021214F230040D09
:1011C600C20490643E12370A7F041214F230050DF1
:1011D600C20590643F12370A7F051214F230060DDD
:1011E600C20690644012370A7F061214F2300710C6
:1011F600C2079064301204201237107F071214F2CF
:10120600300810C2089064341204201237107F0888
:101216001214F230090DC20990643D12370A7F0993
:101226001214F2300A18C20A90644212370A7F1268
:101236001214F290644312370A7F131214F2300C20
:101246000DC20C1237161237107F0B1214F2300D26
:1012560016C20DE47B64FAF9F89064251237201261
:1012660037107F0C1214F2300E23C20E906509E07F
:10127600701B781E7C657D017B017A647929FE7F6F
:101286000712013012368A9065097401F0300F0D8D
:10129600C20F12372F1237107F101214F230100DB2
:1012A600C21090644112370A7F111214F2301119DC
:1012B600C211906421120454000000009064A1122F
:1012C600045400000000123C80301219C2129064CF
:1012D60025120454000000009064A112045400007A
:0612E6000000123C802212
:0D3D37006B6579203120636C69636B0A00B5
:10141D005463BF000101530002047300030753001E
:10142D0004091D00050CED5E63D3010102030405E3
:10143D0002060708090A030B0C0D0E0F04101112FA
:10144D0013140515161718195363AC0A0000000084
:0E145D00033241000000140001FF39070000B7
:0F004E00EC75F006A424D3F582E43463F5832225
:1034F200E4FD9063F3F0A374FFF0ED25E025E024F2
:10350200C1F582E43463F583E0FAA3E0D39FEA9E37
:10351200401CED25E025E024BFF582E43463F58309
:10352200E0FFA3E09063F3CFF0A3EFF080050DED91
:0B353200B405C79063F3E0FEA3E0FFC8
:01353D00226B
:103A1000E4FEFC12004EE0B5071112004EE5822DC7
:103A2000F582E43583F583E0FE80050CECB405E314
:023A3000AF06DF
:013A32002271
:10390700E49063F1F0A3F07F021235C9120027900B
:1039170063F1EEF0A3EFF09063F1E0FEA3E0FF1296
:1039270034F29063F1EEF0A3EFF09063F1E0A3E0DF
:01393700FF90
:01393800226C
:103A33009063BDE0601CE0FFA3E0FD123A10E49048
:103A430063BDF0A3F0EF1470097BFF7A3D79371261
:023A530005F874
:013A5500224E
:10146B004464CD000000004464D1000000004464DB
:09147B00D5000000004164D9FF16
:1039E800E47F429064D1FDFC12043CC30203E9E485
:1039F8007E0AFDFC9064D112043CD30203E9906472
:083A0800D11204489064D5229C
:100C31007F031235C9122460906540EEF0A3EFF0F6
:100C41009064D112043C906540E0FEA3E0FFE4FC17
:100C5100FD120280123A06120420EF2401FFE43E45
:100C6100FEE43DFDE43CFC9064D5120448E47FF4CD
:100C71007E019064CD1239EE5003020E8B9064CD4B
:100C8100120454000000009064D11204209064D535
:100C910012043C120326123A06120454000000000A
:100CA100E47F4D7E031239EB50099064D97464F0EE
:100CB100020D597E041239E850099064D9745AF032
:100CC100020D59E47F427E061239EB50099064D936
:100CD1007450F0020D59E47F147E071239EB50096C
:100CE1009064D97446F0020D59E47FAC7E07123945
:100CF100EB50099064D9743CF0020D59E47F3B7EBE
:100D0100081239EB50089064D97432F0804AE47FBC
:100D1100D87E081239EB50089064D97428F08038D5
:100D2100E47F7B7E091239EB50089064D9741EF080
:100D31008026E47FEC7E091239EB50089064D97467
:100D410014F080147E0A1239E850089064D9740AAC
:100D5100F08005E49064D9F07F7D1239F74008E412
:100D61009064D9F0020E77E47F6D7E0A1239EB5060
:100D7100107F421239F740099064D9740AF0020ECB
:100D810077E47F267E0A1239EB5013E47FEC7E096B
:100D91001239FA40099064D97414F0020E77E47F95
:100DA100CE7E091239EB5013E47F7B7E091239FAAA
:100DB10040099064D9741EF0020E77E47F457E09E4
:100DC1001239EB5013E47FD87E081239FA400990AA
:100DD10064D97428F0020E77E47F9E7E081239EB05
:100DE1005013E47F3B7E081239FA40099064D974AC
:100DF10032F0020E77E47F0F7E081239EB5013E4D4
:100E01007FAC7E071239FA40099064D9743CF00234
:100E11000E77E47F727E071239EB5012E47F147E65
:100E2100071239FA40089064D97446F08048E47F8B
:100E3100ED7E061239EB5012E47F427E061239FA3A
:100E410040089064D97450F0802CE47FBC7E051278
:100E510039EB5012E47F427E041239FA4008906463
:100E6100D9745AF08010E47F4D7E031239EB50069D
:100E71009064D97464F09064D9E090643DF090641A
:0B0E8100D1120454000000FFD209222F
:101484004464DA000000004464DE000000004464A8
:05149400E20000000071
:103B1200EF2401FFE43EFEE43DFDE43CFC020448E8
:0E3B2200E47FE27E04FDFC12043CC30203E9D2
:102608007F041235C9122460906540EEF0FAA3EFFA
:10261800F0FB9064E2120420EF2408FFE43EFEE49D
:102628003DFDE43CFC9064E2120448D3EB9400EADC
:1026380094089064DE50151204209064DE123B1258
:102648009064DA1204540000000080071204540059
:102658000000009064DE123B2240119064DE1204F8
:102668005400000000E4906441F0D210C39065412A
:10267800E094C7906540E0940B9064DA401512042A
:10268800209064DA123B129064DE120454000000B9
:10269800008007120454000000009064DA123B2204
:1026A80040129064DA1204540000000090644174EF
:1026B80001F0D210E47FE87E03FDFC9064E2123B57
:0F26C80029400C9064E212045400000000D2106C
:0126D70022E0
:101499004464EE000000004464E600000000446477
:0514A900EA0000000054
:103C62007C007D96120516E4FB7A10F9F802032611
:103BCD007E007C007D641202037D96120215EFC308
:063BDD00946240027F64C7
:013BE30022BF
:1027A200E4906546F0A3F07F011235C99064EA1205
:1027B200043CC000C001C002C003122460E4FCFD5E
:1027C200D003D002D001D0001202809064EA120439
:1027D200489064E6120420EF2401FFE43EFEE43D4B
:1027E200FDE43CFC9064E6120448E47FE87E03FDCD
:1027F200FC9064EE12043CC31203E940629064EA66
:102802001204209064E612043C1203269064EA1239
:1028120004489064EA120420123C62906546EFF08C
:10282200E0FF123BCDA3EFF09064EA1204540000E3
:1028320000009064E6120454000000009064EE125E
:10284200045400000000906547E090643BF09065FE
:0F28520046E0FF906438E4F0A3EFF0D20FD2021B
:012861002254
:10286200746F756368206B6579203120636C6963CE
:102872006B0A00746F756368206B65792031206480
:102882006F75626C650A00746F756368206B657999
:102892002031206C6F6E670A00746F756368206B5D
:1028A2006579203120686F6C640A00746F75636803
:1028B200206B65792031206C6F6F73650A00746F2D
:1028C200756368206B6579203220636C69636B0ADB
:1028D20000746F756368206B6579203220646F75B0
:1028E200626C650A00746F756368206B65792032CB
:1028F200206C6F6E670A00746F756368206B657970
:10290200203220686F6C640A00746F756368206BF4
:0C29120065792032206C6F6F73650A003D
:1014AE004C645701010203040502060708090A539A
:1014BE0064440A00000000033241000000140002E0
:0514CE00FF3A77000069
:103AB700E4FFFDFCAB1BAA1AA919A818C30203E966
:0F3AC700EE75F006A42457F582E43464F58322EB
:103A770075D9AA123A9775D9AA7E02123AB7700376
:103A87007F01227E04123AB770037F02227FFF2252
:10386C00E4906548F0A3F0FE123AC7E0B5071912D0
:10387C003AC7E5822DF582E43583F583E0FF906548
:10388C0048E4F0A3EFF080050EEEB402DB9065483F
:04389C00E0A3E0FFC6
:0138A0002205
:102E0300906455E07003022E92E0FFA3E0FD1238B8
:102E13006CE4906455F0A3F0EF1204EA2E41012E06
:102E230049022E51032E59042E61052E69062E7177
:102E3300072E79082E81092E890A00002E927BFF26
:102E43007A28796280467BFF7A287975803E7BFFFA
:102E53007A28798980367BFF7A28799B802E7BFFBD
:102E63007A2879AD80267BFF7A2879C0801E7BFF84
:102E73007A2879D380167BFF7A2879E7800E7BFF47
:0F2E83007A2879F980067BFF7A29790B1205F8F6
:012E9200221D
:1014D30041601801426019000041601B0041601C1B
:0E14E3000041601D0041601E7F42601FFFFF40
:10378200E4F561AE3EAD3DAC3C853F178E168D151E
:103792008C14787EE254FCF2E24514F218E515F23C
:1037A20018E516F218E517F2787FE254FBF2E254BC
:0D37B200FB4404F2E24401F27F01022F1FEC
:100E8C009063F1EFF0E0FF2483F582E43464F583A2
:100E9C00E004F074852FF582E43464F583E4F07497
:100EAC00832FF582E43464F583E0C3956350030229
:100EBC0010DD9063F1E0FB2483F582E43464F58368
:100ECC00E4F0903AE7936401600302108E7F01FE18
:100EDC00FDFC74872BF582E43464F583E0F9F81299
:100EEC00040DE51F4FF51FE51E4EF51EE51D4DF5D6
:100EFC001DE51C4CF51CAF1FAE1EAD1DFC78011280
:100F0C0003FAEF5455FBEE5455FAED5455F9EC54E5
:100F1C0055F8C3E51F9BF53BE51E9AF53AE51D997F
:100F2C00F539E51C98F538AF3BAE3AAD39FC780293
:100F3C001203FAEF5433FBEE5433FAED5433F9EC5D
:100F4C005433F8E53B5433FFE53A5433FEE539545A
:100F5C0033FDE5385433FCEB2FF53BEA3EF53AE92B
:100F6C003DF539E83CF538AF3BAE3AAD39FC780489
:100F7C001203FAEF253BFFEE353AFEED3539FDEC69
:100F8C003538FCEF540FF53BEE540FF53AED540F9A
:100F9C00F539EC540FF538AF3BAE3AAD39FC780867
:100FAC001203FAEF253BFFEE353AED3539FDEC3502
:100FBC0038EFF53BE4F53AEDF539E4F538AE3AACFB
:100FCC003878101203FAEF253BFFEE353AFEEFF5B9
:100FDC003BEEF53AE4F539F5389063F1E025E02481
:100FEC0091F582E43464F583E0FEA3E0D39553EEEF
:100FFC00955240249063F1E0FF25E02491F582E4C2
:10100C003464F583E0F552A3E0F55374872FF58231
:10101C00E43464F583E0F564903AE7E493FFE4FC90
:10102C00FDFEAB3BAA3AA939A838D31203E94052CA
:10103C00AF650565D3EF9403748094805003021060
:10104C00DDE4F565F51FF51EF51DF51C7F01FEFDB4
:10105C00FCA964A80112040D8F1B8E1A8D198C1813
:10106C00E47F01FEFDFCA80112040D8F338E328D3E
:10107C00318C30E4F552F553756420123026433729
:10108C000222E4F5657F01FEFDFC9063F1E0FB2498
:10109C0087F582E43464F583E0F9F812040DE51B5E
:1010AC004FF51BE51A4EF51AE5194DF519E5184CD7
:1010BC00F518E47F01FEFDFCA80312040DE5334F87
:1010CC00F533E5324EF532E5314DF531E5304CF581
:0210DC003022C0
:1008F200E4F566903AEBE493FFE566C39F4003029A
:100902000C30E56625E02400F582E4346085828AB5
:100912007F548F8B7E0E8E8C758903758889E56670
:1009220025E02400F582E4346085828A8F8B758C01
:1009320012758904758889E56625E02408F582E444
:100942003460F583E0FCA3E0C3950FEC950E502EC6
:10095200E56625E02414F582E43460F583E0FCA327
:10096200E0C39513EC95125015AF600560EF940249
:1009720074809480400BE4F5605337FD8003E4F506
:1009820060E53730E125E56625E02491F582E4341F
:1009920064F583E4F0A3F0E56625E02495F582E4AE
:1009A2003464F583E4F0A3F0020A40E56625E0240E
:1009B20008F582E4346085828A8E8B758C0A75898B
:1009C200267588892088FDE5F130E00875F107E495
:1009D200F50AF50BAE0AE50B7802C333CE33CED857
:1009E200F9FFE56625E02491F582E43464F583EEAF
:1009F200F0A3EFF0E56625E02414F582E434608587
:100A0200828A758B12758C0A758927758889208868
:100A1200FDE5F130E00875F107E4F50AF50BAE0AE1
:100A2200E50B7802C333CE33CED8F9FFE56625E075
:100A32002495F582E43464F583EEF0A3EFF0E566E5
:100A420025E02489F582E43464F583E0FEA3E078AE
:100A520002CEC313CE13D8F9F5518E50E56625E0C8
:100A62002491F582E43464F583E0FEA3E0FF903A3A
:100A7200E3E493FC740193FDC3EF9DEE9C4017E504
:100A82006625E02495F582E43464F583E0FEA3E074
:100A9200C39DEE9C50028068E56625E02491F582B4
:100AA200E43464F583E0FEA3E0C39551EE95504033
:100AB2001CE56625E02495F582E43464F583E0FEC6
:100AC200A3E0C39551EE95504003020B4C7481256F
:100AD20066F582E43464F583E004F074812566F5FA
:100AE20082E43464F583E0FF903AE8E493FEEFD3C6
:100AF2009E406474812566F582E43464F583E4F0F3
:100B0200E56625E02404F582E43460F583E0FEA383
:100B1200E0FFE56625E02408F582E43460F583EE23
:100B2200F0A3EFF0E56625E02410F582E43460F5E9
:100B320083E0FEA3E0FFE56625E02414F582E434B9
:100B420060F583EEF0A3EFF0800D74812566F582E7
:100B5200E43464F583E4F0E56625E02404F582E4F8
:100B6200346085828AE56625E02400F582E43460FB
:100B720085828B758C0A7589207588CB2088FDE566
:100B8200F130E00875F107E4F50AF50BE56625E0BA
:100B92002404F582E4346085828A758B547F0E8F3B
:100BA2008C7589237588897E0A8E8A8F8BE56625E6
:100BB200E02404F582E4346085828CE4F58975884A
:100BC20029E56625E02410F582E4346085828AE511
:100BD2006625E02400F582E4346085828B8E8C7574
:100BE20089207588CB2088FDE5F130E00875F10792
:100BF200E4F50AF50BE56625E02410F582E434609D
:100C020085828A758B547F0E8F8C758924758889AD
:100C1200758A0A8F8BE56625E02410F582E434603C
:0F0C220085828CE4F58975882905660208F5221C
:1018C500E4F566903AEBE493FFE566C39F400302B7
:1018D5001A7DE56625E02489F582E43464F583E024
:1018E500FEA3E07802CEC313CE13D8F9F5518E507E
:1018F500E56625E02491F582E43464F583E0FEA3F2
:10190500E0D39551EE9550402EE56625E02495F5FA
:1019150082E43464F583E0FEA3E0D39551EE95505F
:10192500401574852566F582E43464F583E4F0AFEB
:1019350066120E8C021A78903AEAE493FFC3E551D9
:101945009FFFE5509400FED3EF9400EE9400400213
:1019550080047E007F00E56625E02491F582E4346D
:1019650064F583E0FCA3E0C39FEC9E4003021A6B81
:10197500903AEAE493FFC3E5519FFFE5509400FEDA
:10198500D3EF9400EE9400400280047E007F00E5D2
:101995006625E02495F582E43464F583E0FCA3E054
:1019A500C39FEC9E4003021A6B74832566F582E49F
:1019B5003464F583E4F074852566F582E43464F5D2
:1019C50083E004F074852566F582E43464F583E0EC
:1019D500C395635003021A7874852566F582E4344D
:1019E50064F583E4F07F01FEFDFC74872566F582CE
:1019F500E43464F583E0F9F812040D1203B8E51F29
:101A05005FF51FE51E5EF51EE51D5DF51DE51C5C1C
:101A1500F51CE47F01FEFDFCA966A80112040D1268
:101A250003B8E5335FF533E5325EF532E5315DF553
:101A350031E5305CF530E47F01FEFDFC74872566F9
:101A4500F582E43464F583E0F9F812040D1203B865
:101A5500E51B5FF51BE51A5EF51AE5195DF519E558
:101A6500185CF518800D74852566F582E43464F5F7
:091A750083E4F005660218C822A2
:10302600E4F566903AEBE493FFE566C39F506EE5E0
:103036006625E02491F582E43464F583E4F0A3F098
:10304600E56625E02495F582E43464F583E4F0A38F
:10305600F0E56625E02404F582E43460F583E0FEBD
:10306600A3E0FFE56625E02408F582E43460F583F5
:10307600EEF0A3EFF0E56625E02410F582E4346077
:10308600F583E0FEA3E0FFE56625E02414F582E47F
:0E3096003460F583EEF0A3EFF005668086222D
:102BBC00E4F566903AEBE493FFE566C39F506790AB
:102BCC006018E0FF7E00C39410748094805053EF23
:102BDC009408748094804025E56625E02400F582F5
:102BEC00E43460F583E0FEA3E0FFE56625E0240411
:102BFC00F582E43460F583EE8FF012026AE5662507
:102C0C00E02400F582E43460F583E0FEA3E0FFE508
:102C1C006625E02410F582E43460F583EE8FF01223
:102C2C00026A0566808D906018E0C39410748094DD
:102C3C008040054337048006906018E004F07F0163
:032C4C00022F1F35
:1030A400E4FFFEFDFCAB1BAA1AA919A818C312035E
:1030B400E9606390601AE004F07006906019E0041F
:1030C400F0903ADFE493FE740193FF4E602ED390A8
:1030D400601AE09F906019E09E4021E4F0A3F0F5AF
:1030E4001FF51EF51DF51CF533F532F531F530F5F8
:1030F4001BF51AF519F518C21F023026903AE1E4BF
:1031040093FE740193FFD390601AE09F906019E0DE
:0D3114009E400AD21F22E4906019F0A3F043
:01312100228B
:051A7E0090641BEFF075
:101A8300A3E0FCA3E0FDA3E0FEA3E0F54C8E4B8DA9
:101A93004A8C497884E2F50A08E2F50B758A0875E1
:101AA3008B49758C4575881D2088FDE4FFFEFDFC80
:101AB300AB48AA47A946A845D31203D34006AC4571
:101AC300A8048013AF48AE47AD46AC451203C5AB7F
:101AD30007AA06A905A80490601FE0FEA3E0FFE49F
:101AE300FCFDC31203D35041E4FFFEFDFCAB48AA47
:101AF30047A946A8451203D34006AF48AE47800B1B
:101B0300AF48AE47AD46AC451203C590601FEEF03B
:101B1300A3EFF090641BE025E0248DF582E43464A8
:101B2300F583E0A3E090601EF0903ADCE493FE744A
:101B33000193FFD3906020E09F90601FE09E501BB5
:101B430090641BE025E0248DF582E43464F583E0A2
:101B5300A3E090601EF090601B8079E4FFFEFDFC23
:101B6300AB48AA47A946A845D31203D3403490648F
:101B73001BE0FF25E0248DF582E43464F583E0FC6B
:101B8300A3E0D39400EC9400404DEF25E0248DF5C1
:101B930082E43464F58374FFF5F012026A90601CEA
:101BA300803290641BE0FF25E0248DF582E43464E9
:101BB300F583E0FCA3E0C3947FEC94005019EF2578
:101BC300E0248DF582E43464F583E475F0011202B8
:101BD3006A90601D7401F090601CE064017011A3B1
:101BE300E06401700B90601CF0A3F090601B04F0A4
:101BF30090601BE06401703590601EE0FF90641BF1
:101C0300E025E0248DF582E43464F583E4F0A3EF6A
:101C1300F074FF90601FF0A3F090601E747FF0E4F7
:0F1C230090601CF0A3F090601BF07F01227F0007
:011C3200228F
:10333F00E490641AF0903AD612042C780112040D1E
:10334F0090641C120448AF61121A7EEF602205616F
:10335F00E53730E4095337EF90641A7401F0903A6F
:10336F00EBE493FFE561C39F4006E4F5614337103B
:10337F00C3903ADA7401939562E4939400400890F5
:10338F00641AE064017005D21E023782E4FF122F27
:01339F001F0E
:0133A000220A
:102F1F00EF70607F01FEFDFC74872561F582E4345C
:102F2F0064F583E0F9F812040D8F178E168D158C4A
:102F3F0014787EE254FCF2E24514F218E515F2180B
:102F4F00E516F218E517F2E56125E0248DF582E428
:102F5F003464F583E0A3E0547FFF7878E254804F28
:102F6F00F2787FE254FBF2E254FB4404F2E24401B4
:102F7F00F2801CE56125E0248DF582E43464F5834D
:102F8F00E0A3E0547FFF7878E254804FF2787FE23D
:042F9F004402F222D4
:102B2100E490654AF0A3F090654AE0FEA3E0FFC39C
:102B31009488EE94035031EF24F2FFEE34088F8233
:102B4100F583E493FF90654BE02421FD90654AE015
:102B510034608D82F583EFF090654BE004F070C72F
:082B610090654AE004F080BF1A
:102B69009063A97401F0A37460F0A37421F0E4F5F3
:102B790061F537F536F535F534C21EC21FF51FF577
:102B89001EF51DF51CF533F532F531F530F51BF55C
:102B99001AF519F518903AE593FF903AE9E493FE8E
:102BA900A807088002C333D8FCF563756420E4FFE5
:032BB900022F1FC9
:103122007884E2F50A08E2F50BAE0A7803CEC313FF
:10313200CE13D8F97802C333CE33CED8F9FFE56186
:1031420025E02400F582E43460F583EEF0A3EFF08D
:10315200201E0F903ADEE4937005D21E02378202DF
:10316200333F0561903AEBE493FFE561C39F401F53
:10317200787FE254FBF2E254FB4404F2E24401F2AF
:10318200E4F561E53720E203022BBC433701227FDD
:0531920001122F1F22B5
:053D810005620230A400
:103A9700E53730E01A9063A9A3E0FAA3E0F912052D
:103AA700101218C5E4F5617F01122F1F5337FE224C
:102E9F000238D5E493A3F8E493A34003F68001F23C
:102EAF0008DFF48029E493A3F85407240CC8C33334
:102EBF00C4540F4420C8834004F456800146F6DF03
:102ECF00E4800B01020408102040809012ECE47E95
:102EDF00019360BCA3FF543F30E509541FFEE493F8
:102EEF00A360010ECF54C025E060A840B8E493A3BF
:102EFF00FAE493A3F8E493A3C8C582C8CAC583CAEA
:102F0F00F0A3C8C582C8CAC583CADFE9DEE780BEA1
:0114F10000FA
:10006000E709F608DFFA8046E709F208DFFA803E82
:1000700088828C83E709F0A3DFFA8032E309F6086F
:10008000DFFA8078E309F208DFFA807088828C83D7
:10009000E309F0A3DFFA806489828A83E0A3F6088B
:1000A000DFFA805889828A83E0A3F208DFFA804C65
:1000B00080D280FA80C680D4806980F2803380103C
:1000C00080A680EA809A80A880DA80E280CA8033A5
:1000D00089828A83ECFAE493A3C8C582C8CCC5831D
:1000E000CCF0A3C8C582C8CCC583CCDFE9DEE780ED
:1000F0000D89828A83E493A3F608DFF9ECFAA9F06C
:10010000EDFB2289828A83ECFAE0A3C8C582C8CCC1
:10011000C583CCF0A3C8C582C8CCC583CCDFEADEDA
:10012000E880DB89828A83E493A3F208DFF980CC3C
:1001300088F0EF60010E4E60C388F0ED2402B40435
:100140000050B9F582EB2402B4040050AF232345DC
:0601500082239000B07351
:10015600BB010689828A83E0225002E722BBFE02A7
:09016600E32289828A83E49322DA
:10016F00BB010CE58229F582E5833AF583E0225045
:10017F0006E92582F8E622BBFE06E92582F8E2228F
:0D018F00E58229F582E5833AF583E49322A9
:10019C00BB010FF8E58229F582E5833AF583E02867
:1001AC00F0225009C58229F8E58226F622BBFE0909
:1001BC00C58229F8E22582F222F8EA2583F583E943
:0301CC0093282253
:1001CF00BB010689828A83F0225002F722BBFE010F
:0201DF00F32209
:1001E100F8BB010DE58229F582E5833AF583E8F054
:1001F100225006E92582C8F622BBFE05E92582C800
:02020100F222E7
:10020300EF8DF0A4A8F0CF8CF0A428CE8DF0A42E0F
:02021300FE22C9
:10021500BC000BBE0029EF8DF084FFADF022E4CCCD
:10022500F875F008EF2FFFEE33FEEC33FCEE9DEC96
:10023500984005FCEE9DFE0FD5F0E9E4CEFD22EDDC
:10024500F8F5F0EE8420D21CFEADF075F008EF2F26
:10025500FFED33FD4007985006D5F0F222C398FD17
:050265000FD5F0EA22B4
:10026A00C5F0F8A3E028F0C5F0F8E582158270021F
:06027A001583E038F022BC
:0D028000EF2BFFEE3AFEED39FDEC38FC22CD
:0E028D00C3EF9BFFEE9AFEED99FDEC98FC226C
:10029B00E88FF0A4CC8BF0A42CFCE98EF0A42CFC02
:1002AB008AF0EDA42CFCEA8EF0A4CDA8F08BF0A480
:1002BB002DCC3825F0FDE98FF0A42CCD35F0FCEBDF
:1002CB008EF0A4FEA9F0EB8FF0A4CFC5F02ECD39A4
:0F02DB00FEE43CFCEAA42DCE35F0FDE43CFC2211
:1002EA0075F008758200EF2FFFEE33FECD33CDCCCB
:1002FA0033CCC58233C5829BED9AEC99E58298404E
:10030A000CF582EE9BFEED9AFDEC99FC0FD5F0D62A
:10031A00E4CEFBE4CDFAE4CCF9A88222B800C1B954
:10032A000059BA002DEC8BF084CFCECDFCE5F0CB92
:10033A00F97818EF2FFFEE33FEED33FDEC33FCEBCB
:10034A0033FB10D703994004EB99FB0FD8E5E4F986
:10035A00FA227818EF2FFFEE33FEED33FDEC33FC73
:10036A00C933C910D7059BE99A4007EC9BFCE99A67
:10037A00F90FD8E0E4C9FAE4CCFB2275F010EF2FAC
:10038A00FFEE33FEED33FDCC33CCC833C810D707AC
:10039A009BEC9AE899400AED9BFDEC9AFCE899F8E7
:0E03AA000FD5F0DAE4CDFBE4CCFAE4C8F9227A
:0D03B800CFF4CFCEF4CECDF4CDCCF4CC22DA
:0E03C500C3E49FFFE49EFEE49DFDE49CFC2249
:1003D300EB9FF5F0EA9E42F0E99D42F0EC6480C8A1
:0603E30064809845F02241
:1003E900EB9FF5F0EA9E42F0E99D42F0E89C45F06A
:0103F90022E1
:1003FA00E8600FECC313FCED13FDEE13FEEF13FFE1
:03040A00D8F12204
:10040D00E8600FEFC333FFEE33FEED33FDEC33FC4D
:03041D00D8F122F1
:0C042000E0FCA3E0FDA3E0FEA3E0FF224F
:10042C00E493FC740193FD740293FE740393FF2216
:0C043C00E0F8A3E0F9A3E0FAA3E0FB2243
:0C044800ECF0A3EDF0A3EEF0A3EFF02227
:10045400A8828583F0D083D08212046B12046B12BD
:10046400046B12046BE473E493A3C583C5F0C583E2
:10047400C8C582C8F0A3C583C5F0C583C8C582C8F2
:010484002255
:0C048500A42582F582E5F03583F5832282
:09049100E0FBA3E0FAA3E0F9226C
:10049A00F8E0FBA3A3E0F925F0F0E58215827002EB
:0704AA001583E0FA38F0228F
:0904B100EBF0A3EAF0A3E9F0224C
:1004BA00BB010DE58229F582E5833AF583020491B1
:1004CA005007E92582F802056FBBFE07E92582F885
:1004DA00020578E58229F582E5833AF583020581EA
:1004EA00D083D082F8E4937012740193700DA3A3A1
:1004FA0093F8740193F5828883E4737402936860B5
:06050A00EFA3A3A380DFB4
:060510008A838982E47376
:10051600EC8EF0A4CCC5F0CCCDF8EFA4CEC5F02D72
:10052600FDE43CFCE8A42EC8C5F03DFDE43CFCEF30
:0D053600A4FFE5F028FEE43DFDE43CFC22BE
:10058D00E54024F4F582E43463F583E005402290E0
:10059D0063F1301A039063F4E475F00112049A02CA
:1005AD0001562013E97F2ED2138018EF540F24909B
:1005BD00D43440D4FF30170BEF24BFB41A005003CE
:1005CD002461FFE541600215410544E544700205D3
:1005DD0043301A0E9063F1E475F00112049AEF02A4
:1005ED0001CF023C727403D21A8003E4C21AF540A3
:1005FD009063F11204B1E4F541F543F544E5416032
:10060D00077F201205D080F57542FFC214C213C2B8
:10061D0015C216C218C219C21B12059CFF700D30EF
:10062D001A057F001205E1AF44AE4322B4255FC227
:10063D00D5C21712059CFF24D0B40A00501A75F0CC
:10064D000A784130D50508B6FF0106C6A426F62066
:10065D00D5047002D21680D924CFB41A00EF5004FD
:10066D00C2E5D2170207E2D21480C6D21380C0D2DF
:10067D001580BCD2D580BAD21880B47F201205D097
:10068D002015077401B5410040F112058DFF1205CB
:10069D00D002060AD21BD219809512058DFB1205C8
:1006AD008DFA12058DF94A4B700679B37A087BFFE6
:1006BD0020152EE541602A7E008E82758300120181
:1006CD006F60060EEE654270F0C2D5EBC0E0EAC079
:1006DD00E0E9C0E0EE120829D0E0F9D0E0FAD0E070
:1006ED00FB120156FF60AAEBC0E0EAC0E0E9C0E0F2
:1006FD001205D0D0E02401F9D0E03400FAD0E0FBAF
:10070D00E5420460DCD542D980877BFF7A087925E4
:10071D00D215809C791080027908C219C21B8008FD
:10072D00D2D5790A8004790AC2D5E542047002F562
:10073D0042E4FAFDFEFF12058DFC7B082014131216
:10074D00058DFD7B1030130A12058DFE12058DFFF0
:10075D007B20EC3382D592D55013C3E43013069F22
:10076D00FFE49EFEE42014039DFDE49CFCE4CBF825
:10077D00C214EC700CCFCECDCCE824F8F870F38019
:10078D0017C3EF33FFEE33FEED33FDEC33FCEB33EC
:10079D00FB994002FB0FD8E9EB301405F8D0E0C40B
:1007AD0048B214C0E00AEC4D4E4F78207B0070C269
:1007BD00EAB5420040BCC0E012082BD0F0D0E020DA
:1007CD001404C4C0E0C4B214C0F01205B9D0F0D501
:1007DD00F0EB02060A1204EA06A753072158067821
:1007ED004C06744207254F072D44072D49068D43AE
:0807FD000733550717460717E3
:100805004507174708D350067C2D06802E06A32BD7
:1008150006842306A12008BC2A063C480000069B46
:100825003F3F3F00790AA2D5201614301809B910A8
:10083500020404B9080104A2D520190250010420BC
:1008450015689215B541005034C0E07F2030161967
:100855007F30A21572197218500F120882C215C284
:1008650019C218C21B7F30800F301803E9C0E0128F
:1008750005D0301803D0E0F9D0E0B541CC301817D9
:100885007F30B9100C1205D07F583017077F78805C
:1008950003B908031205D03015057F2D0205D07F59
:1008A50020201BF87F2B2019F322921580CF286E6C
:1008B500756C6C2900D21412058D3014F8C21478A9
:1008C5004130D50108F602063C2D50434958120522
:1008D5008D2403B405004001E49008CE931205C1B0
:0D08E500743A1205C1D216754104020721B4
:10054300EF4E6012EF60010EEDBB010B89828A83CF
:10055300F0A3DFFCDEFA2289F05007F709DFFCA9DC
:0C056300F022BBFEFCF309DFFCA9F02233
:09056F00E6FB08E6FA08E6F922B1
:09057800E2FB08E2FA08E2F922B4
:0C058100E493FB740193FA740293F922D6
:00000001FF
