:03000000022A30A1
:0C2A3000787FE4F6D8FD758166022A77F5
:0C000300000000000000000000000000F1
:0B389200EF1FAC0670011E4C70F62208
:10368300AB07AA06EB1BAE0270011A4E600C75D98C
:0B369300AA7FAA7E0512389280EA226E
:101FA500907120E04480F07F057E00123892E4FFB6
:101FB500FE12368375A75575AC5C9071327450F07E
:101FC5009071307403F0907136742FF090715C74D9
:101FD50003F090715BE054FCF07F18EF2466FDE49C
:101FE50034718D82F583E4F00FEFB433EE90401138
:101FF500E4935407FF90711CE054F84FF09040179C
:10200500E493547FFF90711DE054804FF090401091
:10201500E493FF5401C43333335480FE907123E0BD
:10202500547F4EF0EFC313543F4440FFA3E0548068
:102035004FF0904012E493FF540FFE907146E05428
:10204500F04EF0EFC4540FFF90714FE054F04FF095
:10205500904013E493543FFF907140E054C04FF01B
:10206500904014E493907126F0904015E49390719C
:0B20750028F0904016E49390712AF0D0
:01208000223D
:10362900000009C4006400C80101F4004B000A004D
:0E36390000010F04050200090064000A00648D
:1036D300E2FE74932FF582E43464F583E02224FC44
:0836E30025E0FDF87403082244
:101C0D00E4FF1236D5C3940850581236D5C3940448
:101C1D00502878C2C0001236D31236E38002C33387
:101C2D00D8FCF45ED000F278C2C0001236D3123662
:101C3D00E38002C333D8FC021D3B78C3C0001236CB
:101C4D00D31236E18002C333D8FCF45ED000F278B3
:101C5D00C3C0001236D31236E18002C333D8FC0262
:101C6D001D3B1236D5C3940840681236D5C3941067
:101C7D0050601236D5C3940C502C78D2C000123659
:101C8D00D324F81236E38002C333D8FCF45ED000BF
:101C9D00F278D2C0001236D324F81236E38002C394
:101CAD0033D8FC021D3B78D3C0001236D324F41276
:101CBD0036E38002C333D8FCF45ED000F278D3C093
:101CCD00001236D324F41236E38002C333D8FC025B
:101CDD001D3B1236D5C39414502B78E2C00012363A
:101CED00D324F01236E38002C333D8FCF45ED00067
:101CFD00F278E2C0001236D324F01236E38002C32C
:101D0D0033D8FC802978E3C0001236D324EC123688
:101D1D00E38002C333D8FCF45ED000F278E3C00058
:101D2D001236D324EC1236E38002C333D8FC4ED0E6
:0B1D3D0000F20FEF64026003021C0FB5
:011D48002278
:03005D0002313934
:10313900C0E0C0F0C083C082C0D075D000C000C05C
:1031490001C002C003C004C005C006C0077881E2FF
:1031590030E607E24440F2122CBFD007D006D00572
:10316900D004D003D002D001D000D0D0D082D083F7
:05317900D0F0D0E032AF
:102F7700D2AF43AB0843B6C0907132E04440F04350
:102F8700AB087877743FF208744BF2787A7430F2B2
:102F9700788914F27871744FF2187427F278727482
:102FA700A8F2087410F208E4F208F208F2787E74C6
:0F2FB700D0F2087404F208741EF2087402F222B9
:10287C00E4FBEB25E025E0243FF582E43436F583D8
:10288C00740193FF74932BF582E43464F583EFF0B9
:10289C00EB25E025E02441F582E43436F583E4931E
:1028AC00FE740193FFEB25E02495F582E43464F586
:1028BC0083EEF0A3EFF0EB25E02499F582E4346489
:1028CC00F583E4F0A37441F0E47F01FEFDFC749306
:1028DC002B1236D8F9F812040DE53F4FFFE53E4EAA
:1028EC00FEE53D4DFDE53C4C8F3F8E3E8D3DF53C70
:1028FC000BEB6402600302287E121C0D12274E02A1
:02290C002F7723
:1037670078C2E254BFF2E24440F2907181E4F02261
:0D37D10078C3E254CFF278C0E24440F22207
:0D37DE0078C3E2543FF278C0E24480F2224A
:0D37EB0078D2E254FCF278D0E24401F222E0
:0D37F80078D2E2543FF278D0E24408F22289
:0D38050078D3E254FCF278D0E24410F222B5
:0D38120078E2E254F3F278E0E24402F222A0
:0D381F0078E2E254CFF278E0E24404F222B5
:0D382C0078E2E2543FF278E0E24408F22234
:0D38390078E3E254F3F278E0E24420F2225A
:0D38460078E3E2543FF278E0E24480F222A1
:0D38530078F2E254FCF278F0E24401F22237
:070FC00044600C000000007A
:08389D007890E2541FF2E222D0
:1032F400E5B154F342B153A8DFD2AF7892E4F208B7
:10330400F27890E254E3F2E2441CF2E254FCF2E27A
:103314004401F208E2547FF2E24420F27895740109
:0C332400F2187476F212389D44A0F222D8
:0C387A0012389D44C0F243A820D2AF22B7
:1037770012389D44A0F27892E4F208F253A8DF22AF
:03001E00022FC6E8
:102FC600C0E0C0F0C083C082C0D075D000C000C0D1
:102FD60004C005C006C0077891E230E71DE24480D0
:102FE600F290600C120420EF2401FFE43EFEE43D63
:102FF600FDE43CFC90600C120448D007D006D005D6
:0F300600D004D000D0D0D082D083D0F0D0E03230
:0E0FC70044650B0000000044650700000000B8
:102DA200C374FF9BFB74FF9AFAE499F9E498F8E084
:102DB200FEA3E0FFE4FCFD22C374FF9BFF74FF9AB5
:102DC200FE74FF99FD74FF98FC12043CC30203E9F0
:102DD20012042090647802043CEE8FF012026AC35F
:102DE20022906478020420120420EF2401FFE43EC2
:102DF200FEE43DFDE43CFC227BFF7AFFF9F8D302BE
:022E020003D3F8
:10327A00E5B154CF42B153A8BFD2AF75D102789C01
:10328A00E254E3F2E2441CF2E254FCF2E24401F2B8
:10329A0008E2547FF2E24420F278A17401F2187431
:0D32AA0076F2789CE2541FF2E244A0F2227A
:10378700789CE2541FF2E244C0F243A840D2AF2231
:1013EB0090650B1204209064741204489064781278
:1013FB0004540000000090650B1204540000000020
:10140B0090650712043C90647412042012028D90B4
:10141B006478120448906507120454000000009091
:10142B00651FE0FEA3E0FFE4FCFD122DFA400C1259
:10143B002DE390651FEE8FF012026A122DD590648A
:10144B00CD122DA2D31203E94042122DE39064CDAD
:10145B00122DDB9064CEE094649064CDE094004058
:10146B002BE0FFA3E09064CFCFF0A3EFF0E4906408
:10147B00CDF0A3F09064D11204209064D5120448EF
:10148B009064D112045400000000D21B122DD59091
:10149B0064BC122DA2D31203E94042122DE39064D7
:1014AB00BC122DDB9064BDE094649064BCE09400AE
:1014BB00402BE0FFA3E09064BECFF0A3EFF0E490ED
:1014CB0064BCF0A3F09064C01204209064C41204B6
:1014DB00489064C012045400000000D21A122DD59B
:1014EB009064B1122DBA500F9064B1122DD212022A
:1014FB00809064B1120448122DD59064D9122DBA84
:10150B00500F9064D9122DD21202809064D912041C
:10151B00489064FEE0B4011F122DE39064FF122D7E
:10152B00DB906500E094C49064FFE094094008E40C
:10153B00F0A3F09064FEF0906502E0B4011F122D51
:10154B00E3906505122DDB906506E09464906505CC
:10155B00E094004008E4F0A3F0906502F090650180
:10156B00E0B4011F122DE3906503122DDB9065048F
:10157B00E09464906503E094004008E4F0A3F090DD
:10158B006501F09064B5122DB1122DFA400A9064EA
:10159B00B5E475F00112026A74FFFFFEFDFC906466
:1015AB00FA122DCB500C9064FA122DE99064FA12BA
:0215BB000448E2
:0115BD00220B
:03002100022EC4E8
:102EC400C0E0C0F0C083C082C0D075D000C000C0D4
:102ED40004C005C006C007789DE230E728E24480BC
:102EE400F290650B122DE990650B1204489063ADC6
:102EF400E0C394FF5003E004F0906456E0C394FFF1
:102F04005003E004F0D007D006D005D004D000D0A0
:0A2F1400D0D082D083D0F0D0E0329C
:040FD500C115C1166B
:10364700120420EF2401FFE43EFEE43DFDE43CFCD0
:0E3657002274FFFFFEFDFC12043CC30203E9D7
:10317E00E5B254FC42B253A9FED2AF75D1049071A0
:10318E0000E054E3F0E0F0E054FCF0E04401F09095
:10319E0071057409F0907104745FF0907100E05441
:1031AE001FF0E044A0F0A3E0547FF0E04420F022B2
:10374500907100E0541FF0E044C0F043A901D2AFEE
:013755002251
:03002400022B406C
:102B4000C0E0C0F0C083C082C0D075D000C000C05B
:0D2B500001C002C003C004C005C006C007DC
:102B5D00907101E030E744E04480F030821B201595
:102B6D00149064D1123658500C9064D1123647909F
:102B7D0064D1120448D2158002C21530951B20165F
:102B8D00149064C0123658500C9064C012364790A1
:0B2B9D0064C0120448D2168002C21669
:102BA800D007D006D005D004D003D002D001D00081
:0B2BB800D0D0D082D083D0F0D0E0322B
:100FD900602D63F100000000000000000000000027
:100FE90000000000000000000000000000000000F8
:100FF90000000000000000000000000000000000E8
:101009000043641E0000004364210000004364257E
:10101900000000C119416428004164290041642489
:081029000044642A00000000ED
:102F1E0090642A12042074212FF582E43464F58320
:102F2E0022906474E0FF241EF582E43464F583225B
:102F3E007D00EF75F00FA424F1F9746335F0FA7B80
:102F4E000122E5822EF582E43583F58322E4F090AA
:102F5E006424E014F090000F22906429E4F0906451
:092F6E0028F02290642A02043CC0
:0E37A700906523EFF0123860906523E0FF225A
:1034980078C2E2543FF2E254FCF2E24440F2907106
:1034A80081E04404F0907175E04401F043AA20D211
:0B34B800AF75D60175D59F75D21122AB
:03004B00021D494A
:101D4900C0E0C0F0C083C082C0D075D000C000C060
:0D1D590001C002C003C004C005C006C007E1
:101D660090648CE4F0E5D420E503021E66E5D7F026
:101D7600201904E0B4A509906424E0C39403400349
:101D8600021E5990648CE0B4A515D219122F671261
:101D9600377790600C1204540000000012387A90D5
:101DA6006429E0B4010890648CE0906428F0122F56
:101DB6001EE06003021E6690648CE0FF122F719095
:101DC60063F175F00FEB120485EA75F00FA4258315
:101DD600F583C083C082906429E0FE04F0D082D0EF
:101DE60083122F50EFF090600C1204540000000094
:101DF600906428E0606AE0FFA3E06F706390642857
:101E0600E0FB90642A120420741E2F122F36EBF08A
:101E1600C219122F67122F1E7401F0906424E00479
:101E2600F090642A120420EF2401FFE43EFEE43D14
:101E3600FDE43CFC90642A120448E47F03FEFDFCAA
:101E4600122F71C31203E9400A90642A1204540047
:101E560000000012377790600C1204540000000056
:101E6600D007D006D005D004D003D002D001D000D0
:0B1E7600D0D0D082D083D0F0D0E0327A
:0D386000E5D430E4FB8FD7E5D430E4FB2243
:0600270090651A1204B1FD
:10002D00E4FEEEC39D501590651A1204918E8275F3
:0C003D00830012016FFF1238600E80E695
:010049002294
:101E8100E4906474F0A3F0C21C7F0AFEFDFC906034
:101E91000C12043CD31203E9401912377790600CFD
:101EA10012045400000000E4906429F0906428F0CA
:101EB100C21922E4906474F0906474E0FFC3940347
:101EC1004003021FA474212F122F27E07003021F69
:101ED1009B906474E075F00FA424F2F582E43463FE
:101EE100F583E0FE741E2F122F36E06E601A9064A7
:101EF10074E02421122F27122F5BC083C082122F7E
:081F01003ED007D006020543A3
:101F0900E4906476F0906475F0A3F0122F2FE0143A
:101F1900FE906476E0FDC39E5022EF75F00FA42475
:101F2900F1F582E43463F583E5822D122F53E0FF46
:101F3900906475E02FF0A3E004F080CF906475E021
:101F4900F0122F2FE0FEEF75F00FA424F0F582E4D4
:101F59003463F583122F50E0FF906475E06F6002DF
:021F6900D21C88
:101F6B00301C1DC21C906474E0FF2421122F271219
:101F7B002F5BC083C082122F3ED007D006120543C1
:101F8B00906474E02425F582E43464F5837401F0E5
:091F9B00906474E004F0021EB928
:011FA400221A
:0510310042651D0000F6
:10369E00907123E05498F0E0441EF02212028D90B7
:0B36AE00647812044890647802042045
:1035870078C3E24403F2E2440CF218E2440CF27806
:103597006AE24478F27591FF12369E9071227407A1
:0235A700F02210
:10336A00EF24FE601714601C2402701E907123E083
:10337A0054D8F0E0445AF0759904800E12369E75BE
:10338A009905800612369E7599017869E24448F2D9
:07339A007F017E0002368373
:103541007869E24401F2786BE230E1FA7402F2AF99
:1035510093EF75F010A4FFAEF0E594C4540FFDEFA6
:033561004DFF22F9
:10215900E4906476F0A3F0A312045400000000E4B4
:1021690090647CF0A3F074FFA3F0A3F0E4A3F0F073
:10217900123541906476EEF0A3EFF0906480E0C3ED
:102189009402405490647CE0FEA3E0FF906476E002
:10219900FCA3E0FDD39FEC9E400890647CECF0A387
:1021A900EDF090647EE0FEA3E0FFC3ED9FEC9E504E
:1021B9000F906476E0FFA3E090647ECFF0A3EFF088
:1021C90090647812043C906476E0FEA3E0FFE4FC9E
:1021D900FD120280A3120448906480E004F0E0C379
:1021E9009414408C1236B3C006C00790647CE0FE9C
:1021F900A3E0FBAA06E4F9F8D007D0061236AAC074
:1022090006C00790647EE0FEA3E0FBAA06E4F8D0CE
:1022190007D0061236AA78041203FA906476EEF013
:03222900A3EFF030
:01222C00228F
:1037560075AF3F8FAF75AEB975A402E5A530E1FB35
:013766002240
:1033A1009064791204B175AF3F8FAF90647CE0C334
:1033B10094014022E5A530E0FB906479E475F001C9
:1033C10012049A120156F5A675AEB975A40190645E
:0733D1007CE014F080D5221E
:1033D8009064751204B1906478E06027AE070FEE30
:1033E8002400FDE4343F8D82F583E493FE906475F8
:1033F800E475F00112049AEE1201CF906478E0149B
:04340800F080D3225B
:10343E00A3F078E3E254FCF2E24401F2907192E4DC
:10344E00F022906485E004F0E0C3940822C2A4C286
:0E345E0096D2977F04FE22FFE0FEA807082208
:102E6600E4FF78D3E2543FF2E24440F290718DE4FD
:102E7600F0E254CFF2E24410F290718CE4F0123496
:102E860040C297C29612000FEF7030FD7F8C12255C
:102E96004B7D017F8812254B7D017F8612254B7D58
:102EA600017F8A12254BE4FD7F8212254BE4FD7FCC
:0E2EB6008412254BE4FD7F8012254B0230F381
:1036B900E4FDEE25E0FEEF30E004EE4401FEEFC349
:0936C90013FF0DEDB408EBAF0690
:0136D20022D5
:022D3400AC07EA
:102D3600E4906479F0AF051236B9EC64816019EC61
:102D460064836014EC6485600FEC6487600AEC644D
:082D5600896005EC648D7043F7
:102D5E00E490647AF0A3F0EC64816004ECB4830632
:102D6E00EF547FFF8017EC64856004ECB48706EFA8
:102D7E00543FFF8008ECB48904EF541FFFEFC45496
:102D8E000FFE90647AF0EF540FFFA3F0EE75F00A89
:032D9E00A42FFF60
:012DA100220F
:05290E00906479EFF078
:10291300E4A3F012343E12345B123892E490647BE9
:10292300F012298290647BE090647912346580020E
:10293300C313D8FC30E004D2A48002C2A47F047E77
:102943000012389212298C40D878E3E254FCF278D2
:10295300E0E24410F2E490647BF090647AE025E0D6
:10296300F012298230A40790647AE04401F012291E
:0E2973008C40E7C296C297C2A490647AE0FF3F
:1029810022C2967F047E0012389222D2967F047E64
:0F2991000012389290647BE004F0E0C3940822B7
:05370300906478EFF076
:10370800E4FE12290EAE07906478E0FFAD06022DA4
:01371800347C
:0829A000906483EFF0A3EDF059
:1029A800E412343E12345B123892E4906485F012DB
:1029B8002A26906485E09064831234658002C313EC
:1029C800D8FC30E004D2A48002C2A4122A15123422
:1029D8005040DCE4906485F0122A26906485E0FF7C
:1029E800906484E0FEA807088002C313D8FC30E096
:1029F80004D2A48002C2A4122A1512345040D9C2AB
:0C2A0800967F047E00123892C297C2A490
:102A1400227F047E00123892D2967F047E00123800
:0C2A24009222C2967F047E00123892229B
:0E000F007F8012290EEF30E0037F00227F0178
:01001D0022C0
:05254B0090647FEFF039
:10255000A3EDF0EF6480601D90647FE0FF64826013
:1025600014EF6484600FEF6486600AEF648860058E
:05257000EF648C706CAB
:10257500E4906481F0A3F0906480E0FFC3940A4086
:1025850007EF75F00A84A3F0906480E075F00A8483
:10259500AFF0906482EFF0906481E0FEC454F04F98
:1025A500906480F090647FE0FF64806004EFB48203
:1025B50009906480E0547FF0802290647FE0FF649E
:1025C500846004EFB48609906480E0543FF0800C89
:0C25D50090647FE0B48805A3E0541FF080
:1025E100E4FD7F8E1229A090647FE0FFA3E0FD123D
:0925F10029A07D807F8E0229A043
:1031BE00906515E0FD7F8012254B906514E0FD7F34
:1031CE008212254B906513E0FD7F8412254B90658E
:1031DE0012E0FD7F8612254B906511E0FD7F88126F
:0F31EE00254B90650FA3E02430FD7F8C02254B0D
:1031FD00906478A3E02430FD7F8C12254B90647A87
:10320D00E0FD7F8812254B90647BE0FD7F861225C3
:10321D004B90647CE0FD7F8412254B90647DE0FD36
:0F322D007F8212254B90647EE0FD7F8002254B4F
:1030F3007F81123703906440EFF07F831237039090
:10310300643FEFF07F8512370390643EEFF07F87D3
:1031130012370390643DEFF07F8912370390643CCC
:10312300EFF07F8D123703EF24D0FEE43407906471
:063133003AF0A3CEF022E9
:0410360041651600FA
:1035A900906474F090651702049190000612016FFF
:1035B900FE90000802016F9000091201E190000CD1
:0135C90022DF
:10192C00E4906474F07FFFA374FFF09065171204C9
:10193C00B190000112016FFE120156FDEEC39D50D5
:10194C0003021ABE1235AD900001E41201E19000C1
:10195C000E1204BA120510EFF46008906516742389
:10196C00F08009906516E06003E014F01235AD903C
:10197C00000312016F6F601590000512016F600D6E
:10198C00900004E41201E1900003021ABA900005E1
:10199C0012016FFE90000412016FC39E500B1235A2
:1019AC00AD900004740102019C1235AD900002123E
:1019BC00016F6F6048EFF4701C1235B3C39E400A80
:1019CC0074051235A990000280611235AD90000AA1
:1019DC007401021AB11235AD90000874011235C3AE
:1019EC0012016F6F906517600C120491740112351F
:1019FC00C0EF021AB1120491900009803DEFF4700F
:101A0C00411235AD90000912016FD39400500302BE
:101A1C001AB490000B12016FFE90000A12016FD3E2
:101A2C009E401174011235A990000C12016F906444
:101A3C0075F080541235AD90000A740112019C02AD
:101A4C001AB41235AD1235BAC394FF500890000881
:101A5C00740112019C1235B3B506089064747403BA
:101A6C00F080201235AD9000071235B66E703990AB
:101A7C00647474041235AC90000612016F90000867
:101A8C001201E1906475EFF01235ADE41235C074BB
:101A9C00FF1201E1906475E09000111201E1906475
:101AAC0074E09000121201E11235AD900002EF12B9
:021ABC0001E146
:011ABE002205
:1033300078E2E2543FF2E24440F2907191E0F01200
:1033400036EB1232F41234981234C312327A123835
:103350006D1238A5123587122E6612317E1237870C
:0A3360001237457F017E000236831C
:10306100121FA575D95590715EE054FEF075D9BB5C
:10307100123330D2A37FE87E03123683C2A37B01D1
:103081007A6379AC12192C12249112222D1220810B
:103091001225FA1208CC1223D1121E81121ABF1264
:0A30A1000D791213EB75D9AA80D443
:10103A006027642E0000000000000000000000008D
:10104A000000000000000000000000000000000096
:0B105A0000000000000000000000008B
:0C3886007B017A64792E740CF0E4FF22C0
:1036EB007E007F277D007B017A64792E1205439043
:0836FB0064781238860233D80E
:0E37B500E4FF12375690647C1238860233A16E
:10323C00FEE02FFFEC3EFEA3E02FFFEC3EFE22FA59
:10324C001204207E00EB2FFFEE3AFE3395E0FDFCDE
:10325C00221203FA7E00906478E022FC90647D02D6
:0E326C00044890647D020420906479020420DE
:0511E500906478EFF0BA
:1011EA0090647D120454000000007FA5123860123A
:1011FA00326EEF24A5FFE43EFEE43DFDE43C1232EC
:10120A0067906478E0FF64016032EF6402602DEF5A
:10121A0064036028EF64046023EF6405601EEF64D2
:10122A00066019EF64096014EF640A600FEF641135
:10123A00600AEF64126005EF641370207F051213D1
:10124A00C51213D7C0001232741232602405FDE4AD
:10125A0033CD2FFFEE3D12325602138F906478E0A1
:10126A00FF64076014EF6408600FEF640C600AEF14
:10127A0064146005EF641070337F0612386090645E
:10128A0078E0FF1213AD1213D7C000C002C00312D8
:10129A003274780812325D2406FDE433CD2FFBEE5A
:1012AA003DA312324BD003D00202138F906478E030
:1012BA00FF640B6005EF640D70467F071213C57853
:1012CA00101203FA1213AD1213E1C000C002C003D8
:1012DA00123274781012325D2407FDE433CD2FFBED
:1012EA00EE3DFAA312042078081203FA7E00EB2FCF
:1012FA00FBEE3A90647912324BD003D00202138F7C
:10130A00906478E0640E60030213977F0B123860D2
:10131A007F0E12386090643AE0FF12386090643AA7
:10132A00E0A3E0FF12386090643CE0FF123860905E
:10133A00643DE0FF12386090643EE0FF123860902E
:10134A00643FE0FF123860906440E0FF1213E1C08E
:10135A0000C001C002C00390643AE02419FFE433DC
:10136A00FEE0A3E07C002FFFEC3E90643C12323C8E
:10137A00A3E02FFFEC3EA312323C3395E0FDFCD0F4
:10138A0003D002D001D00012028012326812326EEB
:10139A00E4FEFD12326712326E1238607F017E005F
:0313AA0002368385
:1013AD0012386090647912042078081203FA12380A
:1013BD006090647912042022123860906478E0FF06
:1013CD001238609064791204202212386090647D86
:0E13DD0012043C2212386090647D12043C22FF
:0510650042651F0000C0
:1034C30012381212381F1238391238461238531272
:1034D30038051237F81237EB1237DE1237D178E29C
:0B34E300E254FCF278E0E24401F22227
:1026A600C3906520E094C890651FE0940050030233
:1026B600274DE4F0A3F090644F30A503F080037437
:1026C60001F0D20430A207E4906450F080069064D2
:1026D600507401F0D20530A107E4906451F08006F1
:1026E6009064517401F0D206208607E490644BF0A2
:1026F600804020870890644B7401F0803520900854
:1027060090644B7402F0802A20930890644B740303
:10271600F0801F20940890644B7404F0801420B05D
:102726000890644B7405F0800920A70690644B74EA
:1027360006F0D20120A00790645374018004E4904F
:082746006453F0A3F0D20A2253
:10106A00C11A4264BC00004264BE00004864C00069
:10107A00000000000000004464B700000000416462
:02108A00BB00A9
:10371900E4FAF9F8120326906474020448120420AA
:0637290090647402043CF0
:0D386D0078D3E254F3F278D0E24420F22246
:10222D0090647412045400000000201A030223006D
:10223D00C21AE47F037E07FDFC9064C412043C12B5
:10224D00029B7B201237199064C4120454000000C5
:10225D00009064AD1237261202809064AD120448CE
:10226D00E47F24FEFDFC12372912029BC006C00735
:10227D009064BEE0FEA3E0FBAA06E4F9F8D007D017
:10228D00061203267B0A1237199064BBE0C3940A29
:10229D005012E004F09064B7123726120280906459
:1022AD00B7020448E49064BBF09064B7120420E4D4
:1022BD007B0AFAF9F81203269064B7120448906469
:1022CD00B71204209064451204489064B712045468
:1022DD0000000000E47FE77E03FDFC9064451204DE
:1022ED003CD31203E9400A906445120454000003E4
:0322FD00E7D2081D
:0123000022BA
:10108C004264CD00004264CF0000C11B4864D10013
:10109C00000000000000004164C8004464C9000066
:0210AC00000042
:0738A50078C2E254CFF222C9
:1025FA0090647412045400000000201B030226A5F4
:10260A00C21BE47FA67E0EFDFC9064D512043C1228
:10261A00029BC006C0079064CFE0FEA3E0FBAA06B7
:10262A00E4F9F8D007D0061203269064741204481D
:10263A009064C8E0C394055016E004F0A312042085
:10264A0090647412043C1202809064C90204489097
:10265A0064C9120420E47B05FAF9F812032690648F
:10266A00C9120448E49064C8F07FFF7EFFFDFCA312
:10267A0012043CC31203E9400A9064C912045400CC
:10268A0000FFFF9064C9120420906441120448902C
:0B269A0064C912045400000000D207C5
:0126A5002212
:1010AE004464B1000000004464AD000000004264DE
:1010BE00B500004464A5000000004464A9000000CF
:0110CE000021
:1034EE00120420EF2401FFE43EFEE43DFDE43CFC2B
:1034FE0022E4FDFC12043CC30203E9120420120272
:0B350E008DE47B64FAF9F8C30203E9C6
:102081007F307E759064B11234FF400D9064B112BF
:102091000454000000001237B57FE87E039064AD60
:1020A1001234FF40617F007ECA7D9A7C3B90642E92
:1020B100123502500C90642E1234EE90642E1204EC
:1020C100487F407E427D0F7C009064321235025081
:1020D100189064321234EE906432120448906436DF
:1020E1001234EE9064361204489064AD120420C399
:1020F100EF94E8FFEE9403FEED9400FDEC9400FCF8
:102101009064AD1204489064A512043C90642E12B0
:102111003509500E90642E1204209064A5120448D3
:10212100D20C9064A912043C906432123509500E0D
:102131009064321204209064A9120448D20DC39015
:1021410064B6E094889064B5E09413400AE4F0A387
:07215100F0D20CD20DD20EFA
:012158002264
:1010CF00C100C101C102C103C104C105C106C107ED
:1010DF00C108C109C10CC10DC10EC10FC110C11191
:1010EF00C112C113C1144164FE004264FF000041EC
:1010FF00650100416502004265030000426505007D
:01110F0000DF
:1030AB0090644BE0FFE4FCFDFE90647902044890D1
:1030BB006432E47B64FAF9F812042002032690646C
:1030CB0074E075F00FA422906449E0FEA3E0FFE4E6
:1030DB00FCFD22E47BE87A03F9F890642E229064DD
:0830EB0074E0FF75F00FA42250
:101ABF00E4906474F0F0906474E0FFC39403400307
:101ACF00021C0C74252FF582E43464F583E0700357
:101ADF00021C031230C924F3F582E43463F583E06A
:101AEF001204EA1B0E801B138B1B188C1B228E1BE0
:101AFF001D941BA9981BAD991BB19A00001BB3D263
:101B0F0000021BB3D20C021BB3D20D021BB3D20EB9
:101B1F00021BB3D20FEF75F00FA424F5F582E43456
:101B2F0063F583E0FDEF75F00FA424F4F582E43440
:101B3F0063F583E02DFEE43390643AF0A3CEF01208
:101B4F0030E924F6F582E43463F583E090643CF0E9
:101B5F00EF75F00FA424F7F582E43463F583E0907A
:101B6F00643DF01230E924F8F582E43463F583E044
:101B7F0090643EF0EF75F00FA424F9F582E434631E
:101B8F00F583E090643FF01230C924FAF582E43413
:101B9F0063F583E0906440F0800AD2128006D2137E
:101BAF008002D214906424E0D394004003E014F038
:101BBF00906474E0FF2425F582E43464F583E4F047
:101BCF00741E2FF582E43464F583E4F074212FF54D
:101BDF0082E43464F583E4F0FE7F0FC006C007FD96
:101BEF001230C924F1F9746335F0FA7B01D007D0B4
:0D1BFF0006120543906474E004F0021AC55C
:011C0C0022B5
:060D7900200003020E4BF6
:100D7F0090647412045400000000C2009064FEE0FE
:100D8F006003020E4B04F01230AB7F011211E5909D
:100D9F00644C1230AE7F021211E590644D1230AEEA
:100DAF007F031211E590644F1230AE7F041211E5EC
:100DBF009064501230AE7F051211E59064511230DD
:100DCF00AE7F061211E59064411204201230B47FF9
:100DDF00071211E59064451204201230B47F0812F7
:100DEF0011E590644E1230AE7F091211E51230DE1C
:100DFF001230C31230B47F0B1211E51230BA123019
:100E0F00B47F0C1211E51230F39064791204540080
:100E1F000000007F0E1211E51230D21230B47F1095
:100E2F001211E59064521230AE7F111211E59064E9
:0C0E3F00361230BD1230B47F141211E5E1
:100E4B0030010AC2011230AB7F011211E530020DE5
:100E5B00C20290644C1230AE7F021211E530040DC9
:100E6B00C20490644F1230AE7F041211E530050DB1
:100E7B00C2059064501230AE7F051211E530060D9D
:100E8B00C2069064511230AE7F061211E530071086
:100E9B00C2079064411204201230B47F071211E58F
:100EAB00300810C2089064451204201230B47F0839
:100EBB001211E530090DC20990644E1230AE7F0954
:100ECB001211E5300A18C20A9064531230AE7F1229
:100EDB001211E59064541230AE7F131211E5300CF1
:100EEB0010C20C1230DE1230C31230B47F0B121151
:100EFB00E5300D0DC20D1230BA1230B47F0C121149
:100F0B00E5300E16C20EE47B64FAF9F890643612E3
:100F1B0030C31230B47F141211E5300F23C20F907F
:100F2B006501E0701B78787C647D017B017A6479C4
:100F3B003AFE7F071201301231FD9065017401F00A
:100F4B0030100DC2101230D21230B47F101211E5D6
:100F5B0030110DC2119064521230AE7F111211E597
:100F6B00301219C21290642E12045400000000902B
:100F7B0064AD120454000000001237B5301319C2CF
:100F8B0013906432120454000000009064AD1204FC
:100F9B0054000000001237B5301419C21490643697
:100FAB00120454000000009064AD120454000000C1
:050FBB00001237B52211
:101110005463BF000101530002047300030753002E
:1011200004091D00050CED5E63D3010102030405F3
:1011300002060708090A030B0C0D0E0F041011120A
:1011400013140515161718195363AC0A0000000094
:0E115000033241000000140001FF340C0000C7
:0F004E00EC75F006A424D3F582E43463F5832225
:10301500E4FD906476F0A374FFF0ED25E025E0244F
:10302500C1F582E43463F583E0FAA3E0D39FEA9E19
:10303500401CED25E025E024BFF582E43463F583EB
:10304500E0FFA3E0906476CFF0A3EFF080050DEDEF
:0B305500B405C7906476E0FEA3E0FF26
:01306000224D
:10356400E4FEFC12004EE0B5071112004EE5822D78
:10357400F582E43583F583E0FE80050CECB405E3C5
:02358400AF0690
:013586002222
:10340C00E4906474F0A3F07F0212336A1235419099
:10341C006474EEF0A3EFF0906474E0FEA3E0FF128E
:10342C003015906474EEF0A3EFF0906474E0A3E0B8
:01343C00FF90
:01343D00226C
:102491009063BDE0700302254AE0FFA3E0FD123521
:1024A10064E49063BDF0A3F0EF1204EA24CF0124A9
:1024B100DB0424E70624F30924FF0B250B0E251763
:1024C10010252313252F15253B180000254A90645C
:1024D10079120454000000CF806A90647912045488
:1024E100000100CF805E906479120454000000D294
:1024F1008052906479120454000100D280469064A5
:1025010079120454000000D1803A90647912045485
:10251100000100D1802E9064791204540000007FE4
:1025210080229064791204540001007F8016906427
:1025310079120454000000D0800A90647912045486
:09254100000100D07F0D1211E52C
:01254A00226E
:10115E004464D9000000004464DD000000004464D3
:09116E00E1000000004164E5FF0E
:10351900E47F429064DDFDFC12043CC30203E9E44C
:103529007E0AFDFC9064DD12043CD30203E9906439
:08353900DD1204489064E12258
:1008CC007F0312336A12215990651DEEF0A3EFF0ED
:1008DC009064DD12043C90651DE0FEA3E0FFE4FC97
:1008EC00FD120280123537120420EF2401FFE43E82
:1008FC00FEE43DFDE43CFC9064E1120448E47FF42A
:10090C007E019064D912351F5003020B269064D9D6
:10091C00120454000000009064DD1204209064E185
:10092C0012043C1203261235371204540000000046
:10093C00E47F4D7E0312351C50099064E57464F01D
:10094C000209F47E0412351950099064E5745AF0CA
:10095C000209F4E47F427E0612351C50099064E5CE
:10096C007450F00209F4E47F147E0712351C500910
:10097C009064E57446F00209F4E47FAC7E0712350E
:10098C001C50099064E5743CF00209F4E47F3B7E52
:10099C000812351C50089064E57432F0804AE47FEC
:1009AC00D87E0812351C50089064E57428F0803805
:1009BC00E47F7B7E0912351C50089064E5741EF0B0
:1009CC008026E47FEC7E0912351C50089064E57497
:1009DC0014F080147E0A12351950089064E5740ADC
:1009EC00F08005E49064E5F07F7D1235284008E442
:1009FC009064E5F0020B12E47F6D7E0A12351C50F8
:100A0C00107F4212352840099064E5740AF0020BFD
:100A1C0012E47F267E0A12351C5013E47FEC7E090B
:100A2C0012352B40099064E57414F0020B12E47F2C
:100A3C00CE7E0912351C5013E47F7B7E0912352BB8
:100A4C0040099064E5741EF0020B12E47F457E09A8
:100A5C0012351C5013E47FD87E0812352B400990B8
:100A6C0064E57428F0020B12E47F9E7E0812351C9C
:100A7C005013E47F3B7E0812352B40099064E574DB
:100A8C0032F0020B12E47F0F7E0812351C5013E477
:100A9C007FAC7E0712352B40099064E5743CF00264
:100AAC000B12E47F727E0712351C5012E47F147E09
:100ABC000712352B40089064E57446F08048E47FBB
:100ACC00ED7E0612351C5012E47F427E0612352B49
:100ADC0040089064E57450F0802CE47FBC7E0512D5
:100AEC00351C5012E47F427E0412352B4008906472
:100AFC00E5745AF08010E47F4D7E0312351C5006CD
:100B0C009064E57464F09064E5E090644EF0906459
:0B0B1C00DD120454000000FFD209228B
:101177004464E6000000004464EA000000004464A0
:05118700EE0000000075
:10366500EF2401FFE43EFEE43DFDE43CFC0204489A
:0E367500E47FE27E04FDFC12043CC30203E984
:102301007F0412336A12215990651DEEF0FAA3EF92
:10231100F0FB9064EE120420EF2408FFE43EFEE49B
:102321003DFDE43CFC9064EE120448D3EB9400EADA
:1023310094089064EA50151204209064EA123665FC
:102341009064E61204540000000080071204540057
:102351000000009064EA12367540119064EA12049C
:102361005400000000E4906452F0D211C390651E45
:10237100E094C790651DE0940B9064E6401512044B
:10238100209064E61236659064EA1204540000005D
:10239100008007120454000000009064E6123675B4
:1023A10040129064E61204540000000090645274DC
:1023B10001F0D211E47FE87E03FDFC9064EE123659
:0F23C1007C400C9064EE12045400000000D21116
:0123D00022EA
:10118C004464FA000000004464F20000000044646F
:05119C00F60000000058
:103797007C007DF0120516E4FB7A10F9F802032687
:0E37C3007E007C007D641202037D96020215DA
:1023D100E4906474F0A3F07F0112336A9064F61202
:1023E100043CC000C001C002C003122159E4FCFD3D
:1023F100D003D002D001D0001202809064F6120402
:10240100489064F2120420EF2401FFE43EFEE43D13
:10241100FDE43CFC9064F2120448E47FE87E03FD95
:10242100FC9064FA12043CC31203E940629064F622
:102431001204209064F212043C1203269064F612F6
:1024410004489064F6120420123797906474EFF0F8
:10245100E0FF1237C3A3EFF09064F61204540000BA
:1024610000009064F2120454000000009064FA121B
:10247100045400000000906475E090644CF0906496
:0F24810074E0FF906449E4F0A3EFF0D210D202B0
:012490002229
:1011A1004C646801010203040502060708090A5399
:1011B10064550A00000000033241000000140002DF
:0511C100FF35CA00002B
:10360A00E4FFFDFCAB1BAA1AA919A818C30203E917
:0F361A00EE75F006A42468F582E43464F583228B
:1035CA0075D9AA1235EA75D9AA7E0212360A70038B
:1035DA007F01227E0412360A70037F02227FFF22B5
:10346C00E4906524F0FE12361AE0B5071412361AF1
:10347C00E5822DF582E43583F583E0906524F080B8
:0B348C00050EEEB402E0906524E0FFA6
:013497002212
:10372F00906466E0600FE0FFA3E0FD12346CE4905C
:05373F006466F0A3F038
:013744002262
:1011C60041601801426019000041601B0041601C2B
:0E11D6000041601D0041601E7F42601FFFFF50
:1032B700E4F561AE3EAD3DAC3C853F178E168D15EE
:1032C7008C14787EE254FCF2E24514F218E515F20C
:1032D70018E516F218E517F2787FE254FBF2E2548C
:0D32E700FB4404F2E24401F27F01022ABC24
:100B2700906474EFF0E0FF248FF582E43464F5837A
:100B3700E004F074912FF582E43464F583E4F074F3
:100B47008F2FF582E43464F583E0C3956350030285
:100B57000D78906474E0FB248FF582E43464F583A8
:100B6700E4F090363A9364016003020D297F01FE99
:100B7700FDFC74932BF582E43464F583E0F9F812F5
:100B8700040DE51F4FF51FE51E4EF51EE51D4DF53E
:100B97001DE51C4CF51CAF1FAE1EAD1DFC780112E8
:100BA70003FAEF5455FBEE5455FAED5455F9EC544E
:100BB70055F8C3E51F9BF53BE51E9AF53AE51D99E8
:100BC700F539E51C98F538AF3BAE3AAD39FC7802FC
:100BD7001203FAEF5433FBEE5433FAED5433F9ECC6
:100BE7005433F8E53B5433FFE53A5433FEE53954C3
:100BF70033FDE5385433FCEB2FF53BEA3EF53AE994
:100C07003DF539E83CF538AF3BAE3AAD39FC7804F1
:100C17001203FAEF253BFFEE353AFEED3539FDECD1
:100C27003538FCEF540FF53BEE540FF53AED540F02
:100C3700F539EC540FF538AF3BAE3AAD39FC7808CF
:100C47001203FAEF253BFFEE353AED3539FDEC356A
:100C570038EFF53BE4F53AEDF539E4F538AE3AAC63
:100C67003878101203FAEF253BFFEE353AFEEFF521
:100C77003BEEF53AE4F539F538906474E025E02465
:100C87009DF582E43464F583E0FEA3E0D39553EE4B
:100C970095524024906474E0FF25E0249DF582E49A
:100CA7003464F583E0F552A3E0F55374932FF5828E
:100CB700E43464F583E0F56490363AE493FFE4FCAA
:100CC700FDFEAB3BAA3AA939A838D31203E9405233
:100CD700AF650565D3EF9403748094805003020DCC
:100CE70078E4F565F51FF51EF51DF51C7F01FEFD82
:100CF700FCA964A80112040D8F1B8E1A8D198C187C
:100D0700E47F01FEFDFCA80112040D8F338E328DA6
:100D1700318C30E4F552F553756420122BC34337F9
:100D27000222E4F5657F01FEFDFC906474E0FB247C
:100D370093F582E43464F583E0F9F812040DE51BBA
:100D47004FF51BE51A4EF51AE5194DF519E5184C3F
:100D5700F518E47F01FEFDFCA80312040DE5334FEF
:100D6700F533E5324EF532E5314DF531E5304CF5E9
:020D7700302228
:10058D00E4F56690363EE493FFE566C39F400302B3
:10059D0008CBE56625E02400F582E4346085828A87
:1005AD007F548F8B7E0E8E8C758903758889E566D9
:1005BD0025E02400F582E4346085828A8F8B758C6A
:1005CD0012758904758889E56625E02408F582E4AD
:1005DD003460F583E0FCA3E0C3950FEC950E502E2F
:1005ED00E56625E02414F582E43460F583E0FCA390
:1005FD00E0C39513EC95125015AF600560EF9402B2
:10060D0074809480400BE4F5605337FD8003E4F56E
:10061D0060E53730E125E56625E0249DF582E4347B
:10062D0064F583E4F0A3F0E56625E024A1F582E40A
:10063D003464F583E4F0A3F00206DBE56625E024DF
:10064D0008F582E4346085828A8E8B758C0A7589F3
:10065D00267588892088FDE5F130E00875F107E4FD
:10066D00F50AF50BAE0AE50B7802C333CE33CED8BF
:10067D00F9FFE56625E0249DF582E43464F583EE0B
:10068D00F0A3EFF0E56625E02414F582E4346085EF
:10069D00828A758B12758C0A7589277588892088D1
:1006AD00FDE5F130E00875F107E4F50AF50BAE0A4A
:1006BD00E50B7802C333CE33CED8F9FFE56625E0DE
:1006CD0024A1F582E43464F583EEF0A3EFF0E56642
:1006DD0025E02495F582E43464F583E0FEA3E0780B
:1006ED0002CEC313CE13D8F9F5518E50E56625E031
:1006FD00249DF582E43464F583E0FEA3E0FF90369B
:10070D0036E493FC740193FDC3EF9DEE9C4017E519
:10071D006625E024A1F582E43464F583E0FEA3E0D0
:10072D00C39DEE9C50028068E56625E0249DF58210
:10073D00E43464F583E0FEA3E0C39551EE9550409B
:10074D001CE56625E024A1F582E43464F583E0FE22
:10075D00A3E0C39551EE955040030207E7748D2534
:10076D0066F582E43464F583E004F0748D2566F556
:10077D0082E43464F583E0FF90363BE493FEEFD3DF
:10078D009E4064748D2566F582E43464F583E4F04F
:10079D00E56625E02404F582E43460F583E0FEA3EC
:1007AD00E0FFE56625E02408F582E43460F583EE8C
:1007BD00F0A3EFF0E56625E02410F582E43460F552
:1007CD0083E0FEA3E0FFE56625E02414F582E43422
:1007DD0060F583EEF0A3EFF0800D748D2566F58244
:1007ED00E43464F583E4F0E56625E02404F582E461
:1007FD00346085828AE56625E02400F582E4346064
:10080D0085828B758C0A7589207588CB2088FDE5CE
:10081D00F130E00875F107E4F50AF50BE56625E022
:10082D002404F582E4346085828A758B547F0E8FA3
:10083D008C7589237588897E0A8E8A8F8BE566254E
:10084D00E02404F582E4346085828CE4F5897588B2
:10085D0029E56625E02410F582E4346085828AE579
:10086D006625E02400F582E4346085828B8E8C75DC
:10087D0089207588CB2088FDE5F130E00875F107FA
:10088D00E4F50AF50BE56625E02410F582E4346005
:10089D0085828A758B547F0E8F8C75892475888916
:1008AD00758A0A8F8BE56625E02410F582E43460A5
:0F08BD0085828CE4F589758829056602059022ED
:1015BE00E4F56690363EE493FFE566C39F40030272
:1015CE001776E56625E02495F582E43464F583E02C
:1015DE00FEA3E07802CEC313CE13D8F9F5518E5088
:1015EE00E56625E0249DF582E43464F583E0FEA3F0
:1015FE00E0D39551EE9550402EE56625E024A1F5F9
:10160E0082E43464F583E0FEA3E0D39551EE955069
:10161E00401574912566F582E43464F583E4F0AFE9
:10162E0066120B2702177190363DE493FFC3E55106
:10163E009FFFE5509400FED3EF9400EE940040021D
:10164E0080047E007F00E56625E0249DF582E4346B
:10165E0064F583E0FCA3E0C39FEC9E400302176495
:10166E0090363DE493FFC3E5519FFFE5509400FE95
:10167E00D3EF9400EE9400400280047E007F00E5DC
:10168E006625E024A1F582E43464F583E0FCA3E052
:10169E00C39FEC9E4003021764748F2566F582E4A7
:1016AE003464F583E4F074912566F582E43464F5D0
:1016BE0083E004F074912566F582E43464F583E0EA
:1016CE00C39563500302177174912566F582E43455
:1016DE0064F583E4F07F01FEFDFC74932566F582CC
:1016EE00E43464F583E0F9F812040D1203B8E51F33
:1016FE005FF51FE51E5EF51EE51D5DF51DE51C5C27
:10170E00F51CE47F01FEFDFCA966A80112040D1272
:10171E0003B8E5335FF533E5325EF532E5315DF55D
:10172E0031E5305CF530E47F01FEFDFC74932566F7
:10173E00F582E43464F583E0F9F812040D1203B86F
:10174E00E51B5FF51BE51A5EF51AE5195DF519E562
:10175E00185CF518800D74912566F582E43464F5F5
:09176E0083E4F005660215C122B6
:102BC300E4F56690363EE493FFE566C39F506EE5F9
:102BD3006625E0249DF582E43464F583E4F0A3F0F4
:102BE300E56625E024A1F582E43464F583E4F0A3EB
:102BF300F0E56625E02404F582E43460F583E0FE25
:102C0300A3E0FFE56625E02408F582E43460F5835C
:102C1300EEF0A3EFF0E56625E02410F582E43460DE
:102C2300F583E0FEA3E0FFE56625E02414F582E4E6
:0E2C33003460F583EEF0A3EFF0056680862294
:1027E900E4F56690363EE493FFE566C39F50679033
:1027F9006018E0FF7E00C39410748094805053EFFA
:102809009408748094804025E56625E02400F582CB
:10281900E43460F583E0FEA3E0FFE56625E02404E7
:10282900F582E43460F583EE8FF012026AE56625DD
:10283900E02400F582E43460F583E0FEA3E0FFE5DF
:102849006625E02410F582E43460F583EE8FF012FA
:10285900026A0566808D906018E0C39410748094B4
:102869008040054337048006906018E004F07F013A
:03287900022ABC74
:102C4100E4FFFEFDFCAB1BAA1AA919A818C31203C5
:102C5100E9606390601AE004F07006906019E00486
:102C6100F0903632E493FE740193FF4E602ED390C0
:102C7100601AE09F906019E09E4021E4F0A3F0F516
:102C81001FF51EF51DF51CF533F532F531F530F55F
:102C91001BF51AF519F518C218022BC3903634E446
:102CA10093FE740193FFD390601AE09F906019E046
:0D2CB1009E400AD21822E4906019F0A3F0B2
:012CBE0022F3
:05177700906487EFF013
:10177C00A3E0FCA3E0FDA3E0FEA3E0F52B8E2A8DF5
:10178C00298C287884E2F50A08E2F50B758A08752D
:10179C008B28758C2475881D2088FDE4FFFEFDFCCC
:1017AC00AB27AA26A925A824D31203D34006AC2420
:1017BC00A8048013AF27AE26AD25AC241203C5AB0D
:1017CC0007AA06A905A80490601FE0FEA3E0FFE4A9
:1017DC00FCFDC31203D35041E4FFFEFDFCAB27AA72
:1017EC0026A925A8241203D34006AF27AE26800BCA
:1017FC00AF27AE26AD25AC241203C590601FEEF0CA
:10180C00A3EFF0906487E025E02499F582E434643A
:10181C00F583E0A3E090601EF090362FE493FE7405
:10182C000193FFD3906020E09F90601FE09E501BBF
:10183C00906487E025E02499F582E43464F583E034
:10184C00A3E090601EF090601B8079E4FFFEFDFC2D
:10185C00AB27AA26A925A824D31203D3403490641D
:10186C0087E0FF25E02499F582E43464F583E0FCFD
:10187C00A3E0D39400EC9400404DEF25E02499F5BF
:10188C0082E43464F58374FFF5F012026A90601CF4
:10189C008032906487E0FF25E02499F582E434647B
:1018AC00F583E0FCA3E0C3947FEC94005019EF2582
:1018BC00E02499F582E43464F583E475F0011202B6
:1018CC006A90601D7401F090601CE064017011A3BB
:1018DC00E06401700B90601CF0A3F090601B04F0AE
:1018EC0090601BE06401703590601EE0FF9064878F
:1018FC00E025E02499F582E43464F583E4F0A3EF69
:10190C00F074FF90601FF0A3F090601E747FF0E401
:0F191C0090601CF0A3F090601BF07F01227F0011
:01192B002299
:102E0400E4906486F090362912042C780112040DA3
:102E1400906488120448AF61121777EF602205614D
:102E2400E53730E4095337EF9064867401F0903647
:102E34003EE493FFE561C39F4006E4F56143371028
:102E4400C390362D7401939562E4939400400890E6
:102E54006486E064017005D2170232B7E4FF122AD7
:012E6400BCB1
:012E6500224A
:102ABC00EF70607F01FEFDFC74932561F582E434B8
:102ACC0064F583E0F9F812040D8F178E168D158CB2
:102ADC0014787EE254FCF2E24514F218E515F21873
:102AEC00E516F218E517F2E56125E02499F582E484
:102AFC003464F583E0A3E0547FFF7878E254804F90
:102B0C00F2787FE254FBF2E254FB4404F2E244011B
:102B1C00F2801CE56125E02499F582E43464F583A8
:102B2C00E0A3E0547FFF7878E254804FF2787FE2A4
:042B3C004402F2223B
:10274E00E4906521F0A3F0906521E0FEA3E0FFC3C5
:10275E009488EE94035031EF248DFFEE34058F8272
:10276E00F583E493FF906522E02421FD906521E03E
:10277E0034608D82F583EFF0906522E004F070C72F
:08278E00906521E004F080BF1A
:102796009063A97401F0A37460F0A37421F0E4F5CA
:1027A60061F537F536F535F534C217C218F51FF55C
:1027B6001EF51DF51CF533F532F531F530F51BF533
:1027C6001AF519F51890363893FF90363CE493FEC7
:1027D600A807088002C333D8FCF563756420E4FFBC
:0327E600022ABC08
:102CBF007884E2F50A08E2F50BAE0A7803CEC31367
:102CCF00CE13D8F97802C333CE33CED8F9FFE561EE
:102CDF0025E02400F582E43460F583EEF0A3EFF0F5
:102CEF0020170F903631E4937005D2170232B702D6
:102CFF002E04056190363EE493FFE561C39F401FAC
:102D0F00787FE254FBF2E254FB4404F2E24401F216
:102D1F00E4F561E53720E2030227E9433701227F1B
:052D2F0001122ABC2284
:0538AC000562022C4141
:1035EA00E53730E01A9063A9A3E0FAA3E0F91205DF
:1035FA00101215BEE4F5617F01122ABC5337FE2270
:102A3C00023061E493A3F8E493A34003F68001F21F
:102A4C0008DFF48029E493A3F85407240CC8C3339B
:102A5C00C4540F4420C8834004F456800146F6DF6A
:102A6C00E4800B0102040810204080900FC0E47E2B
:102A7C00019360BCA3FF543F30E509541FFEE4935F
:102A8C00A360010ECF54C025E060A840B8E493A326
:102A9C00FAE493A3F8E493A3C8C582C8CAC583CA51
:102AAC00F0A3C8C582C8CAC583CADFE9DEE780BE09
:0111E400000A
:10006000E709F608DFFA8046E709F208DFFA803E82
:1000700088828C83E709F0A3DFFA8032E309F6086F
:10008000DFFA8078E309F208DFFA807088828C83D7
:10009000E309F0A3DFFA806489828A83E0A3F6088B
:1000A000DFFA805889828A83E0A3F208DFFA804C65
:1000B00080D280FA80C680D4806980F2803380103C
:1000C00080A680EA809A80A880DA80E280CA8033A5
:1000D00089828A83ECFAE493A3C8C582C8CCC5831D
:1000E000CCF0A3C8C582C8CCC583CCDFE9DEE780ED
:1000F0000D89828A83E493A3F608DFF9ECFAA9F06C
:10010000EDFB2289828A83ECFAE0A3C8C582C8CCC1
:10011000C583CCF0A3C8C582C8CCC583CCDFEADEDA
:10012000E880DB89828A83E493A3F208DFF980CC3C
:1001300088F0EF60010E4E60C388F0ED2402B40435
:100140000050B9F582EB2402B4040050AF232345DC
:0601500082239000B07351
:10015600BB010689828A83E0225002E722BBFE02A7
:09016600E32289828A83E49322DA
:10016F00BB010CE58229F582E5833AF583E0225045
:10017F0006E92582F8E622BBFE06E92582F8E2228F
:0D018F00E58229F582E5833AF583E49322A9
:10019C00BB010FF8E58229F582E5833AF583E02867
:1001AC00F0225009C58229F8E58226F622BBFE0909
:1001BC00C58229F8E22582F222F8EA2583F583E943
:0301CC0093282253
:1001CF00BB010689828A83F0225002F722BBFE010F
:0201DF00F32209
:1001E100F8BB010DE58229F582E5833AF583E8F054
:1001F100225006E92582C8F622BBFE05E92582C800
:02020100F222E7
:10020300EF8DF0A4A8F0CF8CF0A428CE8DF0A42E0F
:02021300FE22C9
:10021500BC000BBE0029EF8DF084FFADF022E4CCCD
:10022500F875F008EF2FFFEE33FEEC33FCEE9DEC96
:10023500984005FCEE9DFE0FD5F0E9E4CEFD22EDDC
:10024500F8F5F0EE8420D21CFEADF075F008EF2F26
:10025500FFED33FD4007985006D5F0F222C398FD17
:050265000FD5F0EA22B4
:10026A00C5F0F8A3E028F0C5F0F8E582158270021F
:06027A001583E038F022BC
:0D028000EF2BFFEE3AFEED39FDEC38FC22CD
:0E028D00C3EF9BFFEE9AFEED99FDEC98FC226C
:10029B00E88FF0A4CC8BF0A42CFCE98EF0A42CFC02
:1002AB008AF0EDA42CFCEA8EF0A4CDA8F08BF0A480
:1002BB002DCC3825F0FDE98FF0A42CCD35F0FCEBDF
:1002CB008EF0A4FEA9F0EB8FF0A4CFC5F02ECD39A4
:0F02DB00FEE43CFCEAA42DCE35F0FDE43CFC2211
:1002EA0075F008758200EF2FFFEE33FECD33CDCCCB
:1002FA0033CCC58233C5829BED9AEC99E58298404E
:10030A000CF582EE9BFEED9AFDEC99FC0FD5F0D62A
:10031A00E4CEFBE4CDFAE4CCF9A88222B800C1B954
:10032A000059BA002DEC8BF084CFCECDFCE5F0CB92
:10033A00F97818EF2FFFEE33FEED33FDEC33FCEBCB
:10034A0033FB10D703994004EB99FB0FD8E5E4F986
:10035A00FA227818EF2FFFEE33FEED33FDEC33FC73
:10036A00C933C910D7059BE99A4007EC9BFCE99A67
:10037A00F90FD8E0E4C9FAE4CCFB2275F010EF2FAC
:10038A00FFEE33FEED33FDCC33CCC833C810D707AC
:10039A009BEC9AE899400AED9BFDEC9AFCE899F8E7
:0E03AA000FD5F0DAE4CDFBE4CCFAE4C8F9227A
:0D03B800CFF4CFCEF4CECDF4CDCCF4CC22DA
:0E03C500C3E49FFFE49EFEE49DFDE49CFC2249
:1003D300EB9FF5F0EA9E42F0E99D42F0EC6480C8A1
:0603E30064809845F02241
:1003E900EB9FF5F0EA9E42F0E99D42F0E89C45F06A
:0103F90022E1
:1003FA00E8600FECC313FCED13FDEE13FEEF13FFE1
:03040A00D8F12204
:10040D00E8600FEFC333FFEE33FEED33FDEC33FC4D
:03041D00D8F122F1
:0C042000E0FCA3E0FDA3E0FEA3E0FF224F
:10042C00E493FC740193FD740293FE740393FF2216
:0C043C00E0F8A3E0F9A3E0FAA3E0FB2243
:0C044800ECF0A3EDF0A3EEF0A3EFF02227
:10045400A8828583F0D083D08212046B12046B12BD
:10046400046B12046BE473E493A3C583C5F0C583E2
:10047400C8C582C8F0A3C583C5F0C583C8C582C8F2
:010484002255
:0C048500A42582F582E5F03583F5832282
:09049100E0FBA3E0FAA3E0F9226C
:10049A00F8E0FBA3A3E0F925F0F0E58215827002EB
:0704AA001583E0FA38F0228F
:0904B100EBF0A3EAF0A3E9F0224C
:1004BA00BB010DE58229F582E5833AF583020491B1
:1004CA005007E92582F802056FBBFE07E92582F885
:1004DA00020578E58229F582E5833AF583020581EA
:1004EA00D083D082F8E4937012740193700DA3A3A1
:1004FA0093F8740193F5828883E4737402936860B5
:06050A00EFA3A3A380DFB4
:060510008A838982E47376
:10051600EC8EF0A4CCC5F0CCCDF8EFA4CEC5F02D72
:10052600FDE43CFCE8A42EC8C5F03DFDE43CFCEF30
:0D053600A4FFE5F028FEE43DFDE43CFC22BE
:10054300EF4E6012EF60010EEDBB010B89828A83CF
:10055300F0A3DFFCDEFA2289F05007F709DFFCA9DC
:0C056300F022BBFEFCF309DFFCA9F02233
:09056F00E6FB08E6FA08E6F922B1
:09057800E2FB08E2FA08E2F922B4
:0C058100E493FB740193FA740293F922D6
:00000001FF
