:03000000022E4C81
:0C2E4C00787FE4F6D8FD758166022E93B5
:0C000300000000000000000000000000F1
:0B3C6E00EF1FAC0670011E4C70F62228
:103A5500AB07AA06EB1BAE0270011A4E600C75D9B6
:0B3A6500AA7FAA7E05123C6E80EA22B8
:10231200907120E04480F07F057E00123C6EE4FF65
:10232200FE123A5575A75575AC5C9071327450F037
:102332009071307403F0907136742FF090715C7468
:1023420003F090715BE054FCF07F18EF2466FDE42B
:1023520034718D82F583E4F00FEFB433EE904011C7
:10236200E4935407FF90711CE054F84FF09040172B
:10237200E493547FFF90711DE054804FF090401021
:10238200E493FF5401C43333335480FE907123E04D
:10239200547F4EF0EFC313543F4440FFA3E05480F8
:1023A2004FF0904012E493FF540FFE907146E054B8
:1023B200F04EF0EFC4540FFF90714FE054F04FF025
:1023C200904013E493543FFF907140E054C04FF0AB
:1023D200904014E493907126F0904015E49390712C
:0B23E20028F0904016E49390712AF060
:0123ED0022CD
:1039FB00000009C4006400C80101F4004B000A0078
:0E3A0B0000010F04050200090064000A0064B7
:103AA500E2FE74CE2FF582E43464F583E02224FC33
:083AB50025E0FDF8740308226E
:101F7A00E4FF123AA7C394085058123AA7C394042C
:101F8A00502878C2C000123AA5123AB58002C3336B
:101F9A00D8FCF45ED000F278C2C000123AA5123A18
:101FAA00B58002C333D8FC0220A878C3C000123A15
:101FBA00A5123AB38002C333D8FCF45ED000F2789B
:101FCA00C3C000123AA5123AB38002C333D8FC0246
:101FDA0020A8123AA7C394084068123AA7C39410DB
:101FEA005060123AA7C3940C502C78D2C000123A0F
:101FFA00A524F8123AB58002C333D8FCF45ED000A7
:10200A00F278D2C000123AA524F8123AB58002C377
:10201A0033D8FC0220A878D3C000123AA524F412BF
:10202A003AB58002C333D8FCF45ED000F278D3C04C
:10203A0000123AA524F4123AB58002C333D8FC023E
:10204A0020A8123AA7C39414502B78E2C000123A7F
:10205A00A524F0123AB58002C333D8FCF45ED0004E
:10206A00F278E2C000123AA524F0123AB58002C30F
:10207A0033D8FC802978E3C000123AA524EC123A3E
:10208A00B58002C333D8FCF45ED000F278E3C00016
:10209A00123AA524EC123AB58002C333D8FC4ED0CA
:0B20AA0000F20FEF64026003021F7CD5
:0120B5002208
:03005D000234D298
:1034D200C0E0C0F0C083C082C0D075D000C000C0C0
:1034E20001C002C003C004C005C006C0077881E263
:1034F20030E607E24440F2123058D007D006D00539
:10350200D004D003D002D001D000D0D0D082D0835A
:05351200D0F0D0E03212
:10331000D2AF43AB0843B6C0907132E04440F043B3
:10332000AB087877743FF208744BF2787A7430F215
:10333000788914F27871744FF2187427F2787274E5
:10334000A8F2087410F208E4F208F208F2787E7429
:0F335000D0F2087404F208741EF2087402F2221C
:102C9800E4FBEB25E025E02411F582E4343AF583E2
:102CA800740193FF74CE2BF582E43464F583EFF05E
:102CB800EB25E025E02413F582E4343AF583E49328
:102CC800FE740193FFEB25E024D0F582E43464F52B
:102CD80083EEF0A3EFF0EB25E024D4F582E434642E
:102CE800F583E4F0A37441F0E47F01FEFDFC74CEAB
:102CF8002B123AAAF9F812040DE53F4FFFE53E4EB4
:102D0800FEE53D4DFDE53C4C8F3F8E3E8D3DF53C4F
:102D18000BEB64026003022C9A121F7A122B6A02D0
:022D2800331066
:103B370078C2E254BFF2E24440F2907181E4F0228D
:0D3BA10078C3E254CFF278C0E24440F22233
:0D3BAE0078C3E2543FF278C0E24480F22276
:0D3BBB0078D2E254FCF278D0E24401F2220C
:0D3BC80078D2E2543FF278D0E24408F222B5
:0D3BD50078D3E254FCF278D0E24410F222E2
:0D3BE20078E2E254F3F278E0E24402F222CD
:0D3BEF0078E2E254CFF278E0E24404F222E2
:0D3BFC0078E2E2543FF278E0E24408F22261
:0D3C090078E3E254F3F278E0E24420F22286
:0D3C160078E3E2543FF278E0E24480F222CD
:0D3C230078F2E254FCF278F0E24401F22263
:0713250044600C0000000011
:083C79007890E2541FF2E222F0
:10368D00E5B154F342B153A8DFD2AF7892E4F2081A
:10369D00F27890E254E3F2E2441CF2E254FCF2E2DE
:1036AD004401F208E2547FF2E24420F2789574016D
:0C36BD00F2187476F2123C7944A0F2225C
:0C3C4A00123C7944C0F243A820D2AF2203
:103B4700123C7944A0F27892E4F208F253A8DF22FB
:03001E0002335F4B
:10335F00C0E0C0F0C083C082C0D075D000C000C034
:10336F0004C005C006C0077891E230E71DE2448033
:10337F00F290600C120420EF2401FFE43EFEE43DC6
:10338F00FDE43CFC90600C120448D007D006D00539
:0F339F00D004D000D0D0D082D083D0F0D0E03294
:0E132C004465350000000044653100000000FB
:10313B00C374FF9BFB74FF9AFAE499F9E498F8E0E7
:10314B00FEA3E0FFE4FCFD22C374FF9BFF74FF9A18
:10315B00FE74FF99FD74FF98FC12043CC30203E953
:10316B0012042090643202043CEE8FF012026AC308
:10317B0022906432020420120420EF2401FFE43E6B
:10318B00FEE43DFDE43CFC227BFF7AFFF9F8D30221
:02319B0003D35C
:10361300E5B154CF42B153A8BFD2AF75D102789C64
:10362300E254E3F2E2441CF2E254FCF2E24401F21B
:1036330008E2547FF2E24420F278A17401F2187494
:0D36430076F2789CE2541FF2E244A0F222DD
:103B5700789CE2541FF2E244C0F243A840D2AF225D
:1017580090653512042090642E1204489064321269
:101768000454000000009065351204540000000085
:1017780090653112043C90642E12042012028D9060
:10178800643212044890653112045400000000903D
:10179800654BE0FEA3E0FFE4FCFD123193400C1220
:1017A800317C90654BEE8FF012026A12316E9064B4
:1017B800F712313BD31203E9404212317C9064F7AF
:1017C8001231749064F8E094649064F7E0940040F7
:1017D8002BE0FFA3E09064F9CFF0A3EFF0E490646E
:1017E800F7F0A3F09064FB1204209064FF12044801
:1017F8009064FB12045400000000D22512316E9050
:1018080064AC12313BD31203E9404212317C90643C
:10181800AC1231749064ADE094649064ACE09400D0
:10182800402BE0FFA3E09064AECFF0A3EFF0E4908C
:1018380064ACF0A3F09064B01204209064B4120475
:10184800489064B012045400000000D22012316E97
:101858009064EC123153500F9064EC12316B120209
:10186800809064EC12044812316E90650312315373
:10187800500F90650312316B1202809065031204B9
:1018880048906528E0B4011F12317C906529123117
:101898007490652AE094C4906529E094094008E4AE
:1018A800F0A3F0906528F090652CE0B4011F123188
:1018B8007C90652F123174906530E0946490652FA8
:1018C800E094004008E4F0A3F090652CF090652BBC
:1018D800E0B4011F12317C90652D12317490652E91
:1018E800E0946490652DE094004008E4F0A3F09043
:1018F800652BF09064F012314A123193400A9064DB
:10190800F0E475F00112026A74FFFFFEFDFC9065B9
:1019180024123164500C906524123182906524128F
:02192800044871
:01192A00229A
:0300210002325D4B
:10325D00C0E0C0F0C083C082C0D075D000C000C037
:10326D0004C005C006C007789DE230E728E244801F
:10327D00F29065351231829065351204489063AD38
:10328D00E0C394FF5003E004F090648EE0C394FF1C
:10329D005003E004F0D007D006D005D004D000D004
:0A32AD00D0D082D083D0F0D0E03200
:09133A00C11EC11F4265470000FD
:103A1900120420EF2401FFE43EFEE43DFDE43CFCFA
:0E3A29002274FFFFFEFDFC12043CC30203E901
:10351700E5B254FC42B253A9FED2AF75D104907103
:1035270000E054E3F0E0F0E054FCF0E04401F090F8
:1035370071057409F0907104745FF0907100E054A4
:103547001FF0E044A0F0A3E0547FF0E04420F02215
:103B1500907100E0541FF0E044C0F043A901D2AF1A
:013B2500227D
:030024000223EEC6
:1023EE00C0E0C0F0C083C082C0D075D000C000C0B5
:0D23FE0001C002C003C004C005C006C00736
:10240B00907101E020E7030224AFE04480F03082BA
:10241B001B201E149064FB123A2A500C9064FB1282
:0E242B003A199064FB120448D21E8002C21EB1
:10243900906547E475F00112026AC3906548E0941B
:1024490014906547E09400402EE4F0A3F09064BC3A
:10245900123A199064BC120448E47F587E02FDFCCC
:102469009064BC123A30400F20210C9064BC1204D5
:072479005400000000D22115
:1024800030952A201F239064B0123A2A500C906491
:10249000B0123A199064B01204489064B8123A1914
:0F24A0009064B8120448123703D21F8002C21F83
:1024AF00D007D006D005D004D003D002D001D00081
:0B24BF00D0D0D082D083D0F0D0E0322B
:10134300602D63F1000000000000000000000000B9
:10135300000000000000000000000000000000008A
:10136300000000000000000000000000000000007A
:101373000043641E00000043642100000043642511
:10138300000000C124416428004164290041642411
:081393000044642A0000000080
:1032B70090642A12042074212FF582E43464F58384
:1032C7002290642EE0FF241EF582E43464F5832205
:1032D7007D00EF75F00FA424F1F9746335F0FA7BE4
:1032E7000122E5822EF582E43583F58322E4F0900E
:1032F7006424E014F090000F22906429E4F09064B5
:0933070028F02290642A02043C23
:0E3B770090645EEFF0123C3090645EE0FF223E
:10386A0078C2E2543FF2E254FCF2E24440F2907130
:10387A0081E04404F0907175E04401F043AA20D23B
:0B388A00AFE4F5D675D51F75D21122F2
:03004B000220B6DA
:1020B600C0E0C0F0C083C082C0D075D000C000C0F0
:0D20C60001C002C003C004C005C006C00771
:1020D300906465E4F0E5D420E5030221D3E5D7F06D
:1020E300202404E0B4A509906424E0C394034003CE
:1020F3000221C6906465E0B4A515D2241233001200
:102103003B4790600C12045400000000123C4A90BC
:102113006429E0B40108906465E0906428F0123209
:10212300B7E060030221D3906465E0FF12330A90A5
:1021330063F175F00FEB120485EA75F00FA42583A4
:10214300F583C083C082906429E0FE04F0D082D07E
:10215300831232E9EFF090600C1204540000000087
:10216300906428E0606AE0FFA3E06F7063906428E6
:10217300E0FB90642A120420741E2F1232CFEBF07E
:10218300C2241233001232B77401F0906424E004C5
:10219300F090642A120420EF2401FFE43EFEE43DA4
:1021A300FDE43CFC90642A120448E47F03FEFDFC3A
:1021B30012330AC31203E9400A90642A120454003A
:1021C300000000123B4790600C1204540000000012
:1021D300D007D006D005D004D003D002D001D00060
:0B21E300D0D0D082D083D0F0D0E0320A
:0D3C3000E5D430E4FB8FD7E5D430E4FB226F
:060027009065441204B1D3
:10002D00E4FEEEC39D50159065441204918E8275C9
:0C003D00830012016FFF123C300E80E6C1
:010049002294
:1021EE00E490642EF0A3F0C2157F0AFEFDFC906011
:1021FE000C12043CD31203E94019123B4790600CB9
:10220E0012045400000000E4906429F0906428F059
:10221E00C22422E490642EF090642EE0FFC3940357
:10222E00400302231174212F1232C0E070030223E7
:10223E000890642EE075F00FA424F2F582E4346366
:10224E00F583E0FE741E2F1232CFE06E601A90649A
:10225E002EE024211232C01232F4C083C082123218
:08226E00D7D007D0060205439A
:10227600E4906430F090642FF0A3F01232C8E014BA
:10228600FE906430E0FDC39E5022EF75F00FA4244B
:10229600F1F582E43463F583E5822D1232ECE0FF3A
:1022A60090642FE02FF0A3E004F080CF90642FE03D
:1022B600F01232C8E0FEEF75F00FA424F0F582E4C8
:1022C6003463F5831232E9E0FF90642FE06F600219
:0222D600D2151F
:1022D80030151DC21590642EE0FF24211232C01261
:1022E80032F4C083C0821232D7D007D00612054319
:1022F80090642EE02425F582E43464F5837401F0BB
:0923080090642EE004F00222268C
:0123110022A9
:05139B0042654900005D
:103A7000907123E05498F0E0441EF02212028D90E1
:0B3A80006432120448906432020420FB
:1039590078C3E24403F2E2440CF218E2440CF27830
:103969006AE24478F27591FF123A709071227407F5
:02397900F0223A
:10373C00EF24FE601714601C2402701E907123E0AD
:10374C0054D8F0E0445AF0759904800E123A707512
:10375C0099058006123A707599017869E24448F22D
:07376C007F017E00023A55C7
:103913007869E24401F2786BE230E1FA7402F2AFC3
:1039230093EF75F010A4FFAEF0E594C4540FFDEFD0
:033933004DFF2223
:1025A200E4906430F0A3F0A312045400000000E4AD
:1025B200906436F0A3F074FFA3F0A3F0E4A3F0F06C
:1025C200123913906430EEF0A3EFF090643AE0C356
:1025D20094024054906436E0FEA3E0FF906430E041
:1025E200FCA3E0FDD39FEC9E4008906436ECF0A380
:1025F200EDF0906438E0FEA3E0FFC3ED9FEC9E5047
:102602000F906430E0FFA3E0906438CFF0A3EFF0C6
:1026120090643212043C906430E0FEA3E0FFE4FCDC
:10262200FD120280A312044890643AE004F0E0C371
:102632009414408C123A85C006C007906436E0FEBE
:10264200A3E0FBAA06E4F9F8D007D006123A7CC050
:1026520006C007906438E0FEA3E0FBAA06E4F8D0C7
:1026620007D006123A7C78041203FA906430EEF036
:03267200A3EFF0E3
:012675002242
:103B260075AF3F8FAF75AEB975A402E5A530E1FB61
:013B3600226C
:103773009064331204B175AF3F8FAF906436E0C3EA
:1037830094014022E5A530E0FB906433E475F00139
:1037930012049A120156F5A675AEB975A401906488
:0737A30036E014F080D5228E
:1037AA0090642F1204B1906432E06027AE070FEEE6
:1037BA002400FDE4343F8D82F583E493FE90642F68
:1037CA00E475F00112049AEE1201CF906432E0140B
:0437DA00F080D32286
:10381000A3F078E3E254FCF2E24401F2907192E406
:10382000F02290643FE004F0E0C3940822C2A4C2F6
:0E38300096D2977F04FE22FFE0FEA807082232
:1031FF00E4FF78D3E2543FF2E24440F290718DE461
:10320F00F0E254CFF2E24410F290718CE4F01238F5
:10321F0012C297C29612000FEF7030FD7F8C1228EA
:10322F00C07D017F881228C07D017F861228C07D56
:10323F00017F8A1228C0E4FD7F821228C0E4FD7F3F
:0E324F00841228C0E4FD7F801228C002348C57
:103A8B00E4FDEE25E0FEEF30E004EE4401FEEFC373
:093A9B0013FF0DEDB408EBAF06BA
:013AA40022FF
:0230CD00AC074E
:1030CF00E4906433F0AF05123A8BEC64816019EC35
:1030DF0064836014EC6485600FEC6487600AEC64B1
:0830EF00896005EC648D70435B
:1030F700E4906434F0A3F0EC64816004ECB48306DC
:10310700EF547FFF8017EC64856004ECB48706EF0B
:10311700543FFF8008ECB48904EF541FFFEFC454F9
:103127000FFE906434F0EF540FFFA3F0EE75F00A32
:03313700A42FFFC3
:01313A002272
:052D2A00906433EFF09E
:102D2F00E4A3F012381012382D123C6EE490643583
:102D3F00F0122D9E906435E0906433123837800284
:102D4F00C313D8FC30E004D2A48002C2A47F047E57
:102D5F0000123C6E122DA840D878E3E254FCF278B2
:102D6F00E0E24410F2E4906435F0906434E025E042
:102D7F00F0122D9E30A407906434E04401F0122D20
:0E2D8F00A840E7C296C297C2A4906434E0FF49
:102D9D0022C2967F047E00123C6E22D2967F047E64
:0F2DAD0000123C6E906435E004F0E0C3940822FD
:053AD500906432EFF0E7
:103ADA00E4FE122D2AAE07906432E0FFAD060230F2
:013AEA00CD0E
:082DBC0090643DEFF0A3EDF07F
:102DC400E412381012382D123C6EE490643FF01275
:102DD4002E4290643FE090643D1238378002C31362
:102DE400D8FC30E004D2A48002C2A4122E311238DE
:102DF4002240DCE490643FF0122E4290643FE0FFF6
:102E040090643EE0FEA807088002C313D8FC30E0BB
:102E140004D2A48002C2A4122E3112382240D9C294
:0C2E2400967F047E00123C6EC297C2A490
:102E3000227F047E00123C6ED2967F047E00123CFC
:0C2E40006E22C2967F047E00123C6E22BF
:0E000F007F80122D2AEF30E0037F00227F0158
:01001D0022C0
:0528C000906439EFF007
:1028C500A3EDF0EF6480601D906439E0FF648260E1
:1028D50014EF6484600FEF6486600AEF6488600516
:0528E500EF648C706C33
:1028EA00E490643BF0A3F090643AE0FFC3940A409A
:1028FA0007EF75F00A84A3F090643AE075F00A8451
:10290A00AFF090643CEFF090643BE0FEC454F04FAB
:10291A0090643AF0906439E0FF64806004EFB48216
:10292A000990643AE0547FF08022906439E0FF64B1
:10293A00846004EFB4860990643AE0543FF0800C56
:0C294A00906439E0B48805A3E0541FF04D
:10295600E4FD7F8E122DBC906439E0FFA3E0FD12EA
:092966002DBC7D807F8E022DBC8A
:1035570090653FE0FD7F801228C090653EE0FD7FCB
:10356700821228C090653DE0FD7F841228C09065D7
:103577003CE0FD7F861228C090653BE0FD7F881206
:0F35870028C0906539A3E02430FD7F8C0228C056
:10359600906432A3E02430FD7F8C1228C0906434FE
:1035A600E0FD7F881228C0906435E0FD7F861228F2
:1035B600C0906436E0FD7F841228C0906437E0FD39
:0F35C6007F821228C0906438E0FD7F800228C009
:10348C007F81123AD5906478EFF07F83123AD59011
:10349C006477EFF07F85123AD5906476EFF07F87F2
:1034AC00123AD5906475EFF07F89123AD590647416
:1034BC00EFF07F8D123AD5EF24D0FEE43407906400
:0634CC0072F0A3CEF02215
:0413A0004165400063
:10397B0090642EF090654102049190000612016F45
:10398B00FE90000802016F9000091201E190000CFB
:01399B002209
:101C9900E490642EF07FFFA374FFF0906541120475
:101CA900B190000112016FFE120156FDEEC39D5065
:101CB90003021E2B12397F900001E41201E190000A
:101CC9000E1204BA120510EFF460089065407423EF
:101CD900F08009906540E06003E014F012397F90CC
:101CE900000312016F6F601590000512016F600DFE
:101CF900900004E41201E1900003021E2790000500
:101D090012016FFE90000412016FC39E500B12392D
:101D19007F900004740102019C12397F9000021225
:101D2900016F6F6048EFF4701C123985C39E400A39
:101D3900740512397B900002806112397F90000A84
:101D49007401021E1E12397F900008740112399520
:101D590012016F6F906541600C1204917401123980
:101D690092EF021E1E120491900009803DEFF4705B
:101D79004112397F90000912016FD3940050030278
:101D89001E2190000B12016FFE90000A12016FD301
:101D99009E4011740112397B90000C12016F9064FE
:101DA9002FF0805412397F90000A740112019C02AD
:101DB9001E2112397F12398CC394FF5008900008F4
:101DC900740112019C123985B5060890642E7403BA
:101DD900F0802012397F9000071239886E7039908F
:101DE900642E740412397E90000612016F90000867
:101DF9001201E190642FEFF012397FE412399274E5
:101E0900FF1201E190642FE09000111201E190644A
:101E19002EE09000121201E112397F900002EF12B8
:021E290001E1D5
:011E2B002294
:1036C90078E2E2543FF2E24440F2907191E0F01264
:1036D9003ABD12368D12386A123895123613123CD9
:1036E9003D123C811239591231FF123517123B57DD
:0A36F900123B157F017E00023A55D6
:1033FA0012231275D95590715EE054FEF075D9BB4F
:10340A001236C9D2A37FE87E03123A55C2A37B01C2
:10341A007A6379AC121C99122806122AC31224CA9A
:10342A0012296F120C311227461221EE121E2C128B
:0A343A0010DE12175875D9AA80D4CD
:1013A40060276466000000000000000000000000E8
:1013B4000000000000000000000000000000000029
:0B13C40000000000000000000000001E
:0C3C56007B017A647966740CF0E4FF22B4
:103ABD007E007F277D007B017A6479661205439035
:083ACD006432123C560237AAD4
:0E3B8500E4FF123B26906436123C5602377362
:1035D500FEE02FFFEC3EFEA3E02FFFEC3EFE22FABD
:1035E5001204207E00EB2FFFEE3AFE3395E0FDFC42
:1035F500221203FA7E00906432E022FC90643702C6
:0E3605000448906437020420906433020420CD
:05155200906432EFF08F
:10155700906437120454000000007FA5123C30123B
:101567003607EF24A5FFE43EFEE43DFDE43C1236DA
:1015770000906432E0FF64016032EF6402602DEF97
:1015870064036028EF64046023EF6405601EEF6462
:10159700066019EF64096014EF640A600FEF6411C5
:1015A700600AEF64126005EF641370207F0512175D
:1015B70032121744C00012360D1235F92405FDE426
:1015C70033CD2FFFEE3D1235EF0216FC906432E06B
:1015D700FF64076014EF6408600FEF640C600AEFA4
:1015E70064146005EF641070337F06123C3090641A
:1015F70032E0FF12171A121744C000C002C00312CC
:10160700360D78081235F62406FDE433CD2FFBEEB0
:101617003DA31235E4D003D0020216FC906432E0F9
:10162700FF640B6005EF640D70467F071217327871
:10163700101203FA12171A12174EC000C002C00385
:1016470012360D78101235F62407FDE433CD2FFB43
:10165700EE3DFAA312042078081203FA7E00EB2F5E
:10166700FBEE3A9064331235E4D003D0020216FC45
:10167700906432E0640E60030217047F0B123C3063
:101687007F0E123C30906472E0FF123C309064721F
:10169700E0A3E0FF123C30906474E0FF123C30900E
:1016A7006475E0FF123C30906476E0FF123C3090A6
:1016B7006477E0FF123C30906478E0FF12174EC069
:1016C70000C001C002C003906472E02419FFE43334
:1016D700FEE0A3E07C002FFFEC3E9064741235D54A
:1016E700A3E02FFFEC3EA31235D53395E0FDFCD0E8
:1016F70003D002D001D00012028012360112360741
:10170700E4FEFD123600123607123C307F017E00E0
:03171700023A553E
:10171A00123C3090643312042078081203FA123C07
:10172A003090643312042022123C30906432E0FF7D
:10173A00123C3090643312042022123C30906437F9
:0E174A0012043C22123C3090643712043C2200
:0513CF0042654B000027
:10389500123BE2123BEF123C09123C16123C23127A
:1038A5003BD5123BC8123BBB123BAE123BA178E2A3
:0B38B500E254FCF278E0E24401F22251
:102A1B00C390654CE094C890654BE0940050030262
:102A2B002AC2E4F0A3F090648730A503F08003740E
:102A3B0001F0D20430A207E4906488F08006906421
:102A4B00887401F0D20530A107E4906489F0800608
:102A5B009064897401F0D206208607E4906483F0B9
:102A6B0080402087089064837401F08035209008A3
:102A7B009064837402F0802A20930890648374031B
:102A8B00F0801F2094089064837404F0801420B0AD
:102A9B00089064837405F0800920A7069064837402
:102AAB0006F0D20120A00790648B74018004E4909F
:082ABB00648BF0A3F0D20A22A3
:103B010063757220737065656420256C75206B6D1B
:043B11002F680A000F
:1013D400C1204264AC00004264AE00004864B00026
:1013E400000000000000004464C0000000004464E9
:0513F400C40000000030
:0C3C620012043C020280E4FDFC02043C61
:0D3C3D0078D3E254F3F278D0E24420F22272
:103703009064C01204209064BC123C629064C012A6
:1037130004489064BC120454000000009064C41276
:1037230004209064B8123C629064C412044890640C
:09373300B8120454000000002249
:01004A002293
:102AC30090642E120454000000007FF47E01906491
:102AD300C0123C68C31203E95006202103022B698C
:0F2AE30030210C90642E12045400000000804C2F
:102AF2007F2E7E049064C4123C6812029BE47B0326
:102B0200FAF9F8120326906432120448E47B0AFAB6
:102B1200F9F89064321204201203269064C0120461
:102B22003C12032690642E1204489064E81204209A
:0C2B3200906432123C629064E812044887
:102B3E007BFF7A3B790190642E1204209064391247
:102B4E0004481205F89064C412045400000000906A
:0B2B5E0064C012045400000000C221FB
:012B69002249
:1013F9004264F700004264F90000C1254864FB001B
:10140900000000000000004164F2004464F30000A1
:021419000000D1
:073C810078C2E254CFF222E9
:10296F0090642E12045400000000202503022A1A3E
:10297F00C225E47FA67E0EFDFC9064FF12043C127C
:10298F00029BC006C0079064F9E0FEA3E0FBAA0615
:10299F00E4F9F8D007D00612032690642E120448EB
:1029AF009064F2E0C394055016E004F0A3120420E3
:1029BF0090642E12043C1202809064F3020448903B
:1029CF0064F3120420E47B05FAF9F81203269064ED
:1029DF00F3120448E49064F2F07FFF7EFFFDFCA346
:1029EF0012043CC31203E9400A9064F3120454002A
:1029FF0000FFFF9064F31204209064791204489052
:0B2A0F0064F312045400000000D20722
:012A1A002299
:10141B004464EC000000004464E8000000004264F7
:10142B00F000004464E0000000004464E4000000AD
:01143B0000B0
:1038C000120420EF2401FFE43EFEE43DFDE43CFC55
:1038D00022E4FDFC12043CC30203E912042012029C
:0B38E0008DE47B64FAF9F8C30203E9F1
:1024CA007F307E759064EC1238D1400D9064EC1226
:1024DA00045400000000123B857FE87E039064E804
:1024EA001238D140617F007ECA7D9A7C3B90646637
:1024FA001238D4500C9064661238C0906466120484
:10250A00487F407E427D0F7C0090646A1238D45026
:10251A001890646A1238C090646A12044890646E13
:10252A001238C090646E1204489064E8120420C302
:10253A00EF94E8FFEE9403FEED9400FDEC9400FCAA
:10254A009064E81204489064E012043C90646612B5
:10255A0038DB500E9064661204209064E01204483E
:10256A00D20C9064E412043C90646A1238DB500E78
:10257A0090646A1204209064E4120448D20DC39055
:10258A0064F1E094889064F0E09413400AE4F0A3C4
:07259A00F0D20CD20DD20EAD
:0125A1002217
:10143C00C100C101C102C103C104C105C106C1077C
:10144C00C108C109C10CC10DC10EC10FC110C11120
:10145C00C112C113C1144165280042652900004125
:10146C00652B0041652C0042652D000042652F0064
:01147C00006F
:10344400906483E0FFE4FCFDFE9064330204489042
:10345400646AE47B64FAF9F8120420020326906497
:103464002EE075F00FA422906481E0FEA3E0FFE457
:10347400FCFD22E47BE87A03F9F890646622906408
:083484002EE0FF75F00FA422F9
:101E2C00E490642EF0F090642EE0FFC39403400322
:101E3C00021F7974252FF582E43464F583E0700376
:101E4C00021F7012346224F3F582E43463F583E0EC
:101E5C001204EA1E7B801E808B1E858C1E8F8E1EAC
:101E6C008A941F16981F1A991F1E9A00001F20D2C1
:101E7C0000021F20D20C021F20D20D021F20D20EF6
:101E8C00021F20D20FEF75F00FA424F5F582E43475
:101E9C0063F583E0FDEF75F00FA424F4F582E434D0
:101EAC0063F583E02DFEE433906472F0A3CEF01260
:101EBC00348224F6F582E43463F583E0906474F0A4
:101ECC00EF75F00FA424F7F582E43463F583E0900A
:101EDC006475F012348224F8F582E43463F583E0FF
:101EEC00906476F0EF75F00FA424F9F582E4346376
:101EFC00F583E0906477F012346224FAF582E434CE
:101F0C0063F583E0906478F0800AD2128006D213D5
:101F1C008002D214906424E0D394004003E014F0C7
:101F2C0090642EE0FF2425F582E43464F583E4F01C
:101F3C00741E2FF582E43464F583E4F074212FF5DC
:101F4C0082E43464F583E4F0FE7F0FC006C007FD25
:101F5C0012346224F1F9746335F0FA7B01D007D0A6
:0D1F6C000612054390642EE004F0021E32C0
:011F79002245
:0610DE002000030211B026
:1010E40090642E12045400000000C200906528E0B1
:1010F40060030211B004F01234447F0112155290BF
:1011040064841234477F0212155290648512344766
:101114007F031215529064871234477F04121552CC
:101124009064881234477F051215529064891234F2
:10113400477F0612155290647912042012344D7FB1
:101144000712155290647D12042012344D7F081248
:1011540015529064861234477F091215521234775F
:1011640012345C12344D7F0B121552123453123464
:101174004D7F0C12155212348C90643312045400B7
:101184000000007F0E12155212346B12344D7F1082
:1011940012155290648A1234477F111215529064CA
:0C11A4006E12345612344D7F1412155296
:1011B00030010AC2011234447F0112155230020D6F
:1011C000C2029064841234477F0212155230040D1B
:1011D000C2049064871234477F0412155230050D03
:1011E000C2059064881234477F0512155230060DEF
:1011F000C2069064891234477F06121552300710D8
:10120000C20790647912042012344D7F07121552E0
:10121000300810C20890647D12042012344D7F08FB
:1012200012155230090DC2099064861234477F09A5
:10123000121552300A18C20A90648B1234477F127A
:1012400012155290648C1234477F13121552300CD1
:1012500010C20C12347712345C12344D7F0B12150D
:1012600052300D0DC20D12345312344D7F0C121535
:1012700052300E16C20EE47B64FAF9F890646E12D6
:10128000345C12344D7F14121552300F23C20F906C
:10129000652BE0701B78327C647D017B017A647978
:1012A00072FE7F0712013012359690652B7401F0A3
:1012B00030100DC21012346B12344D7F10121552C3
:1012C00030110DC21190648A1234477F11121552E9
:1012D000301219C21290646612045400000000908B
:1012E00064E812045400000000123B85301319C258
:1012F0001390646A120454000000009064E8120421
:101300005400000000123B85301419C21490646E22
:10131000120454000000009064E81204540000001D
:0513200000123B8522D4
:10147D005463BF00010153000204730003075300BE
:10148D0004091D00050CED5E63D301010203040583
:10149D0002060708090A030B0C0D0E0F041011129A
:1014AD0013140515161718195363AC0A0000000024
:0E14BD00033241000000140001FF37DE000082
:0F004E00EC75F006A424D3F582E43463F5832225
:1033AE00E4FD906430F0A374FFF0ED25E025E024F9
:1033BE00C1F582E43463F583E0FAA3E0D39FEA9E7D
:1033CE00401CED25E025E024BFF582E43463F5834F
:1033DE00E0FFA3E0906430CFF0A3EFF080050DED99
:0B33EE00B405C7906430E0FEA3E0FFD0
:0133F90022B1
:10393600E4FEFC12004EE0B5071112004EE5822DA2
:10394600F582E43583F583E0FE80050CECB405E3EF
:02395600AF06BA
:01395800224C
:1037DE00E490642EF0A3F07F0212373C123913905E
:1037EE00642EEEF0A3EFF090642EE0FEA3E0FF1245
:1037FE0033AE90642EEEF0A3EFF090642EE0A3E0D3
:01380E00FFBA
:01380F002296
:102806009063BDE070030228BFE0FFA3E0FD12392C
:1028160036E49063BDF0A3F0EF1204EA28440128E1
:102826005004285C0628680928740B28800E288C1A
:102836001028981328A41528B018000028BF906403
:1028460033120454000000CF806A9064331204549B
:10285600000100CF805E906433120454000000D261
:102866008052906433120454000100D28046906472
:1028760033120454000000D1803A90643312045499
:10288600000100D1802E9064331204540000007FB2
:1028960080229064331204540001007F80169064F5
:1028A60033120454000000D0800A9064331204549A
:0928B600000100D07F0D12155243
:0128BF0022F6
:1014CB00446503000000004465070000000044650C
:0914DB000B0000000041650FFF49
:1038EB00E47F42906507FDFC12043CC30203E9E44C
:1038FB007E0AFDFC90650712043CD30203E9906538
:08390B000712044890650B222D
:100C31007F0312373C1225A2906549EEF0A3EFF035
:100C410090650712043C906549E0FEA3E0FFE4FCD7
:100C5100FD120280123909120420EF2401FFE43E43
:100C6100FEE43DFDE43CFC90650B120448E47FF496
:100C71007E019065031238F15003020E8B906503DB
:100C81001204540000000090650712042090650BC7
:100C910012043C1203261239091204540000000008
:100CA100E47F4D7E031238EE500990650F7464F0B5
:100CB100020D597E041238EB500990650F745AF0F9
:100CC100020D59E47F427E061238EE500990650FFD
:100CD1007450F0020D59E47F147E071238EE50096A
:100CE10090650F7446F0020D59E47FAC7E0712380F
:100CF100EE500990650F743CF0020D59E47F3B7E84
:100D0100081238EE500890650F7432F0804AE47F83
:100D1100D87E081238EE500890650F7428F080389C
:100D2100E47F7B7E091238EE500890650F741EF047
:100D31008026E47FEC7E091238EE500890650F742E
:100D410014F080147E0A1238EB500890650F740A73
:100D5100F08005E490650FF07F7D1238FA4008E4D9
:100D610090650FF0020E77E47F6D7E0A1238EE5027
:100D7100107F421238FA400990650F740AF0020E92
:100D810077E47F267E0A1238EE5013E47FEC7E0969
:100D91001238FD400990650F7414F0020E77E47F5C
:100DA100CE7E091238EE5013E47F7B7E091238FDA6
:100DB100400990650F741EF0020E77E47F457E09AD
:100DC1001238EE5013E47FD87E081238FD400990A6
:100DD100650F7428F0020E77E47F9E7E081238EECC
:100DE1005013E47F3B7E081238FD400990650F7473
:100DF10032F0020E77E47F0F7E081238EE5013E4D2
:100E01007FAC7E071238FD400990650F743CF002FB
:100E11000E77E47F727E071238EE5012E47F147E63
:100E2100071238FD400890650F7446F08048E47F52
:100E3100ED7E061238EE5012E47F427E061238FD36
:100E4100400890650F7450F0802CE47FBC7E051241
:100E510038EE5012E47F427E041238FD400890655E
:100E61000F745AF08010E47F4D7E031238EE500665
:100E710090650F7464F090650FE0906486F0906562
:0B0E810007120454000000FFD20922F9
:1014E40044651000000000446514000000004465D9
:0514F4001800000000DB
:103A3700EF2401FFE43EFEE43DFDE43CFC020448C4
:0E3A4700E47FE27E04FDFC12043CC30203E9AE
:102676007F0412373C1225A2906549EEF0FAA3EFCB
:10268600F0FB906518120420EF2408FFE43EFEE4F8
:102696003DFDE43CFC906518120448D3EB9400EA37
:1026A60094089065145015120420906514123A3758
:1026B60090651012045400000000800712045400B4
:1026C600000000906514123A4740119065141204F8
:1026D6005400000000E490648AF0D211C390654A69
:1026E600E094C7906549E0940B906510401512047C
:1026F60020906510123A37906514120454000000B9
:1027060000800712045400000000906510123A473A
:1027160040129065101204540000000090648A7400
:1027260001F0D211E47FE87E03FDFC906518123AB1
:0F2736004E400C90651812045400000000D211A0
:012745002271
:1014F9004465240000000044651C000000004465A8
:051509002000000000BD
:103B67007C007DF0120516E4FB7A10F9F8020326B3
:0E3B93007E007C007D641202037D9602021506
:10274600E490642EF0A3F07F0112373C90652012CE
:10275600043CC000C001C002C0031225A2E4FCFD77
:10276600D003D002D001D00012028090652012045E
:102776004890651C120420EF2401FFE43EFEE43D70
:10278600FDE43CFC90651C120448E47FE87E03FDF2
:10279600FC90652412043CC31203E9406290652054
:1027A60012042090651C12043C1203269065201228
:1027B6000448906520120420123B6790642EEFF0C7
:1027C600E0FF123B93A3EFF0906520120454000043
:1027D600000090651C12045400000000906524124D
:1027E60004540000000090642FE0906484F090642C
:0F27F6002EE0FF906481E4F0A3EFF0D210D20246
:0128050022B0
:10150E004C64A001010203040502060708090A53F0
:10151E00648D0A0000000003324100000014000236
:05152E00FF399C0000E4
:1039DC00E4FFFDFCAB1BAA1AA919A818C30203E942
:0F39EC00EE75F006A424A0F582E43464F583227E
:10399C0075D9AA1239BC75D9AA7E021239DC70030A
:1039AC007F01227E041239DC70037F02227FFF220A
:10383E00E490654FF0FE1239ECE0B507141239EC46
:10384E00E5822DF582E43583F583E090654FF080B7
:0B385E00050EEEB402E090654FE0FFA5
:01386900223C
:103AEB0090649EE0600FE0FFA3E0FD12383EE4908F
:053AFB00649EF0A3F041
:013B000022A2
:1015330041601801426019000041601B0041601CBA
:0E1543000041601D0041601E7F42601FFFFFDF
:10365000E4F561AE3EAD3DAC3C853F178E168D1551
:103660008C14787EE254FCF2E24514F218E515F26F
:1036700018E516F218E517F2787FE254FBF2E254EF
:0D368000FB4404F2E24401F27F01022ED867
:100E8C0090642EEFF0E0FF24CAF582E43464F5831D
:100E9C00E004F074CC2FF582E43464F583E4F07450
:100EAC00CA2FF582E43464F583E0C39563500302E2
:100EBC0010DD90642EE0FB24CAF582E43464F583E3
:100ECC00E4F0903A0C936401600302108E7F01FEF3
:100EDC00FDFC74CE2BF582E43464F583E0F9F81252
:100EEC00040DE51F4FF51FE51E4EF51EE51D4DF5D6
:100EFC001DE51C4CF51CAF1FAE1EAD1DFC78011280
:100F0C0003FAEF5455FBEE5455FAED5455F9EC54E5
:100F1C0055F8C3E51F9BF53BE51E9AF53AE51D997F
:100F2C00F539E51C98F538AF3BAE3AAD39FC780293
:100F3C001203FAEF5433FBEE5433FAED5433F9EC5D
:100F4C005433F8E53B5433FFE53A5433FEE539545A
:100F5C0033FDE5385433FCEB2FF53BEA3EF53AE92B
:100F6C003DF539E83CF538AF3BAE3AAD39FC780489
:100F7C001203FAEF253BFFEE353AFEED3539FDEC69
:100F8C003538FCEF540FF53BEE540FF53AED540F9A
:100F9C00F539EC540FF538AF3BAE3AAD39FC780867
:100FAC001203FAEF253BFFEE353AED3539FDEC3502
:100FBC0038EFF53BE4F53AEDF539E4F538AE3AACFB
:100FCC003878101203FAEF253BFFEE353AFEEFF5B9
:100FDC003BEEF53AE4F539F53890642EE025E02443
:100FEC00D8F582E43464F583E0FEA3E0D39553EEA8
:100FFC009552402490642EE0FF25E024D8F582E43D
:10100C003464F583E0F552A3E0F55374CE2FF582EA
:10101C00E43464F583E0F564903A0CE493FFE4FC6B
:10102C00FDFEAB3BAA3AA939A838D31203E94052CA
:10103C00AF650565D3EF9403748094805003021060
:10104C00DDE4F565F51FF51EF51DF51C7F01FEFDB4
:10105C00FCA964A80112040D8F1B8E1A8D198C1813
:10106C00E47F01FEFDFCA80112040D8F338E328D3E
:10107C00318C30E4F552F553756420122F5C4337F4
:10108C000222E4F5657F01FEFDFC90642EE0FB245A
:10109C00CEF582E43464F583E0F9F812040DE51B17
:1010AC004FF51BE51A4EF51AE5194DF519E5184CD7
:1010BC00F518E47F01FEFDFCA80312040DE5334F87
:1010CC00F533E5324EF532E5314DF531E5304CF581
:0210DC003022C0
:1008F200E4F566903A10E493FFE566C39F40030275
:100902000C30E56625E02400F582E4346085828AB5
:100912007F548F8B7E0E8E8C758903758889E56670
:1009220025E02400F582E4346085828A8F8B758C01
:1009320012758904758889E56625E02408F582E444
:100942003460F583E0FCA3E0C3950FEC950E502EC6
:10095200E56625E02414F582E43460F583E0FCA327
:10096200E0C39513EC95125015AF600560EF940249
:1009720074809480400BE4F5605337FD8003E4F506
:1009820060E53730E125E56625E024D8F582E434D8
:1009920064F583E4F0A3F0E56625E024DCF582E467
:1009A2003464F583E4F0A3F0020A40E56625E0240E
:1009B20008F582E4346085828A8E8B758C0A75898B
:1009C200267588892088FDE5F130E00875F107E495
:1009D200F50AF50BAE0AE50B7802C333CE33CED857
:1009E200F9FFE56625E024D8F582E43464F583EE68
:1009F200F0A3EFF0E56625E02414F582E434608587
:100A0200828A758B12758C0A758927758889208868
:100A1200FDE5F130E00875F107E4F50AF50BAE0AE1
:100A2200E50B7802C333CE33CED8F9FFE56625E075
:100A320024DCF582E43464F583EEF0A3EFF0E5669E
:100A420025E024D0F582E43464F583E0FEA3E07867
:100A520002CEC313CE13D8F9F5518E50E56625E0C8
:100A620024D8F582E43464F583E0FEA3E0FF903AF3
:100A720008E493FC740193FDC3EF9DEE9C4017E5DF
:100A82006625E024DCF582E43464F583E0FEA3E02D
:100A9200C39DEE9C50028068E56625E024D8F5826D
:100AA200E43464F583E0FEA3E0C39551EE95504033
:100AB2001CE56625E024DCF582E43464F583E0FE7F
:100AC200A3E0C39551EE95504003020B4C74C82528
:100AD20066F582E43464F583E004F074C82566F5B3
:100AE20082E43464F583E0FF903A0DE493FEEFD3A1
:100AF2009E406474C82566F582E43464F583E4F0AC
:100B0200E56625E02404F582E43460F583E0FEA383
:100B1200E0FFE56625E02408F582E43460F583EE23
:100B2200F0A3EFF0E56625E02410F582E43460F5E9
:100B320083E0FEA3E0FFE56625E02414F582E434B9
:100B420060F583EEF0A3EFF0800D74C82566F582A0
:100B5200E43464F583E4F0E56625E02404F582E4F8
:100B6200346085828AE56625E02400F582E43460FB
:100B720085828B758C0A7589207588CB2088FDE566
:100B8200F130E00875F107E4F50AF50BE56625E0BA
:100B92002404F582E4346085828A758B547F0E8F3B
:100BA2008C7589237588897E0A8E8A8F8BE56625E6
:100BB200E02404F582E4346085828CE4F58975884A
:100BC20029E56625E02410F582E4346085828AE511
:100BD2006625E02400F582E4346085828B8E8C7574
:100BE20089207588CB2088FDE5F130E00875F10792
:100BF200E4F50AF50BE56625E02410F582E434609D
:100C020085828A758B547F0E8F8C758924758889AD
:100C1200758A0A8F8BE56625E02410F582E434603C
:0F0C220085828CE4F58975882905660208F5221C
:10192B00E4F566903A10E493FFE566C39F4003022B
:10193B001AE3E56625E024D0F582E43464F583E010
:10194B00FEA3E07802CEC313CE13D8F9F5518E5017
:10195B00E56625E024D8F582E43464F583E0FEA344
:10196B00E0D39551EE9550402EE56625E024DCF54D
:10197B0082E43464F583E0FEA3E0D39551EE9550F9
:10198B00401574CC2566F582E43464F583E4F0AF3E
:10199B0066120E8C021ADE903A0FE493FFC3E551E8
:1019AB009FFFE5509400FED3EF9400EE94004002AD
:1019BB0080047E007F00E56625E024D8F582E434C0
:1019CB0064F583E0FCA3E0C39FEC9E4003021AD1B5
:1019DB00903A0FE493FFC3E5519FFFE5509400FE4F
:1019EB00D3EF9400EE9400400280047E007F00E56C
:1019FB006625E024DCF582E43464F583E0FCA3E0A7
:101A0B00C39FEC9E4003021AD174CA2566F582E48B
:101A1B003464F583E4F074CC2566F582E43464F524
:101A2B0083E004F074CC2566F582E43464F583E03E
:101A3B00C395635003021ADE74CC2566F582E43439
:101A4B0064F583E4F07F01FEFDFC74CE2566F58220
:101A5B00E43464F583E0F9F812040D1203B8E51FC2
:101A6B005FF51FE51E5EF51EE51D5DF51DE51C5CB6
:101A7B00F51CE47F01FEFDFCA966A80112040D1202
:101A8B0003B8E5335FF533E5325EF532E5315DF5ED
:101A9B0031E5305CF530E47F01FEFDFC74CE25664C
:101AAB00F582E43464F583E0F9F812040D1203B8FF
:101ABB00E51B5FF51BE51A5EF51AE5195DF519E5F2
:101ACB00185CF518800D74CC2566F582E43464F54A
:091ADB0083E4F0056602192E22D5
:102F5C00E4F566903A10E493FFE566C39F506EE586
:102F6C006625E024D8F582E43464F583E4F0A3F01C
:102F7C00E56625E024DCF582E43464F583E4F0A313
:102F8C00F0E56625E02404F582E43460F583E0FE88
:102F9C00A3E0FFE56625E02408F582E43460F583C0
:102FAC00EEF0A3EFF0E56625E02410F582E4346042
:102FBC00F583E0FEA3E0FFE56625E02414F582E44A
:0E2FCC003460F583EEF0A3EFF00566808622F8
:102C0500E4F566903A10E493FFE566C39F5067903C
:102C15006018E0FF7E00C39410748094805053EFD9
:102C25009408748094804025E56625E02400F582AB
:102C3500E43460F583E0FEA3E0FFE56625E02404C7
:102C4500F582E43460F583EE8FF012026AE56625BD
:102C5500E02400F582E43460F583E0FEA3E0FFE5BF
:102C65006625E02410F582E43460F583EE8FF012DA
:102C7500026A0566808D906018E0C3941074809494
:102C85008040054337048006906018E004F07F011A
:032C9500022ED834
:102FDA00E4FFFEFDFCAB1BAA1AA919A818C3120329
:102FEA00E9606390601AE004F07006906019E004EA
:102FFA00F0903A04E493FE740193FF4E602ED3904E
:10300A00601AE09F906019E09E4021E4F0A3F0F579
:10301A001FF51EF51DF51CF533F532F531F530F5C2
:10302A001BF51AF519F518C223022F5C903A06E42B
:10303A0093FE740193FFD390601AE09F906019E0A9
:0D304A009E400AD22322E4906019F0A3F00A
:013057002256
:051AE400906460EFF0CA
:101AE900A3E0FCA3E0FDA3E0FEA3E0F54C8E4B8D43
:101AF9004A8C497884E2F50A08E2F50B758A08757B
:101B09008B49758C4575881D2088FDE4FFFEFDFC19
:101B1900AB48AA47A946A845D31203D34006AC450A
:101B2900A8048013AF48AE47AD46AC451203C5AB18
:101B390007AA06A905A80490601FE0FEA3E0FFE438
:101B4900FCFDC31203D35041E4FFFEFDFCAB48AAE0
:101B590047A946A8451203D34006AF48AE47800BB4
:101B6900AF48AE47AD46AC451203C590601FEEF0D5
:101B7900A3EFF0906460E025E024D4F582E43464B6
:101B8900F583E0A3E090601EF0903A01E493FE74BF
:101B99000193FFD3906020E09F90601FE09E501B4F
:101BA900906460E025E024D4F582E43464F583E0B0
:101BB900A3E090601EF090601B8079E4FFFEFDFCBD
:101BC900AB48AA47A946A845D31203D34034906429
:101BD90060E0FF25E024D4F582E43464F583E0FC79
:101BE900A3E0D39400EC9400404DEF25E024D4F514
:101BF90082E43464F58374FFF5F012026A90601C84
:101C09008032906460E0FF25E024D4F582E43464F6
:101C1900F583E0FCA3E0C3947FEC94005019EF2511
:101C2900E024D4F582E43464F583E475F00112020A
:101C39006A90601D7401F090601CE064017011A34A
:101C4900E06401700B90601CF0A3F090601B04F03D
:101C590090601BE06401703590601EE0FF90646045
:101C6900E025E024D4F582E43464F583E4F0A3EFBD
:101C7900F074FF90601FF0A3F090601E747FF0E491
:0F1C890090601CF0A3F090601BF07F01227F00A1
:011C98002229
:10319D00E490645FF09039FB12042C780112040D59
:1031AD00906461120448AF61121AE4EF6022056168
:1031BD00E53730E4095337EF90645F7401F0903ACE
:1031CD0010E493FFE561C39F4006E4F561433710BA
:1031DD00C39039FF7401939562E493940040089075
:1031ED00645FE064017005D222023650E4FF122EB6
:0131FD00D8F9
:0131FE0022AE
:102ED800EF70607F01FEFDFC74CE2561F582E4345D
:102EE80064F583E0F9F812040D8F178E168D158C92
:102EF80014787EE254FCF2E24514F218E515F21853
:102F0800E516F218E517F2E56125E024D4F582E428
:102F18003464F583E0A3E0547FFF7878E254804F6F
:102F2800F2787FE254FBF2E254FB4404F2E24401FB
:102F3800F2801CE56125E024D4F582E43464F5834D
:102F4800E0A3E0547FFF7878E254804FF2787FE284
:042F58004402F2221B
:102B6A00E490654DF0A3F090654DE0FEA3E0FFC34D
:102B7A009488EE94035031EF24F2FFEE34088F82EA
:102B8A00F583E493FF90654EE02421FD90654DE0C6
:102B9A0034608D82F583EFF090654EE004F070C7E3
:082BAA0090654DE004F080BFCE
:102BB2009063A97401F0A37460F0A37421F0E4F5AA
:102BC20061F537F536F535F534C222C223F51FF526
:102BD2001EF51DF51CF533F532F531F530F51BF513
:102BE2001AF519F518903A0A93FF903A0EE493FEFB
:102BF200A807088002C333D8FCF563756420E4FF9C
:032C0200022ED8C7
:103058007884E2F50A08E2F50BAE0A7803CEC313CA
:10306800CE13D8F97802C333CE33CED8F9FFE56151
:1030780025E02400F582E43460F583EEF0A3EFF058
:1030880020220F903A03E4937005D22202365002B0
:10309800319D0561903A10E493FFE561C39F401F9D
:1030A800787FE254FBF2E254FB4404F2E24401F27A
:1030B800E4F561E53720E203022C05433701227F5E
:0530C80001122ED822C8
:053C88000562022FDAC5
:1039BC00E53730E01A9063A9A3E0FAA3E0F9120509
:1039CC001012192BE4F5617F01122ED85337FE2209
:102E58000233FAE493A3F8E493A34003F68001F263
:102E680008DFF48029E493A3F85407240CC8C3337B
:102E7800C4540F4420C8834004F456800146F6DF4A
:102E8800E4800B0102040810204080901325E47EA2
:102E9800019360BCA3FF543F30E509541FFEE4933F
:102EA800A360010ECF54C025E060A840B8E493A306
:102EB800FAE493A3F8E493A3C8C582C8CAC583CA31
:102EC800F0A3C8C582C8CAC583CADFE9DEE780BEE9
:011551000099
:10006000E709F608DFFA8046E709F208DFFA803E82
:1000700088828C83E709F0A3DFFA8032E309F6086F
:10008000DFFA8078E309F208DFFA807088828C83D7
:10009000E309F0A3DFFA806489828A83E0A3F6088B
:1000A000DFFA805889828A83E0A3F208DFFA804C65
:1000B00080D280FA80C680D4806980F2803380103C
:1000C00080A680EA809A80A880DA80E280CA8033A5
:1000D00089828A83ECFAE493A3C8C582C8CCC5831D
:1000E000CCF0A3C8C582C8CCC583CCDFE9DEE780ED
:1000F0000D89828A83E493A3F608DFF9ECFAA9F06C
:10010000EDFB2289828A83ECFAE0A3C8C582C8CCC1
:10011000C583CCF0A3C8C582C8CCC583CCDFEADEDA
:10012000E880DB89828A83E493A3F208DFF980CC3C
:1001300088F0EF60010E4E60C388F0ED2402B40435
:100140000050B9F582EB2402B4040050AF232345DC
:0601500082239000B07351
:10015600BB010689828A83E0225002E722BBFE02A7
:09016600E32289828A83E49322DA
:10016F00BB010CE58229F582E5833AF583E0225045
:10017F0006E92582F8E622BBFE06E92582F8E2228F
:0D018F00E58229F582E5833AF583E49322A9
:10019C00BB010FF8E58229F582E5833AF583E02867
:1001AC00F0225009C58229F8E58226F622BBFE0909
:1001BC00C58229F8E22582F222F8EA2583F583E943
:0301CC0093282253
:1001CF00BB010689828A83F0225002F722BBFE010F
:0201DF00F32209
:1001E100F8BB010DE58229F582E5833AF583E8F054
:1001F100225006E92582C8F622BBFE05E92582C800
:02020100F222E7
:10020300EF8DF0A4A8F0CF8CF0A428CE8DF0A42E0F
:02021300FE22C9
:10021500BC000BBE0029EF8DF084FFADF022E4CCCD
:10022500F875F008EF2FFFEE33FEEC33FCEE9DEC96
:10023500984005FCEE9DFE0FD5F0E9E4CEFD22EDDC
:10024500F8F5F0EE8420D21CFEADF075F008EF2F26
:10025500FFED33FD4007985006D5F0F222C398FD17
:050265000FD5F0EA22B4
:10026A00C5F0F8A3E028F0C5F0F8E582158270021F
:06027A001583E038F022BC
:0D028000EF2BFFEE3AFEED39FDEC38FC22CD
:0E028D00C3EF9BFFEE9AFEED99FDEC98FC226C
:10029B00E88FF0A4CC8BF0A42CFCE98EF0A42CFC02
:1002AB008AF0EDA42CFCEA8EF0A4CDA8F08BF0A480
:1002BB002DCC3825F0FDE98FF0A42CCD35F0FCEBDF
:1002CB008EF0A4FEA9F0EB8FF0A4CFC5F02ECD39A4
:0F02DB00FEE43CFCEAA42DCE35F0FDE43CFC2211
:1002EA0075F008758200EF2FFFEE33FECD33CDCCCB
:1002FA0033CCC58233C5829BED9AEC99E58298404E
:10030A000CF582EE9BFEED9AFDEC99FC0FD5F0D62A
:10031A00E4CEFBE4CDFAE4CCF9A88222B800C1B954
:10032A000059BA002DEC8BF084CFCECDFCE5F0CB92
:10033A00F97818EF2FFFEE33FEED33FDEC33FCEBCB
:10034A0033FB10D703994004EB99FB0FD8E5E4F986
:10035A00FA227818EF2FFFEE33FEED33FDEC33FC73
:10036A00C933C910D7059BE99A4007EC9BFCE99A67
:10037A00F90FD8E0E4C9FAE4CCFB2275F010EF2FAC
:10038A00FFEE33FEED33FDCC33CCC833C810D707AC
:10039A009BEC9AE899400AED9BFDEC9AFCE899F8E7
:0E03AA000FD5F0DAE4CDFBE4CCFAE4C8F9227A
:0D03B800CFF4CFCEF4CECDF4CDCCF4CC22DA
:0E03C500C3E49FFFE49EFEE49DFDE49CFC2249
:1003D300EB9FF5F0EA9E42F0E99D42F0EC6480C8A1
:0603E30064809845F02241
:1003E900EB9FF5F0EA9E42F0E99D42F0E89C45F06A
:0103F90022E1
:1003FA00E8600FECC313FCED13FDEE13FEEF13FFE1
:03040A00D8F12204
:10040D00E8600FEFC333FFEE33FEED33FDEC33FC4D
:03041D00D8F122F1
:0C042000E0FCA3E0FDA3E0FEA3E0FF224F
:10042C00E493FC740193FD740293FE740393FF2216
:0C043C00E0F8A3E0F9A3E0FAA3E0FB2243
:0C044800ECF0A3EDF0A3EEF0A3EFF02227
:10045400A8828583F0D083D08212046B12046B12BD
:10046400046B12046BE473E493A3C583C5F0C583E2
:10047400C8C582C8F0A3C583C5F0C583C8C582C8F2
:010484002255
:0C048500A42582F582E5F03583F5832282
:09049100E0FBA3E0FAA3E0F9226C
:10049A00F8E0FBA3A3E0F925F0F0E58215827002EB
:0704AA001583E0FA38F0228F
:0904B100EBF0A3EAF0A3E9F0224C
:1004BA00BB010DE58229F582E5833AF583020491B1
:1004CA005007E92582F802056FBBFE07E92582F885
:1004DA00020578E58229F582E5833AF583020581EA
:1004EA00D083D082F8E4937012740193700DA3A3A1
:1004FA0093F8740193F5828883E4737402936860B5
:06050A00EFA3A3A380DFB4
:060510008A838982E47376
:10051600EC8EF0A4CCC5F0CCCDF8EFA4CEC5F02D72
:10052600FDE43CFCE8A42EC8C5F03DFDE43CFCEF30
:0D053600A4FFE5F028FEE43DFDE43CFC22BE
:10058D00E5402439F582E43464F583E0054022909A
:10059D006436301C03906439E475F00112049A023C
:1005AD0001562015E97F2ED2158018EF540F249097
:1005BD00D43440D4FF30190BEF24BFB41A005003CC
:1005CD002461FFE541600215410544E544700205D3
:1005DD0043301C0E906436E475F00112049AEF025C
:1005ED0001CF023B777403D21C8003E4C21CF5409B
:1005FD009064361204B1E4F541F543F544E54160EC
:10060D00077F201205D080F57542FFC216C215C2B4
:10061D0017C218C21AC21BC21D12059CFF700D30E5
:10062D001C057F001205E1AF44AE4322B4255FC225
:10063D00D5C21912059CFF24D0B40A00501A75F0CA
:10064D000A784130D50508B6FF0106C6A426F62066
:10065D00D5047002D21880D924CFB41A00EF5004FB
:10066D00C2E5D2190207E2D21680C6D21580C0D2D9
:10067D001780BCD2D580BAD21A80B47F201205D093
:10068D002017077401B5410040F112058DFF1205C9
:10069D00D002060AD21DD21B809512058DFB1205C4
:1006AD008DFA12058DF94A4B700679B37A087BFFE6
:1006BD0020172EE541602A7E008E8275830012017F
:1006CD006F60060EEE654270F0C2D5EBC0E0EAC079
:1006DD00E0E9C0E0EE120829D0E0F9D0E0FAD0E070
:1006ED00FB120156FF60AAEBC0E0EAC0E0E9C0E0F2
:1006FD001205D0D0E02401F9D0E03400FAD0E0FBAF
:10070D00E5420460DCD542D980877BFF7A087925E4
:10071D00D217809C791080027908C21BC21D8008F7
:10072D00D2D5790A8004790AC2D5E542047002F562
:10073D0042E4FAFDFEFF12058DFC7B082016131214
:10074D00058DFD7B1030150A12058DFE12058DFFEE
:10075D007B20EC3382D592D55013C3E43015069F20
:10076D00FFE49EFEE42016039DFDE49CFCE4CBF823
:10077D00C216EC700CCFCECDCCE824F8F870F38017
:10078D0017C3EF33FFEE33FEED33FDEC33FCEB33EC
:10079D00FB994002FB0FD8E9EB301605F8D0E0C409
:1007AD0048B216C0E00AEC4D4E4F78207B0070C267
:1007BD00EAB5420040BCC0E012082BD0F0D0E020DA
:1007CD001604C4C0E0C4B216C0F01205B9D0F0D5FD
:1007DD00F0EB02060A1204EA06A753072158067821
:1007ED004C06744207254F072D44072D49068D43AE
:0807FD000733550717460717E3
:100805004507174708D350067C2D06802E06A32BD7
:1008150006842306A12008BC2A063C480000069B46
:100825003F3F3F00790AA2D5201814301A09B910A4
:10083500020404B9080104A2D5201B0250010420BA
:1008450017689217B541005034C0E07F2030181961
:100855007F30A217721B721A500F120882C217C27C
:100865001BC21AC21D7F30800F301A03E9C0E01287
:1008750005D0301A03D0E0F9D0E0B541CC301A17D5
:100885007F30B9100C1205D07F583019077F78805A
:1008950003B908031205D03017057F2D0205D07F57
:1008A50020201DF87F2B201BF322921780CF286E66
:1008B500756C6C2900D21612058D3016F8C21678A3
:1008C5004130D50108F602063C2D50434958120522
:1008D5008D2403B405004001E49008CE931205C1B0
:0D08E500743A1205C1D218754104020721B2
:10054300EF4E6012EF60010EEDBB010B89828A83CF
:10055300F0A3DFFCDEFA2289F05007F709DFFCA9DC
:0C056300F022BBFEFCF309DFFCA9F02233
:09056F00E6FB08E6FA08E6F922B1
:09057800E2FB08E2FA08E2F922B4
:0C058100E493FB740193FA740293F922D6
:00000001FF
