:030000000229C210
:0C29C200787FE4F6D8FD758166022A09D2
:0C000300000000000000000000000000F1
:0B382300EF1FAC0670011E4C70F62277
:10361400AB07AA06EB1BAE0270011A4E600C75D9FB
:0B362400AA7FAA7E0512382380EA224C
:101F4500907120E04480F07F057E00123823E4FF85
:101F5500FE12361475A75575AC5C9071327450F04D
:101F65009071307403F0907136742FF090715C7439
:101F750003F090715BE054FCF07F18EF2466FDE4FC
:101F850034718D82F583E4F00FEFB433EE90401198
:101F9500E4935407FF90711CE054F84FF0904017FC
:101FA500E493547FFF90711DE054804FF0904010F2
:101FB500E493FF5401C43333335480FE907123E01E
:101FC500547F4EF0EFC313543F4440FFA3E05480C9
:101FD5004FF0904012E493FF540FFE907146E05489
:101FE500F04EF0EFC4540FFF90714FE054F04FF0F6
:101FF500904013E493543FFF907140E054C04FF07C
:10200500904014E493907126F0904015E4939071FC
:0B20150028F0904016E49390712AF030
:01202000229D
:1035BA00000009C4006400C80101F4004B000A00BD
:0E35CA0000010F04050200090064000A0064FD
:10366400E2FE748F2FF582E43464F583E02224FCB7
:0836740025E0FDF874030822B3
:101A7900E4FF123666C394085058123666C39404BC
:101A8900502878C2C0001236641236748002C333FB
:101A9900D8FCF45ED000F278C2C000123664123667
:101AA900748002C333D8FC021BA778C3C000123666
:101AB900641236728002C333D8FCF45ED000F27827
:101AC900C3C0001236641236728002C333D8FC02D6
:101AD9001BA7123666C394084068123666C3941071
:101AE9005060123666C3940C502C78D2C00012365E
:101AF9006424F81236748002C333D8FCF45ED00033
:101B0900F278D2C00012366424F81236748002C307
:101B190033D8FC021BA778D3C00012366424F41210
:101B290036748002C333D8FCF45ED000F278D3C097
:101B39000012366424F41236748002C333D8FC02CE
:101B49001BA7123666C39414502B78E2C0001236D4
:101B59006424F01236748002C333D8FCF45ED000DA
:101B6900F278E2C00012366424F01236748002C39F
:101B790033D8FC802978E3C00012366424EC12368D
:101B8900748002C333D8FCF45ED000F278E3C0005D
:101B990012366424EC1236748002C333D8FC4ED05A
:0B1BA90000F20FEF64026003021A7BE1
:011BB400220E
:03005D00023083EB
:10308300C0E0C0F0C083C082C0D075D000C000C013
:1030930001C002C003C004C005C006C0077881E2B6
:1030A30030E607E24440F2122C51D007D006D00597
:1030B300D004D003D002D001D000D0D0D082D083AE
:0530C300D0F0D0E03266
:102F0900D2AF43AB0843B6C0907132E04440F043BE
:102F1900AB087877743FF208744BF2787A7430F220
:102F2900788914F27871744FF2187427F2787274F0
:102F3900A8F2087410F208E4F208F208F2787E7434
:0F2F4900D0F2087404F208741EF2087402F22227
:10280E00E4FBEB25E025E024D0F582E43435F583B6
:10281E00740193FF748F2BF582E43464F583EFF02B
:10282E00EB25E025E024D2F582E43435F583E493FC
:10283E00FE740193FFEB25E02491F582E43464F5F8
:10284E0083EEF0A3EFF0EB25E02495F582E43464FB
:10285E00F583E4F0A37441F0E47F01FEFDFC748F78
:10286E002B123669F9F812040DE53F4FFFE53E4E87
:10287E00FEE53D4DFDE53C4C8F3F8E3E8D3DF53CDE
:10288E000BEB64026003022810121A791226E00282
:02289E002F0900
:1036F80078C2E254BFF2E24440F2907181E4F022D1
:0D37620078C3E254CFF278C0E24440F22276
:0D376F0078C3E2543FF278C0E24480F222B9
:0D377C0078D2E254FCF278D0E24401F2224F
:0D37890078D2E2543FF278D0E24408F222F8
:0D37960078D3E254FCF278D0E24410F22225
:0D37A30078E2E254F3F278E0E24402F22210
:0D37B00078E2E254CFF278E0E24404F22225
:0D37BD0078E2E2543FF278E0E24408F222A4
:0D37CA0078E3E254F3F278E0E24420F222CA
:0D37D70078E3E2543FF278E0E24480F22211
:0D37E40078F2E254FCF278F0E24401F222A7
:070D790044600C00000000C3
:08382E007890E2541FF2E2223F
:10327C00E5B154F342B153A8DFD2AF7892E4F2082F
:10328C00F27890E254E3F2E2441CF2E254FCF2E2F3
:10329C004401F208E2547FF2E24420F27895740182
:0C32AC00F2187476F212382E44A0F222C0
:0C380B0012382E44C0F243A820D2AF2295
:1037080012382E44A0F27892E4F208F253A8DF228D
:03001E00022F5856
:102F5800C0E0C0F0C083C082C0D075D000C000C03F
:102F680004C005C006C0077891E230E71DE244803E
:102F7800F290600C120420EF2401FFE43EFEE43DD1
:102F8800FDE43CFC90600C120448D007D006D00544
:0F2F9800D004D000D0D0D082D083D0F0D0E0329F
:0E0D8000446507000000004465030000000009
:102D3400C374FF9BFB74FF9AFAE499F9E498F8E0F2
:102D4400FEA3E0FFE4FCFD22C374FF9BFF74FF9A23
:102D5400FE74FF99FD74FF98FC12043CC30203E95E
:102D640012042090647402043CEE8FF012026AC3D1
:102D740022906474020420120420EF2401FFE43E34
:102D8400FEE43DFDE43CFC227BFF7AFFF9F8D3022C
:022D940003D367
:10320200E5B154CF42B153A8BFD2AF75D102789C79
:10321200E254E3F2E2441CF2E254FCF2E24401F230
:1032220008E2547FF2E24420F278A17401F21874A9
:0D32320076F2789CE2541FF2E244A0F222F2
:10371800789CE2541FF2E244C0F243A840D2AF22A0
:1013A50090650712042090647012044890647412CA
:1013B500045400000000906507120454000000006A
:1013C50090650312043C90647012042012028D9003
:1013D50064741204489065031204540000000090E0
:1013E500651BE0FEA3E0FFE4FCFD122D8C400C1212
:1013F5002D7590651BEE8FF012026A122D679064B1
:10140500C9122D34D31203E94042122D759064C9D7
:10141500122D6D9064CAE094649064C9E094004014
:101425002BE0FFA3E09064CBCFF0A3EFF0E4906452
:10143500C9F0A3F09064CD1204209064D112044841
:101445009064CD12045400000000D219122D67904B
:1014550064B8122D34D31203E94042122D759064FD
:10146500B8122D6D9064B9E094649064B8E094006E
:10147500402BE0FFA3E09064BACFF0A3EFF0E49037
:1014850064B8F0A3F09064BC1204209064C0120408
:10149500489064BC12045400000000D218122D6755
:1014A5009064AD122D4C500F9064AD122D64120254
:1014B500809064AD120448122D679064D5122D4CAE
:1014C500500F9064D5122D641202809064D51204D9
:1014D500489064FAE0B4011F122D759064FB122D3B
:1014E5006D9064FCE094C49064FBE094094008E4CA
:1014F500F0A3F09064FAF09064FEE0B4011F122DA1
:1015050075906501122D6D906502E09464906501FA
:10151500E094004008E4F0A3F09064FEF09064FDD0
:10152500E0B4011F122D759064FF122D6D906500BA
:10153500E094649064FFE094004008E4F0A3F09028
:1015450064FDF09064B1122D43122D8C400A906415
:10155500B1E475F00112026A74FFFFFEFDFC9064B0
:10156500F6122D5D500C9064F6122D7B9064F612E8
:02157500044828
:011577002251
:03002100022E5656
:102E5600C0E0C0F0C083C082C0D075D000C000C042
:102E660004C005C006C007789DE230E728E244802A
:102E7600F2906507122D7B9065071204489063ADAA
:102E8600E0C394FF5003E004F0906452E0C394FF63
:102E96005003E004F0D007D006D005D004D000D00F
:0A2EA600D0D082D083D0F0D0E0320B
:040D8E00C113C114B8
:1035D800120420EF2401FFE43EFEE43DFDE43CFC40
:0E35E8002274FFFFFEFDFC12043CC30203E947
:1030C800E5B254FC42B253A9FED2AF75D104907157
:1030D80000E054E3F0E0F0E054FCF0E04401F0904C
:1030E80071057409F0907104745FF0907100E054F8
:1030F8001FF0E044A0F0A3E0547FF0E04420F02269
:1036D600907100E0541FF0E044C0F043A901D2AF5E
:0136E60022C1
:03002400022AD2DB
:102AD200C0E0C0F0C083C082C0D075D000C000C0CA
:0D2AE20001C002C003C004C005C006C0074B
:102AEF00907101E030E744E04480F030821B201306
:102AFF00149064CD1235E9500C9064CD1235D890F6
:102B0F0064CD120448D2138002C21330951B2014D7
:102B1F00149064BC1235E9500C9064BC1235D890F7
:0B2B2F0064BC120448D2148002C214DF
:102B3A00D007D006D005D004D003D002D001D000EF
:0B2B4A00D0D0D082D083D0F0D0E03299
:100D9200602D63F100000000000000000000000070
:100DA2000000000000000000000000000000000041
:100DB2000000000000000000000000000000000031
:100DC2000043641E000000436421000000436425C8
:100DD200000000C1174164280041642900416424D5
:080DE2000044642A0000000037
:102EB00090642A12042074212FF582E43464F5838F
:102EC00022906470E0FF241EF582E43464F58322CE
:102ED0007D00EF75F00FA424F1F9746335F0FA7BEF
:102EE0000122E5822EF582E43583F58322E4F09019
:102EF0006424E014F090000F22906429E4F09064C0
:092F000028F02290642A02043C2E
:0E373800906521EFF01237F1906521E0FF223D
:1034290078C2E2543FF2E254FCF2E24440F2907175
:1034390081E04404F0907175E04401F043AA20D280
:0B344900AF75D60175D59F75D211221A
:03004B00021BB5E0
:101BB500C0E0C0F0C083C082C0D075D000C000C0F6
:0D1BC50001C002C003C004C005C006C00777
:101BD200906488E4F0E5D420E503021CD2E5D7F056
:101BE200201704E0B4A509906424E0C394034003E1
:101BF200021CC5906488E0B4A515D217122EF91202
:101C0200370890600C1204540000000012380B9048
:101C12006429E0B40108906488E0906428F0122EF0
:101C2200B0E06003021CD2906488E0FF122F0390A0
:101C320063F175F00FEB120485EA75F00FA42583AA
:101C4200F583C083C082906429E0FE04F0D082D084
:101C520083122EE2EFF090600C1204540000000098
:101C6200906428E0606AE0FFA3E06F7063906428EC
:101C7200E0FB90642A120420741E2F122EC8EBF08F
:101C8200C217122EF9122EB07401F0906424E004EF
:101C9200F090642A120420EF2401FFE43EFEE43DAA
:101CA200FDE43CFC90642A120448E47F03FEFDFC40
:101CB200122F03C31203E9400A90642A120454004B
:101CC20000000012370890600C120454000000005B
:101CD200D007D006D005D004D003D002D001D00066
:0B1CE200D0D0D082D083D0F0D0E03210
:0D37F100E5D430E4FB8FD7E5D430E4FB22B3
:060027009065161204B101
:10002D00E4FEEEC39D50159065161204918E8275F7
:0C003D00830012016FFF1237F10E80E605
:010049002294
:101E2100E4906470F0A3F0C21A7F0AFEFDFC90609A
:101E31000C12043CD31203E9401912370890600CCC
:101E410012045400000000E4906429F0906428F02A
:101E5100C21722E4906470F0906470E0FFC39403B1
:101E61004003021F4474212F122EB9E07003021F98
:101E71003B906470E075F00FA424F2F582E43463C2
:101E8100F583E0FE741E2F122EC8E06E601A906476
:101E910070E02421122EB9122EEDC083C082122EC1
:081EA100D0D007D00602054372
:101EA900E4906472F0906471F0A3F0122EC1E01412
:101EB900FE906472E0FDC39E5022EF75F00FA424DA
:101EC900F1F582E43463F583E5822D122EE5E0FF16
:101ED900906471E02FF0A3E004F080CF906471E08A
:101EE900F0122EC1E0FEEF75F00FA424F0F582E4A4
:101EF9003463F583122EE2E0FF906471E06F6002B3
:021F0900D21AEA
:101F0B00301A1DC21A906470E0FF2421122EB912F0
:101F1B002EEDC083C082122ED0D007D006120543FF
:101F2B00906470E02425F582E43464F5837401F049
:091F3B00906470E004F0021E59EC
:011F4400227A
:050DEA00426519000044
:10362F00907123E05498F0E0441EF02212028D9026
:0B363F006474120448906474020420BC
:1035180078C3E24403F2E2440CF218E2440CF27875
:103528006AE24478F27591FF12362F90712274077F
:02353800F0227F
:1032F200EF24FE601714601C2402701E907123E0FC
:1033020054D8F0E0445AF0759904800E12362F75A5
:103312009905800612362F7599017869E24448F2C0
:073322007F017E000236145A
:1034D2007869E24401F2786BE230E1FA7402F2AF09
:1034E20093EF75F010A4FFAEF0E594C4540FFDEF16
:0334F2004DFF2269
:10202100E4906472F0A3F0A312045400000000E4F1
:10203100906478F0A3F074FFA3F0A3F0E4A3F0F0B0
:102041001234D2906472EEF0A3EFF090647CE0C39E
:1020510094024054906478E0FEA3E0FF906472E043
:10206100FCA3E0FDD39FEC9E4008906478ECF0A3C4
:10207100EDF090647AE0FEA3E0FFC3ED9FEC9E508B
:102081000F906472E0FFA3E090647ACFF0A3EFF0C9
:1020910090647412043C906472E0FEA3E0FFE4FCDF
:1020A100FD120280A312044890647CE004F0E0C3B6
:1020B1009414408C123644C006C007906478E0FE48
:1020C100A3E0FBAA06E4F9F8D007D00612363BC01C
:1020D10006C00790647AE0FEA3E0FBAA06E4F8D00C
:1020E10007D00612363B78041203FA906472EEF0C0
:0320F100A3EFF06A
:0120F40022C9
:1036E70075AF3F8FAF75AEB975A402E5A530E1FBA5
:0136F70022B0
:103329009064751204B175AF3F8FAF906478E0C3B4
:1033390094014022E5A530E0FB906475E475F00145
:1033490012049A120156F5A675AEB975A4019064D6
:0733590078E014F080D5229A
:103395009064711204B1906474E06027AE070FEE7B
:1033A5002400FDE4343F8D82F583E493FE9064713F
:1033B500E475F00112049AEE1201CF906474E014E2
:0433C500F080D3229F
:1033FB00A3F078E3E254FCF2E24401F2907192E420
:10340B00F022906481E004F0E0C3940822C2A4C2CD
:0E341B0096D2977F04FE22FFE0FEA80708224B
:102DF800E4FF78D3E2543FF2E24440F290718DE46C
:102E0800F0E254CFF2E24410F290718CE4F0123305
:102E1800FDC297C29612000FEF7030FD7F8C12240E
:102E2800DD7D017F881224DD7D017F861224DD7D12
:102E3800017F8A1224DDE4FD7F821224DDE4FD7F18
:0E2E4800841224DDE4FD7F801224DD02303D83
:10364A00E4FDEE25E0FEEF30E004EE4401FEEFC3B8
:09365A0013FF0DEDB408EBAF06FF
:013663002244
:022CC600AC0759
:102CC800E4906475F0AF0512364AEC64816019EC43
:102CD80064836014EC6485600FEC6487600AEC64BC
:082CE800896005EC648D704366
:102CF000E4906476F0A3F0EC64816004ECB48306A5
:102D0000EF547FFF8017EC64856004ECB48706EF16
:102D1000543FFF8008ECB48904EF541FFFEFC45404
:102D20000FFE906476F0EF540FFFA3F0EE75F00AFB
:032D3000A42FFFCE
:012D3300227D
:0528A000906475EFF0EB
:1028A500E4A3F01233FB123418123823E490647752
:1028B500F0122914906477E0906475123422800236
:1028C500C313D8FC30E004D2A48002C2A47F047EE6
:1028D5000012382312291E40D878E3E254FCF2781E
:1028E500E0E24410F2E4906477F0906476E025E04D
:1028F500F012291430A407906476E04401F01229FF
:0E2905001E40E7C296C297C2A4906476E0FF1F
:1029130022C2967F047E0012382322D2967F047E41
:0F29230000123823906477E004F0E0C394082298
:05369400906474EFF0EA
:10369900E4FE1228A0AE07906474E0FFAD06022C88
:0136A900C65A
:0829320090647FEFF0A3EDF0CB
:10293A00E41233FB123418123823E4906481F01243
:10294A0029B8906481E090647F1234228002C31314
:10295A00D8FC30E004D2A48002C2A41229A71234FF
:10296A000D40DCE4906481F01229B8906481E0FFA4
:10297A00906480E0FEA807088002C313D8FC30E008
:10298A0004D2A48002C2A41229A712340D40D9C2CB
:0C299A00967F047E00123823C297C2A46E
:1029A600227F047E00123823D2967F047E001238DE
:0C29B6002322C2967F047E0012382322E8
:0E000F007F801228A0EF30E0037F00227F01E7
:01001D0022C0
:0524DD0090647BEFF0AC
:1024E200A3EDF0EF6480601D90647BE0FF64826086
:1024F20014EF6484600FEF6486600AEF64886005FD
:05250200EF648C706C19
:10250700E490647DF0A3F090647CE0FFC3940A40FC
:1025170007EF75F00A84A3F090647CE075F00A84F5
:10252700AFF090647EEFF090647DE0FEC454F04F0E
:1025370090647CF090647BE0FF64806004EFB48279
:102547000990647CE0547FF0802290647BE0FF6414
:10255700846004EFB4860990647CE0543FF0800CFB
:0C25670090647BE0B48805A3E0541FF0F2
:10257300E4FD7F8E12293290647BE0FFA3E0FD121D
:0925830029327D807F8E0229328D
:10310800906511E0FD7F801224DD906510E0FD7F61
:10311800821224DD90650FE0FD7F841224DD906526
:103128000EE0FD7F861224DD90650DE0FD7F88129C
:0F31380024DD90650BA3E02430FD7F8C0224DDA5
:10314700906474A3E02430FD7F8C1224DD906476B4
:10315700E0FD7F881224DD906477E0FD7F861224EE
:10316700DD906478E0FD7F841224DD906479E0FDD2
:0F3177007F821224DD90647AE0FD7F800224DDE8
:10303D007F8112369490643CEFF07F83123694902A
:10304D00643BEFF07F8512369490643AEFF07F8702
:10305D00123694906439EFF07F891236949064386B
:10306D00EFF07F8D123694EF24D0FEE43407906498
:06307D0036F0A3CEF022A4
:040DEF004165120048
:10353A00906470F090651302049190000612016F76
:10354A00FE90000802016F9000091201E190000C40
:01355A00224E
:1018E600E4906470F07FFFA374FFF0906513120418
:1018F600B190000112016FFE120156FDEEC39D501C
:1019060003021A7812353E900001E41201E19000BC
:101916000E1204BA120510EFF460089065127423D3
:10192600F08009906512E06003E014F012353E90F5
:10193600000312016F6F601590000512016F600DB4
:10194600900004E41201E1900003021A749000056D
:1019560012016FFE90000412016FC39E500B1235E8
:101966003E900004740102019C12353E9000021262
:10197600016F6F6048EFF4701C123544C39E400A35
:10198600740512353A900002806112353E90000AC5
:101996007401021A6B12353E900008740112355418
:1019A60012016F6F906513600C1204917401123569
:1019B60051EF021A6B120491900009803DEFF4700A
:1019C6004112353E90000912016FD3940050030274
:1019D6001A6E90000B12016FFE90000A12016FD36F
:1019E6009E4011740112353A90000C12016F9064FA
:1019F60071F0805412353E90000A740112019C0267
:101A06001A6E12353E12354BC394FF5008900008EB
:101A1600740112019C123544B50608906470740373
:101A2600F0802012353E9000071235476E703990CF
:101A36006470740412353D90000612016F90000820
:101A46001201E1906471EFF012353EE412355174E3
:101A5600FF1201E1906471E09000111201E19064BF
:101A660070E09000121201E112353E900002EF1272
:021A760001E18C
:011A7800224B
:1032B80078E2E2543FF2E24440F2907191E0F01279
:1032C800367C12327C1234291234541232021237EC
:1032D800FE123836123518122DF81230C812371867
:0A32E8001236D67F017E0002361474
:102FF300121F4575D95590715EE054FEF075D9BB2B
:103003001232B8D2A37FE87E03123614C2A37B0127
:103013007A6379AC1218E61224231220F51222994E
:1030230012258C1208CC122363121E21121CED12DE
:0A3033000F961213A575D9AA80D4D8
:100DF3006023642E000000000000000000000000DB
:100E030000000000000000000000000000000000DF
:070E130000000000000000D8
:0C3817007B017A64792E7408F0E4FF2233
:10367C007E007F237D007B017A64792E12054390B6
:08368C00647412381702339533
:0E374600E4FF1236E790647812381702332938
:10318600FEE02FFFEC3EFEA3E02FFFEC3EFE22FA10
:103196001204207E00EB2FFFEE3AFE3395E0FDFC95
:1031A600221203FA7E00906474E022FC9064790295
:0E31B60004489064790204209064750204209D
:0511A400906474EFF0FF
:1011A900906479120454000000007FA51237F112EF
:1011B90031B8EF24A5FFE43EFEE43DFDE43C1231E5
:1011C900B1906474E0FF64016032EF6402602DEF56
:1011D90064036028EF64046023EF6405601EEF6414
:1011E900066019EF64096014EF640A600FEF641177
:1011F900600AEF64126005EF641370207F05121313
:101209007F121391C0001231BE1231AA2405FDE4E8
:1012190033CD2FFFEE3D1231A0021349906474E0E3
:10122900FF6407600FEF6408600AEF640C6005EF64
:10123900641070337F061237F1906474E0FF121363
:1012490067121391C000C002C0031231BE780812A0
:1012590031A72406FDE433CD2FFBEE3DA3123195D2
:10126900D003D002021349906474E0FF640B600557
:10127900EF640D70467F0712137F78101203FA127C
:10128900136712139BC000C002C0031231BE78104D
:101299001231A72407FDE433CD2FFBEE3DFAA3124B
:1012A900042078081203FA7E00EB2FFBEE3A9064D3
:1012B90075123195D003D002021349906474E06429
:1012C9000E60030213517F0B1237F17F0E1237F1B3
:1012D900906436E0FF1237F1906436E0A3E0FF1224
:1012E90037F1906438E0FF1237F1906439E0FF126A
:1012F90037F190643AE0FF1237F190643BE0FF1256
:1013090037F190643CE0FF12139BC000C001C0029A
:10131900C003906436E02419FFE433FEE0A3E07CC7
:10132900002FFFEC3E906438123186A3E02FFFECCA
:101339003EA31231863395E0FDFCD003D002D001E3
:10134900D0001202801231B21231B8E4FEFD12311E
:0E135900B11231B81237F17F017E0002361456
:101367001237F190647512042078081203FA1237C5
:10137700F1906475120420221237F1906474E0FF33
:101387001237F1906475120420221237F1906479B4
:0E13970012043C221237F190647912043C22B9
:050E1A0042651B000011
:103454001237A31237B01237CA1237D71237E41211
:10346400379612378912377C12376F12376278E237
:0B347400E254FCF278E0E24401F22296
:10263800C390651CE094C890651BE09400500302A9
:1026480026DFE4F0A3F090644B30A503F080037418
:1026580001F0D20430A207E490644CF08006906444
:102668004C7401F0D20530A107E490644DF0800667
:1026780090644D7401F0D206208607E4906447F018
:1026880080402087089064477401F08035209008C6
:102698009064477402F0802A20930890644774037A
:1026A800F0801F2094089064477404F0801420B0D0
:1026B800089064477405F0800920A7069064477461
:1026C80006F0D20120A00790644F74018004E490C2
:0826D800644FF0A3F0D20A22C6
:100E1F00C1184264B800004264BA00004864BC00C4
:100E2F00000000000000004464B3000000004164B3
:020E3F00B700FA
:1036AA00E4FAF9F81203269064700204481204201E
:0636BA0090647002043C64
:0D37FE0078D3E254F3F278D0E24420F222B6
:1020F500906470120454000000002018030221C8E7
:10210500C218E47F037E07FDFC9064C012043C12F4
:10211500029B7B201236AA9064C012045400000072
:10212500009064A91236B71202809064A91204487F
:10213500E47F24FEFDFC1236BA12029BC006C007DE
:102145009064BAE0FEA3E0FBAA06E4F9F8D007D054
:10215500061203267B0A1236AA9064B7E0C3940AD6
:102165005012E004F09064B31236B7120280906406
:10217500B3020448E49064B7F09064B3120420E419
:102185007B0AFAF9F81203269064B31204489064A6
:10219500B31204209064411204489064B3120454AD
:1021A50000000000E47FE77E03FDFC90644112041B
:1021B5003CD31203E9400A90644112045400000321
:0321C500E7D20856
:0121C80022F4
:100E41004264C900004264CB0000C1194864CD006E
:100E5100000000000000004164C4004464C50000BB
:020E610000008F
:0738360078C2E254CFF22238
:10258C0090647012045400000000201903022637D6
:10259C00C219E47FA67E0EFDFC9064D112043C129D
:1025AC00029BC006C0079064CBE0FEA3E0FBAA062A
:1025BC00E4F9F8D007D00612032690647012044890
:1025CC009064C4E0C394055016E004F0A3120420F8
:1025DC0090647012043C1202809064C5020448900E
:1025EC0064C5120420E47B05FAF9F8120326906402
:1025FC00C5120448E49064C4F07FFF7EFFFDFCA389
:10260C0012043CC31203E9400A9064C5120454003E
:10261C0000FFFF9064C512042090643D12044890A2
:0B262C0064C512045400000000D20737
:012637002280
:100E63004464AD000000004464A900000000426433
:100E7300B100004464A1000000004464A500000028
:010E8300006E
:10347F00E4FDFC12043CC30203E9120420EF240113
:10348F00FFE43EFEE43DFDE43CFC22120420120268
:0B349F008DE47B64FAF9F8C30203E936
:102299007F307E759064AD12347F400D9064AD122D
:1022A9000454000000001237467FE87E039064A9B9
:1022B90012347F40557F007ECA7D9A7C3B90642E04
:1022C900123482500C90642E12348990642E1204B8
:1022D900487F407E427D0F7C0090643212348250E8
:1022E9000C9064321234899064321204489064A9C3
:1022F900120420C3EF94E8FFEE9403FEED9400FD71
:10230900EC9400FC9064A91204489064A112043C66
:1023190090642E12349A500E90642E120420906408
:10232900A1120448D20C9064A512043C90643212A4
:10233900349A500E9064321204209064A512044815
:10234900D20DC39064B2E094889064B1E0941340D4
:0923590008E4F0A3F0D20CD20D4F
:012362002258
:100E8400C100C101C102C103C104C105C106C1073A
:100E9400C108C109C10CC10DC10EC10FC110C111DE
:100EA400C1124164FA004264FB00004164FD004148
:0D0EB40064FE004264FF0000426501000082
:1031C400906447E0FFE4FCFDFE906475020448E46B
:1031D4007BE87A0390642EF9F81204200203269007
:1031E4006470E075F00FA422906445E0FEA3E0FF54
:0E31F400E4FCFD22906470E0FF75F00FA42251
:101CED00E4906470F0F0906470E0FFC394034003DF
:101CFD00021E2074252FF582E43464F583E0700311
:101D0D00021E171231E324F3F582E43463F583E008
:101D1D002472601924F67003021DC1147003021D94
:101D2D00C524196003021DC7D200021DC7D20EEFD4
:101D3D0075F00FA424F5F582E43463F583E0FDEF2F
:101D4D0075F00FA424F4F582E43463F583E02DFEE1
:101D5D00E433906436F0A3CEF01231F824F6F58218
:101D6D00E43463F583E0906438F0EF75F00FA4244C
:101D7D00F7F582E43463F583E0906439F01231F8BD
:101D8D0024F8F582E43463F583E090643AF0EF755E
:101D9D00F00FA424F9F582E43463F583E090643BFD
:101DAD00F01231E324FAF582E43463F583E09064B4
:101DBD003CF08006D2118002D212906424E0D394BC
:101DCD00004003E014F0906470E0FF2425F582E4F8
:101DDD003464F583E4F0741E2FF582E43464F583E6
:101DED00E4F074212FF582E43464F583E4F0FE7F92
:101DFD000FC006C007FD1231E324F1F9746335F00D
:101E0D00FA7B01D007D006120543906470E004F010
:031E1D00021CF3B1
:011E2000229F
:060F960020000302105EC2
:100F9C0090647012045400000000C2009064FAE0E7
:100FAC00600302105E04F01231C47F011211A49090
:100FBC0064481231C77F021211A49064491231C7E0
:100FCC007F031211A490644B1231C77F041211A439
:100FDC0090644C1231C77F051211A490644D1231EC
:100FEC00C77F061211A490643D1204201231CD7FEC
:100FFC00071211A49064411204201231CD7F081203
:10100C0011A490644A1231C77F091211A41231D372
:10101C001231CD7F0B1211A4E47B64FA906432126E
:10102C0031DB1231CD7F0C1211A412303D9064755E
:10103C00120454000000007F0E1211A41231EC12A5
:10104C0031CD7F101211A490644E1231C77F111252
:02105C0011A4DD
:10105E0030010AC2011231C47F011211A430020DF7
:10106E00C2029064481231C77F021211A430040DDF
:10107E00C20490644B1231C77F041211A430050DC7
:10108E00C20590644C1231C77F051211A430060DB3
:10109E00C20690644D1231C77F061211A43007109C
:1010AE00C20790643D1204201231CD7F071211A4A5
:1010BE00300810C2089064411204201231CD7F080E
:1010CE001211A430090DC20990644A1231C77F096A
:1010DE001211A4300A18C20A90644F1231C77F123F
:1010EE001211A49064501231C77F131211A4300C48
:1010FE000DC20C1231D31231CD7F0B1211A4300D53
:10110E0016C20DE47B64FAF9F89064321231DD12E6
:10111E0031CD7F0C1211A4300E23C20E9064FDE06F
:10112E00701B78747C647D017B017A647936FE7F56
:10113E00071201301231479064FD7401F0300F0D2B
:10114E00C20F1231EC1231CD7F101211A430100DDE
:10115E00C21090644E1231C77F111211A4301119B2
:10116E00C21190642E120454000000009064A91263
:10117E00045400000000123746301219C212906457
:10118E0032120454000000009064A91204540000AE
:06119E000000123746229A
:100EC1005463BF0001015300020473000307530080
:100ED10004091D00050CED5E63D301010203040545
:100EE10002060708090A030B0C0D0E0F041011125C
:100EF10013140515161718195363AC0A00000000E6
:0E0F0100033241000000140001FF33C900005C
:0F004E00EC75F006A424D3F582E43463F5832225
:102FA700E4FD906472F0A374FFF0ED25E025E024C2
:102FB700C1F582E43463F583E0FAA3E0D39FEA9E88
:102FC700401CED25E025E024BFF582E43463F5835A
:102FD700E0FFA3E0906472CFF0A3EFF080050DED62
:0B2FE700B405C7906472E0FEA3E0FF99
:012FF20022BC
:1034F500E4FEFC12004EE0B5071112004EE5822DE8
:10350500F582E43583F583E0FE80050CECB405E334
:02351500AF06FF
:013517002291
:1033C900E4906470F0A3F07F021232F21234D290CA
:1033D9006470EEF0A3EFF0906470E0FEA3E0FF12DA
:1033E9002FA7906470EEF0A3EFF0906470E0A3E073
:0133F900FFD4
:0133FA0022B0
:102423009063BDE070030224DCE0FFA3E0FD1234FF
:10243300F5E49063BDF0A3F0EF1204EA24610124F4
:102443006D0424790624850924910B249D0E24A967
:102453001024B51324C11524CD18000024DC906486
:1024630075120454000000CF806A906475120454FE
:10247300000100CF805E906475120454000000D206
:102483008052906475120454000100D28046906417
:1024930075120454000000D1803A906475120454FC
:1024A300000100D1802E9064751204540000007F57
:1024B30080229064751204540001007F801690649A
:1024C30075120454000000D0800A906475120454FD
:0924D300000100D07F0D1211A4DC
:0124DC0022DD
:100F0F004464D5000000004464D90000000044642C
:090F1F00DD000000004164E1FF67
:1034AA00E47F429064D9FDFC12043CC30203E9E4C0
:1034BA007E0AFDFC9064D912043CD30203E99064AD
:0834CA00D91204489064DD22D0
:1008CC007F031232F2122021906519EEF0A3EFF0A3
:1008DC009064D912043C906519E0FEA3E0FFE4FC9F
:1008EC00FD1202801234C8120420EF2401FFE43EF2
:1008FC00FEE43DFDE43CFC9064DD120448E47FF42E
:10090C007E019064D51234B05003020B269064D54E
:10091C00120454000000009064D91204209064DD8D
:10092C0012043C1203261234C812045400000000B6
:10093C00E47F4D7E031234AD50099064E17464F091
:10094C000209F47E041234AA50099064E1745AF03E
:10095C000209F4E47F427E061234AD50099064E142
:10096C007450F00209F4E47F147E071234AD500980
:10097C009064E17446F00209F4E47FAC7E07123413
:10098C00AD50099064E1743CF00209F4E47F3B7EC5
:10099C00081234AD50089064E17432F0804AE47F60
:1009AC00D87E081234AD50089064E17428F0803879
:1009BC00E47F7B7E091234AD50089064E1741EF024
:1009CC008026E47FEC7E091234AD50089064E1740B
:1009DC0014F080147E0A1234AA50089064E1740A50
:1009EC00F08005E49064E1F07F7D1234B94008E4B6
:1009FC009064E1F0020B12E47F6D7E0A1234AD506C
:100A0C00107F421234B940099064E1740AF0020B71
:100A1C0012E47F267E0A1234AD5013E47FEC7E097B
:100A2C001234BC40099064E17414F0020B12E47FA0
:100A3C00CE7E091234AD5013E47F7B7E091234BC98
:100A4C0040099064E1741EF0020B12E47F457E09AC
:100A5C001234AD5013E47FD87E081234BC40099098
:100A6C0064E17428F0020B12E47F9E7E081234AD10
:100A7C005013E47F3B7E081234BC40099064E1744F
:100A8C0032F0020B12E47F0F7E081234AD5013E4E7
:100A9C007FAC7E071234BC40099064E1743CF002D8
:100AAC000B12E47F727E071234AD5012E47F147E79
:100ABC00071234BC40089064E17446F08048E47F2F
:100ACC00ED7E061234AD5012E47F427E061234BC29
:100ADC0040089064E17450F0802CE47FBC7E0512D9
:100AEC0034AD5012E47F427E041234BC4008906452
:100AFC00E1745AF08010E47F4D7E031234AD500641
:100B0C009064E17464F09064E1E090644AF0906465
:0B0B1C00D9120454000000FFD209228F
:100F28004464E2000000004464E6000000004464F9
:050F3800EA00000000CA
:1035F600EF2401FFE43EFEE43DFDE43CFC0204480A
:0E360600E47FE27E04FDFC12043CC30203E9F3
:1021C9007F041232F2122021906519EEF0FAA3EF82
:1021D900F0FB9064EA120420EF2408FFE43EFEE4D9
:1021E9003DFDE43CFC9064EA120448D3EB9400EA18
:1021F90094089064E650151204209064E61235F6AE
:102209009064E21204540000000080071204540094
:102219000000009064E612360640119064E612044C
:102229005400000000E490644EF0D210C390651A87
:10223900E094C7906519E0940B9064E2401512048C
:10224900209064E21235F69064E61204540000000E
:10225900008007120454000000009064E212360660
:1022690040129064E21204540000000090644E741D
:1022790001F0D210E47FE87E03FDFC9064EA123697
:0F2289000D400C9064EA12045400000000D210C3
:012298002223
:100F3D004464F6000000004464EE000000004464C8
:050F4D00F200000000AD
:103728007C007DF0120516E4FB7A10F9F8020326F6
:0E3754007E007C007D641202037D9602021549
:10236300E4906470F0A3F07F011232F29064F212F1
:10237300043CC000C001C002C003122021E4FCFDE4
:10238300D003D002D001D0001202809064F2120474
:10239300489064EE120420EF2401FFE43EFEE43D86
:1023A300FDE43CFC9064EE120448E47FE87E03FD08
:1023B300FC9064F612043CC31203E940629064F299
:1023C3001204209064EE12043C1203269064F2126D
:1023D30004489064F2120420123728906470EFF0DE
:1023E300E0FF123754A3EFF09064F212045400009C
:1023F30000009064EE120454000000009064F61292
:10240300045400000000906471E0906448F090640C
:0F24130070E0FF906445E4F0A3EFF0D20FD20227
:012422002297
:100F52004C646401010203040502060708090A53EE
:100F620064510A0000000003324100000014000234
:050F7200FF355B0000EB
:10359B00E4FFFDFCAB1BAA1AA919A818C30203E987
:0F35AB00EE75F006A42464F582E43464F58322FF
:10355B0075D9AA12357B75D9AA7E0212359B7003D9
:10356B007F01227E0412359B70037F02227FFF2294
:10336000E490651DF0A3F0FE1235ABE0B50719122D
:1033700035ABE5822DF582E43583F583E0FF90657A
:103380001DE4F0A3EFF080050EEEB402DB90651DA6
:04339000E0A3E0FFD7
:013394002216
:1036C000906462E0600FE0FFA3E0FD123360E490DD
:0536D0006462F0A3F0AC
:0136D50022D2
:100F770041601801426019000041601B0041601C7C
:0E0F87000041601D0041601E7F42601FFFFFA1
:10323F00E4F561AE3EAD3DAC3C853F178E168D1566
:10324F008C14787EE254FCF2E24514F218E515F284
:10325F0018E516F218E517F2787FE254FBF2E25404
:0D326F00FB4404F2E24401F27F01022A4E0A
:100B2700906470EFF0E0FF248BF582E43464F58382
:100B3700E004F0748D2FF582E43464F583E4F074F7
:100B47008B2FF582E43464F583E0C3956350030289
:100B57000D78906470E0FB248BF582E43464F583B0
:100B6700E4F09035CB9364016003020D297F01FE09
:100B7700FDFC748F2BF582E43464F583E0F9F812F9
:100B8700040DE51F4FF51FE51E4EF51EE51D4DF53E
:100B97001DE51C4CF51CAF1FAE1EAD1DFC780112E8
:100BA70003FAEF5455FBEE5455FAED5455F9EC544E
:100BB70055F8C3E51F9BF53BE51E9AF53AE51D99E8
:100BC700F539E51C98F538AF3BAE3AAD39FC7802FC
:100BD7001203FAEF5433FBEE5433FAED5433F9ECC6
:100BE7005433F8E53B5433FFE53A5433FEE53954C3
:100BF70033FDE5385433FCEB2FF53BEA3EF53AE994
:100C07003DF539E83CF538AF3BAE3AAD39FC7804F1
:100C17001203FAEF253BFFEE353AFEED3539FDECD1
:100C27003538FCEF540FF53BEE540FF53AED540F02
:100C3700F539EC540FF538AF3BAE3AAD39FC7808CF
:100C47001203FAEF253BFFEE353AED3539FDEC356A
:100C570038EFF53BE4F53AEDF539E4F538AE3AAC63
:100C67003878101203FAEF253BFFEE353AFEEFF521
:100C77003BEEF53AE4F539F538906470E025E02469
:100C870099F582E43464F583E0FEA3E0D39553EE4F
:100C970095524024906470E0FF25E02499F582E4A2
:100CA7003464F583E0F552A3E0F553748F2FF58292
:100CB700E43464F583E0F5649035CBE493FFE4FC1A
:100CC700FDFEAB3BAA3AA939A838D31203E9405233
:100CD700AF650565D3EF9403748094805003020DCC
:100CE70078E4F565F51FF51EF51DF51C7F01FEFD82
:100CF700FCA964A80112040D8F1B8E1A8D198C187C
:100D0700E47F01FEFDFCA80112040D8F338E328DA6
:100D1700318C30E4F552F553756420122B55433767
:100D27000222E4F5657F01FEFDFC906470E0FB2480
:100D37008FF582E43464F583E0F9F812040DE51BBE
:100D47004FF51BE51A4EF51AE5194DF519E5184C3F
:100D5700F518E47F01FEFDFCA80312040DE5334FEF
:100D6700F533E5324EF532E5314DF531E5304CF5E9
:020D7700302228
:10058D00E4F5669035CFE493FFE566C39F40030223
:10059D0008CBE56625E02400F582E4346085828A87
:1005AD007F548F8B7E0E8E8C758903758889E566D9
:1005BD0025E02400F582E4346085828A8F8B758C6A
:1005CD0012758904758889E56625E02408F582E4AD
:1005DD003460F583E0FCA3E0C3950FEC950E502E2F
:1005ED00E56625E02414F582E43460F583E0FCA390
:1005FD00E0C39513EC95125015AF600560EF9402B2
:10060D0074809480400BE4F5605337FD8003E4F56E
:10061D0060E53730E125E56625E02499F582E4347F
:10062D0064F583E4F0A3F0E56625E0249DF582E40E
:10063D003464F583E4F0A3F00206DBE56625E024DF
:10064D0008F582E4346085828A8E8B758C0A7589F3
:10065D00267588892088FDE5F130E00875F107E4FD
:10066D00F50AF50BAE0AE50B7802C333CE33CED8BF
:10067D00F9FFE56625E02499F582E43464F583EE0F
:10068D00F0A3EFF0E56625E02414F582E4346085EF
:10069D00828A758B12758C0A7589277588892088D1
:1006AD00FDE5F130E00875F107E4F50AF50BAE0A4A
:1006BD00E50B7802C333CE33CED8F9FFE56625E0DE
:1006CD00249DF582E43464F583EEF0A3EFF0E56646
:1006DD0025E02491F582E43464F583E0FEA3E0780F
:1006ED0002CEC313CE13D8F9F5518E50E56625E031
:1006FD002499F582E43464F583E0FEA3E0FF9035A0
:10070D00C7E493FC740193FDC3EF9DEE9C4017E588
:10071D006625E0249DF582E43464F583E0FEA3E0D4
:10072D00C39DEE9C50028068E56625E02499F58214
:10073D00E43464F583E0FEA3E0C39551EE9550409B
:10074D001CE56625E0249DF582E43464F583E0FE26
:10075D00A3E0C39551EE955040030207E774892538
:10076D0066F582E43464F583E004F074892566F55A
:10077D0082E43464F583E0FF9035CCE493FEEFD34F
:10078D009E406474892566F582E43464F583E4F053
:10079D00E56625E02404F582E43460F583E0FEA3EC
:1007AD00E0FFE56625E02408F582E43460F583EE8C
:1007BD00F0A3EFF0E56625E02410F582E43460F552
:1007CD0083E0FEA3E0FFE56625E02414F582E43422
:1007DD0060F583EEF0A3EFF0800D74892566F58248
:1007ED00E43464F583E4F0E56625E02404F582E461
:1007FD00346085828AE56625E02400F582E4346064
:10080D0085828B758C0A7589207588CB2088FDE5CE
:10081D00F130E00875F107E4F50AF50BE56625E022
:10082D002404F582E4346085828A758B547F0E8FA3
:10083D008C7589237588897E0A8E8A8F8BE566254E
:10084D00E02404F582E4346085828CE4F5897588B2
:10085D0029E56625E02410F582E4346085828AE579
:10086D006625E02400F582E4346085828B8E8C75DC
:10087D0089207588CB2088FDE5F130E00875F107FA
:10088D00E4F50AF50BE56625E02410F582E4346005
:10089D0085828A758B547F0E8F8C75892475888916
:1008AD00758A0A8F8BE56625E02410F582E43460A5
:0F08BD0085828CE4F589758829056602059022ED
:10157800E4F5669035CFE493FFE566C39F40030228
:101588001730E56625E02491F582E43464F583E0BC
:10159800FEA3E07802CEC313CE13D8F9F5518E50CE
:1015A800E56625E02499F582E43464F583E0FEA33A
:1015B800E0D39551EE9550402EE56625E0249DF543
:1015C80082E43464F583E0FEA3E0D39551EE9550B0
:1015D8004015748D2566F582E43464F583E4F0AF34
:1015E80066120B2702172B9035CEE493FFC3E55103
:1015F8009FFFE5509400FED3EF9400EE9400400264
:1016080080047E007F00E56625E02499F582E434B5
:1016180064F583E0FCA3E0C39FEC9E400302171E21
:101628009035CEE493FFC3E5519FFFE5509400FE4B
:10163800D3EF9400EE9400400280047E007F00E522
:101648006625E0249DF582E43464F583E0FCA3E09C
:10165800C39FEC9E400302171E748B2566F582E437
:101668003464F583E4F0748D2566F582E43464F51A
:1016780083E004F0748D2566F582E43464F583E034
:10168800C39563500302172B748D2566F582E434E5
:1016980064F583E4F07F01FEFDFC748F2566F58216
:1016A800E43464F583E0F9F812040D1203B8E51F79
:1016B8005FF51FE51E5EF51EE51D5DF51DE51C5C6D
:1016C800F51CE47F01FEFDFCA966A80112040D12B9
:1016D80003B8E5335FF533E5325EF532E5315DF5A4
:1016E80031E5305CF530E47F01FEFDFC748F256642
:1016F800F582E43464F583E0F9F812040D1203B8B6
:10170800E51B5FF51BE51A5EF51AE5195DF519E5A8
:10171800185CF518800D748D2566F582E43464F53F
:0917280083E4F0056602157B2242
:102B5500E4F5669035CFE493FFE566C39F506EE5D7
:102B65006625E02499F582E43464F583E4F0A3F066
:102B7500E56625E0249DF582E43464F583E4F0A35D
:102B8500F0E56625E02404F582E43460F583E0FE93
:102B9500A3E0FFE56625E02408F582E43460F583CB
:102BA500EEF0A3EFF0E56625E02410F582E434604D
:102BB500F583E0FEA3E0FFE56625E02414F582E455
:0E2BC5003460F583EEF0A3EFF0056680862203
:10277B00E4F5669035CFE493FFE566C39F50679011
:10278B006018E0FF7E00C39410748094805053EF68
:10279B009408748094804025E56625E02400F5823A
:1027AB00E43460F583E0FEA3E0FFE56625E0240456
:1027BB00F582E43460F583EE8FF012026AE566254C
:1027CB00E02400F582E43460F583E0FEA3E0FFE54E
:1027DB006625E02410F582E43460F583EE8FF01269
:1027EB00026A0566808D906018E0C3941074809423
:1027FB008040054337048006906018E004F07F01A9
:03280B00022A4E50
:102BD300E4FFFEFDFCAB1BAA1AA919A818C3120334
:102BE300E9606390601AE004F07006906019E004F5
:102BF300F09035C3E493FE740193FF4E602ED3909F
:102C0300601AE09F906019E09E4021E4F0A3F0F584
:102C13001FF51EF51DF51CF533F532F531F530F5CD
:102C23001BF51AF519F518C216022B559035C5E494
:102C330093FE740193FFD390601AE09F906019E0B4
:0D2C43009E400AD21622E4906019F0A3F022
:012C50002261
:05173100906483EFF05D
:10173600A3E0FCA3E0FDA3E0FEA3E0F52B8E2A8D3B
:10174600298C287884E2F50A08E2F50B758A087573
:101756008B28758C2475881D2088FDE4FFFEFDFC12
:10176600AB27AA26A925A824D31203D34006AC2466
:10177600A8048013AF27AE26AD25AC241203C5AB53
:1017860007AA06A905A80490601FE0FEA3E0FFE4EF
:10179600FCFDC31203D35041E4FFFEFDFCAB27AAB8
:1017A60026A925A8241203D34006AF27AE26800B10
:1017B600AF27AE26AD25AC241203C590601FEEF010
:1017C600A3EFF0906483E025E02495F582E4346489
:1017D600F583E0A3E090601EF09035C0E493FE74BC
:1017E6000193FFD3906020E09F90601FE09E501B06
:1017F600906483E025E02495F582E43464F583E083
:10180600A3E090601EF090601B8079E4FFFEFDFC73
:10181600AB27AA26A925A824D31203D34034906463
:1018260083E0FF25E02495F582E43464F583E0FC4B
:10183600A3E0D39400EC9400404DEF25E02495F509
:1018460082E43464F58374FFF5F012026A90601C3A
:101856008032906483E0FF25E02495F582E43464C9
:10186600F583E0FCA3E0C3947FEC94005019EF25C8
:10187600E02495F582E43464F583E475F001120200
:101886006A90601D7401F090601CE064017011A301
:10189600E06401700B90601CF0A3F090601B04F0F4
:1018A60090601BE06401703590601EE0FF906483D9
:1018B600E025E02495F582E43464F583E4F0A3EFB3
:1018C600F074FF90601FF0A3F090601E747FF0E448
:0F18D60090601CF0A3F090601BF07F01227F0058
:0118E50022E0
:102D9600E4906482F09035BA12042C780112040D86
:102DA600906484120448AF61121731EF6022056106
:102DB600E53730E4095337EF9064827401F09035BB
:102DC600CFE493FFE561C39F4006E4F56143371006
:102DD600C39035BE7401939562E4939400400890C5
:102DE6006482E064017005D21502323FE4FF122AC4
:012DF6004E8E
:012DF70022B9
:102A4E00EF70607F01FEFDFC748F2561F582E4342A
:102A5E0064F583E0F9F812040D8F178E168D158C20
:102A6E0014787EE254FCF2E24514F218E515F218E1
:102A7E00E516F218E517F2E56125E02495F582E4F6
:102A8E003464F583E0A3E0547FFF7878E254804FFE
:102A9E00F2787FE254FBF2E254FB4404F2E244018A
:102AAE00F2801CE56125E02495F582E43464F5831B
:102ABE00E0A3E0547FFF7878E254804FF2787FE213
:042ACE004402F222AA
:1026E000E490651FF0A3F090651FE0FEA3E0FFC338
:1026F0009488EE94035031EF248DFFEE34058F82E1
:10270000F583E493FF906520E02421FD90651FE0B0
:1027100034608D82F583EFF0906520E004F070C79F
:0827200090651FE004F080BF8A
:102728009063A97401F0A37460F0A37421F0E4F538
:1027380061F537F536F535F534C215C216F51FF5CE
:102748001EF51DF51CF533F532F531F530F51BF5A1
:102758001AF519F5189035C993FF9035CDE493FE15
:10276800A807088002C333D8FCF563756420E4FF2A
:03277800022A4EE4
:102C51007884E2F50A08E2F50BAE0A7803CEC313D5
:102C6100CE13D8F97802C333CE33CED8F9FFE5615C
:102C710025E02400F582E43460F583EEF0A3EFF063
:102C810020150F9035C2E4937005D21502323F0230
:102C91002D9605619035CFE493FFE561C39F401FF9
:102CA100787FE254FBF2E254FB4404F2E24401F285
:102CB100E4F561E53720E20302277B433701227FF8
:052CC10001122A4E2261
:05383D000562022BD31F
:10357B00E53730E01A9063A9A3E0FAA3E0F912054E
:10358B0010121578E4F5617F01122A4E5337FE2293
:1029CE00022FF3E493A3F8E493A34003F68001F2FD
:1029DE0008DFF48029E493A3F85407240CC8C3330A
:1029EE00C4540F4420C8834004F456800146F6DFD9
:1029FE00E4800B0102040810204080900D79E47EE3
:102A0E00019360BCA3FF543F30E509541FFEE493CD
:102A1E00A360010ECF54C025E060A840B8E493A394
:102A2E00FAE493A3F8E493A3C8C582C8CAC583CABF
:102A3E00F0A3C8C582C8CAC583CADFE9DEE780BE77
:010F9500005B
:10006000E709F608DFFA8046E709F208DFFA803E82
:1000700088828C83E709F0A3DFFA8032E309F6086F
:10008000DFFA8078E309F208DFFA807088828C83D7
:10009000E309F0A3DFFA806489828A83E0A3F6088B
:1000A000DFFA805889828A83E0A3F208DFFA804C65
:1000B00080D280FA80C680D4806980F2803380103C
:1000C00080A680EA809A80A880DA80E280CA8033A5
:1000D00089828A83ECFAE493A3C8C582C8CCC5831D
:1000E000CCF0A3C8C582C8CCC583CCDFE9DEE780ED
:1000F0000D89828A83E493A3F608DFF9ECFAA9F06C
:10010000EDFB2289828A83ECFAE0A3C8C582C8CCC1
:10011000C583CCF0A3C8C582C8CCC583CCDFEADEDA
:10012000E880DB89828A83E493A3F208DFF980CC3C
:1001300088F0EF60010E4E60C388F0ED2402B40435
:100140000050B9F582EB2402B4040050AF232345DC
:0601500082239000B07351
:10015600BB010689828A83E0225002E722BBFE02A7
:09016600E32289828A83E49322DA
:10016F00BB010CE58229F582E5833AF583E0225045
:10017F0006E92582F8E622BBFE06E92582F8E2228F
:0D018F00E58229F582E5833AF583E49322A9
:10019C00BB010FF8E58229F582E5833AF583E02867
:1001AC00F0225009C58229F8E58226F622BBFE0909
:1001BC00C58229F8E22582F222F8EA2583F583E943
:0301CC0093282253
:1001CF00BB010689828A83F0225002F722BBFE010F
:0201DF00F32209
:1001E100F8BB010DE58229F582E5833AF583E8F054
:1001F100225006E92582C8F622BBFE05E92582C800
:02020100F222E7
:10020300EF8DF0A4A8F0CF8CF0A428CE8DF0A42E0F
:02021300FE22C9
:10021500BC000BBE0029EF8DF084FFADF022E4CCCD
:10022500F875F008EF2FFFEE33FEEC33FCEE9DEC96
:10023500984005FCEE9DFE0FD5F0E9E4CEFD22EDDC
:10024500F8F5F0EE8420D21CFEADF075F008EF2F26
:10025500FFED33FD4007985006D5F0F222C398FD17
:050265000FD5F0EA22B4
:10026A00C5F0F8A3E028F0C5F0F8E582158270021F
:06027A001583E038F022BC
:0D028000EF2BFFEE3AFEED39FDEC38FC22CD
:0E028D00C3EF9BFFEE9AFEED99FDEC98FC226C
:10029B00E88FF0A4CC8BF0A42CFCE98EF0A42CFC02
:1002AB008AF0EDA42CFCEA8EF0A4CDA8F08BF0A480
:1002BB002DCC3825F0FDE98FF0A42CCD35F0FCEBDF
:1002CB008EF0A4FEA9F0EB8FF0A4CFC5F02ECD39A4
:0F02DB00FEE43CFCEAA42DCE35F0FDE43CFC2211
:1002EA0075F008758200EF2FFFEE33FECD33CDCCCB
:1002FA0033CCC58233C5829BED9AEC99E58298404E
:10030A000CF582EE9BFEED9AFDEC99FC0FD5F0D62A
:10031A00E4CEFBE4CDFAE4CCF9A88222B800C1B954
:10032A000059BA002DEC8BF084CFCECDFCE5F0CB92
:10033A00F97818EF2FFFEE33FEED33FDEC33FCEBCB
:10034A0033FB10D703994004EB99FB0FD8E5E4F986
:10035A00FA227818EF2FFFEE33FEED33FDEC33FC73
:10036A00C933C910D7059BE99A4007EC9BFCE99A67
:10037A00F90FD8E0E4C9FAE4CCFB2275F010EF2FAC
:10038A00FFEE33FEED33FDCC33CCC833C810D707AC
:10039A009BEC9AE899400AED9BFDEC9AFCE899F8E7
:0E03AA000FD5F0DAE4CDFBE4CCFAE4C8F9227A
:0D03B800CFF4CFCEF4CECDF4CDCCF4CC22DA
:0E03C500C3E49FFFE49EFEE49DFDE49CFC2249
:1003D300EB9FF5F0EA9E42F0E99D42F0EC6480C8A1
:0603E30064809845F02241
:1003E900EB9FF5F0EA9E42F0E99D42F0E89C45F06A
:0103F90022E1
:1003FA00E8600FECC313FCED13FDEE13FEEF13FFE1
:03040A00D8F12204
:10040D00E8600FEFC333FFEE33FEED33FDEC33FC4D
:03041D00D8F122F1
:0C042000E0FCA3E0FDA3E0FEA3E0FF224F
:10042C00E493FC740193FD740293FE740393FF2216
:0C043C00E0F8A3E0F9A3E0FAA3E0FB2243
:0C044800ECF0A3EDF0A3EEF0A3EFF02227
:10045400A8828583F0D083D08212046B12046B12BD
:10046400046B12046BE473E493A3C583C5F0C583E2
:10047400C8C582C8F0A3C583C5F0C583C8C582C8F2
:010484002255
:0C048500A42582F582E5F03583F5832282
:09049100E0FBA3E0FAA3E0F9226C
:10049A00F8E0FBA3A3E0F925F0F0E58215827002EB
:0704AA001583E0FA38F0228F
:0904B100EBF0A3EAF0A3E9F0224C
:1004BA00BB010DE58229F582E5833AF583020491B1
:1004CA005007E92582F802056FBBFE07E92582F885
:1004DA00020578E58229F582E5833AF583020581EA
:1004EA00D083D082F8E4937012740193700DA3A3A1
:1004FA0093F8740193F5828883E4737402936860B5
:06050A00EFA3A3A380DFB4
:060510008A838982E47376
:10051600EC8EF0A4CCC5F0CCCDF8EFA4CEC5F02D72
:10052600FDE43CFCE8A42EC8C5F03DFDE43CFCEF30
:0D053600A4FFE5F028FEE43DFDE43CFC22BE
:10054300EF4E6012EF60010EEDBB010B89828A83CF
:10055300F0A3DFFCDEFA2289F05007F709DFFCA9DC
:0C056300F022BBFEFCF309DFFCA9F02233
:09056F00E6FB08E6FA08E6F922B1
:09057800E2FB08E2FA08E2F922B4
:0C058100E493FB740193FA740293F922D6
:00000001FF
