:03000000022F913B
:0C2F9100787FE4F6D8FD758166022FD829
:0C000300000000000000000000000000F1
:0B3E7300EF1FAC0670011E4C70F62221
:103C6500AB07AA06EB1BAE0270011A4E600C75D9A4
:0B3C7500AA7FAA7E05123E7380EA229F
:10231100907120E04480F07F057E00123E73E4FF5F
:10232100FE123C6575A75575AC5C9071327450F026
:102331009071307403F0907136742FF090715C7469
:1023410003F090715BE054FCF07F18EF2466FDE42C
:1023510034718D82F583E4F00FEFB433EE904011C8
:10236100E4935407FF90711CE054F84FF09040172C
:10237100E493547FFF90711DE054804FF090401022
:10238100E493FF5401C43333335480FE907123E04E
:10239100547F4EF0EFC313543F4440FFA3E05480F9
:1023A1004FF0904012E493FF540FFE907146E054B9
:1023B100F04EF0EFC4540FFF90714FE054F04FF026
:1023C100904013E493543FFF907140E054C04FF0AC
:1023D100904014E493907126F0904015E49390712D
:0B23E10028F0904016E49390712AF061
:0123EC0022CE
:103BD000000009C4006400C80101F4004B000A00A1
:0E3BE00000010F04050200090064000A0064E1
:103CB500E2FE74992FF582E43464F583E02224FC56
:083CC50025E0FDF8740308225C
:101D9000E4FF123CB7C394085058123CB7C39404F4
:101DA000502878C2C000123CB5123CC58002C33333
:101DB000D8FCF45ED000F278C2C000123CB5123CF0
:101DC000C58002C333D8FC021EBE78C3C000123CDB
:101DD000B5123CC38002C333D8FCF45ED000F27865
:101DE000C3C000123CB5123CC38002C333D8FC020E
:101DF0001EBE123CB7C394084068123CB7C394108F
:101E00005060123CB7C3940C502C78D2C000123CE6
:101E1000B524F8123CC58002C333D8FCF45ED00070
:101E2000F278D2C000123CB524F8123CC58002C33F
:101E300033D8FC021EBE78D3C000123CB524F41285
:101E40003CC58002C333D8FCF45ED000F278D3C026
:101E500000123CB524F4123CC58002C333D8FC0206
:101E60001EBE123CB7C39414502B78E2C000123C43
:101E7000B524F0123CC58002C333D8FCF45ED00018
:101E8000F278E2C000123CB524F0123CC58002C3D7
:101E900033D8FC802978E3C000123CB524EC123C16
:101EA000C58002C333D8FCF45ED000F278E3C000F2
:101EB000123CB524EC123CC58002C333D8FC4ED092
:0B1EC00000F20FEF64026003021D92AD
:011ECB0022F4
:03005D000236CD9B
:1036CD00C0E0C0F0C083C082C0D075D000C000C0C3
:1036DD0001C002C003C004C005C006C0077881E266
:1036ED0030E607E24440F2123220D007D006D00572
:1036FD00D004D003D002D001D000D0D0D082D0835E
:05370D00D0F0D0E03215
:10355300D2AF43AB0843B6C0907132E04440F0436E
:10356300AB087877743FF208744BF2787A7430F2D0
:10357300788914F27871744FF2187427F2787274A0
:10358300A8F2087410F208E4F208F208F2787E74E4
:0F359300D0F2087404F208741EF2087402F222D7
:102CBE00E4FBEB25E025E024E6F582E4343BF583E6
:102CCE00740193FF74992BF582E43464F583EFF06D
:102CDE00EB25E025E024E8F582E4343BF583E4932C
:102CEE00FE740193FFEB25E0249BF582E43464F53A
:102CFE0083EEF0A3EFF0EB25E0249FF582E434643D
:102D0E00F583E4F0A37441F0E47F01FEFDFC7499B9
:102D1E002B123CBAF9F81203B3E53F4FFFE53E4ED6
:102D2E00FEE53D4DFDE53C4C8F3F8E3E8D3DF53C29
:102D3E000BEB64026003022CC0121D90122B90024A
:022D4E003553FB
:103D490078C2E254BFF2E24440F2907181E4F02279
:0D3DA50078C3E254CFF278C0E24440F2222D
:0D3DB20078C3E2543FF278C0E24480F22270
:0D3DBF0078D2E254FCF278D0E24401F22206
:0D3DCC0078D2E2543FF278D0E24408F222AF
:0D3DD90078D3E254FCF278D0E24410F222DC
:0D3DE60078E2E254F3F278E0E24402F222C7
:0D3DF30078E2E254CFF278E0E24404F222DC
:0D3E000078E2E2543FF278E0E24408F2225A
:0D3E0D0078E3E254F3F278E0E24420F22280
:0D3E1A0078E3E2543FF278E0E24480F222C7
:0D3E270078F2E254FCF278F0E24401F2225D
:0712F20044600C0000000045
:083E7E007890E2541FF2E222E9
:1038CF00E5B154F342B153A8DFD2AF7892E4F208D6
:1038DF00F27890E254E3F2E2441CF2E254FCF2E29A
:1038EF004401F208E2547FF2E24420F27895740129
:0C38FF00F2187476F2123E7E44A0F22211
:0C3E5B00123E7E44C0F243A820D2AF22E9
:103D5900123E7E44A0F27892E4F208F253A8DF22E0
:03001E000235A206
:1035A200C0E0C0F0C083C082C0D075D000C000C0EF
:1035B20004C005C006C0077891E230E71DE24480EE
:1035C200F290600C1203C6EF2401FFE43EFEE43DDC
:1035D200FDE43CFC90600C1203EED007D006D0054F
:0F35E200D004D000D0D0D082D083D0F0D0E0324F
:0E12F90044652500000000446521000000004F
:10363D00C374FF9BFB74FF9AFAE499F9E498F8E0E0
:10364D00FEA3E0FFE4FCFDD302038FC374FF9BFFD9
:10365D0074FF9AFE74FF99FD74FF98FC1203E2C388
:10366D0002038F1203C69063F70203E2EE8FF0128E
:0A367D000203C3229063F70203C6A4
:10381800E5B154CF42B153A8BFD2AF75D102789C5D
:10382800E254E3F2E2441CF2E254FCF2E24401F214
:1038380008E2547FF2E24420F278A17401F218748D
:0D38480076F2789CE2541FF2E244A0F222D6
:103D6900789CE2541FF2E244C0F243A840D2AF2249
:101BED009065251203C69063F31203EE9063F7120E
:101BFD0003FA000000009065251203FA00000000B2
:101C0D009065211203E29063F31203C6120226902F
:101C1D0063F71203EE9065211203FA0000000090A5
:101C2D00655AE0FEA3E0FFE4FCFD7BFF7AFFF9F8C7
:101C3D00D3120379400C12368190655AEE8FF01253
:101C4D0002031236739064D312363D404212368130
:101C5D009064D31236799064D4E094649064D3E0A8
:101C6D009400402BE0FFA3E09064D5CFF0A3EFF0FC
:101C7D00E49064D3F0A3F09064D71203C69064DBB4
:101C8D001203EE9064D71203FA00000000D2241262
:101C9D0036739064C212363D40421236819064C252
:101CAD001236799064C3E094649064C2E09400406D
:101CBD002BE0FFA3E09064C4CFF0A3EFF0E49064B9
:101CCD00C2F0A3F09064C61203C69064CA1203EE6C
:101CDD009064C61203FA00000000D22312367390EE
:101CED0064B9123658500F9064B912367012021939
:101CFD009064B91203EE1236739064DF12365850A9
:101D0D000F9064DF1236701202199064DF1203EE29
:101D1D00906518E0B4011F1236819065191236795D
:101D2D0090651AE094C4906519E094094008E4F0B8
:101D3D00A3F0906518F090651CE0B4011F12368178
:101D4D0090651F123679906520E0946490651FE0D0
:101D5D0094004008E4F0A3F090651CF090651BE042
:101D6D00B4011F12368190651D12367990651EE003
:101D7D00946490651DE094004008E4F0A3F0906534
:021D8D001BF049
:011D8F002231
:0300210002337433
:10337400C0E0C0F0C083C082C0D075D000C000C01F
:1033840004C005C006C007789DE230E735E24480FA
:10339400F29065251203C6EF2401FFE43EFEE43DEE
:1033A400FDE43CFC9065251203EE9063ADE0C3940C
:1033B400FF5003E004F0906475E0C394FF5003E011
:1033C40004F0D007D006D005D004D000D0D0D082ED
:0733D400D083D0F0D0E032FD
:04130700C11DC11E25
:103BEE001203C6EF2401FFE43EFEE43DFDE43CFC7F
:0E3BFE002274FFFFFEFDFC1203E2C302038FE0
:10379900E5B254FC42B253A9FED2AF75D10490717F
:1037A90000E054E3F0E0F0E054FCF0E04401F09074
:1037B90071057409F0907104745FF0907100E05420
:1037C9001FF0E044A0F0A3E0547FF0E04420F02291
:103D2700907100E0541FF0E044C0F043A901D2AF06
:013D37002269
:030024000230A106
:1030A100C0E0C0F0C083C082C0D075D000C000C0F5
:0D30B10001C002C003C004C005C006C00776
:1030BE00907101E030E744E04480F030821B201D27
:1030CE00149064D7123BFF500C9064D7123BEE90D5
:1030DE0064D71203EED21D8002C21D30951B201E36
:1030EE00149064C6123BFF500C9064C6123BEE90D7
:0B30FE0064C61203EED21E8002C21E48
:10310900D007D006D005D004D003D002D001D0001A
:0B311900D0D0D082D083D0F0D0E032C4
:10130B005E642300000000000000000000000000ED
:10131B0000000000000000000000000000000000C2
:10132B0000436441000000436444000000436448F0
:10133B00000000C12241644B0041644C00416447F2
:08134B000044644D00000000A5
:1034FA0090644D1203C674442FF582E43464F58354
:10350A0022906550E0FF2441F582E43464F5832279
:10351A007D00EF75F00AA42423F9746435F0FA7B70
:10352A000122E5822EF582E43583F58322E4F090C8
:10353A006447E014F090000A2290644CE4F090642E
:09354A004BF02290644D0203E2F3
:0E3D890090641BEFF0123E3490641BE0FF22AA
:103A400078C2E2543FF2E254FCF2E24440F2907158
:103A500081E04404F090716EE04401F043AA20D26A
:0B3A6000AF75D60175D59F75D21122FD
:03004B00021ECCC6
:101ECC00C0E0C0F0C083C082C0D075D000C000C0DC
:0D1EDC0001C002C003C004C005C006C0075D
:101EE900906422E4F0E5D420E503021FE9E5D7F088
:101EF900202204E0B4A509906447E0C39403400399
:101F0900021FDC906422E0B4A515D22212354312D7
:101F19003D5990600C1203FA00000000123E5B90DC
:101F2900644CE0B40108906422E090644BF01234F0
:101F3900FAE06003021FE9906422E0FF12354D9038
:101F4900642375F00AEB12042BEA75F00AA42583C1
:101F5900F583C083C08290644CE0FE04F0D082D047
:101F69008312352CEFF090600C1203FA0000000088
:101F790090644BE0606AE0FFA3E06F706390644B8C
:101F8900E0FB90644D1203C674412F123512EBF039
:101F9900C2221235431234FA7401F0906447E00406
:101FA900F090644D1203C6EF2401FFE43EFEE43DC8
:101FB900FDE43CFC90644D1203EEE47F03FEFDFC5E
:101FC90012354DC312038F400A90644D1203FA0073
:101FD900000000123D5990600C1203FA0000000045
:101FE900D007D006D005D004D003D002D001D0004C
:0B1FF900D0D0D082D083D0F0D0E032F6
:0D3E3400E5D430E4FB8FD7E5D430E4FB2269
:10200400E4906550F0A3F0C2217F0AFEFDFC9060CD
:102014000C1203E2D312038F4019123D5990600C45
:102024001203FA00000000E490644CF090644BF05A
:10203400C22222E4906550F0906550E0FFC39403FF
:10204400400302212774442F123503E07003022158
:102054001E906550E075F00AA42424F582E43464EB
:10206400F583E0FE74412F123512E06E601A90651C
:1020740050E02444123503123537C083C082123530
:082084001AD007D0060204E99E
:10208C00E4906552F0906551F0A3F012350BE0141A
:10209C00FE906552E0FDC39E5022EF75F00AA42419
:1020AC0023F582E43464F583E5822D12352FE0FFAD
:1020BC00906551E02FF0A3E004F080CF906551E0E3
:1020CC00F012350BE0FEEF75F00AA42422F582E441
:1020DC003464F58312352CE0FF906551E06F60029B
:0220EC00D221FF
:1020EE0030211DC221906550E0FF244412350312A9
:1020FE003537C083C08212351AD007D0061204E9D4
:10210E00906550E02448F582E43464F5837401F060
:09211E00906550E004F002203C41
:012127002295
:05135300426556000098
:103C8000907123E05498F0E0441EF0221202269036
:0B3C900065061203EE9065060203C6F5
:103C480078C3E24403F2E2440CF218E2440CF2E2D4
:0D3C58004403F2123C809071227407F022A8
:10375700EF24FE601A14601F14602424037026905F
:103767007123E054D8F0E04442F0759904801612B2
:103777003C80759905800E123C8075990180061270
:103787003C80E4F5997869E24448F27F017E0002C3
:023797003C658F
:100027007869E24401F2786BE230E1FA7402F2AFE8
:1000370093EF75F010A4FFAEF0E594C4540FFDEFF5
:030047004DFF2248
:1024C800E4906504F0A3F0A31203FA00000000E40E
:1024D80090650AF0A3F074FFA3F0A3F0E4A3F0F072
:1024E800120027906504EEF0A3EFF090650EE0C3AC
:1024F8009402405490650AE0FEA3E0FF906504E072
:10250800FCA3E0FDD39FEC9E400890650AECF0A385
:10251800EDF090650CE0FEA3E0FFC3ED9FEC9E504C
:102528000F906504E0FFA3E090650CCFF0A3EFF0F7
:102538009065061203E2906504E0FEA3E0FFE4FC68
:10254800FD120219A31203EE90650EE004F0E0C339
:102558009414408C123C95C006C00790650AE0FEB2
:10256800A3E0FBAA06E4F9F8D007D006123C8CC019
:1025780006C00790650CE0FEA3E0FBAA06E4F8D0CD
:1025880007D006123C8C78041203A0906504EEF084
:03259800A3EFF0BE
:01259B00221D
:103D380075AF3F8FAF75AEB975A402E5A530E1FB4D
:013D48002258
:10390B0090653812045775AF3F8FAF90653BE0C39E
:10391B0094014022E5A530E0FB906538E475F00199
:10392B00120440120156F5A675AEB975A401906547
:07393B003BE014F080D522EF
:1039AC009063F41204579063F7E06027AE070FEEB4
:1039BC002400FDE4343F8D82F583E493FE9063F4A0
:1039CC00E475F001120440EE1201CF9063F7E0149D
:0439DC00F080D32282
:1033DB00616970313330322069732072756E6E699A
:1033EB006E670A0061697031333032206973207364
:1033FB006C6565700A007965617220256275200025
:10340B006D6F6E74682025627520006461792025CC
:10341B0062752000686F75722025627520006D69DA
:10342B006E20256275200073656320256275200070
:02343B000A0085
:0913580042655300004165550097
:103A1200A3F078E3E254FCF2E24401F2907192E402
:103A2200F022906400E004F0E0C3940822C2A4C231
:0E3A320096D2977F04FE22FFE0FEA80708222E
:10329500E4FF78D3E2543FF2E24440F290718DE4CA
:1032A500F0E254CFF2E24410F290718CE4F0123A5D
:1032B50014C297C29612000FEF7BFF60097A33792B
:1032C500DB12059E80387A3379EF12059EE4FD7F87
:1032D5008C12298D7D017F8812298D7D017F8612B3
:1032E500298D7D017F8A12298DE4FD7F8212298D2A
:1032F500E4FD7F8412298DE4FD7F8012298D02363D
:013305008740
:103C9B00E4FDEE25E0FEEF30E004EE4401FEEFC361
:093CAB0013FF0DEDB408EBAF06A8
:013CB40022ED
:02330600AC0712
:10330800E49063F4F0AF05123C9BEC64816019EC27
:1033180064836014EC6485600FEC6487600AEC6475
:08332800896005EC648D70431F
:10333000E49063F5F0A3F0EC64816004ECB48306E0
:10334000EF547FFF8017EC64856004ECB48706EFD0
:10335000543FFF8008ECB48904EF541FFFEFC454BE
:103360000FFE9063F5F0EF540FFFA3F0EE75F00A37
:03337000A42FFF88
:013373002237
:052D50009063F4EFF0B8
:102D5500E4A3F0123A12123A2F123E73E49063F68E
:102D6500F0122DC49063F6E09063F4123A398002B4
:102D7500C313D8FC30E004D2A48002C2A47F047E31
:102D850000123E73122DCE40D878E3E254FCF2785F
:102D9500E0E24410F2E49063F6F09063F5E025E09C
:102DA500F0122DC430A4079063F5E04401F0122D14
:0E2DB500CE40E7C296C297C2A49063F5E0FF3D
:102DC30022C2967F047E00123E7322D2967F047E37
:0F2DD30000123E739063F6E004F0E0C394082210
:053CE5009063F3EFF015
:103CEA00E4FE122D50AE079063F3E0FFAD060233F7
:013CFA0006C3
:082DE2009063FEEFF0A3EDF099
:102DEA00E4123A12123A2F123E73E4906400F0127F
:102DFA002E68906400E09063FE123A398002C31391
:102E0A00D8FC30E004D2A48002C2A4122E57123A8F
:102E1A002440DCE4906400F0122E68906400E0FF25
:102E2A009063FFE0FEA807088002C313D8FC30E0D5
:102E3A0004D2A48002C2A4122E57123A2440D9C244
:0C2E4A00967F047E00123E73C297C2A463
:102E5600227F047E00123E73D2967F047E00123ECD
:0C2E66007322C2967F047E00123E73228D
:0E000F007F80122D50EF30E0037F00227F0132
:01001D0022C0
:05298D009063FAEFF079
:10299200A3EDF0EF6480601D9063FAE0FF64826053
:1029A20014EF6484600FEF6486600AEF6488600548
:0529B200EF648C706C65
:1029B700E49063FCF0A3F09063FBE0FFC3940A404C
:1029C70007EF75F00A84A3F09063FBE075F00A84C3
:1029D700AFF09063FDEFF09063FCE0FEC454F04F5E
:1029E7009063FBF09063FAE0FF64806004EFB482C9
:1029F700099063FBE0547FF080229063FAE0FF6464
:102A0700846004EFB486099063FBE0543FF0800CC8
:0C2A17009063FAE0B48805A3E0541FF0BF
:102A2300E4FD7F8E122DE29063FAE0FFA3E0FD1236
:092A33002DE27D807F8E022DE270
:10223100E490655375F001120203C3906554E09474
:10224100C8906553E094004055E4F0A3F07F8D12EF
:102251003CE57A3479011222F07F89123CE57A3427
:10226100790B1222F07F87123CE57A34791612221B
:10227100FB7F85123CE57A34791F1222FB7F8312A2
:102281003CE57A3479291223067F81123CE57A34C0
:1022910079321223067BFF7A34793B12059E9065D1
:1022A10055E0704AC3906554E0940A906553E094F8
:1022B10000403BE4F0A3F07D187F8C12298D7D0C4A
:1022C1007F8812298D7D1F7F8612298D7D077F8A48
:1022D10012298D7D177F8412298D7D3B7F821229E2
:0E22E1008D7D2D7F8012298D9065557401F042
:1022EF00227BFF9063F6EFF012059E227BFF906337
:1022FF00F6EFF012059E227BFF9063F6EFF01205CA
:02230F009E220C
:1037D9009063F9E0FD7F8012298D9063F8E0FD7F09
:1037E9008212298D9063F7E0FD7F8412298D906301
:1037F900F6E0FD7F8612298D9063F5E0FD7F881242
:0F380900298D9063F3A3E02430FD7F8C02298D7D
:103C0C0090652FE0FD7F8012298D90652EE0FD7F61
:0E3C1C008212298D90652DE0FD7F8402298D96
:103B2F00906533E0FD7F8612298D906532E0FD7F31
:103B3F008812298D906530A3E02430FD7F8C0229F7
:013B4F008DE8
:103687007F81123CE590645FEFF07F83123CE59009
:10369700645EEFF07F85123CE590645DEFF07F8715
:1036A700123CE590645CEFF07F89123CE590645B27
:1036B700EFF07F8D123CE5EF24D0FEE434079064F1
:0636C70059F0A3CEF02231
:0413610041653C00A6
:103B5000906558F090653D02043790000612016FA1
:103B6000FE90000802016F9000091201E190000C24
:013B70002232
:101A4800E4906558F07FFFA374FFF090653D1204A1
:101A58005790000112016FFE120156FDEEC39D5012
:101A680003021BEC123B54900001E41201E19000C8
:101A78000E1204601204B6EFF4600890653C7423FB
:101A8800F0800990653CE06003E014F0123B54904C
:101A9800000312016F6F601590000512016F600D51
:101AA800900004E41201E1900003021BE890000595
:101AB80012016FFE90000412016FC39E500B123B7F
:101AC80054900004740102019C123B5490000212CD
:101AD800016F6F6049EFF4701D123B5AC39E400BB3
:101AE8007405123B50900002021B68123B54900090
:101AF8000A7401021BDF123B549000087401123B68
:101B08006A12016F6F90653D600C12043774011200
:101B18003B67EF021BDF1204379000098051EFF496
:101B28007055123B5490000912016FD39400500372
:101B3800021BE290000B12016FFE90000A12016F67
:101B4800D39E4025123B5490000912016FC39402A2
:101B580090655840057402F080037401F090000C01
:101B680012016F906559F08051123B5490000A742D
:101B78000112019C021BE2123B54123B61C394FF09
:101B88005008900008740112019C123B5AB50608CF
:101B98009065587403F0801D123B54900007123B67
:101BA8005D6E70367404123B5090000612016F90FF
:101BB80000081201E1906559EFF0123B54E4123B22
:101BC8006774FF1201E1906559E09000111201E17C
:101BD800906558E09000121201E1123B5490000207
:041BE800EF1201E116
:011BEC0022D6
:10349F007379732072657365740A007965617220A0
:1034AF002575206D6F6E74682025627520646179B3
:1034BF0020256275200A00686F75722025627520BD
:1034CF006D696E20256275207365632025627520F6
:1034DF000A00313330322073746F700A0031333089
:0B34EF00322072756E6E696E670A0075
:1038550078E2E2543FF2E24440F2907191E0F012D6
:103865003CCD1238CF123A40123A6B123818123E3C
:1038750041123E86123C48122CBE123295123799DF
:0D388500123D69123D277F017E00023C6567
:1023ED0012231175D95590715EE054FEF075D9BB6D
:1023FD001238557BFF7A34799F12059ED2A37FD078
:10240D007E07123C65C2A39064597407F0A374E86B
:10241D00F090645B740CF0A37405F0A3740DF0A33D
:10242D00742DF0A37420F078F37C637D017B017A29
:10243D006479597E007F071201301237D97BFF7AFC
:10244D003479AA906459E0FFA3E09063F6CFF0A32E
:10245D00EFF090645BE09063F8F090645CE0906363
:10246D00F9F012059E7BFF7A3479C690645DE09099
:10247D0063F6F090645EE09063F7F090645FE09037
:09248D0063F8F012059E122231E1
:102496007F80122D509063F1EFF07F8F123CE59014
:1024A60063F2EFF09063F1E07BFF30E0067A347977
:0A24B600E180047A3479EC12059EEF
:0824C000121BED75D9AA80CBB7
:101365006023645100000000000000000000000040
:101375000000000000000000000000000000000068
:071385000000000000000061
:0C3E67007B017A6479517408F0E4FF22BA
:103CCD007E007F237D007B017A6479511204E99097
:083CDD0063F7123E670239ACE7
:0E3D9700E4FF123D3890653B123E6702390B87
:10371200FA1203C678081203A07E00EB2FFBEE3AE2
:10372200FA9065100203C67E00EB2FFFEE3AFE33DD
:1037320095E0FDFC221203A07E0090650FE022FDC1
:10374200E433CD2FFBEE3D22FC9065140203EE9094
:0537520065140203C62E
:05150A0090650FEFF0F9
:10150F009065141203FA000000007FA5123E3412FA
:10151F003751EF24A5FFE43EFEE43DFDE43C1237D6
:10152F004A90650FE0FF64016032EF6402602DEFB7
:10153F0064036028EF64046023EF6405601EEF64AA
:10154F00066019EF64096014EF640A600FEF64110D
:10155F00600AEF64126005EF641370237F051216A3
:10156F00C41237231216BAC00012372312373A2487
:10157F0005FDE433CD2FFFEE3D1237300216769086
:10158F00650FE0FF64076014EF6408600FEF640CF1
:10159F00600AEF640D6005EF641070387F06121655
:1015AF00C412372378081203A0123E3412372312C5
:1015BF0016BAC000C002C00312372378081237379B
:1015CF002406123741FAA31203C6123729D003D0CB
:1015DF000202167690650FE0FF640B6005EF640F53
:1015EF0070317F07123E3490650FE0FF1216941290
:1015FF0016D0C000C002C00312372378101237373D
:10160F002407123741A3123712123729D003D00201
:10161F0002167690650FE0640E70547F08123E3408
:10162F0090650FE0FF123E3412372378181203A093
:10163F001216941216D0C000C002C00312372378BE
:10164F00181237372408123741FAA31203C678103D
:10165F001203A07E00EB2FFBEE3A906510123712AB
:10166F00123729D003D002D00012021912374B12B1
:10167F003751E4FEFD12374A123751123E347F01C3
:05168F007E00023C6535
:10169400123E349065101203C678101203A0123E55
:1016A400349065101203C678081203A0123E3490D9
:1016B40065101203C622123E349065141203E2220E
:1016C400123E3490650FE0FF123E3422123E3490F5
:0616D40065141203E2227E
:05138C0042655A00005B
:103A6B00123DE6123DF3123E0D123E1A123E271284
:103A7B003DD9123DCC123DBF123DB2123DA578E2AD
:0B3A8B00E254FCF278E0E24401F22279
:102AE800C390655BE094C890655AE0940050030277
:102AF8002B8FE4F0A3F090646E30A503F08003748C
:102B080001F0D20430A207E490646FF0800690646C
:102B18006F7401F0D20530A107E4906470F080066C
:102B28009064707401F0D206208607E490646AF01D
:102B3800804020870890646A7401F08035209008EE
:102B480090646A7402F0802A20930890646A74037F
:102B5800F0801F20940890646A7404F0801420B0F8
:102B68000890646A7405F0800920A70690646A7466
:102B780006F0D20120A00790647274018004E490EA
:082B88006472F0A3F0D20A22EE
:10139100C1234264C200004264C400004864C60024
:1013A100000000000000004464BD00000000416432
:0213B100C10079
:103CFB00E4FAF9F81202BF9065400203EE1203C614
:063D0B009065400203E296
:0D3E410078D3E254F3F278D0E24420F2226C
:10259C009065401203FA0000000020230302266F0E
:1025AC00C223E47F037E07FDFC9064CA1203E2128F
:1025BC0002347B20123CFB9064CA1203FA00000028
:1025CC00009064B5123D081202199064B51203EE26
:1025DC00E47F24FEFDFC123D0B120234C006C00742
:1025EC009064C4E0FEA3E0FBAA06E4F9F8D007D09F
:1025FC00061202BF7B0A123CFB9064C1E0C3940A32
:10260C005012E004F09064BD123D0812021990645F
:10261C00BD0203EEE49064C1F09064BD1203C6E405
:10262C007B0AFAF9F81202BF9064BD1203EE9064B3
:10263C00BD1203C69064641203EE9064BD1203FADB
:10264C0000000000E47FE77E03FDFC90646412034D
:10265C00E2D312038F400A9064641203FA00000361
:03266C00E7D208AA
:01266F002248
:1013B3004264D300004264D50000C1244864D700CE
:1013C300000000000000004164CE004464CF000030
:0213D300000018
:073E860078C2E254CFF222E2
:102A3C009065441203FA00000000202403022AE7E8
:102A4C00C224E47FA67E0EFDFC9064DB1203E2122E
:102A5C000234C006C0079064D5E0FEA3E0FBAA06D2
:102A6C00E4F9F8D007D0061202BF9065441203EEC9
:102A7C009064CEE0C394055016E004F0A31203C694
:102A8C009065441203E21202199064CF0203EE9097
:102A9C0064CF1203C6E47B05FAF9F81202BF906406
:102AAC00CF1203EEE49064CEF07FFF7EFFFDFCA31B
:102ABC001203E2C312038F400A9064CF1203FA0090
:102ACC0000FFFF9064CF1203C69064601203EE9077
:0B2ADC0064CF1203FA00000000D207D4
:012AE70022CC
:1013D5004464B9000000004464B5000000004464A2
:1013E500AB000000004464AF000000004264B3009D
:0113F50000F7
:103A9600E4FDFC1203E2C302038F1203C6EF240106
:103AA600FFE43EFEE43DFDE43CFC221203C61202A6
:0B3AB60026E47B64FAF9F8C302038FDA
:102670009064B3E475F0081202037F307E759064B5
:10268000B9123A96400D9064B91203FA00000000A6
:10269000123D977FE87E039064B5123A9640557FCD
:1026A000007ECA7D9A7C3B906451123A99500C90FE
:1026B0006451123AA09064511203EE7F407E427D35
:1026C0000F7C00906455123A99500C906455123A60
:1026D000A09064551203EE9064B51203C6C3EF9444
:1026E000E8FFEE9403FEED9400FDEC9400FC906492
:1026F000B51203EE9064AB1203E2906451123AB14A
:10270000500E9064511203C69064AB1203EED20CCB
:102710009064AF1203E2906455123AB1500E906487
:10272000551203C69064AF1203EED20DC39064B489
:10273000E094889064B3E094134008E4F0A3F0D2EE
:032740000CD20DAB
:012743002273
:1013F600C100C101C102C103C104C105C106C107C3
:10140600C108C109C10CC10DC10EC10FC110C11166
:10141600C112C11341651800426519000041651BE0
:0F1426000041651C0042651D000042651F00006B
:102F020090646AE0FFE4FCFDFE9065100203EEA807
:102F120004A905AA06AB07E0FFE4FCFDFE1203517B
:102F22009065481203EE9065480203C6E47BE87A96
:102F320003906451F9F81203C60202BF7808E0FF59
:102F4200E4FCFDFE0203B3906468E0FEA3E0FFE44C
:102F5200FCFD22EF75F00AA42427F582E43464F51F
:102F620083E02275F00AA42426F582E43464F58312
:102F7200E02275F00AA42428F582E43464F583E0A3
:0F2F8200227D017B017A647959FE7F07020130BD
:10212800E4906560F0F0906560E0FFC394034003BD
:1021380002223074482FF582E43464F583E070039A
:10214800022227906560E075F00AA42425F582E450
:102158003464F583E024D2601314604624FD60647F
:1021680014606524137063D2000221D2D20E122F9C
:1021780055FDEF122F652DFEE433906459F0A3CE80
:10218800F0906560E0FF122F7490645BF0EF75F0DB
:102198000AA42429F582E43464F583E090645CF0B1
:1021A8008028D20F906560E0FF122F6590645DF083
:1021B800122F5590645EF0906560E0122F74906461
:1021C8005FF08006D2128002D213906447E0D39465
:1021D800004003E014F0906560E0FF2448F582E4D5
:1021E8003464F583E4F074412FF582E43464F583B4
:1021F800E4F074442FF582E43464F583E4F0FE7F60
:102208000AC006C007FD906560E075F00AA42423A3
:10221800F9746435F0FA7B01D007D0061204E9900E
:082228006560E004F002212EC4
:01223000228B
:060BD700200003020CEFF8
:100BDD009065481203FA00000000C200906518E00D
:100BED006003020CEF04F0122F027F0112150A9020
:100BFD00646B122F057F0212150A90646C122F057B
:100C0D007F0312150A90646E122F057F0412150AC8
:100C1D0090646F122F057F0512150A906470122FC4
:100C2D00057F0612150A9064601203C6122F0B7F02
:100C3D000712150A9064641203C6122F0B7F081257
:100C4D00150A90646D122F057F0912150A122F2EA9
:100C5D00122F0B7F0B12150AE47B64FA9064551268
:100C6D002F36122F0B7F0C12150A123687906459EE
:100C7D00122F4C78101203B3C004C005C006C00774
:100C8D0090645B122F3ED003D002D001D00012032E
:100C9D0051A3122F11122F0B7F0E12150A90645EA5
:100CAD00122F3EC004C005C006C00790645D7810C9
:100CBD00122F40D003D002D001D000120351906406
:100CCD005F122F11122F0B7F0F12150A122F4912BF
:100CDD002F0B7F1012150A906471122F057F1112C0
:020CED00150AE6
:100CEF0030010AC201122F027F0112150A30020DC4
:100CFF00C20290646B122F057F0212150A30040D89
:100D0F00C20490646E122F057F0412150A30050D70
:100D1F00C20590646F122F057F0512150A30060D5C
:100D2F00C206906470122F057F0612150A30071045
:100D3F00C2079064601203C6122F0B7F0712150AA9
:100D4F00300810C2089064641203C6122F0B7F087C
:100D5F0012150A30090DC20990646D122F057F0913
:100D6F0012150A300A18C20A906472122F057F12E8
:100D7F0012150A906473122F057F1312150A300C87
:100D8F000DC20C122F2E122F0B7F0B12150A300DC6
:100D9F0016C20DE47B64FAF9F8906455122F3812DD
:100DAF002F0B7F0C12150A300E18C20E90651CE027
:100DBF00701078307C65122F83123B2F90651C7456
:100DCF0001F0300F18C20F90651BE0701078297C6E
:100DDF0065122F83123C0C90651B7401F030100DBF
:100DEF00C210122F49122F0B7F1012150A30110D3E
:100DFF00C211906471122F057F1112150A3012194A
:100E0F00C2129064511203FA000000009064B512F0
:100E1F0003FA00000000123D97301319C2139064BB
:100E2F00551203FA000000009064B51203FA000097
:060E3F000000123D9722A5
:0D3E4E006B6579203120636C69636B0A009D
:101435005463BF0001015300020473000307530006
:1014450004091D00050CED5E63D3010102030405CB
:1014550002060708090A030B0C0D0E0F04101112E2
:1014650013140515161718195363AC0A000000006C
:0E147500033241000000140001FF39E00000C6
:0F004E00EC75F006A424D3F582E43463F5832225
:1035F100E4FD9063F3F0A374FFF0ED25E025E024F2
:10360100C1F582E43463F583E0FAA3E0D39FEA9E37
:10361100401CED25E025E024BFF582E43463F58309
:10362100E0FFA3E09063F3CFF0A3EFF080050DED91
:0B363100B405C79063F3E0FEA3E0FFC8
:01363C00226B
:103AE900E4FEFC12004EE0B5071112004EE5822DEE
:103AF900F582E43583F583E0FE80050CECB405E33B
:023B0900AF0605
:013B0B002297
:1039E000E49063F1F0A3F07F0212375712002790A2
:1039F00063F1EEF0A3EFF09063F1E0FEA3E0FF12BD
:103A000035F19063F1EEF0A3EFF09063F1E0A3E005
:013A1000FFB6
:013A11002292
:103B0C009063BDE0601CE0FFA3E0FD123AE9E49095
:103B1C0063BDF0A3F0EF1470097BFF7A3E794E126F
:023B2C00059EF4
:013B2E002274
:101483004464DF000000004464E30000000044649F
:09149300E7000000004164EBFFDA
:103AC100E47F429064E3FDFC1203E2C302038FE44E
:103AD1007E0AFDFC9064E31203E2D302038F90643B
:083AE100E31203EE9064E722FA
:100E45007F031237571224C8906556EEF0A3EFF0D2
:100E55009064E31203E2906556E0FEA3E0FFE4FC34
:100E6500FD120219123ADF1203C6EF2401FFE43E18
:100E7500FEE43DFDE43CFC9064E71203EEE47FF400
:100E85007E019064DF123AC7500302109F9064DF21
:100E95001203FA000000009064E31203C69064E7B1
:100EA5001203E21202BF123ADF1203FA0000000039
:100EB500E47F4D7E03123AC450099064EB7464F0EC
:100EC500020F6D7E04123AC150099064EB745AF01A
:100ED500020F6DE47F427E06123AC450099064EB1E
:100EE5007450F0020F6DE47F147E07123AC4500966
:100EF5009064EB7446F0020F6DE47FAC7E07123A06
:100F0500C450099064EB743CF0020F6DE47F3B7EA6
:100F150008123AC450089064EB7432F0804AE47FBA
:100F2500D87E08123AC450089064EB7428F08038D3
:100F3500E47F7B7E09123AC450089064EB741EF07E
:100F45008026E47FEC7E09123AC450089064EB7465
:100F550014F080147E0A123AC150089064EB740AAA
:100F6500F08005E49064EBF07F7D123AD04008E410
:100F75009064EBF002108BE47F6D7E0A123AC45048
:100F8500107F42123AD040099064EB740AF00210C7
:100F95008BE47F267E0A123AC45013E47FEC7E0967
:100FA500123AD340099064EB7414F002108BE47F7D
:100FB500CE7E09123AC45013E47F7B7E09123AD3E0
:100FC50040099064EB741EF002108BE47F457E09A6
:100FD500123AC45013E47FD87E08123AD3400990E0
:100FE50064EB7428F002108BE47F9E7E08123AC4ED
:100FF5005013E47F3B7E08123AD340099064EB74AA
:1010050032F002108BE47F0F7E08123AC45013E4CD
:101015007FAC7E07123AD340099064EB743CF00232
:10102500108BE47F727E07123AC45012E47F147E5F
:1010350007123AD340089064EB7446F08048E47F89
:10104500ED7E06123AC45012E47F427E06123AD370
:1010550040089064EB7450F0802CE47FBC7E051250
:101065003AC45012E47F427E04123AD34008906499
:10107500EB745AF08010E47F4D7E03123AC450069B
:101085009064EB7464F09064EBE090646DF09064B0
:0B109500E31203FA000000FFD2092262
:10149C004464EC000000004464F00000000044646C
:0514AC00F40000000047
:103C2A00EF2401FFE43EFEE43DFDE43CFC0203EE2A
:0E3C3A00E47FE27E04FDFC1203E2C302038F6E
:102744007F041237571224C8906556EEF0FAA3EFAF
:10275400F0FB9064F41203C6EF2408FFE43EFEE4A9
:102764003DFDE43CFC9064F41203EED3EB9400EAE8
:1027740094089064F050151203C69064F0123C2A39
:102784009064EC1203FA0000000080071203FA00C0
:102794000000009064F0123C3A40119064F012037F
:1027A400FA00000000E4906471F0D211C390655700
:1027B400E094C7906556E0940B9064EC40151203C6
:1027C400C69064EC123C2A9064F01203FA000000F4
:1027D4000080071203FA000000009064EC123C3AF7
:1027E40040129064EC1203FA0000000090647174CB
:1027F40001F0D211E47FE87E03FDFC9064F4123C06
:0F28040041400C9064F41203FA00000000D2115E
:0128130022A2
:1014B1004464F8000000004464FC0000000044653E
:0514C100000000000026
:103D1100FFE43EFEE43DFDE43CFC0203EEFDFC124B
:063D210003E2C302038F60
:103D79007C007D961204BCE4FB7A10F9F80202BFBC
:10394200EF75F064A4FFAEF0E4FCFD7B96FAF9F8A3
:103952001202BF90654C1203EEE47F62FE90654C4A
:10396200123D1E400A90654C1203FA00000064905A
:05397200654C0203C6D4
:10281400E490655CF0A3F07F0112375790650012D5
:1028240003E2C000C001C002C0031224C8E4FCFDDE
:10283400D003D002D001D000120219906500120317
:10284400EE9064F81203C6EF24019064F8123D116F
:102854009064FC1203C6EF24089064FC123D11E45A
:102864007FE87E039064FC123D1E40609065001278
:1028740003C69064F81203E21202BF9065001203CB
:10288400EE9065001203C6123D7990655CEFF0127C
:10289400394290655DEFF0FB9065001203FA000089
:1028A40000009064F81203FA000000009064FC1227
:1028B40003FA0000000090646BEBF090655CE0FFAD
:0C28C400906468E4F0A3EFF0D210D202A0
:0128D00022E5
:1028D100746F756368206B6579203120636C69635F
:1028E1006B0A00746F756368206B65792031206411
:1028F1006F75626C650A00746F756368206B65792A
:102901002031206C6F6E670A00746F756368206BED
:102911006579203120686F6C640A00746F75636893
:10292100206B65792031206C6F6F73650A00746FBD
:10293100756368206B6579203220636C69636B0A6B
:1029410000746F756368206B6579203220646F7540
:10295100626C650A00746F756368206B657920325B
:10296100206C6F6E670A00746F756368206B657900
:10297100203220686F6C640A00746F756368206B85
:0C29810065792032206C6F6F73650A00CE
:1014C6004C648701010203040502060708090A5352
:1014D60064740A0000000003324100000014000298
:0514E600FF3B71000056
:103BB100E4FFFDFCAB1BAA1AA919A818C302038FC5
:0F3BC100EE75F006A42487F582E43464F58322C0
:103B710075D9AA123B9175D9AA7E02123BB1700385
:103B81007F01227E04123BB170037F02227FFF225C
:10397700E490655EF0A3F0FE123BC1E0B5071912B3
:103987003BC1E5822DF582E43583F583E0FF906541
:103997005EE4F0A3EFF080050EEEB402DB90655E07
:0439A700E0A3E0FFBA
:0139AB0022F9
:102E7200906485E07003022F01E0FFA3E0FD1239A8
:102E820077E4906485F0A3F0EF1204902EB0012E47
:102E9200B8022EC0032EC8042ED0052ED8062EE06E
:102EA200072EE8082EF0092EF80A00002F017BFFFA
:102EB2007A2879D180467BFF7A2879E4803E7BFFAD
:102EC2007A2879F880367BFF7A29790A802E7BFF6F
:102ED2007A29791C80267BFF7A29792F801E7BFF35
:102EE2007A29794280167BFF7A297956800E7BFFF8
:0F2EF2007A29796880067BFF7A29797A12059E02
:012F010022AD
:1014EB0041601801426019000041601B0041601C03
:0E14FB000041601D0041601E7F42601FFFFF28
:10389200E4F561AE3EAD3DAC3C853F178E168D150D
:1038A2008C14787EE254FCF2E24514F218E515F22B
:1038B20018E516F218E517F2787FE254FBF2E254AB
:0D38C200FB4404F2E24401F27F0102301DDC
:1010A0009063F1EFF0E0FF2495F582E43464F5837A
:1010B000E004F074972FF582E43464F583E4F0746F
:1010C000952FF582E43464F583E0C3956350030201
:1010D00012F19063F1E0FB2495F582E43464F5832A
:1010E000E4F0903BE193640160030212A27F01FEF1
:1010F000FDFC74992BF582E43464F583E0F9F81271
:1011000003B3E51F4FF51FE51E4EF51EE51D4DF51A
:101110001DE51C4CF51CAF1FAE1EAD1DFC78011269
:1011200003A0EF5455FBEE5455FAED5455F9EC5429
:1011300055F8C3E51F9BF53BE51E9AF53AE51D9969
:10114000F539E51C98F538AF3BAE3AAD39FC78027D
:101150001203A0EF5433FBEE5433FAED5433F9ECA1
:101160005433F8E53B5433FFE53A5433FEE5395444
:1011700033FDE5385433FCEB2FF53BEA3EF53AE915
:101180003DF539E83CF538AF3BAE3AAD39FC780473
:101190001203A0EF253BFFEE353AFEED3539FDECAD
:1011A0003538FCEF540FF53BEE540FF53AED540F84
:1011B000F539EC540FF538AF3BAE3AAD39FC780851
:1011C0001203A0EF253BFFEE353AED3539FDEC3546
:1011D00038EFF53BE4F53AEDF539E4F538AE3AACE5
:1011E0003878101203A0EF253BFFEE353AFEEFF5FD
:1011F0003BEEF53AE4F539F5389063F1E025E0246B
:10120000A3F582E43464F583E0FEA3E0D39553EEC6
:10121000955240249063F1E0FF25E024A3F582E499
:101220003464F583E0F552A3E0F55374992FF58209
:10123000E43464F583E0F564903BE1E493FFE4FC7F
:10124000FDFEAB3BAA3AA939A838D312038F40520E
:10125000AF650565D3EF9403748094805003021248
:10126000F1E4F565F51FF51EF51DF51C7F01FEFD8A
:10127000FCA964A8011203B38F1B8E1A8D198C1858
:10128000E47F01FEFDFCA8011203B38F338E328D83
:10129000318C30E4F552F553756420123124433714
:1012A0000222E4F5657F01FEFDFC9063F1E0FB2482
:1012B00099F582E43464F583E0F9F81203B3E51B91
:1012C0004FF51BE51A4EF51AE5194DF519E5184CC1
:1012D000F518E47F01FEFDFCA8031203B3E5334FCC
:1012E000F533E5324EF532E5314DF531E5304CF56B
:0212F0003022AA
:10089800E4F566903BE5E493FFE566C39F400302F9
:1008A8000BD6E56625E02400F582E4346085828A6B
:1008B8007F548F8B7E0E8E8C758903758889E566CB
:1008C80025E02400F582E4346085828A8F8B758C5C
:1008D80012758904758889E56625E02408F582E49F
:1008E8003460F583E0FCA3E0C3950FEC950E502E21
:1008F800E56625E02414F582E43460F583E0FCA382
:10090800E0C39513EC95125015AF600560EF9402A3
:1009180074809480400BE4F5605337FD8003E4F560
:1009280060E53730E125E56625E024A3F582E43467
:1009380064F583E4F0A3F0E56625E024A7F582E4F6
:100948003464F583E4F0A3F00209E6E56625E024C3
:1009580008F582E4346085828A8E8B758C0A7589E5
:10096800267588892088FDE5F130E00875F107E4EF
:10097800F50AF50BAE0AE50B7802C333CE33CED8B1
:10098800F9FFE56625E024A3F582E43464F583EEF7
:10099800F0A3EFF0E56625E02414F582E4346085E1
:1009A800828A758B12758C0A7589277588892088C3
:1009B800FDE5F130E00875F107E4F50AF50BAE0A3C
:1009C800E50B7802C333CE33CED8F9FFE56625E0D0
:1009D80024A7F582E43464F583EEF0A3EFF0E5662E
:1009E80025E0249BF582E43464F583E0FEA3E078F7
:1009F80002CEC313CE13D8F9F5518E50E56625E023
:100A080024A3F582E43464F583E0FEA3E0FF903B81
:100A1800DDE493FC740193FDC3EF9DEE9C4017E564
:100A28006625E024A7F582E43464F583E0FEA3E0BC
:100A3800C39DEE9C50028068E56625E024A3F582FC
:100A4800E43464F583E0FEA3E0C39551EE9550408D
:100A58001CE56625E024A7F582E43464F583E0FE0E
:100A6800A3E0C39551EE95504003020AF274932512
:100A780066F582E43464F583E004F074932566F542
:100A880082E43464F583E0FF903BE2E493FEEFD325
:100A98009E406474932566F582E43464F583E4F03B
:100AA800E56625E02404F582E43460F583E0FEA3DE
:100AB800E0FFE56625E02408F582E43460F583EE7E
:100AC800F0A3EFF0E56625E02410F582E43460F544
:100AD80083E0FEA3E0FFE56625E02414F582E43414
:100AE80060F583EEF0A3EFF0800D74932566F58230
:100AF800E43464F583E4F0E56625E02404F582E453
:100B0800346085828AE56625E02400F582E4346055
:100B180085828B758C0A7589207588CB2088FDE5C0
:100B2800F130E00875F107E4F50AF50BE56625E014
:100B38002404F582E4346085828A758B547F0E8F95
:100B48008C7589237588897E0A8E8A8F8BE5662540
:100B5800E02404F582E4346085828CE4F5897588A4
:100B680029E56625E02410F582E4346085828AE56B
:100B78006625E02400F582E4346085828B8E8C75CE
:100B880089207588CB2088FDE5F130E00875F107EC
:100B9800E4F50AF50BE56625E02410F582E43460F7
:100BA80085828A758B547F0E8F8C75892475888908
:100BB800758A0A8F8BE56625E02410F582E4346097
:0F0BC80085828CE4F589758829056602089B22D1
:1016DA00E4F566903BE5E493FFE566C39F400302A9
:1016EA001892E56625E0249BF582E43464F583E0EC
:1016FA00FEA3E07802CEC313CE13D8F9F5518E506B
:10170A00E56625E024A3F582E43464F583E0FEA3CC
:10171A00E0D39551EE9550402EE56625E024A7F5D5
:10172A0082E43464F583E0FEA3E0D39551EE95504C
:10173A00401574972566F582E43464F583E4F0AFC6
:10174A00661210A002188D903BE4E493FFC3E551A2
:10175A009FFFE5509400FED3EF9400EE9400400200
:10176A0080047E007F00E56625E024A3F582E43448
:10177A0064F583E0FCA3E0C39FEC9E40030218805B
:10178A00903BE4E493FFC3E5519FFFE5509400FECC
:10179A00D3EF9400EE9400400280047E007F00E5BF
:1017AA006625E024A7F582E43464F583E0FCA3E02F
:1017BA00C39FEC9E400302188074952566F582E467
:1017CA003464F583E4F074972566F582E43464F5AD
:1017DA0083E004F074972566F582E43464F583E0C7
:1017EA00C39563500302188D74972566F582E43415
:1017FA0064F583E4F07F01FEFDFC74992566F582A9
:10180A00E43464F583E0F9F81203B312035EE51FCA
:10181A005FF51FE51E5EF51EE51D5DF51DE51C5C09
:10182A00F51CE47F01FEFDFCA966A8011203B312B0
:10183A00035EE5335FF533E5325EF532E5315DF59A
:10184A0031E5305CF530E47F01FEFDFC74992566D4
:10185A00F582E43464F583E0F9F81203B312035E07
:10186A00E51B5FF51BE51A5EF51AE5195DF519E545
:10187A00185CF518800D74972566F582E43464F5D2
:09188A0083E4F005660216DD227C
:10312400E4F566903BE5E493FFE566C39F506EE5E6
:103134006625E024A3F582E43464F583E4F0A3F087
:10314400E56625E024A7F582E43464F583E4F0A37E
:10315400F0E56625E02404F582E43460F583E0FEBE
:10316400A3E0FFE56625E02408F582E43460F583F6
:10317400EEF0A3EFF0E56625E02410F582E4346078
:10318400F583E0FEA3E0FFE56625E02414F582E480
:0E3194003460F583EEF0A3EFF005668086222E
:102C2B00E4F566903BE5E493FFE566C39F50679040
:102C3B006018E0FF7E00C39410748094805053EFB3
:102C4B009408748094804025E56625E02400F58285
:102C5B00E43460F583E0FEA3E0FFE56625E02404A1
:102C6B00F582E43460F583EE8FF0120203E56625FE
:102C7B00E02400F582E43460F583E0FEA3E0FFE599
:102C8B006625E02410F582E43460F583EE8FF012B4
:102C9B0002030566808D906018E0C39410748094D5
:102CAB008040054337048006906018E004F07F01F4
:032CBB0002301DC7
:1031A200E4FFFEFDFCAB1BAA1AA919A818C312035F
:1031B2008F606390601AE004F07006906019E0047A
:1031C200F0903BD9E493FE740193FF4E602ED390AE
:1031D200601AE09F906019E09E4021E4F0A3F0F5B0
:1031E2001FF51EF51DF51CF533F532F531F530F5F9
:1031F2001BF51AF519F518C220023124903BDBE4C5
:1032020093FE740193FFD390601AE09F906019E0DF
:0D3212009E400AD22022E4906019F0A3F043
:01321F00228C
:0518930090641DEFF060
:10189800A3E0FCA3E0FDA3E0FEA3E0F54C8E4B8D96
:1018A8004A8C497884E2F50A08E2F50B758A0875CE
:1018B8008B49758C4575881D2088FDE4FFFEFDFC6D
:1018C800AB48AA47A946A845D31203794006AC45B8
:1018D800A8048013AF48AE47AD46AC4512036BABC6
:1018E80007AA06A905A80490601FE0FEA3E0FFE48C
:1018F800FCFDC31203795041E4FFFEFDFCAB48AA8E
:1019080047A946A8451203794006AF48AE47800B61
:10191800AF48AE47AD46AC4512036B90601FEEF082
:10192800A3EFF090641DE025E0249FF582E4346481
:10193800F583E0A3E090601EF0903BD6E493FE743C
:101948000193FFD3906020E09F90601FE09E501BA2
:1019580090641DE025E0249FF582E43464F583E07B
:10196800A3E090601EF090601B8079E4FFFEFDFC10
:10197800AB48AA47A946A845D312037940349064D6
:101988001DE0FF25E0249FF582E43464F583E0FC44
:10199800A3E0D39400EC9400404DEF25E0249FF59C
:1019A80082E43464F58374FFF5F012020390601C3E
:1019B800803290641DE0FF25E0249FF582E43464C2
:1019C800F583E0FCA3E0C3947FEC94005019EF2565
:1019D800E0249FF582E43464F583E475F001120293
:1019E8000390601D7401F090601CE064017011A305
:1019F800E06401700B90601CF0A3F090601B04F091
:101A080090601BE06401703590601EE0FF90641DDB
:101A1800E025E0249FF582E43464F583E4F0A3EF45
:101A2800F074FF90601FF0A3F090601E747FF0E4E4
:0F1A380090601CF0A3F090601BF07F01227F00F4
:011A4700227C
:10343D00E490641CF0903BD01203D278011203B3D8
:10344D0090641E1203EEAF61121893EF60220561B6
:10345D00E53730E4095337EF90641C7401F0903B6D
:10346D00E5E493FFE561C39F4006E4F56143371042
:10347D00C3903BD47401939562E4939400400890FB
:10348D00641CE064017005D21F023892E4FF123013
:01349D001D11
:01349E00220B
:10301D00EF70607F01FEFDFC74992561F582E4344B
:10302D0064F583E0F9F81203B38F178E168D158CA6
:10303D0014787EE254FCF2E24514F218E515F2180C
:10304D00E516F218E517F2E56125E0249FF582E417
:10305D003464F583E0A3E0547FFF7878E254804F29
:10306D00F2787FE254FBF2E254FB4404F2E24401B5
:10307D00F2801CE56125E0249FF582E43464F5833C
:10308D00E0A3E0547FFF7878E254804FF2787FE23E
:04309D004402F222D5
:102B9000E49063F3F0A3F09063F3E0FEA3E0FFC3DF
:102BA0009488EE94035031EF2498FFEE34088F821E
:102BB000F583E493FF9063F4E02421FD9063F3E058
:102BC00034608D82F583EFF09063F4E004F070C719
:082BD0009063F3E004F080BF04
:102BD8009063A97401F0A37460F0A37421F0E4F584
:102BE80061F537F536F535F534C21FC220F51FF506
:102BF8001EF51DF51CF533F532F531F530F51BF5ED
:102C08001AF519F518903BDF93FF903BE3E493FE28
:102C1800A807088002C333D8FCF563756420E4FF75
:032C280002301D5A
:103220007884E2F50A08E2F50BAE0A7803CEC31300
:10323000CE13D8F97802C333CE33CED8F9FFE56187
:1032400025E02400F582E43460F583EEF0A3EFF08E
:10325000201F0F903BD8E4937005D21F02389202D2
:10326000343D0561903BE5E493FFE561C39F401F5A
:10327000787FE254FBF2E254FB4404F2E24401F2B0
:10328000E4F561E53720E203022C2B433701227F6E
:053290000112301D22B7
:053E8D0005620231A2F4
:103B9100E53730E01A9063A9A3E0FAA3E0F9120433
:103BA100B61216DAE4F5617F0112301D5337FE2299
:102F9D000223EDE493A3F8E493A34003F68001F23A
:102FAD0008DFF48029E493A3F85407240CC8C33335
:102FBD00C4540F4420C8834004F456800146F6DF04
:102FCD00E4800B01020408102040809012F2E47E90
:102FDD00019360BCA3FF543F30E509541FFEE493F9
:102FED00A360010ECF54C025E060A840B8E493A3C0
:102FFD00FAE493A3F8E493A3C8C582C8CAC583CAEB
:10300D00F0A3C8C582C8CAC583CADFE9DEE780BEA2
:0115090000E1
:10006000E709F608DFFA8046E709F208DFFA803E82
:1000700088828C83E709F0A3DFFA8032E309F6086F
:10008000DFFA8078E309F208DFFA807088828C83D7
:10009000E309F0A3DFFA806489828A83E0A3F6088B
:1000A000DFFA805889828A83E0A3F208DFFA804C65
:1000B00080D280FA80C680D4806980F2803380103C
:1000C00080A680EA809A80A880DA80E280CA8033A5
:1000D00089828A83ECFAE493A3C8C582C8CCC5831D
:1000E000CCF0A3C8C582C8CCC583CCDFE9DEE780ED
:1000F0000D89828A83E493A3F608DFF9ECFAA9F06C
:10010000EDFB2289828A83ECFAE0A3C8C582C8CCC1
:10011000C583CCF0A3C8C582C8CCC583CCDFEADEDA
:10012000E880DB89828A83E493A3F208DFF980CC3C
:1001300088F0EF60010E4E60C388F0ED2402B40435
:100140000050B9F582EB2402B4040050AF232345DC
:0601500082239000B07351
:10015600BB010689828A83E0225002E722BBFE02A7
:09016600E32289828A83E49322DA
:10016F00BB010CE58229F582E5833AF583E0225045
:10017F0006E92582F8E622BBFE06E92582F8E2228F
:0D018F00E58229F582E5833AF583E49322A9
:10019C00BB010FF8E58229F582E5833AF583E02867
:1001AC00F0225009C58229F8E58226F622BBFE0909
:1001BC00C58229F8E22582F222F8EA2583F583E943
:0301CC0093282253
:1001CF00BB010689828A83F0225002F722BBFE010F
:0201DF00F32209
:1001E100F8BB010DE58229F582E5833AF583E8F054
:1001F100225006E92582C8F622BBFE05E92582C800
:02020100F222E7
:10020300C5F0F8A3E028F0C5F0F8E5821582700286
:060213001583E038F02223
:0D021900EF2BFFEE3AFEED39FDEC38FC2234
:0E022600C3EF9BFFEE9AFEED99FDEC98FC22D3
:10023400E88FF0A4CC8BF0A42CFCE98EF0A42CFC69
:100244008AF0EDA42CFCEA8EF0A4CDA8F08BF0A4E7
:100254002DCC3825F0FDE98FF0A42CCD35F0FCEB46
:100264008EF0A4FEA9F0EB8FF0A4CFC5F02ECD390B
:0F027400FEE43CFCEAA42DCE35F0FDE43CFC2278
:1002830075F008758200EF2FFFEE33FECD33CDCC32
:1002930033CCC58233C5829BED9AEC99E5829840B5
:1002A3000CF582EE9BFEED9AFDEC99FC0FD5F0D692
:1002B300E4CEFBE4CDFAE4CCF9A88222B800C1B9BC
:1002C3000059BA002DEC8BF084CFCECDFCE5F0CBFA
:1002D300F97818EF2FFFEE33FEED33FDEC33FCEB33
:1002E30033FB10D703994004EB99FB0FD8E5E4F9EE
:1002F300FA227818EF2FFFEE33FEED33FDEC33FCDB
:10030300C933C910D7059BE99A4007EC9BFCE99ACE
:10031300F90FD8E0E4C9FAE4CCFB2275F010EF2F13
:10032300FFEE33FEED33FDCC33CCC833C810D70713
:100333009BEC9AE899400AED9BFDEC9AFCE899F84E
:0E0343000FD5F0DAE4CDFBE4CCFAE4C8F922E1
:0D035100EF4BFFEE4AFEED49FDEC48FC22AB
:0D035E00CFF4CFCEF4CECDF4CDCCF4CC2234
:0E036B00C3E49FFFE49EFEE49DFDE49CFC22A3
:10037900EB9FF5F0EA9E42F0E99D42F0EC6480C8FB
:0603890064809845F0229B
:10038F00EB9FF5F0EA9E42F0E99D42F0E89C45F0C4
:01039F00223B
:1003A000E8600FECC313FCED13FDEE13FEEF13FF3B
:0303B000D8F1225F
:1003B300E8600FEFC333FFEE33FEED33FDEC33FCA8
:0303C300D8F1224C
:0C03C600E0FCA3E0FDA3E0FEA3E0FF22AA
:1003D200E493FC740193FD740293FE740393FF2271
:0C03E200E0F8A3E0F9A3E0FAA3E0FB229E
:0C03EE00ECF0A3EDF0A3EEF0A3EFF02282
:1003FA00A8828583F0D083D08212041112041112CC
:10040A000411120411E473E493A3C583C5F0C583F0
:10041A00C8C582C8F0A3C583C5F0C583C8C582C84C
:01042A0022AF
:0C042B00A42582F582E5F03583F58322DC
:09043700E0FBA3E0FAA3E0F922C6
:10044000F8E0FBA3A3E0F925F0F0E5821582700245
:070450001583E0FA38F022E9
:09045700EBF0A3EAF0A3E9F022A6
:10046000BB010DE58229F582E5833AF58302043765
:100470005007E92582F8020515BBFE07E92582F839
:1004800002051EE58229F582E5833AF583020527F8
:10049000D083D082F8E4937012740193700DA3A3FB
:1004A00093F8740193F5828883E47374029368600F
:0604B000EFA3A3A380DF0F
:0604B6008A838982E473D1
:1004BC00EC8EF0A4CCC5F0CCCDF8EFA4CEC5F02DCD
:1004CC00FDE43CFCE8A42EC8C5F03DFDE43CFCEF8B
:0D04DC00A4FFE5F028FEE43DFDE43CFC2219
:10053300E54024F6F582E43463F583E00540229038
:1005430063F3301B039063F6E475F0011204400279
:1005530001562014E97F2ED2148018EF540F2490F3
:10056300D43440D4FF30180BEF24BFB41A00500327
:100573002461FFE541600215410544E5447002052D
:1005830043301B0E9063F3E475F001120440EF0255
:1005930001CF023D897403D21B8003E4C21BF540E3
:1005A3009063F3120457E4F541F543F544E54160E4
:1005B300077F2012057680F57542FFC215C214C26B
:1005C30016C217C219C21AC21C120542FF700D309F
:1005D3001B057F00120587AF44AE4322B4255FC2DB
:1005E300D5C218120542FF24D0B40A00501A75F080
:1005F3000A784130D50508B6FF0106C6A426F620C1
:10060300D5047002D21780D924CFB41A00EF500456
:10061300C2E5D218020788D21580C6D21480C0D290
:100623001680BCD2D580BAD21980B47F2012057649
:100633002016077401B5410040F1120533FF12057E
:10064300760205B0D21CD21A8095120533FB12052F
:1006530033FA120533F94A4B700679597A087BFF4E
:1006630020162EE541602A7E008E827583001201DA
:100673006F60060EEE654270F0C2D5EBC0E0EAC0D3
:10068300E0E9C0E0EE1207CFD0E0F9D0E0FAD0E025
:10069300FB120156FF60AAEBC0E0EAC0E0E9C0E04C
:1006A300120576D0E02401F9D0E03400FAD0E0FB63
:1006B300E5420460DCD542D980877BFF7A0779CB9A
:1006C300D216809C791080027908C21AC21C800855
:1006D300D2D5790A8004790AC2D5E542047002F5BD
:1006E30042E4FAFDFEFF120533FC7B0820151312CA
:1006F3000533FD7B1030140A120533FE120533FF58
:100703007B20EC3382D592D55013C3E43014069F7B
:10071300FFE49EFEE42015039DFDE49CFCE4CBF87E
:10072300C215EC700CCFCECDCCE824F8F870F38072
:1007330017C3EF33FFEE33FEED33FDEC33FCEB3346
:10074300FB994002FB0FD8E9EB301505F8D0E0C464
:1007530048B215C0E00AEC4D4E4F78207B0070C2C2
:10076300EAB5420040BCC0E01207D1D0F0D0E0208F
:100773001504C4C0E0C4B215C0F012055FD0F0D5B3
:10078300F0EB0205B0120490064D5306C758061E3F
:100793004C061A4206CB4F06D34406D349063343CD
:0807A30006D95506BD4606BD4E
:1007AB004506BD4708795006222D06262E06492BF5
:1007BB00062A2306472008622A05E2480000064164
:1007CB003F3F3F00790AA2D5201714301909B91001
:1007DB00020404B9080104A2D5201A025001042016
:1007EB0016689216B541005034C0E07F20301719BF
:1007FB007F30A216721A7219500F120828C216C235
:10080B001AC219C21C7F30800F301903E9C0E012E5
:10081B000576301903D0E0F9D0E0B541CC3019178B
:10082B007F30B9100C1205767F583018077F78800F
:10083B0003B908031205763016057F2D0205767F66
:10084B0020201CF87F2B201AF322921680CF286EC3
:10085B00756C6C2900D2151205333015F8C215785A
:10086B004130D50108F60205E22D504349581205D7
:10087B00332403B405004001E49008749312056718
:0D088B00743A120567D2177541040206C7C2
:1004E900EF4E6012EF60010EEDBB010B89828A832A
:1004F900F0A3DFFCDEFA2289F05007F709DFFCA937
:0C050900F022BBFEFCF309DFFCA9F0228D
:09051500E6FB08E6FA08E6F9220B
:09051E00E2FB08E2FA08E2F9220E
:0C052700E493FB740193FA740293F92230
:00000001FF
