:0300000002234D8B
:0C234D00787FE4F6D8FD7581230223940C
:0C000300000000000000000000000000F1
:0B2A6600EF1FAC0670011E4C70F62242
:1028F500AB07AA06EB1BAE0270011A4E60097FAA50
:082905007E05122A6680ED2216
:101D5D00907120E04480F07F057E00122A66E4FF3A
:101D6D00FE1228F575A75575AC5C9071327450F064
:101D7D009071307403F0907136742FF090715C7423
:101D8D0003F090715BE054FCF07F18EF2466FDE4E6
:101D9D0034718D82F583E4F00FEFB433EE90401182
:101DAD00E4935407FF90711CE054F84FF0904017E6
:101DBD00E493547FFF90711DE054804FF0904010DC
:101DCD00E493FF5401C43333335480FE907123E008
:101DDD00547F4EF0EFC313543F4440FFA3E05480B3
:101DED004FF0904012E493FF540FFE907146E05473
:101DFD00F04EF0EFC4540FFF90714FE054F04FF0E0
:101E0D00904013E493543FFF907140E054C04FF065
:101E1D00904014E493907126F0904015E4939071E6
:0B1E2D0028F0904016E49390712AF01A
:011E38002287
:10296F0078C2E254BFF2E24440F2907181E4F02267
:0D29BD0078C3E254CFF278C0E24440F22229
:0D29CA0078C3E2543FF278C0E24480F2226C
:0D29D70078D2E254FCF278D0E24401F22202
:0D29E40078D2E2543FF278D0E24408F222AB
:0D29F10078D3E254FCF278D0E24410F222D8
:0D29FE0078E2E254F3F278E0E24402F222C3
:0D2A0B0078E2E254CFF278E0E24404F222D7
:0D2A180078E2E2543FF278E0E24408F22256
:0D2A250078E3E254F3F278E0E24420F2227C
:0D2A320078E3E2543FF278E0E24480F222C3
:0D2A3F0078F2E254FCF278F0E24401F22259
:07135D004460EF00000000F6
:10264800E5B154F342B153A8DFD2AF7892E4F2086F
:10265800F27890E254E3F2E2441CF2E254FCF2E233
:102668004401F208E2547FF2E24420F278957401C2
:10267800F2187476F27890E2541FF2E244A0F22243
:10297F007890E2541FF2E244C0F243A820D2AF2273
:102939007890E2541FF2E244A0F27892E4F208F2AD
:0429490053A8DF228E
:03001E0002252296
:10252200C0E0C0F0C083C082C0D075D000C000C07F
:1025320004C005C006C0077891E230E71DE244807E
:10254200F29060EF1206F8EF2401FFE43EFEE43D54
:10255200FDE43CFC9060EF120710D007D006D005D6
:0F256200D004D000D0D0D082D083D0F0D0E032DF
:0E1364004460EB000000004460E70000000061
:1026C800E5B154CF42B153A8BFD2AF75D102789CBF
:1026D800E254E3F2E2441CF2E254FCF2E24401F276
:1026E80008E2547FF2E24420F278A17401F21874EF
:0D26F80076F2789CE2541FF2E244A0F22238
:10298F00789CE2541FF2E244C0F243A840D2AF2237
:101122009060EB1206F890607212071090607612CF
:10113200071C000000009060EB12071C000000007A
:101142009060E71207049060721206F8120573901D
:1011520060761207109060E712071C0000000090F2
:1011620060F5E0FEA3E0FFE4FCFD7BFF7AFFF9F807
:10117200D31206AB400F9060761206F89060F5EE3F
:101182008FF0120550906076120704C374FF9BFB28
:1011920074FF9AFAE499F9E498F89060B7E0FEA334
:1011A200E0FFE4FCFDD31206C140499060761206CE
:1011B200F89060B7EE8FF0120550C39060B8E094DB
:1011C200649060B7E09400402BE0FFA3E09060B52C
:1011D200CFF0A3EFF0E49060B7F0A3F09060AD120F
:1011E20006F89060B11207109060AD12071C000063
:1011F2000000D218906076120704C374FF9BFB7440
:10120200FF9AFAE499F9E498F89060A6E0FEA3E068
:10121200FFE4FCFDD31206C140499060761206F845
:101222009060A6EE8FF0120550C39060A7E0946420
:101232009060A6E09400402BE0FFA3E09060A4CF72
:10124200F0A3EFF0E49060A6F0A3F090609C120689
:10125200F89060A012071090609C12071C0000001A
:1012620000D217906076120704C374FF9BFF74FFCD
:101272009AFE74FF99FD74FF98FC90608F12070428
:10128200C31206C1501590608F1206F89060761254
:10129200070412056690608F12071090607612079D
:1012A20004C374FF9BFF74FF9AFE74FF99FD74FFE1
:1012B20098FC9060BA120704C31206C150159060E0
:1012C200BA1206F89060761207041205669060BAA8
:1012D2001207109060E4E0B401269060761206F8DE
:1012E2009060E5EE8FF0120550C39060E6E094C482
:1012F2009060E5E094094008E4F0A3F09060E4F027
:101302009060E2E0B401269060761206F89060DE0A
:10131200EE8FF0120550C39060DFE094649060DEBF
:10132200E094004008E4F0A3F09060E2F09060E303
:10133200E0B401269060761206F89060E0EE8FF03D
:10134200120550C39060E1E094649060E0E0940084
:0A1352004008E4F0A3F09060E3F01F
:01135C00226E
:0300210002257144
:10257100C0E0C0F0C083C082C0D075D000C000C030
:1025810004C005C006C007789DE230E71DE2448023
:10259100F29060EB1206F8EF2401FFE43EFEE43D09
:1025A100FDE43CFC9060EB120710D007D006D0058B
:0F25B100D004D000D0D0D082D083D0F0D0E03290
:04137200C114C115CC
:10268800E5B254FC42B253A9FED2AF75D1049071A1
:1026980000E054E3F0E0F0E054FCF0E04401F09096
:1026A80071057409F0907104745FF0907100E05442
:1026B8001FF0E044A0F0A3E0547FF0E04420F022B3
:10294D00907100E0541FF0E044C0F043A901D2AFF4
:01295D002257
:0300240002214175
:10214100C0E0C0F0C083C082C0D075D000C000C064
:0D21510001C002C003C004C005C006C007E5
:10215E00907101E030E772E04480F030823220145A
:10216E002B74FFFFFEFDFC9060AD120704C3120638
:10217E00C150199060AD1206F8EF2401FFE43EFE47
:10218E00E43DFDE43CFC9060AD120710D2148002D9
:10219E00C21430953220152B74FFFFFEFDFC9060AB
:1021AE009C120704C31206C1501990609C1206F8C7
:1021BE00EF2401FFE43EFEE43DFDE43CFC90609C18
:0921CE00120710D2158002C2159F
:1021D700D007D006D005D004D003D002D001D0005C
:0B21E700D0D0D082D083D0F0D0E03206
:101376005E600500000000000000000000000000A4
:101386000000000000000000000000000000000057
:101396000043602300000043602700000043602BE9
:1013A600000000C116416026004160000041602A2D
:0813B60000446001000000008A
:0E29AF009060F7EFF0122A4C9060F7E0FF22E4
:1028070078C2E2543FF2E254FCF2E24440F29071A3
:1028170081E04404F090716EE04401F043AA20D2B5
:0B282700AF75D60175D59F75D2112248
:03004B0002168812
:10168800C0E0C0F0C083C082C0D075D000C000C028
:0D16980001C002C003C004C005C006C007A9
:1016A500906084E4F0E5D420E5030217E4E5D7F083
:1016B500201604E0B4A50990602AE0C39403400312
:1016C5000217D7906084E0B4A51BD216906000E4A1
:1016D500F0906026F01229399060EF12071C000087
:1016E500000012297F906000E0B40108906084E05A
:1016F500906026F09060011206F874272FF582E4B9
:101705003460F583E060030217E4906084E0FF90A5
:10171500600112070490600575F00AEB12074DEAA7
:1017250075F00AA42583F583C083C082906000E02C
:10173500FE04F0D082D083E5822EF582E43583F570
:1017450083EFF09060EF12071C0000000090602608
:10175500E070030217E4E0FF906000E06F600302B1
:1017650017E4906026E0FB9060011206F874232FC1
:10177500F582E43460F583EBF0C216906000E4F086
:10178500906026F09060011206F874272FF582E428
:101795003460F5837401F090602AE004F0906001F4
:1017A5001206F8EF2401FFE43EFEE43DFDE43CFCB7
:1017B500906001120710E47F03FEFDFC90600112AA
:1017C5000704C31206C1400A90600112071C0000FD
:0F17D50000001229399060EF12071C000000007D
:1017E400D007D006D005D004D003D002D001D00059
:0B17F400D0D0D082D083D0F0D0E03203
:0D2A4C00E5D430E4FB8FD7E5D430E4FB2265
:10150700E4906072F0A3F0C2197F0AFEFDFC9060C0
:10151700EF120704D31206C140191229399060EF60
:1015270012071C00000000E4906000F0906026F0B5
:10153700C21622E4906072F0906072E0FFC39403D9
:10154700400302168774272FF582E43460F583E0A1
:10155700700302167E906072E075F00AA42406F507
:1015670082E43460F583E0FE74232FF582E434606F
:10157700F583E06E6034906072E02427F582E434EE
:1015870060F583E4F090602AE014F090000AC083CD
:10159700C0827D00EF75F00AA42405F9746035F068
:0A15A700FA7B01D007D0060207A668
:1015B100E4906074F0906073F0A3F0906072E0FFCB
:1015C1002423F582E43460F583E014FE906074E036
:1015D100FDC39E5026EF75F00AA42405F582E4347C
:1015E10060F583E5822DF582E43583F583E0FF9094
:1015F1006073E02FF0A3E004F080C0906073E0F02E
:10160100906072E0FF2423F582E43460F583E0FE0C
:10161100EF75F00AA42404F582E43460F583E582D1
:101621002EF582E43583F583E0FF906073E06F600F
:0316310002D219C9
:10163400301937C219906072E0FF2427F582E43430
:1016440060F583E4F090602AE014F090000AC0830F
:10165400C0827D00EF75F00AA42405F9746035F0AA
:10166400FA7B01D007D0061207A6906072E0242B03
:10167400F582E43460F5837401F0906072E004F064
:0316840002153F0D
:011687002240
:0513BE004260F3000095
:1028320078C3E24403F2E2440CF218E2440CF2E2FE
:102842004403F2907123E054D8F0E054BFF0E04426
:092852001EF09071227407F022BF
:1027AB00EF24FE600F146011146013240370127574
:1027BB009904800D75990580087599018003E4F5DE
:0E27CB00997869E24448F27F017E000228F509
:100027007869E24401F2786BE230E1FA7402F2AFE8
:1000370093EF75F010A4FFAEF0E594C4540FFDEFF5
:030047004DFF2248
:101C6E00E4906074F0A3F0A312071C00000000E4DF
:101C7E0090607AF0A3F074FFA3F0A3F0E4A3F0F069
:101C8E00120027906074EEF0A3EFF090607EE0C338
:101C9E009402405490607AE0FEA3E0FF906074E0FE
:101CAE00FCA3E0FDD39FEC9E400890607AECF0A37D
:101CBE00EDF090607CE0FEA3E0FFC3ED9FEC9E5044
:101CCE000F906074E0FFA3E090607CCFF0A3EFF084
:101CDE00906076120704906074E0FEA3E0FFE4FCCF
:101CEE00FD120566A312071090607EE004F0E0C3BB
:101CFE009414408C9060761206F8C006C00790606F
:101D0E007AE0FEA3E0FBAA06E4F9F8D007D00612AB
:101D1E0005739060761207109060761206F8C00672
:101D2E00C00790607CE0FEA3E0FBAA06E4F8D007B3
:101D3E00D006120573906076120710906076120628
:0E1D4E00F878041206D2906074EEF0A3EFF065
:011D5C002264
:10295E0075AF3F8FAF75AEB975A402E5A530E1FB3B
:01296E002246
:1027400090607712077075AF3F8FAF90607AE0C3EB
:1027500094014022E5A530E0FB906077E475F0013C
:10276000120759120525F5A675AEB975A40190603A
:072770007AE014F080D5228D
:10277700906073120770906076E06027AE070FEEE7
:102787002400FDE4343F8D82F583E493FE9060736B
:10279700E475F001120759EE12053E906076E014D9
:0427A700F080D322C9
:1024B800E4FF78D3E2543FF2E24440F290718DE4B5
:1024C800F0E254CFF2E24410F290718CE4F078E339
:1024D800E254FCF2E24401F2907192E4F0C297C235
:1024E8009612000FEF7030FD7F8C1221F27D017F74
:1024F800881221F27D017F861221F27D017F8A12E6
:1025080021F2E4FD7F821221F2E4FD7F841221F2A0
:0A251800E4FD7F801221F20225C0CD
:1028DB00E4FDEE25E0FEEF30E004EE4401FEEFC335
:0928EB0013FF0DEDB408EBAF067C
:0128F40022C1
:02244A00AC07DD
:10244C00E4906077F0AF051228DBEC64816019EC46
:10245C0064836014EC6485600FEC6487600AEC6440
:08246C00896005EC648D7043EA
:10247400E4906078F0A3F0EC64816004ECB483062B
:10248400EF547FFF8017EC64856004ECB48706EF9B
:10249400543FFF8008ECB48904EF541FFFEFC45489
:1024A4000FFE906078F0EF540FFFA3F0EE75F00A82
:0324B400A42FFF53
:0124B7002202
:05208A00906077EFF00B
:10208F00E4A3F0A3F078E3E254FCF2E24401F2900F
:10209F007192E4F0C2A4C296D2977F04FE122A6610
:1020AF00E4906079F0C2967F047E00122A669060F9
:1020BF0079E0FF906077E0FEA807088002C313D88D
:1020CF00FC30E004D2A48002C2A47F047E00122A56
:1020DF0066D2967F047E00122A66906079E004F043
:1020EF00E0C3940840BF78E3E254FCF278E0E244A6
:1020FF0010F2E4906079F0906078E025E0F0C296FD
:10210F007F047E00122A6630A407906078E04401B5
:10211F00F0D2967F047E00122A66906079E004F078
:10212F00E0C3940840D1C296C297C2A4906078E0F1
:01213F00FFA0
:01214000227C
:05290D00906076EFF080
:10291200E4FE12208AAE07906076E0FFAD06022444
:012922004A6A
:081F1000906081EFF0A3EDF0F9
:101F1800E4A3F078E3E254FCF2E24401F290719217
:101F2800E4F0C2A4C296D2977F04FE122A66E49017
:101F38006083F0C2967F047E00122A66906083E078
:101F4800FF906081E0FEA807088002C313D8FC3028
:101F5800E004D2A48002C2A47F047E00122A66D2C2
:101F6800967F047E00122A66906083E004F0E0C346
:101F7800940840BFE4906083F0C2967F047E00120C
:101F88002A66906083E0FF906082E0FEA8070880E0
:101F980002C313D8FC30E004D2A48002C2A47F0498
:101FA8007E00122A66D2967F047E00122A6690600E
:101FB80083E004F0E0C3940840BFC2967F047E002B
:071FC800122A66C297C2A4B1
:011FCF0022EF
:0E000F007F8012208AEF30E0037F00227F0105
:01001D0022C0
:0521F20090607DEFF09C
:1021F700A3EDF0EF6480601D90607DE0FF64826076
:1022070014EF6484600FEF6486600AEF64886005EA
:05221700EF648C706C07
:10221C00E490607FF0A3F090607EE0FFC3940A40EE
:10222C0007EF75F00A84A3F090607EE075F00A84E5
:10223C00AFF0906080EFF090607FE0FEC454F04F00
:10224C0090607EF090607DE0FF64806004EFB4826B
:10225C000990607EE0547FF0802290607DE0FF6406
:10226C00846004EFB4860990607EE0543FF0800CEB
:0C227C0090607DE0B48805A3E0541FF0E2
:10228800E4FD7F8E121F1090607DE0FFA3E0FD1239
:092298001F107D807F8E021F10D3
:1028BD0090607CE0FD7F801221F290607BE0FD7FD7
:0E28CD00821221F290607AE0FD7F840221F2F7
:10285B00906079E0FD7F861221F2906078E0FD7F39
:10286B00881221F2906076A3E02430FD7F8C022148
:01287B00F26A
:1025C0007F8112290D90603CEFF07F8312290D90DE
:1025D000603BEFF07F8512290D90603AEFF07F8726
:1025E00012290D906039EFF07F8912290D90603823
:1025F000EFF07F8D12290DEF24D0FEE434079060B8
:0626000036F0A3CEF0222B
:10287C001224B812289D1226481228071227D912A2
:10288C0026C8122A59122A7112296F1228320226CE
:01289C0088B3
:10260600121D5D75D95590715EE054FEF075D9BB0B
:1026160012287C12298F12294D121FD0120B591223
:1026260022A1121B771219551207D2121A73121E03
:10263600391215071217FF12004E12112275D9AA68
:0226460080D73B
:1013C3006023602E00000000000000000000000009
:1013D300000000000000000000000000000000000A
:0713E3000000000000000003
:10289D007E007F237D007B017A60792E1207A67B57
:1028AD00017A60792E9060767408F0E4FF02277744
:10292300E4FF12295E7B017A60792E90607A740845
:06293300F0E4FF02274062
:050E9200906076EFF016
:100E970090607B12071C000000007FA5122A4C906F
:100EA700607B1206F8EF24A5FFE43EFEE43DFDE477
:100EB7003CFC90607B120710906076E0FF64016055
:100EC7002DEF64026028EF64036023EF6404601E63
:100ED700EF64056019EF64066014EF6409600FEFB3
:100EE700640A600AEF64116005EF6412703D7F05C4
:100EF700122A4C906076E0FF122A4C906077120617
:100F0700F8122A4C90607B120704C0009060771299
:100F170006F87E00906076E02405FDE433CD2FFFD0
:100F2700EE3DFE3395E0FDFC0210F7906076E0FFA2
:100F370064076014EF6408600FEF640C600AEF64E5
:100F47000D6005EF641070647F06122A4C9060767E
:100F5700E0FF122A4C9060771206F878081206D242
:100F6700122A4C9060771206F8122A4C90607B1276
:100F77000704C000C002C0039060771206F8780823
:100F87001206D27E00906076E02406FDE433CD2F72
:100F9700FBEE3DFAA31206F87E00EB2FFFEE3AFEBA
:100FA7003395E0FDFCD003D0020210F7906076E0A5
:100FB700FF640B6008EF640F60030210497F07129C
:100FC7002A4C906076E0FF122A4C9060771206F860
:100FD70078101206D2122A4C9060771206F8780819
:100FE7001206D2122A4C9060771206F8122A4C90F9
:100FF700607B120704C000C002C00390607712062E
:10100700F878101206D27E00906076E02407FDE49F
:1010170033CD2FFBEE3DFAA31206F878081206D25D
:101027007E00EB2FFBEE3AFA9060771206F87E000F
:10103700EB2FFFEE3AFE3395E0FDFCD003D0020222
:1010470010F7906076E0640E60030211027F0812C9
:101057002A4C906076E0FF122A4C9060771206F8CF
:1010670078181206D2122A4C9060771206F8781078
:101077001206D2122A4C9060771206F878081206E8
:10108700D2122A4C9060771206F8122A4C90607B95
:10109700120704C000C002C0039060771206F878F8
:1010A700181206D27E00906076E02408FDE433CD66
:1010B7002FFBEE3DFAA31206F878101206D27E0037
:1010C700EB2FFBEE3AFA9060771206F878081206D3
:1010D700D27E00EB2FFBEE3AFA9060771206F87E8D
:1010E70000EB2FFFEE3AFE3395E0FDFCD003D00274
:1010F700D00012056690607B12071090607B120685
:10110700F8E4FEFDFC90607B12071090607B1206EE
:0B111700F8122A4C7F017E000228F530
:0513EA004260F5000067
:1027D9001229FE122A0B122A18122A25122A32123B
:1027E9002A3F1229F11229E41229D71229CA1229DA
:0E27F900BD78E2E254FCF278E0E24401F22204
:101FD000C39060F6E094C89060F5E094005003026E
:101FE0002089E4F0A3F090604930A303F0800374EB
:101FF00001F0D20630A507E490604BF080069060B7
:102000004B7401F0D21230A207E490604CF08006CD
:1020100090604C7401F0D21030A107E490604DF054
:10202000800690604D7401F0D20B208607E490602A
:1020300047F080402087089060477401F080352089
:1020400090089060477402F0802A209308906047BF
:102050007403F0801F2094089060477404F080148B
:1020600020B0089060477405F0800920A7069060B2
:10207000477406F0D20C20A00790604F74018004D2
:0A208000E490604FF0A3F0D20222BA
:1013EF00C1174260A600004260A4000048609C0044
:1013FF000000000000000044609700000000416002
:02140F009B0040
:0D2A590078D3E254F3F278D0E24420F22268
:101B770090607212071C00000000201703021C6D02
:101B8700C217E47F037E07FDFC9060A012070412D2
:101B97000581E47B20FAF9F812060C9060721207AF
:101BA700109060A012071C000000009060931206BE
:101BB700F89060721207041205669060931207107E
:101BC700E47F24FEFDFC906072120704120581C0B9
:101BD70006C0079060A4E0FEA3E0FBAA06E4F9F8BC
:101BE700D007D00612060CE47B0AFAF9F812060CA5
:101BF70090607212071090609BE0C3940A5018E03F
:101C070004F09060971206F89060721207041205AC
:101C170066906097020710E490609BF090609712BF
:101C270006F8E47B0AFAF9F812060C906097120797
:101C3700109060971206F890604112071090609715
:101C470012071C00000000E47FE77E03FDFC9060A4
:101C570041120704D31206C1400A90604112071CC3
:061C6700000003E7D20AB1
:011C6D002254
:101411004260B700004260B50000C1184860AD00ED
:10142100000000000000004160A8004460A9000025
:021431000000B9
:072A710078C2E254CFF2220B
:1022A10090607212071C0000000020180302234CEA
:1022B100C218E47FA67E0EFDFC9060B112070412E5
:1022C1000581C006C0079060B5E0FEA3E0FBAA0649
:1022D100E4F9F8D007D00612060C906072120710CC
:1022E1009060A8E0C394055016E004F0A31206F82C
:1022F1009060721207041205669060A9020710909F
:1023010060A91206F8E47B05FAF9F812060C906050
:10231100A9120710E49060A8F07FFF7EFFFDFCA3E7
:10232100120704C31206C1400A9060A912071C00DB
:1023310000FFFF9060A91206F890603D120710900F
:0B23410060A912071C00000000D20180
:01234C00226E
:1014330044608F000000004460930000000044609B
:1014430085000000004460890000000042608D00B8
:011453000098
:1019550090608DE475F008120550E47F307E75FDCA
:10196500FC90608F120704C31206C1400D90608F72
:1019750012071C00000000122923E47FE87E03FD06
:10198500FC906093120704C31206C140777F007E66
:10199500CA7D9A7C3B90602E120704C31206C15083
:1019A5001990602E1206F8EF2401FFE43EFEE43D97
:1019B500FDE43CFC90602E1207107F407E427D0FB7
:1019C5007C00906032120704C31206C15019906062
:1019D500321206F8EF2401FFE43EFEE43DFDE43C4F
:1019E500FC9060321207109060931206F8C3EF94D2
:1019F500E8FFEE9403FEED9400FDEC9400FC90608E
:101A05009312071090608512070490602E1206F855
:101A1500120573E47B64FAF9F8C31206C1500E90FF
:101A2500602E1206F8906085120710D2009060892A
:101A35001207049060321206F8120573E47B64FA0B
:101A4500F9F8C31206C1500E9060321206F8906084
:101A550089120710D208C390608EE0948890608D3B
:0D1A6500E094134008E4F0A3F0D200D20892
:011A72002251
:10145400C10FC10CC104C106C112C110C10BC1012D
:10146400C10AC10EC100C108C103C107C109C1132A
:10147400C10DC1114160E4004260E500004160E338
:0F148400004160E2004260E000004260DE0000D4
:1017FF00E4906072F0F0906072E0FFC394034003D6
:10180F00021954742B2FF582E43460F583E07003D2
:10181F0002194B906072E075F00AA42407F582E478
:10182F003460F583E024D2601C14607124FD7003D2
:10183F000218F01470030218F4241360030218F650
:10184F00D20F0218F6D203EF75F00AA42409F5821D
:10185F00E43460F583E0FDEF75F00AA42408F58207
:10186F00E43460F583E02DFEE433906036F0A3CED0
:10187F00F0906072E0FF75F00AA4240AF582E43458
:10188F0060F583E0906038F0EF75F00AA4240BF553
:10189F0082E43460F583E0906039F0804AD207909B
:1018AF006072E0FF75F00AA42408F582E43460F555
:1018BF0083E090603AF0EF75F00AA42409F582E412
:1018CF003460F583E090603BF0906072E075F00A51
:1018DF00A4240AF582E43460F583E090603CF08044
:1018EF0006D20D8002D21190602AE0D394004003FB
:1018FF00E014F0906072E0FF242BF582E43460F581
:10190F0083E4F074232FF582E43460F583E4F074FC
:10191F00272FF582E43460F583E4F0FE7F0AC006DA
:10192F00C007FD906072E075F00AA42405F9746099
:10193F0035F0FA7B01D007D0061207A6906072E04F
:05194F0004F002180580
:011954002270
:06004E00200F0302022F47
:1000540090607212071C00000000C20F9060E4E080
:10006400600302022F04F0906047E0FFE4FCFDFE11
:100074009060771207107F01120E92906048E0FFA3
:10008400E4FCFDFE9060771207107F02120E92903E
:100094006049E0FFE4FCFDFE9060771207107F03E7
:1000A400120E9290604BE0FFE4FCFDFE906077122C
:1000B40007107F04120E9290604CE0FFE4FCFDFEFA
:1000C4009060771207107F05120E9290604DE0FF4A
:1000D400E4FCFDFE9060771207107F06120E9290EA
:1000E400603D1206F89060771207107F07120E9297
:1000F4009060411206F89060771207107F08120E84
:100104009290604AE0FFE4FCFDFE906077120710D5
:100114007F09120E92E47BE87A03F9F890602E12BC
:1001240006F812060C9060771207107F0B120E92DD
:10013400E47B64FAF9F89060321206F812060C9027
:1001440060771207107F0C120E921225C090603651
:10015400E0FEA3E0FFE4FCFD78101206E5C004C055
:1001640005C006C007906038E0FFE4FCFDFE780897
:100174001206E5D003D002D001D00012069EA804D6
:10018400A905AA06AB07A3E0FFE4FCFDFE12069E48
:100194009060721207109060721206F890607712E5
:1001A40007107F0E120E9290603BE0FFE4FCFDFE10
:1001B40078081206E5C004C005C006C00790603A7E
:1001C400E0FFE4FCFDFE78101206E5D003D002D077
:1001D40001D00012069EA804A905AA06AB079060E8
:1001E4003CE0FFE4FCFDFE12069E906072120710D4
:1001F4009060721206F89060771207107F0F120E4B
:1002040092906045E0FEA3E0FFE4FCFD906077126D
:1002140007107F10120E9290604EE0FFE4FCFDFE8A
:0B0224009060771207107F11120E92FD
:10022F00300C16C20C906047E0FFE4FCFDFE9060BE
:10023F00771207107F01120E92300416C2049060DD
:10024F0048E0FFE4FCFDFE9060771207107F02127A
:10025F000E92300616C206906049E0FFE4FCFDFEE8
:10026F009060771207107F03120E92301216C2128F
:10027F0090604BE0FFE4FCFDFE9060771207107F6B
:10028F0004120E92301016C21090604CE0FFE4FC86
:10029F00FDFE9060771207107F05120E92300B163D
:1002AF00C20B90604DE0FFE4FCFDFE9060771207FB
:1002BF00107F06120E92300113C20190603D12069C
:1002CF00F89060771207107F07120E92300A13C250
:1002DF000A9060411206F89060771207107F08129B
:1002EF000E92300E16C20E90604AE0FFE4FCFDFE47
:1002FF009060771207107F09120E9230022AC20205
:10030F0090604FE0FFE4FCFDFE9060771207107FD6
:10031F0012120E92906050E0FFE4FCFDFE906077A9
:10032F001207107F13120E9230001DC200E47BE8FB
:10033F007A03F9F890602E1206F812060C90607787
:10034F001207107F0B120E9230081CC208E47B6458
:10035F00FAF9F89060321206F812060C90607712D4
:10036F0007107F0C120E92300323C2039060E2E05D
:10037F00701B78767C607D017B017A607936FE7F19
:10038F00071204FF12285B9060E27401F03007231C
:10039F00C2079060E3E0701B78767C607D017B0183
:1003AF007A607936FE7F071204FF1228BD9060E352
:1003BF007401F0300918C209906045E0FEA3E0FF18
:1003CF00E4FCFD9060771207107F10120E9230132D
:1003DF0016C21390604EE0FFE4FCFDFE90607712B2
:1003EF0007107F11120E92300D19C20D90602E1250
:1003FF00071C0000000090609312071C0000000013
:10040F00122923301119C21190603212071C0000FB
:10041F00000090609312071C000000001229232295
:101493004160590058605A0001036C00020E1400A9
:1014A300030B2B000405DB000506D00006093742B9
:1014B300605300004460550000000042605100008A
:1023D900E4FD906074F0A3F0ED25E025E0245CF5C0
:1023E90082E43460F583E0FAA3E024B5FBEA34FF24
:1023F900FAD3EF9BEE9A403BED25E025E0245CF50E
:1024090082E43460F583E0FAA3E0244BFBE43AFA72
:10241900C3EF9BEE9A501CED25E025E0245AF58286
:10242900E43460F583E0FFA3E0906074CFF0A3EF9C
:10243900F080050DEDB406A0906074E0FEA3E0FF06
:012449002270
:100B5900E4906072F0A3F07F021227AB1200279095
:100B69006072EEF0A3EFF0906072E0FEA3E0FF1276
:100B790023D9906072EEF0A3EFF0906059E0706EA7
:100B8900906053E0FEA3E0FF4E7011906072E0FDAB
:100B9900A3E0906053CDF0A3EDF08052906072E035
:100BA900FCA3E0B50742EEB5043E9060551206F885
:100BB900EF2408FFE43EFEE43DFDE43CFC90605573
:100BC900120710E47FF47E01FDFC906055120704C2
:100BD900C31206C1401890605512071C000000009E
:100BE9009060597402F080069060597404F0906026
:100BF90059E064046003020C9B906053E07004A305
:100C0900E06401700C90607712071C0000004280BC
:100C190076906053E07004A3E06402700C906077F2
:100C290012071C00000040805E906053E07004A32E
:100C3900E06403700C90607712071C00000041808B
:100C490046906053E07004A3E06404700C906077F0
:100C590012071C000000E3802E906053E07004A38B
:100C6900E06405700C90607712071C000000658035
:100C790016906053E07004A3E06406700F906077EB
:100C890012071C000000E47F0D120E929060597447
:100C990005F0906059E064027052906053E0FEA341
:100CA900E0FF64014E603FEF64024E70119060777F
:100CB90012071C000000467F0D120E9280289060DA
:100CC90053E0FEA3E0FF64034E601BEF64044E6033
:100CD90015EF64054E700F90607712071C00000035
:100CE900117F0D120E929060597403F0906059E0D3
:100CF90064036003020E33906072E0FEA3E0FF908C
:100D09006053E0FAA3E0FB6F7002EA6E6003020E23
:100D19002DA31206F8EF2401FFE43EFEE43DFDE4B5
:100D29003CFC906055120710EB64014A702A7F1948
:100D3900FEFDFC906055120704C31206C150030260
:100D49000E2490605512071C000000009060771275
:100D5900071C000000428057906053E07004A3E034
:100D6900640270177F19FEFDFC906055120704C3D9
:100D79001206C15003020E24020E1A906053E0704D
:100D890004A3E06403702F7F19FEFDFC90605512E7
:100D99000704C31206C15003020E249060551207BE
:100DA9001C0000000090607712071C000000417FC2
:100DB9000D120E928065906053E07004A3E0640404
:100DC90070137F19FEFDFC906055120704C31206CB
:100DD900C14048803C906053E07004A3E064057012
:100DE900137F19FEFDFC906055120704C31206C15A
:100DF9004029801D906053E07004A3E06406701BD5
:100E09007F19FEFDFC906055120704C31206C1400C
:100E19000A90605512071C000000007F017E001235
:100E290028F580069060597406F0906059E06406D0
:060E39006004E0B4053185
:100E3F00906072E07002A3E0700B90605175F00843
:100E4F001205508007E4906051F0A3F0C3906051F9
:100E5F00E09400400CE4F0A3F0906059E0FF7407B9
:010E6F00F092
:100E7000906059E0B4071AE4906072F0A3F09060BB
:100E800053F0A3F0A312071C00000000E490605987
:010E9000F071
:010E9100223E
:1014C3004460BA000000004460BE000000004460B5
:0914D300C2000000004160B9FFF5
:1007D2007F031227AB121C6E9060F3EEF0A3EFF0D2
:1007E2009060BE1207049060F3E0FEA3E0FFE4FC19
:1007F200FD1205669060BE1207109060C21206F8E4
:10080200EF2401FFE43EFEE43DFDE43CFC9060C2C7
:10081200120710E47FF47E01FDFC9060BA12070417
:10082200C31206C15003020B589060BA12071C0093
:100832000000009060BE1206F89060C21207041217
:10084200060C9060BE1207109060C212071C0000D6
:100852000000E47F4D7E03FDFC9060BE120704C3DE
:100862001206C150099060B97464F002096CE47F09
:10087200427E04FDFC9060BE120704C31206C15002
:10088200099060B9745AF002096CE47F427E06FD59
:10089200FC9060BE120704C31206C150099060B9F1
:1008A2007450F002096CE47F147E07FDFC9060BE78
:1008B200120704C31206C150099060B97446F002CF
:1008C200096CE47FAC7E07FDFC9060BE120704C396
:1008D2001206C150099060B9743CF002096CE47FC1
:1008E2003B7E08FDFC9060BE120704C31206C15095
:1008F200089060B97432F08071E47FD87E08FDFC04
:100902009060BE120704C31206C150089060B97409
:1009120028F08056E47F7B7E09FDFC9060BE1207C2
:1009220004C31206C150089060B9741EF0803BE403
:100932007FEC7E09FDFC9060BE120704C31206C163
:1009420050089060B97414F08020E47F427E0AFD62
:10095200FC9060BE120704C31206C150089060B931
:10096200740AF08005E49060B9F0E47F7D7E0AFDB0
:10097200FC9060BE120704D31206C14008E49060E6
:10098200B9F0020B44E47F6D7E0AFDFC9060BE125A
:100992000704C31206C1501CE47F427E0AFDFC908C
:1009A20060BE120704D31206C140099060B9740AEE
:1009B200F0020B44E47F267E0AFDFC9060BE120723
:1009C20004C31206C1501CE47FEC7E09FDFC90605A
:1009D200BE120704D31206C140099060B97414F024
:1009E200020B44E47FCE7E09FDFC9060BE12070438
:1009F200C31206C1501CE47F7B7E09FDFC9060BEE1
:100A0200120704D31206C140099060B9741EF002A5
:100A12000B44E47F457E09FDFC9060BE120704C3CF
:100A22001206C1501CE47FD87E08FDFC9060BE1205
:100A32000704D31206C140099060B97428F0020B72
:100A420044E47F9E7E08FDFC9060BE120704C31240
:100A520006C1501CE47F3B7E08FDFC9060BE12077D
:100A620004D31206C140099060B97432F0020B44FB
:100A7200E47F0F7E08FDFC9060BE120704C31206DD
:100A8200C1501CE47FAC7E07FDFC9060BE120704DF
:100A9200D31206C140099060B9743CF0020B44E4E1
:100AA2007F727E07FDFC9060BE120704C31206C16E
:100AB200501BE47F147E07FDFC9060BE120704D336
:100AC2001206C140089060B97446F08075E47FED6B
:100AD2007E06FDFC9060BE120704C31206C1501BC5
:100AE200E47F427E06FDFC9060BE120704D312062C
:100AF200C140089060B97450F08047E47FBC7E0525
:100B0200FDFC9060BE120704C31206C1501BE47FB5
:100B1200427E04FDFC9060BE120704D31206C1405F
:100B2200089060B9745AF08019E47F4D7E03FDFC91
:100B32009060BE120704C31206C150069060B974D9
:100B420064F09060B9E090604AF09060BE12071CB9
:070B5200000000FFD20E229B
:1014DC004460C6000000004460CA00000000446084
:0514EC00CE000000002D
:101A73007F041227AB121C6E9060F3EEF0FAA3EF13
:101A8300F0FB9060CE1206F8EF2408FFE43EFEE47C
:101A93003DFDE43CFC9060CE120710D3EB9400EACA
:101AA30094089060CA50221206F8EF2401FFE43E26
:101AB300FEE43DFDE43CFC9060CA1207109060C652
:101AC30012071C00000000800712071C0000000022
:101AD300E47FE27E04FDFC9060CA120704C3120691
:101AE300C140119060CA12071C00000000E490601E
:101AF3004EF0D213C39060F4E094C79060F3E09487
:101B03000B9060C640221206F8EF2401FFE43EFE6C
:101B1300E43DFDE43CFC9060C61207109060CA12DD
:101B2300071C00000000800712071C00000000E4EF
:101B33007FE27E04FDFC9060C6120704C31206C157
:101B430040129060C612071C0000000090604E74A3
:101B530001F0D213E47FE87E03FDFC9060CE120710
:101B630004C31206C1400C9060CE12071C00000093
:031B730000D2138A
:011B7600224C
:1014F1004460D2000000004460D600000000446057
:05150100DA000000000B
:10299F007C007D96120779E4FB7A10F9F802060C99
:10270500EF75F064A4FFAEF0E4FCFD7B96FAF9F8F2
:1027150012060C906074120710E47F62FEFDFC90B7
:102725006074120704C31206C1400A906074120750
:0B2735001C000000649060740206F8B5
:101E3900E4906072F0A3F07F011227AB9060DA1290
:101E49000704C000C001C002C003121C6EE4FCFDFF
:101E5900D003D002D001D0001205669060DA1207D3
:101E6900109060D21206F8EF2401FFE43EFEE43D33
:101E7900FDE43CFC9060D21207109060D61206F87F
:101E8900EF2408FFE43EFEE43DFDE43CFC9060D60F
:101E9900120710E47FE87E03FDFC9060D612070468
:101EA900C31206C140609060DA1206F89060D2123F
:101EB900070412060C9060DA1207109060DA120615
:101EC900F812299F906072EFF0122705906073EF66
:101ED900F0FB9060DA12071C000000009060D2123B
:101EE900071C000000009060D612071C00000000CB
:101EF900906048EBF0906072E0FF906045E4F0A3D9
:061F0900EFF0D209D20442
:011F0F0022AF
:10235900022606E493A3F8E493A34003F68001F26E
:1023690008DFF48029E493A3F85407240CC8C33385
:10237900C4540F4420C8834004F456800146F6DF54
:10238900E4800B010204081020408090135DE47E74
:10239900019360BCA3FF543F30E509541FFEE49349
:1023A900A360010ECF54C025E060A840B8E493A310
:1023B900FAE493A3F8E493A3C8C582C8CAC583CA3B
:1023C900F0A3C8C582C8CAC583CADFE9DEE780BEF3
:0115060000E4
:10042F00E709F608DFFA8046E709F208DFFA803EAF
:10043F0088828C83E709F0A3DFFA8032E309F6089C
:10044F00DFFA8078E309F208DFFA807088828C8304
:10045F00E309F0A3DFFA806489828A83E0A3F608B8
:10046F00DFFA805889828A83E0A3F208DFFA804C92
:10047F0080D280FA80C680D4806980F28033801069
:10048F0080A680EA809A80A880DA80E280CA8033D2
:10049F0089828A83ECFAE493A3C8C582C8CCC5834A
:1004AF00CCF0A3C8C582C8CCC583CCDFE9DEE7801A
:1004BF000D89828A83E493A3F608DFF9ECFAA9F099
:1004CF00EDFB2289828A83ECFAE0A3C8C582C8CCEF
:1004DF00C583CCF0A3C8C582C8CCC583CCDFEADE08
:1004EF00E880DB89828A83E493A3F208DFF980CC6A
:1004FF0088F0EF60010E4E60C388F0ED2402B40463
:10050F000050B9F582EB2402B4040050AF23234509
:06051F00822390047F73AB
:10052500BB010689828A83E0225002E722BBFE02D4
:09053500E32289828A83E4932207
:10053E00BB010689828A83F0225002F722BBFE019C
:02054E00F32296
:10055000C5F0F8A3E028F0C5F0F8E5821582700236
:060560001583E038F022D3
:0D056600EF2BFFEE3AFEED39FDEC38FC22E4
:0E057300C3EF9BFFEE9AFEED99FDEC98FC2283
:10058100E88FF0A4CC8BF0A42CFCE98EF0A42CFC19
:100591008AF0EDA42CFCEA8EF0A4CDA8F08BF0A497
:1005A1002DCC3825F0FDE98FF0A42CCD35F0FCEBF6
:1005B1008EF0A4FEA9F0EB8FF0A4CFC5F02ECD39BB
:0F05C100FEE43CFCEAA42DCE35F0FDE43CFC2228
:1005D00075F008758200EF2FFFEE33FECD33CDCCE2
:1005E00033CCC58233C5829BED9AEC99E582984065
:1005F0000CF582EE9BFEED9AFDEC99FC0FD5F0D642
:10060000E4CEFBE4CDFAE4CCF9A88222B800C1B96B
:100610000059BA002DEC8BF084CFCECDFCE5F0CBA9
:10062000F97818EF2FFFEE33FEED33FDEC33FCEBE2
:1006300033FB10D703994004EB99FB0FD8E5E4F99D
:10064000FA227818EF2FFFEE33FEED33FDEC33FC8A
:10065000C933C910D7059BE99A4007EC9BFCE99A7E
:10066000F90FD8E0E4C9FAE4CCFB2275F010EF2FC3
:10067000FFEE33FEED33FDCC33CCC833C810D707C3
:100680009BEC9AE899400AED9BFDEC9AFCE899F8FE
:0E0690000FD5F0DAE4CDFBE4CCFAE4C8F92291
:0D069E00EF4BFFEE4AFEED49FDEC48FC225B
:1006AB00EB9FF5F0EA9E42F0E99D42F0EC6480C8C6
:0606BB0064809845F02266
:1006C100EB9FF5F0EA9E42F0E99D42F0E89C45F08F
:0106D1002206
:1006D200E8600FECC313FCED13FDEE13FEEF13FF06
:0306E200D8F1222A
:1006E500E8600FEFC333FFEE33FEED33FDEC33FC73
:0306F500D8F12217
:0C06F800E0FCA3E0FDA3E0FEA3E0FF2275
:0C070400E0F8A3E0F9A3E0FAA3E0FB2278
:0C071000ECF0A3EDF0A3EEF0A3EFF0225C
:10071C00A8828583F0D083D082120733120733125C
:10072C000733120733E473E493A3C583C5F0C58381
:10073C00C8C582C8F0A3C583C5F0C583C8C582C827
:01074C00228A
:0C074D00A42582F582E5F03583F58322B7
:10075900F8E0FBA3A3E0F925F0F0E5821582700229
:070769001583E0FA38F022CD
:09077000EBF0A3EAF0A3E9F0228A
:10077900EC8EF0A4CCC5F0CCCDF8EFA4CEC5F02D0D
:10078900FDE43CFCE8A42EC8C5F03DFDE43CFCEFCB
:0D079900A4FFE5F028FEE43DFDE43CFC2259
:1007A600EF4E6012EF60010EEDBB010B89828A836A
:1007B600F0A3DFFCDEFA2289F05007F709DFFCA977
:0C07C600F022BBFEFCF309DFFCA9F022CE
:00000001FF
