:03000000022B8749
:0C2B8700787FE4F6D8FD758166022BCE45
:0C000300000000000000000000000000F1
:0B3A5800EF1FAC0670011E4C70F62240
:10384600AB07AA06EB1BAE0270011A4E600C75D9C7
:0B385600AA7FAA7E05123A5880EA22E1
:1020FC00907120E04480F07F057E00123A58E4FF96
:10210C00FE12384675A75575AC5C9071327450F060
:10211C009071307403F0907136742FF090715C7480
:10212C0003F090715BE054FCF07F18EF2466FDE443
:10213C0034718D82F583E4F00FEFB433EE904011DF
:10214C00E4935407FF90711CE054F84FF090401743
:10215C00E493547FFF90711DE054804FF090401039
:10216C00E493FF5401C43333335480FE907123E065
:10217C00547F4EF0EFC313543F4440FFA3E0548010
:10218C004FF0904012E493FF540FFE907146E054D0
:10219C00F04EF0EFC4540FFF90714FE054F04FF03D
:1021AC00904013E493543FFF907140E054C04FF0C3
:1021BC00904014E493907126F0904015E493907144
:0B21CC0028F0904016E49390712AF078
:0121D70022E5
:10380A00000009C4006400C80101F4004B000A006A
:0E381A0000010F04050200090064000A0064AA
:10389600E2FE74AE2FF582E43464F583E02224FC64
:0838A60025E0FDF8740308227F
:101B4700E4FF123898C394085058123898C3940485
:101B5700502878C2C0001238961238A68002C333C4
:101B6700D8FCF45ED000F278C2C000123896123862
:101B7700A68002C333D8FC021C7578C3C000123894
:101B8700961238A48002C333D8FCF45ED000F278F2
:101B9700C3C0001238961238A48002C333D8FC029F
:101BA7001C75123898C394084068123898C394106B
:101BB7005060123898C3940C502C78D2C000123859
:101BC7009624F81238A68002C333D8FCF45ED000FE
:101BD700F278D2C00012389624F81238A68002C3D1
:101BE70033D8FC021C7578D3C00012389624F4123F
:101BF70038A68002C333D8FCF45ED000F278D3C095
:101C07000012389624F41238A68002C333D8FC0297
:101C17001C75123898C39414502B78E2C000123800
:101C27009624F01238A68002C333D8FCF45ED000A5
:101C3700F278E2C00012389624F01238A68002C368
:101C470033D8FC802978E3C00012389624EC123888
:101C5700A68002C333D8FCF45ED000F278E3C0005C
:101C670012389624EC1238A68002C333D8FC4ED023
:0B1C770000F20FEF64026003021B4943
:011C8200223F
:03005D0002327EEE
:10327E00C0E0C0F0C083C082C0D075D000C000C016
:10328E0001C002C003C004C005C006C0077881E2B9
:10329E0030E607E24440F2122E1BD007D006D005CE
:1032AE00D004D003D002D001D000D0D0D082D083B1
:0532BE00D0F0D0E03269
:10307100D2AF43AB0843B6C0907132E04440F04355
:10308100AB087877743FF208744BF2787A7430F2B7
:10309100788914F27871744FF2187427F278727487
:1030A100A8F2087410F208E4F208F208F2787E74CB
:0F30B100D0F2087404F208741EF2087402F222BE
:1029D300E4FBEB25E025E02420F582E43438F5839D
:1029E300740193FF74AE2BF582E43464F583EFF046
:1029F300EB25E025E02422F582E43438F583E493E3
:102A0300FE740193FFEB25E024B0F582E43464F512
:102A130083EEF0A3EFF0EB25E024B4F582E4346415
:102A2300F583E4F0A37441F0E47F01FEFDFC74AE92
:102A33002B12389BF9F812040DE53F4FFFE53E4E8C
:102A4300FEE53D4DFDE53C4C8F3F8E3E8D3DF53C17
:102A53000BEB640260030229D5121B471228A5025F
:022A63003071D0
:1039140078C2E254BFF2E24440F2907181E4F022B2
:0D397E0078C3E254CFF278C0E24440F22258
:0D398B0078C3E2543FF278C0E24480F2229B
:0D39980078D2E254FCF278D0E24401F22231
:0D39A50078D2E2543FF278D0E24408F222DA
:0D39B20078D3E254FCF278D0E24410F22207
:0D39BF0078E2E254F3F278E0E24402F222F2
:0D39CC0078E2E254CFF278E0E24404F22207
:0D39D90078E2E2543FF278E0E24408F22286
:0D39E60078E3E254F3F278E0E24420F222AC
:0D39F30078E3E2543FF278E0E24480F222F3
:0D3A000078F2E254FCF278F0E24401F22288
:0710CA0044600C000000006F
:083A6D007890E2541FF2E222FE
:10347800E5B154F342B153A8DFD2AF7892E4F20831
:10348800F27890E254E3F2E2441CF2E254FCF2E2F5
:103498004401F208E2547FF2E24420F27895740184
:0C34A800F2187476F2123A6D44A0F22281
:0C3A3400123A6D44C0F243A820D2AF2229
:10392400123A6D44A0F27892E4F208F253A8DF222E
:03001E000230C0ED
:1030C000C0E0C0F0C083C082C0D075D000C000C0D6
:1030D00004C005C006C0077891E230E71DE24480D5
:1030E000F290600C120420EF2401FFE43EFEE43D68
:1030F000FDE43CFC90600C120448D007D006D005DB
:0F310000D004D000D0D0D082D083D0F0D0E03235
:0E10D10044652400000000446520000000007B
:10315B00C374FF9BFF74FF9AFE74FF99FD74FF9875
:10316B00FC12043CC30203E9120420EF2401FFE428
:10317B003EFEE43DFDE43CFC22120420906432024E
:10318B00043CE4FCFD7BFF7AFFF9F8D30203D390F8
:0B319B006432020420EE8FF002026A92
:1033FE00E5B154CF42B153A8BFD2AF75D102789C7C
:10340E00E254E3F2E2441CF2E254FCF2E24401F232
:10341E0008E2547FF2E24420F278A17401F21874AB
:0D342E0076F2789CE2541FF2E244A0F222F4
:10393400789CE2541FF2E244C0F243A840D2AF2282
:101DBB0090652412042090642E1204489064321211
:101DCB00045400000000906524120454000000002D
:101DDB0090652012043C90642E12042012028D9008
:101DEB0064321204489065201204540000000090E5
:101DFB00653BE0FEA3E0FF12318D400912319A9052
:101E0B00653B1231A01231879064CC12315B500FBD
:101E1B009064CC1231841202809064CC120448126C
:101E2B0031879064F212315B500F9064F21231845F
:101E3B001202809064F2120448906517E0B40120FE
:101E4B0012319A9065181231A0C3906519E094C4B1
:101E5B00906518E094094008E4F0A3F0906517F042
:101E6B0090651BE0B4012012319A90651E1231A0CF
:101E7B00C390651FE0946490651EE094004008E4F5
:101E8B00F0A3F090651BF090651AE0B401201231BD
:101E9B009A90651C1231A0C390651DE09464906507
:101EAB001CE094004008E4F0A3F090651AF09064F5
:101EBB00D0E0FEA3E0FF12318D400A9064D0E475B0
:101ECB00F00112026A74FFFFFEFDFC9065131231E4
:0F1EDB006C500C9065131231739065131204480C
:011EEA0022D5
:03002100022FBEED
:102FBE00C0E0C0F0C083C082C0D075D000C000C0D9
:102FCE0004C005C006C007789DE230E728E24480C1
:102FDE00F29065241231739065241204489063AD0B
:102FEE00E0C394FF5003E004F090648AE0C394FFC2
:102FFE005003E004F0D007D006D005D004D000D0A6
:0A300E00D0D082D083D0F0D0E032A1
:0D10DF00C11EC11F41653300426534000091
:1037CC00120420EF2401FFE43EFEE43DFDE43CFC4A
:0F37DC0022E47F587E02FDFC12043CC30203E985
:1032C300E5B254FC42B253A9FED2AF75D10490715A
:1032D30000E054E3F0E0F0E054FCF0E04401F0904F
:1032E30071057409F0907104745FF0907100E054FB
:1032F3001FF0E044A0F0A3E0547FF0E04420F0226C
:1038F200907100E0541FF0E044C0F043A901D2AF40
:0139020022A2
:0300240002200FA8
:10200F00C0E0C0F0C083C082C0D075D000C000C097
:0D201F0001C002C003C004C005C006C00718
:0E202C00907101E020E7030220E1E04480F023
:10203A00906533E004F0E0C394144025E4F0906422
:10204A00E61237CC9064E61204489064E61237DD53
:10205A00400F20240C9064E612045400000000D2C1
:01206A002451
:10206B00308216201E0F9064E21237CC9064E2127D
:0B207B000448123381D21E8002C21EF6
:10208600906534E475F00112026AC3906535E094F8
:1020960014906534E094004027E4F0A3F09064D6F1
:1020A6001237CC9064D61204489064D61237DD40BD
:1020B6000F20230C9064D612045400000000D22393
:1020C600309516201F0F9064D21237CC9064D2122E
:0B20D60004481234EED21F8002C21F2B
:1020E100D007D006D005D004D003D002D001D00053
:0B20F100D0D0D082D083D0F0D0E032FD
:1010EC00602D63F100000000000000000000000013
:1010FC0000000000000000000000000000000000E4
:10110C0000000000000000000000000000000000D3
:10111C000043641E0000004364210000004364256A
:10112C00000000C12241642800416429004164246C
:08113C000044642A00000000D9
:1030180090642A12042074212FF582E43464F58325
:103028002290642EE0FF241EF582E43464F58322A6
:103038007D00EF75F00FA424F1F9746335F0FA7B85
:103048000122E5822EF582E43583F58322E4F090AF
:103058006424E014F090000F22906429E4F0906456
:0930680028F02290642A02043CC5
:0E39540090645AEFF0123A0D90645AE0FF2290
:1036820078C2E2543FF2E254FCF2E24440F290711A
:1036920081E04404F0907175E04401F043AA20D225
:0B36A200AFE4F5D675D51F75D21122DC
:03004B00021C8311
:101C8300C0E0C0F0C083C082C0D075D000C000C027
:0D1C930001C002C003C004C005C006C007A8
:101CA000906461E4F0E5D420E503021DA0E5D7F0DF
:101CB000202204E0B4A509906424E0C39403400307
:101CC000021D93906461E0B4A515D2221230611216
:101CD000392490600C12045400000000123A349031
:101CE0006429E0B40108906461E0906428F0123047
:101CF00018E06003021DA0906461E0FF12306B9059
:101D000063F175F00FEB120485EA75F00FA42583DB
:101D1000F583C083C082906429E0FE04F0D082D0B5
:101D20008312304AEFF090600C120454000000005F
:101D3000906428E0606AE0FFA3E06F70639064281D
:101D4000E0FB90642A120420741E2F123030EBF056
:101D5000C2221230611230187401F0906424E00441
:101D6000F090642A120420EF2401FFE43EFEE43DDB
:101D7000FDE43CFC90642A120448E47F03FEFDFC71
:101D800012306BC31203E9400A90642A1204540013
:101D900000000012392490600C120454000000006E
:101DA000D007D006D005D004D003D002D001D00097
:0B1DB000D0D0D082D083D0F0D0E03241
:0D3A0D00E5D430E4FB8FD7E5D430E4FB2294
:060027009065361204B1E1
:10002D00E4FEEEC39D50159065361204918E8275D7
:0C003D00830012016FFF123A0D0E80E6E6
:010049002294
:101EEB00E490642EF0A3F0C2157F0AFEFDFC906017
:101EFB000C12043CD31203E9401912392490600CE4
:101F0B0012045400000000E4906429F0906428F05F
:101F1B00C22222E490642EF090642EE0FFC394035F
:101F2B00400302200E74212F123021E07003022097
:101F3B000590642EE075F00FA424F2F582E434636F
:101F4B00F583E0FE741E2F123030E06E601A906441
:101F5B002EE02421123021123055C083C082123062
:081F6B0038D007D0060205433F
:101F7300E4906430F090642FF0A3F0123029E01461
:101F8300FE906430E0FDC39E5022EF75F00FA42451
:101F9300F1F582E43463F583E5822D12304DE0FFE1
:101FA30090642FE02FF0A3E004F080CF90642FE043
:101FB300F0123029E0FEEF75F00FA424F0F582E46F
:101FC3003463F58312304AE0FF90642FE06F6002C0
:021FD300D21525
:101FD50030151DC21590642EE0FF24211230211208
:101FE5003055C083C082123038D007D00612054361
:101FF50090642EE02425F582E43464F5837401F0C1
:0920050090642EE004F0021F2398
:01200E0022AF
:051144004265390000C6
:10386100907123E05498F0E0441EF02212028D90F2
:0B38710064321204489064320204200C
:1037490078C3E24403F2E2440CF218E2440CF27842
:103759006AE24478F27591FF123861907122740718
:02376900F0224C
:10352700EF24FE601714601C2402701E907123E0C4
:1035370054D8F0E0445AF0759904800E123861753A
:10354700990580061238617599017869E24448F255
:073557007F017E00023846EF
:103703007869E24401F2786BE230E1FA7402F2AFD5
:1037130093EF75F010A4FFAEF0E594C4540FFDEFE2
:033723004DFF2235
:1022B000E4906430F0A3F0A312045400000000E4A2
:1022C000906436F0A3F074FFA3F0A3F0E4A3F0F061
:1022D000123703906430EEF0A3EFF090643AE0C35D
:1022E00094024054906436E0FEA3E0FF906430E036
:1022F000FCA3E0FDD39FEC9E4008906436ECF0A375
:10230000EDF0906438E0FEA3E0FFC3ED9FEC9E503B
:102310000F906430E0FFA3E0906438CFF0A3EFF0BB
:1023200090643212043C906430E0FEA3E0FFE4FCD1
:10233000FD120280A312044890643AE004F0E0C366
:102340009414408C123876C006C007906436E0FEC4
:10235000A3E0FBAA06E4F9F8D007D00612386DC056
:1023600006C007906438E0FEA3E0FBAA06E4F8D0BC
:1023700007D00612386D78041203FA906430EEF03C
:03238000A3EFF0D8
:012383002237
:1039030075AF3F8FAF75AEB975A402E5A530E1FB86
:013913002291
:10355E009064331204B175AF3F8FAF906436E0C301
:10356E0094014022E5A530E0FB906433E475F00150
:10357E0012049A120156F5A675AEB975A40190649F
:07358E0036E014F080D522A5
:1035950090642F1204B1906432E06027AE070FEEFD
:1035A5002400FDE4343F8D82F583E493FE90642F7F
:1035B500E475F00112049AEE1201CF906432E01422
:0435C500F080D3229D
:1035FB00A3F078E3E254FCF2E24401F2907192E41E
:10360B00F02290643FE004F0E0C3940822C2A4C20D
:0E361B0096D2977F04FE22FFE0FEA807082249
:102F6000E4FF78D3E2543FF2E24440F290718DE402
:102F7000F0E254CFF2E24410F290718CE4F012359A
:102F8000FDC297C29612000FEF7030FD7F8C1227A2
:102F90004E7D017F8812274E7D017F8612274E7D50
:102FA000017F8A12274EE4FD7F8212274EE4FD7FC7
:0E2FB0008412274EE4FD7F8012274E02323835
:10387C00E4FDEE25E0FEEF30E004EE4401FEEFC384
:09388C0013FF0DEDB408EBAF06CB
:013895002210
:022E9000AC078D
:102E9200E4906433F0AF0512387CEC64816019EC85
:102EA20064836014EC6485600FEC6487600AEC64F0
:082EB200896005EC648D70439A
:102EBA00E4906434F0A3F0EC64816004ECB483061B
:102ECA00EF547FFF8017EC64856004ECB48706EF4B
:102EDA00543FFF8008ECB48904EF541FFFEFC45439
:102EEA000FFE906434F0EF540FFFA3F0EE75F00A72
:032EFA00A42FFF03
:012EFD0022B2
:052A6500906433EFF066
:102A6A00E4A3F01235FB123618123A58E490643592
:102A7A00F0122AD9906435E090643312362280022B
:102A8A00C313D8FC30E004D2A48002C2A47F047E1F
:102A9A0000123A58122AE340D878E3E254FCF2785A
:102AAA00E0E24410F2E4906435F0906434E025E00A
:102ABA00F0122AD930A407906434E04401F0122AB3
:0E2ACA00E340E7C296C297C2A4906434E0FFD6
:102AD80022C2967F047E00123A5822D2967F047E44
:0F2AE80000123A58906435E004F0E0C3940822DD
:0538C600906432EFF0F8
:1038CB00E4FE122A65AE07906432E0FFAD06022ECD
:0138DB00905C
:082AF70090643DEFF0A3EDF047
:102AFF00E41235FB123618123A58E490643FF01284
:102B0F002B7D90643FE090643D1236228002C31308
:102B1F00D8FC30E004D2A48002C2A4122B6C12366F
:102B2F000D40DCE490643FF0122B7D90643FE0FF9A
:102B3F0090643EE0FEA807088002C313D8FC30E083
:102B4F0004D2A48002C2A4122B6C12360D40D9C23B
:0C2B5F00967F047E00123A58C297C2A470
:102B6B00227F047E00123A58D2967F047E00123ADE
:0C2B7B005822C2967F047E00123A5822B5
:0E000F007F80122A65EF30E0037F00227F0120
:01001D0022C0
:05274E00906439EFF07A
:10275300A3EDF0EF6480601D906439E0FF64826054
:1027630014EF6484600FEF6486600AEF6488600589
:05277300EF648C706CA6
:10277800E490643BF0A3F090643AE0FFC3940A400D
:1027880007EF75F00A84A3F090643AE075F00A84C4
:10279800AFF090643CEFF090643BE0FEC454F04F1F
:1027A80090643AF0906439E0FF64806004EFB4828A
:1027B8000990643AE0547FF08022906439E0FF6425
:1027C800846004EFB4860990643AE0543FF0800CCA
:0C27D800906439E0B48805A3E0541FF0C1
:1027E400E4FD7F8E122AF7906439E0FFA3E0FD1226
:0927F4002AF77D807F8E022AF78E
:1033030090652EE0FD7F8012274E90652DE0FD7FB6
:103313008212274E90652CE0FD7F8412274E906524
:103323002BE0FD7F8612274E90652AE0FD7F8812F1
:0F333300274E906528A3E02430FD7F8C02274EA3
:10334200906432A3E02430FD7F8C12274E906434C7
:10335200E0FD7F8812274E906435E0FD7F861227BC
:103362004E906436E0FD7F8412274E906437E0FD74
:0F3372007F8212274E906438E0FD7F8002274E45
:103238007F811238C6906474EFF07F831238C6908D
:103248006473EFF07F851238C6906472EFF07F8761
:103258001238C6906471EFF07F891238C690647096
:10326800EFF07F8D1238C6EF24D0FEE43407906467
:063278006EF0A3CEF0226F
:0411490041652F00CD
:10376B0090642EF090653002049190000612016F68
:10377B00FE90000802016F9000091201E190000C0D
:01378B00221B
:10186600E490642EF07FFFA374FFF09065301204BD
:10187600B190000112016FFE120156FDEEC39D509C
:10188600030219F812376F900001E41201E190008B
:101896000E1204BA120510EFF4600890652F742337
:1018A600F0800990652FE06003E014F012376F9026
:1018B600000312016F6F601590000512016F600D35
:1018C600900004E41201E19000030219F49000056F
:1018D60012016FFE90000412016FC39E500B123767
:1018E6006F900004740102019C12376F900002127F
:1018F600016F6F6048EFF4701C123775C39E400A83
:10190600740512376B900002806112376F90000ADF
:1019160074010219EB12376F9000087401123785B3
:1019260012016F6F906530600C12049174011237CA
:1019360082EF0219EB120491900009803DEFF470DA
:101946004112376F90000912016FD39400500302C1
:1019560019EE90000B12016FFE90000A12016FD370
:101966009E4011740112376B90000C12016F906447
:101976002FF0805412376F90000A740112019C02F6
:1019860019EE12376F12377CC394FF500890000887
:10199600740112019C123775B5060890642E740303
:1019A600F0802012376F9000071237786E703990EA
:1019B600642E740412376E90000612016F900008B0
:1019C6001201E190642FEFF012376FE41237827440
:1019D600FF1201E190642FE09000111201E1906482
:1019E6002EE09000121201E112376F900002EF1202
:0219F60001E10D
:0119F80022CC
:1034B40078E2E2543FF2E24440F2907191E0F0127B
:1034C40038AE1234781236821236AD1233FE123A06
:1034D4001A123A27123749122F601232C3123934A2
:0A34E4001238F27F017E0002384624
:1031A6001220FC75D95590715EE054FEF075D9BBBE
:1031B6001234B4D2A37FE87E03123846C2A37B0141
:1031C6007A6379AC1218661225E41223841221D888
:1031D60012269E122C13122524121EEB1219F91216
:0A31E6000E83121DBB75D9AA80D418
:10114D006027646200000000000000000000000045
:10115D000000000000000000000000000000000082
:0B116D00000000000000000000000077
:0C3A40007B017A647962740CF0E4FF22D0
:1038AE007E007F277D007B017A647962120543904A
:0838BE006432123A4002359514
:0E396200E4FF123903906436123A4002355EDB
:1033C000FEE02FFFEC3EFEA3E02FFFEC3EFE22FAD4
:1033D0001204207E00EB2FFFEE3AFE3395E0FDFC59
:1033E000221203FA7E00906432E022FC90643702DD
:0E33F0000448906437020420906433020420E5
:0512F200906432EFF0F2
:1012F700906437120454000000007FA5123A0D12C3
:1013070033F2EF24A5FFE43EFEE43DFDE43C123357
:10131700EB906432E0FF64016032EF6402602DEF0E
:1013270064036028EF64046023EF6405601EEF64C4
:10133700066019EF64096014EF640A600FEF641127
:10134700600AEF64126005EF641370207F051214C2
:10135700D21214E4C0001233F81233E42405FDE47A
:1013670033CD2FFFEE3D1233DA02149C906432E046
:10137700FF64076014EF6408600FEF640C600AEF06
:1013870064146005EF641070337F06123A0D9064A1
:1013970032E0FF1214BA1214E4C000C002C00312F4
:1013A70033F878081233E12406FDE433CD2FFBEE42
:1013B7003DA31233CFD003D00202149C906432E0D5
:1013C700FF640B6005EF640D70467F071214D27837
:1013D700101203FA1214BA1214EEC000C002C003AE
:1013E7001233F878101233E12407FDE433CD2FFBD5
:1013F700EE3DFAA312042078081203FA7E00EB2FC1
:10140700FBEE3A9064331233CFD003D00202149C20
:10141700906432E0640E60030214A47F0B123A0D4D
:101427007F0E123A0D90646EE0FF123A0D90646ED3
:10143700E0A3E0FF123A0D906470E0FF123A0D90BE
:101447006471E0FF123A0D906472E0FF123A0D905A
:101457006473E0FF123A0D906474E0FF1214EEC05B
:1014670000C001C002C00390646EE02419FFE4339A
:10147700FEE0A3E07C002FFFEC3E9064701233C0C7
:10148700A3E02FFFEC3EA31233C03395E0FDFCD061
:1014970003D002D001D0001202801233EC1233F2D3
:1014A700E4FEFD1233EB1233F2123A0D7F017E0098
:0314B700023846B2
:1014BA00123A0D90643312042078081203FA123A91
:1014CA000D90643312042022123A0D906432E0FF28
:1014DA00123A0D90643312042022123A0D906437A6
:0E14EA0012043C22123A0D90643712043C2288
:0511780042653B000090
:1036AD001239BF1239CC1239E61239F3123A00121F
:1036BD0039B21239A512399812398B12397E78E246
:0B36CD00E254FCF278E0E24401F2223B
:1027FD00C390653CE094C890653BE09400500302A3
:10280D0028A4E4F0A3F090648330A503F080037452
:10281D0001F0D20430A207E4906484F08006906445
:10282D00847401F0D20530A107E4906485F0800630
:10283D009064857401F0D206208607E490647FF0E1
:10284D00804020870890647F7401F08035209008C7
:10285D0090647F7402F0802A20930890647F740343
:10286D00F0801F20940890647F7404F0801420B0D1
:10287D000890647F7405F0800920A70690647F742A
:10288D0006F0D20120A00790648774018004E490C3
:08289D006487F0A3F0D20A22C7
:10117D00C1234464D2000000004464D60000000086
:0E118D004464DA000000004464DE000000004C
:0C3A4C00E4FDFC02043C12043C02028079
:0D3A1A0078D3E254F3F278D0E24420F22297
:1034EE009064DA1204209064D6123A529064DA1282
:1034FE0004489064D6120454000000009064DE125A
:10350E0004209064D2123A529064DE120448906401
:09351E00D2120454000000002246
:1023840090642E120454000000009064321204542D
:10239400000000007FF47E019064DA123A4CC3120C
:1023A40003E950062023030224537F2E7E04906405
:1023B400DE123A4C12029BE47B03FAF9F81203266C
:1023C40090643212044830230C90642E120454009A
:1023D4000000008027E47F24FEFDFC906432120498
:1023E4003C12029BE47B0AFAF9F81203269064DAA1
:1023F40012043C12032690642E1204489064C812FE
:102404000420906432123A529064C81204489064D2
:10241400DE120454000000009064DA120454000038
:102424000000C22390642E120420906479120448A0
:10243400E47FE77E03FDFC90647912043CD312032D
:0F244400E9400A906479120454000003E7D208BB
:012453002266
:1036290063757220656E67696E6520737065656480
:103639002070756C736520636E743A256C750A0089
:0D3649006375722072706D20256C750A008B
:10119B004464E2000000004464E600000000446484
:0E11AB00EA000000004464EE00000000C124D1
:063A7500E4FDFC02043C2C
:0D3A270078C2E254CFF278C0E24404F222EB
:103381009064EA1204209064E212043C12028090DC
:1033910064EA1204489064E21204540000000090B0
:1033A10064EE1204209064E612043C1202809064E0
:0F33B100EE1204489064E612045400000000225B
:10269E0090642E120454000000007FF47E019064BA
:1026AE00EE123A75C31203E9500620240302273EA8
:1026BE0030240C90642E12045400000000801C7F05
:1026CE00A67E0E9064EA123A7512029B9064EE1288
:1026DE00043C12032690642E1204487A367929900F
:1026EE0064EA12273F9064EA12045400000000903E
:1026FE0064EE12045400000000C224E47FFF7EFF4B
:10270E00FDFC90642E12043CC31203E9400A90644F
:10271E002E1204540000FFFF7A36794990642E126F
:10272E00273F90642E120420906475120448D2073D
:10273E00227BFF1204209064351204481205F82201
:1011B9004464CC000000004464C80000000042649C
:1011C900D000004464C0000000004464C400000072
:0111D9000015
:1036D800120420EF2401FFE43EFEE43DFDE43CFC3F
:1036E80022E4FDFC12043CC30203E9120420120286
:0B36F8008DE47B64FAF9F8C30203E9DB
:1021D8007F307E759064CC1236E9400D9064CC1245
:1021E8000454000000001239627FE87E039064C83E
:1021F8001236E940617F007ECA7D9A7C3B9064621A
:102208001236EC500C9064621236D8906462120454
:10221800487F407E427D0F7C009064661236EC5009
:10222800189064661236D890646612044890646AFE
:102238001236D890646A1204489064C8120420C305
:10224800EF94E8FFEE9403FEED9400FDEC9400FC9F
:102258009064C81204489064C012043C90646212EE
:1022680036F3500E9064621204209064C012044841
:10227800D20C9064C412043C9064661236F3500E7B
:102288009064661204209064C4120448D20DC3906E
:1022980064D1E094889064D0E09413400AE4F0A3F9
:0722A800F0D20CD20DD20EA2
:0122AF00220C
:1011DA00C100C101C102C103C104C105C106C107E1
:1011EA00C108C109C10CC10DC10EC10FC110C11185
:1011FA00C112C113C11441651700426518000041AC
:10120A00651A0041651B0042651C000042651E000C
:01121A0000D3
:1031F00090647FE0FFE4FCFDFE906433020448909D
:103200006466E47B64FAF9F81204200203269064F1
:103210002EE075F00FA42290647DE0FEA3E0FFE4B1
:10322000FCFD22E47BE87A03F9F890646222906462
:083230002EE0FF75F00FA4224F
:1019F900E490642EF0F090642EE0FFC3940340035A
:101A0900021B4674252FF582E43464F583E07003E4
:101A1900021B3D12320E24F3F582E43463F583E0B0
:101A29001204EA1A48801A4D8B1A528C1A5C8E1AC3
:101A390057941AE3981AE7991AEB9A00001AEDD20B
:101A490000021AEDD20C021AEDD20D021AEDD20ED5
:101A5900021AEDD20FEF75F00FA424F5F582E434E4
:101A690063F583E0FDEF75F00FA424F4F582E43407
:101A790063F583E02DFEE43390646EF0A3CEF0129B
:101A8900322E24F6F582E43463F583E0906470F035
:101A9900EF75F00FA424F7F582E43463F583E09041
:101AA9006471F012322E24F8F582E43463F583E090
:101AB900906472F0EF75F00FA424F9F582E43463B1
:101AC900F583E0906473F012320E24FAF582E4345F
:101AD90063F583E0906474F0800AD2128006D21311
:101AE9008002D214906424E0D394004003E014F0FF
:101AF90090642EE0FF2425F582E43464F583E4F054
:101B0900741E2FF582E43464F583E4F074212FF513
:101B190082E43464F583E4F0FE7F0FC006C007FD5C
:101B290012320E24F1F9746335F0FA7B01D007D033
:0D1B39000612054390642EE004F00219FF2F
:011B4600227C
:060E8300200003020F55E0
:100E890090642E12045400000000C200906517E01F
:100E99006003020F5504F01231F07F011212F29033
:100EA90064801231F37F021212F29064811231F3DD
:100EB9007F031212F29064831231F37F041212F24B
:100EC9009064841231F37F051212F2906485123115
:100ED900F37F061212F29064751204201231F97F21
:100EE900071212F29064791204201231F97F081264
:100EF90012F29064821231F37F091212F212322334
:100F09001232081231F97F0B1212F21231FF12312B
:100F1900F97F0C1212F21232389064331204540021
:100F29000000007F0E1212F21232171231F97F10EF
:100F39001212F29064861231F37F111212F2906448
:0C0F49006A1232021231F97F141212F207
:100F550030010AC2011231F07F011212F230020D86
:100F6500C2029064801231F37F021212F230040D36
:100F7500C2049064831231F37F041212F230050D1E
:100F8500C2059064841231F37F051212F230060D0A
:100F9500C2069064851231F37F061212F2300710F3
:100FA500C2079064751204201231F97F071212F2FC
:100FB500300810C2089064791204201231F97F08B4
:100FC5001212F230090DC2099064821231F37F09C1
:100FD5001212F2300A18C20A9064871231F37F1296
:100FE5001212F29064881231F37F131212F2300C50
:100FF50010C20C1232231232081231F97F0B121271
:10100500F2300D0DC20D1231FF1231F97F0C1212A3
:10101500F2300E16C20EE47B64FAF9F890646A1297
:1010250032081231F97F141212F2300F23C20F90D9
:10103500651AE0701B78327C647D017B017A6479E6
:101045006EFE7F0712013012334290651A7401F06B
:1010550030100DC2101232171231F97F101212F230
:1010650030110DC2119064861231F37F111212F204
:10107500301219C2129064621204540000000090EC
:1010850064C812045400000000123962301319C2FA
:1010950013906466120454000000009064C81204A2
:1010A5005400000000123962301419C21490646AA9
:1010B500120454000000009064C81204540000009B
:0510C500001239622257
:10121B005463BF0001015300020473000307530022
:10122B0004091D00050CED5E63D3010102030405E7
:10123B0002060708090A030B0C0D0E0F04101112FE
:10124B0013140515161718195363AC0A0000000088
:0E125B00033241000000140001FF35C90000FD
:0F004E00EC75F006A424D3F582E43463F5832225
:10310F00E4FD906430F0A374FFF0ED25E025E0249A
:10311F00C1F582E43463F583E0FAA3E0D39FEA9E1E
:10312F00401CED25E025E024BFF582E43463F583F0
:10313F00E0FFA3E0906430CFF0A3EFF080050DED3A
:0B314F00B405C7906430E0FEA3E0FF71
:01315A002252
:10372600E4FEFC12004EE0B5071112004EE5822DB4
:10373600F582E43583F583E0FE80050CECB405E301
:02374600AF06CC
:01374800225E
:1035C900E490642EF0A3F07F02123527123703909E
:1035D900642EEEF0A3EFF090642EE0FEA3E0FF125C
:1035E900310F90642EEEF0A3EFF090642EE0A3E08B
:0135F900FFD2
:0135FA0022AE
:1025E4009063BDE0700302269DE0FFA3E0FD123777
:1025F40026E49063BDF0A3F0EF1204EA262201263C
:102604002E04263A0626460926520B265E0E266A14
:1026140010267613268215268E180000269D9064B7
:1026240033120454000000CF806A906433120454BF
:10263400000100CF805E906433120454000000D285
:102644008052906433120454000100D28046906496
:1026540033120454000000D1803A906433120454BD
:10266400000100D1802E9064331204540000007FD6
:1026740080229064331204540001007F8016906419
:1026840033120454000000D0800A906433120454BE
:09269400000100D07F0D1212F2CA
:01269D00221A
:101269004464F2000000004464F600000000446495
:0B127900FA000000004164FEFFC125E8
:0A3A63009064F61204489064FA2201
:102C13007F031235271222B0906539EEF0A3EFF04F
:102C23009064F612043C906539E0FEA3E0FFE4FCF7
:102C3300FD120280123A63120420EF2401FFE43EE6
:0D2C4300FEE43DFDE43CFC9064FA12044800
:102C5000E47FF47E01FDFC9064F212043CC3120395
:102C6000E940379064F2120454000000009064F6CA
:102C70001204209064FA12043C120326123A6312E2
:102C80000454000000009064FEE0906482F09064C0
:0B2C9000F6120454000000FFD20922DD
:101284004464FF000000004465030000000044655E
:0512940007000000004E
:10382800EF2401FFE43EFEE43DFDE43CFC020448D5
:0E383800E47FE27E04FDFC12043CC30203E9BF
:102454007F041235271222B0906539EEF0FAA3EF0B
:10246400F0FB906507120420EF2408FFE43EFEE42D
:102474003DFDE43CFC906507120448D3EB9400EA6C
:1024840094089065035015120420906503123828AF
:102494009064FF12045400000000800712045400EA
:1024A400000000906503123838401190650312044F
:1024B4005400000000E4906486F0D211C390653AA1
:1024C400E094C7906539E0940B9064FF40151204C2
:1024D400209064FF12382890650312045400000011
:1024E400008007120454000000009064FF12383882
:1024F40040129064FF12045400000000906486743B
:1025040001F0D211E47FE87E03FDFC9065071238E8
:0F2514003F400C90650712045400000000D211E4
:012523002295
:101299004465130000000044650B0000000044652C
:0512A9000F0000000031
:103944007C007DF0120516E4FB7A10F9F8020326D8
:0E3970007E007C007D641202037D960202152B
:10252400E490642EF0A3F07F0112352790650F121A
:10253400043CC000C001C002C0031222B0E4FCFD90
:10254400D003D002D001D00012028090650F120493
:102554004890650B120420EF2401FFE43EFEE43DA5
:10256400FDE43CFC90650B120448E47FE87E03FD27
:10257400FC90651312043CC31203E9406290650F9A
:1025840012042090650B12043C12032690650F126E
:10259400044890650F12042012394490642EEFF021
:1025A400E0FF123970A3EFF090650F12045400009D
:1025B400000090650B120454000000009065131293
:1025C40004540000000090642FE0906480F0906454
:0F25D4002EE0FF90647DE4F0A3EFF0D210D2026E
:0125E30022D5
:1012AE004C649C01010203040502060708090A5357
:1012BE0064890A000000000332410000001400029D
:0512CE00FF378C000059
:1037EB00E4FFFDFCAB1BAA1AA919A818C30203E935
:0F37FB00EE75F006A4249CF582E43464F5832275
:10378C0075D9AA1237AC75D9AA7E021237EB700321
:10379C007F01227E041237EB70037F02227FFF220F
:10365600E490653FF0FE1237FBE0B507141237FB26
:10366600E5822DF582E43583F583E090653FF080B1
:0B367600050EEEB402E090653FE0FF9F
:013681002226
:1038DC0090649AE0600FE0FFA3E0FD123656E4908E
:0538EC00649AF0A3F056
:0138F10022B4
:1012D30041601801426019000041601B0041601C1D
:0E12E3000041601D0041601E7F42601FFFFF42
:10343B00E4F561AE3EAD3DAC3C853F178E168D1568
:10344B008C14787EE254FCF2E24514F218E515F286
:10345B0018E516F218E517F2787FE254FBF2E25406
:0D346B00FB4404F2E24401F27F01022C9BBD
:100C310090642EEFF0E0FF24AAF582E43464F5839A
:100C4100E004F074AC2FF582E43464F583E4F074CD
:100C5100AA2FF582E43464F583E0C395635003025F
:100C61000E8290642EE0FB24AAF582E43464F583BD
:100C7100E4F090381B9364016003020E337F01FEA0
:100C8100FDFC74AE2BF582E43464F583E0F9F812CF
:100C9100040DE51F4FF51FE51E4EF51EE51D4DF533
:100CA1001DE51C4CF51CAF1FAE1EAD1DFC780112DD
:100CB10003FAEF5455FBEE5455FAED5455F9EC5443
:100CC10055F8C3E51F9BF53BE51E9AF53AE51D99DD
:100CD100F539E51C98F538AF3BAE3AAD39FC7802F1
:100CE1001203FAEF5433FBEE5433FAED5433F9ECBB
:100CF1005433F8E53B5433FFE53A5433FEE53954B8
:100D010033FDE5385433FCEB2FF53BEA3EF53AE988
:100D11003DF539E83CF538AF3BAE3AAD39FC7804E6
:100D21001203FAEF253BFFEE353AFEED3539FDECC6
:100D31003538FCEF540FF53BEE540FF53AED540FF7
:100D4100F539EC540FF538AF3BAE3AAD39FC7808C4
:100D51001203FAEF253BFFEE353AED3539FDEC355F
:100D610038EFF53BE4F53AEDF539E4F538AE3AAC58
:100D71003878101203FAEF253BFFEE353AFEEFF516
:100D81003BEEF53AE4F539F53890642EE025E024A0
:100D9100B8F582E43464F583E0FEA3E0D39553EE25
:100DA1009552402490642EE0FF25E024B8F582E4BA
:100DB1003464F583E0F552A3E0F55374AE2FF58268
:100DC100E43464F583E0F56490381BE493FFE4FCBC
:100DD100FDFEAB3BAA3AA939A838D31203E9405228
:100DE100AF650565D3EF9403748094805003020EC0
:100DF10082E4F565F51FF51EF51DF51C7F01FEFD6D
:100E0100FCA964A80112040D8F1B8E1A8D198C1870
:100E1100E47F01FEFDFCA80112040D8F338E328D9B
:100E2100318C30E4F552F553756420122D1F433790
:100E31000222E4F5657F01FEFDFC90642EE0FB24B7
:100E4100AEF582E43464F583E0F9F812040DE51B94
:100E51004FF51BE51A4EF51AE5194DF519E5184C34
:100E6100F518E47F01FEFDFCA80312040DE5334FE4
:100E7100F533E5324EF532E5314DF531E5304CF5DE
:020E810030221D
:1008F200E4F56690381FE493FFE566C39F40030268
:100902000C30E56625E02400F582E4346085828AB5
:100912007F548F8B7E0E8E8C758903758889E56670
:1009220025E02400F582E4346085828A8F8B758C01
:1009320012758904758889E56625E02408F582E444
:100942003460F583E0FCA3E0C3950FEC950E502EC6
:10095200E56625E02414F582E43460F583E0FCA327
:10096200E0C39513EC95125015AF600560EF940249
:1009720074809480400BE4F5605337FD8003E4F506
:1009820060E53730E125E56625E024B8F582E434F8
:1009920064F583E4F0A3F0E56625E024BCF582E487
:1009A2003464F583E4F0A3F0020A40E56625E0240E
:1009B20008F582E4346085828A8E8B758C0A75898B
:1009C200267588892088FDE5F130E00875F107E495
:1009D200F50AF50BAE0AE50B7802C333CE33CED857
:1009E200F9FFE56625E024B8F582E43464F583EE88
:1009F200F0A3EFF0E56625E02414F582E434608587
:100A0200828A758B12758C0A758927758889208868
:100A1200FDE5F130E00875F107E4F50AF50BAE0AE1
:100A2200E50B7802C333CE33CED8F9FFE56625E075
:100A320024BCF582E43464F583EEF0A3EFF0E566BE
:100A420025E024B0F582E43464F583E0FEA3E07887
:100A520002CEC313CE13D8F9F5518E50E56625E0C8
:100A620024B8F582E43464F583E0FEA3E0FF903815
:100A720017E493FC740193FDC3EF9DEE9C4017E5D0
:100A82006625E024BCF582E43464F583E0FEA3E04D
:100A9200C39DEE9C50028068E56625E024B8F5828D
:100AA200E43464F583E0FEA3E0C39551EE95504033
:100AB2001CE56625E024BCF582E43464F583E0FE9F
:100AC200A3E0C39551EE95504003020B4C74A82548
:100AD20066F582E43464F583E004F074A82566F5D3
:100AE20082E43464F583E0FF90381CE493FEEFD394
:100AF2009E406474A82566F582E43464F583E4F0CC
:100B0200E56625E02404F582E43460F583E0FEA383
:100B1200E0FFE56625E02408F582E43460F583EE23
:100B2200F0A3EFF0E56625E02410F582E43460F5E9
:100B320083E0FEA3E0FFE56625E02414F582E434B9
:100B420060F583EEF0A3EFF0800D74A82566F582C0
:100B5200E43464F583E4F0E56625E02404F582E4F8
:100B6200346085828AE56625E02400F582E43460FB
:100B720085828B758C0A7589207588CB2088FDE566
:100B8200F130E00875F107E4F50AF50BE56625E0BA
:100B92002404F582E4346085828A758B547F0E8F3B
:100BA2008C7589237588897E0A8E8A8F8BE56625E6
:100BB200E02404F582E4346085828CE4F58975884A
:100BC20029E56625E02410F582E4346085828AE511
:100BD2006625E02400F582E4346085828B8E8C7574
:100BE20089207588CB2088FDE5F130E00875F10792
:100BF200E4F50AF50BE56625E02410F582E434609D
:100C020085828A758B547F0E8F8C758924758889AD
:100C1200758A0A8F8BE56625E02410F582E434603C
:0F0C220085828CE4F58975882905660208F5221C
:1014F800E4F56690381FE493FFE566C39F40030256
:1015080016B0E56625E024B0F582E43464F583E09E
:10151800FEA3E07802CEC313CE13D8F9F5518E504E
:10152800E56625E024B8F582E43464F583E0FEA39B
:10153800E0D39551EE9550402EE56625E024BCF5A4
:1015480082E43464F583E0FEA3E0D39551EE955030
:10155800401574AC2566F582E43464F583E4F0AF95
:1015680066120C310216AB90381EE493FFC3E551A6
:101578009FFFE5509400FED3EF9400EE94004002E4
:1015880080047E007F00E56625E024B8F582E43417
:1015980064F583E0FCA3E0C39FEC9E400302169E23
:1015A80090381EE493FFC3E5519FFFE5509400FE79
:1015B800D3EF9400EE9400400280047E007F00E5A3
:1015C8006625E024BCF582E43464F583E0FCA3E0FE
:1015D800C39FEC9E400302169E74AA2566F582E41A
:1015E8003464F583E4F074AC2566F582E43464F57C
:1015F80083E004F074AC2566F582E43464F583E096
:10160800C3956350030216AB74AC2566F582E434C7
:1016180064F583E4F07F01FEFDFC74AE2566F58277
:10162800E43464F583E0F9F812040D1203B8E51FF9
:101638005FF51FE51E5EF51EE51D5DF51DE51C5CED
:10164800F51CE47F01FEFDFCA966A80112040D1239
:1016580003B8E5335FF533E5325EF532E5315DF524
:1016680031E5305CF530E47F01FEFDFC74AE2566A3
:10167800F582E43464F583E0F9F812040D1203B836
:10168800E51B5FF51BE51A5EF51AE5195DF519E529
:10169800185CF518800D74AC2566F582E43464F5A1
:0916A80083E4F005660214FB2244
:102D1F00E4F56690381FE493FFE566C39F506EE5B8
:102D2F006625E024B8F582E43464F583E4F0A3F07B
:102D3F00E56625E024BCF582E43464F583E4F0A372
:102D4F00F0E56625E02404F582E43460F583E0FEC7
:102D5F00A3E0FFE56625E02408F582E43460F583FF
:102D6F00EEF0A3EFF0E56625E02410F582E4346081
:102D7F00F583E0FEA3E0FFE56625E02414F582E489
:0E2D8F003460F583EEF0A3EFF0056680862237
:10294000E4F56690381FE493FFE566C39F506790F7
:102950006018E0FF7E00C39410748094805053EFA1
:102960009408748094804025E56625E02400F58273
:10297000E43460F583E0FEA3E0FFE56625E024048F
:10298000F582E43460F583EE8FF012026AE5662585
:10299000E02400F582E43460F583E0FEA3E0FFE587
:1029A0006625E02410F582E43460F583EE8FF012A2
:1029B000026A0566808D906018E0C394107480945C
:1029C0008040054337048006906018E004F07F01E2
:0329D000022C9B3B
:102D9D00E4FFFEFDFCAB1BAA1AA919A818C3120368
:102DAD00E9606390601AE004F07006906019E00429
:102DBD00F0903813E493FE740193FF4E602ED39080
:102DCD00601AE09F906019E09E4021E4F0A3F0F5B9
:102DDD001FF51EF51DF51CF533F532F531F530F502
:102DED001BF51AF519F518C221022D1F903815E49F
:102DFD0093FE740193FFD390601AE09F906019E0E9
:0D2E0D009E400AD22122E4906019F0A3F04B
:012E1A002295
:0516B10090645CEFF005
:1016B600A3E0FCA3E0FDA3E0FEA3E0F54C8E4B8D7A
:1016C6004A8C497884E2F50A08E2F50B758A0875B2
:1016D6008B49758C4575881D2088FDE4FFFEFDFC51
:1016E600AB48AA47A946A845D31203D34006AC4542
:1016F600A8048013AF48AE47AD46AC451203C5AB50
:1017060007AA06A905A80490601FE0FEA3E0FFE46F
:10171600FCFDC31203D35041E4FFFEFDFCAB48AA17
:1017260047A946A8451203D34006AF48AE47800BEB
:10173600AF48AE47AD46AC451203C590601FEEF00C
:10174600A3EFF090645CE025E024B4F582E4346411
:10175600F583E0A3E090601EF0903810E493FE74E9
:101766000193FFD3906020E09F90601FE09E501B86
:1017760090645CE025E024B4F582E43464F583E00B
:10178600A3E090601EF090601B8079E4FFFEFDFCF4
:10179600AB48AA47A946A845D31203D34034906460
:1017A6005CE0FF25E024B4F582E43464F583E0FCD4
:1017B600A3E0D39400EC9400404DEF25E024B4F56B
:1017C60082E43464F58374FFF5F012026A90601CBB
:1017D600803290645CE0FF25E024B4F582E4346452
:1017E600F583E0FCA3E0C3947FEC94005019EF2549
:1017F600E024B4F582E43464F583E475F001120262
:101806006A90601D7401F090601CE064017011A381
:10181600E06401700B90601CF0A3F090601B04F074
:1018260090601BE06401703590601EE0FF90645C80
:10183600E025E024B4F582E43464F583E4F0A3EF14
:10184600F074FF90601FF0A3F090601E747FF0E4C8
:0F18560090601CF0A3F090601BF07F01227F00D8
:011865002260
:102EFE00E490645BF090380A12042C780112040DF1
:102F0E0090645D120448AF611216B1EF6022056144
:102F1E00E53730E4095337EF90645B7401F0903875
:102F2E001FE493FFE561C39F4006E4F5614337104C
:102F3E00C390380E7401939562E493940040089008
:102F4E00645BE064017005D22002343BE4FF122C76
:012F5E009BD7
:012F5F00224F
:102C9B00EF70607F01FEFDFC74AE2561F582E434BC
:102CAB0064F583E0F9F812040D8F178E168D158CD1
:102CBB0014787EE254FCF2E24514F218E515F21892
:102CCB00E516F218E517F2E56125E024B4F582E488
:102CDB003464F583E0A3E0547FFF7878E254804FAF
:102CEB00F2787FE254FBF2E254FB4404F2E244013B
:102CFB00F2801CE56125E024B4F582E43464F583AD
:102D0B00E0A3E0547FFF7878E254804FF2787FE2C3
:042D1B004402F2225A
:1028A500E490653DF0A3F090653DE0FEA3E0FFC335
:1028B5009488EE94035031EF24F2FFEE34088F82B2
:1028C500F583E493FF90653EE02421FD90653DE0AE
:1028D50034608D82F583EFF090653EE004F070C7BB
:0828E50090653DE004F080BFA6
:1028ED009063A97401F0A37460F0A37421F0E4F572
:1028FD0061F537F536F535F534C220C221F51FF5F2
:10290D001EF51DF51CF533F532F531F530F51BF5DA
:10291D001AF519F51890381993FF90381DE493FEA8
:10292D00A807088002C333D8FCF563756420E4FF63
:03293D00022C9BCE
:102E1B007884E2F50A08E2F50BAE0A7803CEC31309
:102E2B00CE13D8F97802C333CE33CED8F9FFE56190
:102E3B0025E02400F582E43460F583EEF0A3EFF097
:102E4B0020200F903812E4937005D22002343B02FD
:102E5B002EFE056190381FE493FFE561C39F401F71
:102E6B00787FE254FBF2E254FB4404F2E24401F2B9
:102E7B00E4F561E53720E203022940433701227F65
:052E8B0001122C9B2246
:053A7B000562022D9D13
:1037AC00E53730E01A9063A9A3E0FAA3E0F912051B
:1037BC00101214F8E4F5617F01122C9B5337FE2292
:102B93000231A6E493A3F8E493A34003F68001F281
:102BA30008DFF48029E493A3F85407240CC8C33343
:102BB300C4540F4420C8834004F456800146F6DF12
:102BC300E4800B01020408102040809010CAE47EC8
:102BD300019360BCA3FF543F30E509541FFEE49307
:102BE300A360010ECF54C025E060A840B8E493A3CE
:102BF300FAE493A3F8E493A3C8C582C8CAC583CAF9
:102C0300F0A3C8C582C8CAC583CADFE9DEE780BEB0
:0112F10000FC
:10006000E709F608DFFA8046E709F208DFFA803E82
:1000700088828C83E709F0A3DFFA8032E309F6086F
:10008000DFFA8078E309F208DFFA807088828C83D7
:10009000E309F0A3DFFA806489828A83E0A3F6088B
:1000A000DFFA805889828A83E0A3F208DFFA804C65
:1000B00080D280FA80C680D4806980F2803380103C
:1000C00080A680EA809A80A880DA80E280CA8033A5
:1000D00089828A83ECFAE493A3C8C582C8CCC5831D
:1000E000CCF0A3C8C582C8CCC583CCDFE9DEE780ED
:1000F0000D89828A83E493A3F608DFF9ECFAA9F06C
:10010000EDFB2289828A83ECFAE0A3C8C582C8CCC1
:10011000C583CCF0A3C8C582C8CCC583CCDFEADEDA
:10012000E880DB89828A83E493A3F208DFF980CC3C
:1001300088F0EF60010E4E60C388F0ED2402B40435
:100140000050B9F582EB2402B4040050AF232345DC
:0601500082239000B07351
:10015600BB010689828A83E0225002E722BBFE02A7
:09016600E32289828A83E49322DA
:10016F00BB010CE58229F582E5833AF583E0225045
:10017F0006E92582F8E622BBFE06E92582F8E2228F
:0D018F00E58229F582E5833AF583E49322A9
:10019C00BB010FF8E58229F582E5833AF583E02867
:1001AC00F0225009C58229F8E58226F622BBFE0909
:1001BC00C58229F8E22582F222F8EA2583F583E943
:0301CC0093282253
:1001CF00BB010689828A83F0225002F722BBFE010F
:0201DF00F32209
:1001E100F8BB010DE58229F582E5833AF583E8F054
:1001F100225006E92582C8F622BBFE05E92582C800
:02020100F222E7
:10020300EF8DF0A4A8F0CF8CF0A428CE8DF0A42E0F
:02021300FE22C9
:10021500BC000BBE0029EF8DF084FFADF022E4CCCD
:10022500F875F008EF2FFFEE33FEEC33FCEE9DEC96
:10023500984005FCEE9DFE0FD5F0E9E4CEFD22EDDC
:10024500F8F5F0EE8420D21CFEADF075F008EF2F26
:10025500FFED33FD4007985006D5F0F222C398FD17
:050265000FD5F0EA22B4
:10026A00C5F0F8A3E028F0C5F0F8E582158270021F
:06027A001583E038F022BC
:0D028000EF2BFFEE3AFEED39FDEC38FC22CD
:0E028D00C3EF9BFFEE9AFEED99FDEC98FC226C
:10029B00E88FF0A4CC8BF0A42CFCE98EF0A42CFC02
:1002AB008AF0EDA42CFCEA8EF0A4CDA8F08BF0A480
:1002BB002DCC3825F0FDE98FF0A42CCD35F0FCEBDF
:1002CB008EF0A4FEA9F0EB8FF0A4CFC5F02ECD39A4
:0F02DB00FEE43CFCEAA42DCE35F0FDE43CFC2211
:1002EA0075F008758200EF2FFFEE33FECD33CDCCCB
:1002FA0033CCC58233C5829BED9AEC99E58298404E
:10030A000CF582EE9BFEED9AFDEC99FC0FD5F0D62A
:10031A00E4CEFBE4CDFAE4CCF9A88222B800C1B954
:10032A000059BA002DEC8BF084CFCECDFCE5F0CB92
:10033A00F97818EF2FFFEE33FEED33FDEC33FCEBCB
:10034A0033FB10D703994004EB99FB0FD8E5E4F986
:10035A00FA227818EF2FFFEE33FEED33FDEC33FC73
:10036A00C933C910D7059BE99A4007EC9BFCE99A67
:10037A00F90FD8E0E4C9FAE4CCFB2275F010EF2FAC
:10038A00FFEE33FEED33FDCC33CCC833C810D707AC
:10039A009BEC9AE899400AED9BFDEC9AFCE899F8E7
:0E03AA000FD5F0DAE4CDFBE4CCFAE4C8F9227A
:0D03B800CFF4CFCEF4CECDF4CDCCF4CC22DA
:0E03C500C3E49FFFE49EFEE49DFDE49CFC2249
:1003D300EB9FF5F0EA9E42F0E99D42F0EC6480C8A1
:0603E30064809845F02241
:1003E900EB9FF5F0EA9E42F0E99D42F0E89C45F06A
:0103F90022E1
:1003FA00E8600FECC313FCED13FDEE13FEEF13FFE1
:03040A00D8F12204
:10040D00E8600FEFC333FFEE33FEED33FDEC33FC4D
:03041D00D8F122F1
:0C042000E0FCA3E0FDA3E0FEA3E0FF224F
:10042C00E493FC740193FD740293FE740393FF2216
:0C043C00E0F8A3E0F9A3E0FAA3E0FB2243
:0C044800ECF0A3EDF0A3EEF0A3EFF02227
:10045400A8828583F0D083D08212046B12046B12BD
:10046400046B12046BE473E493A3C583C5F0C583E2
:10047400C8C582C8F0A3C583C5F0C583C8C582C8F2
:010484002255
:0C048500A42582F582E5F03583F5832282
:09049100E0FBA3E0FAA3E0F9226C
:10049A00F8E0FBA3A3E0F925F0F0E58215827002EB
:0704AA001583E0FA38F0228F
:0904B100EBF0A3EAF0A3E9F0224C
:1004BA00BB010DE58229F582E5833AF583020491B1
:1004CA005007E92582F802056FBBFE07E92582F885
:1004DA00020578E58229F582E5833AF583020581EA
:1004EA00D083D082F8E4937012740193700DA3A3A1
:1004FA0093F8740193F5828883E4737402936860B5
:06050A00EFA3A3A380DFB4
:060510008A838982E47376
:10051600EC8EF0A4CCC5F0CCCDF8EFA4CEC5F02D72
:10052600FDE43CFCE8A42EC8C5F03DFDE43CFCEF30
:0D053600A4FFE5F028FEE43DFDE43CFC22BE
:10058D00E5402435F582E43464F583E0054022909E
:10059D006432301C03906435E475F00112049A0244
:1005AD0001562015E97F2ED2158018EF540F249097
:1005BD00D43440D4FF30190BEF24BFB41A005003CC
:1005CD002461FFE541600215410544E544700205D3
:1005DD0043301C0E906432E475F00112049AEF0260
:1005ED0001CF0239547403D21C8003E4C21CF540C0
:1005FD009064321204B1E4F541F543F544E54160F0
:10060D00077F201205D080F57542FFC216C215C2B4
:10061D0017C218C21AC21BC21D12059CFF700D30E5
:10062D001C057F001205E1AF44AE4322B4255FC225
:10063D00D5C21912059CFF24D0B40A00501A75F0CA
:10064D000A784130D50508B6FF0106C6A426F62066
:10065D00D5047002D21880D924CFB41A00EF5004FB
:10066D00C2E5D2190207E2D21680C6D21580C0D2D9
:10067D001780BCD2D580BAD21A80B47F201205D093
:10068D002017077401B5410040F112058DFF1205C9
:10069D00D002060AD21DD21B809512058DFB1205C4
:1006AD008DFA12058DF94A4B700679B37A087BFFE6
:1006BD0020172EE541602A7E008E8275830012017F
:1006CD006F60060EEE654270F0C2D5EBC0E0EAC079
:1006DD00E0E9C0E0EE120829D0E0F9D0E0FAD0E070
:1006ED00FB120156FF60AAEBC0E0EAC0E0E9C0E0F2
:1006FD001205D0D0E02401F9D0E03400FAD0E0FBAF
:10070D00E5420460DCD542D980877BFF7A087925E4
:10071D00D217809C791080027908C21BC21D8008F7
:10072D00D2D5790A8004790AC2D5E542047002F562
:10073D0042E4FAFDFEFF12058DFC7B082016131214
:10074D00058DFD7B1030150A12058DFE12058DFFEE
:10075D007B20EC3382D592D55013C3E43015069F20
:10076D00FFE49EFEE42016039DFDE49CFCE4CBF823
:10077D00C216EC700CCFCECDCCE824F8F870F38017
:10078D0017C3EF33FFEE33FEED33FDEC33FCEB33EC
:10079D00FB994002FB0FD8E9EB301605F8D0E0C409
:1007AD0048B216C0E00AEC4D4E4F78207B0070C267
:1007BD00EAB5420040BCC0E012082BD0F0D0E020DA
:1007CD001604C4C0E0C4B216C0F01205B9D0F0D5FD
:1007DD00F0EB02060A1204EA06A753072158067821
:1007ED004C06744207254F072D44072D49068D43AE
:0807FD000733550717460717E3
:100805004507174708D350067C2D06802E06A32BD7
:1008150006842306A12008BC2A063C480000069B46
:100825003F3F3F00790AA2D5201814301A09B910A4
:10083500020404B9080104A2D5201B0250010420BA
:1008450017689217B541005034C0E07F2030181961
:100855007F30A217721B721A500F120882C217C27C
:100865001BC21AC21D7F30800F301A03E9C0E01287
:1008750005D0301A03D0E0F9D0E0B541CC301A17D5
:100885007F30B9100C1205D07F583019077F78805A
:1008950003B908031205D03017057F2D0205D07F57
:1008A50020201DF87F2B201BF322921780CF286E66
:1008B500756C6C2900D21612058D3016F8C21678A3
:1008C5004130D50108F602063C2D50434958120522
:1008D5008D2403B405004001E49008CE931205C1B0
:0D08E500743A1205C1D218754104020721B2
:10054300EF4E6012EF60010EEDBB010B89828A83CF
:10055300F0A3DFFCDEFA2289F05007F709DFFCA9DC
:0C056300F022BBFEFCF309DFFCA9F02233
:09056F00E6FB08E6FA08E6F922B1
:09057800E2FB08E2FA08E2F922B4
:0C058100E493FB740193FA740293F922D6
:00000001FF
