:03000000022F9834
:0C2F9800787FE4F6D8FD758166022FDF1B
:0C000300000000000000000000000000F1
:0B3D0400EF1FAC0670011E4C70F62291
:103B2A00AB07AA06EB1BAE0270011A4E60097FAA08
:083B3A007E05123D0480ED221E
:10248900907120E04480F07F057E00123D04E4FF56
:10249900FE123B2A75A75575AC5C9071327450F0E9
:1024A9009071307403F0907136742FF090715C74F0
:1024B90003F090715BE054FCF07F18EF2466FDE4B3
:1024C90034718D82F583E4F00FEFB433EE9040114F
:1024D900E4935407FF90711CE054F84FF0904017B3
:1024E900E493547FFF90711DE054804FF0904010A9
:1024F900E493FF5401C43333335480FE907123E0D5
:10250900547F4EF0EFC313543F4440FFA3E054807F
:102519004FF0904012E493FF540FFE907146E0543F
:10252900F04EF0EFC4540FFF90714FE054F04FF0AC
:10253900904013E493543FFF907140E054C04FF032
:10254900904014E493907126F0904015E4939071B3
:0B25590028F0904016E49390712AF0E7
:012564002254
:103A9800000009C4006400C80101F4004B000A00DA
:0E3AA80000010F040502000905DC000A05DC20
:103B4200E2FE745E2FF582E43464F583E02224FC05
:083B520025E0FDF874030822D0
:101FE600E4FF123B44C394085058123B44C3940484
:101FF600502878C2C000123B42123B528002C333C3
:10200600D8FCF45ED000F278C2C000123B42123B0C
:10201600528002C333D8FC02211478C3C000123B9D
:1020260042123B508002C333D8FCF45ED000F278F3
:10203600C3C000123B42123B508002C333D8FC029D
:102046002114123B44C394084068123B44C39410C5
:102056005060123B44C3940C502C78D2C000123B03
:102066004224F8123B528002C333D8FCF45ED000FF
:10207600F278D2C000123B4224F8123B528002C3CF
:1020860033D8FC02211478D3C000123B4224F41248
:102096003B528002C333D8FCF45ED000F278D3C042
:1020A60000123B4224F4123B528002C333D8FC0296
:1020B6002114123B44C39414502B78E2C000123B07
:1020C6004224F0123B528002C333D8FCF45ED000A7
:1020D600F278E2C000123B4224F0123B528002C367
:1020E60033D8FC802978E3C000123B4224EC123B33
:1020F600528002C333D8FCF45ED000F278E3C0000D
:10210600123B4224EC123B528002C333D8FC4ED021
:0B21160000F20FEF64026003021FE8FC
:01212100229B
:03005D0002364028
:10364000C0E0C0F0C083C082C0D075D000C000C050
:1036500001C002C003C004C005C006C0077881E2F3
:1036600030E607E24440F2123227D007D006D005F8
:10367000D004D003D002D001D000D0D0D082D083EB
:05368000D0F0D0E032A3
:10348200D2AF43AB0843B6C0907132E04440F04340
:10349200AB087877743FF208744BF2787A7430F2A2
:1034A200788914F27871744FF2187427F278727472
:1034B200A8F2087410F208E4F208F208F2787E74B6
:0F34C200D0F2087404F208741EF2087402F222A9
:102D5500E4FBEB25E025E024AEF582E4343AF58387
:102D6500740193FF745E2BF582E43464F583EFF010
:102D7500EB25E025E024B0F582E4343AF583E493CD
:102D8500FE740193FFEB25E02468F582E43464F5D5
:102D950083EEF0A3EFF0EB25E02454F582E43464F0
:102DA500F583E4F0A37441F0E47F01FEFDFC745E5D
:102DB5002B123B47F9F81203B3E53F4FFFE53E4EB3
:102DC500FEE53D4DFDE53C4C8F3F8E3E8D3DF53C92
:102DD5000BEB64026003022D57121FE6122C27022B
:022DE500348236
:103BE70078C2E254BFF2E24440F2907181E4F022DD
:0D3C430078C3E254CFF278C0E24440F22290
:0D3C500078C3E2543FF278C0E24480F222D3
:0D3C5D0078D2E254FCF278D0E24401F22269
:0D3C6A0078D2E2543FF278D0E24408F22212
:0D3C770078D3E254FCF278D0E24410F2223F
:0D3C840078E2E254F3F278E0E24402F2222A
:0D3C910078E2E254CFF278E0E24404F2223F
:0D3C9E0078E2E2543FF278E0E24408F222BE
:0D3CAB0078E3E254F3F278E0E24420F222E4
:0D3CB80078E3E2543FF278E0E24480F2222B
:0D3CC50078F2E254FCF278F0E24401F222C1
:0717260044600C000000000C
:083D1A007890E2541FF2E2224E
:1037C700E5B154F342B153A8DFD2AF7892E4F208DF
:1037D700F27890E254E3F2E2441CF2E254FCF2E2A3
:1037E7004401F208E2547FF2E24420F27895740132
:0C37F700F2187476F2123D1A44A0F2227F
:0C3CEC00123D1A44C0F243A820D2AF22BF
:103BF700123D1A44A0F27892E4F208F253A8DF22A9
:03001E000234D1D8
:1034D100C0E0C0F0C083C082C0D075D000C000C0C1
:1034E10004C005C006C0077891E230E71DE24480C0
:1034F100F290600C1203C6EF2401FFE43EFEE43DAE
:10350100FDE43CFC90600C1203EED007D006D00520
:0F351100D004D000D0D0D082D083D0F0D0E03220
:10172D004464E0000000004464DB000000004164FC
:02173D00DF00CB
:10352000C374FF9BFB74FF9AFAE499F9E498F8E0FE
:10353000FEA3E0FFE4FCFDD302038FC374FF9BFFF7
:1035400074FF9AFE74FF99FD74FF98FC1203E2C3A6
:1035500002038F1203C69065030203E2EE8FF0129E
:0A3560000203C3229065030203C6B4
:10374D00E5B154CF42B153A8BFD2AF75D102789C29
:10375D00E254E3F2E2441CF2E254FCF2E24401F2E0
:10376D0008E2547FF2E24420F278A17401F2187459
:0D377D0076F2789CE2541FF2E244A0F222A2
:103C0700789CE2541FF2E244C0F243A840D2AF22AC
:101E43009064E01203C69064FF1203EE90650312E0
:101E530003FA000000009064E01203FA000000009F
:101E63009064DB1203E29064FF1203C61202269011
:101E730065031203EE9064DB1203FA000000009086
:101E83006539E0FEA3E0FFE4FCFD7BFF7AFFF9F890
:101E9300D3120379400C123564906539EE8FF0123A
:101EA300020312355690649E123520404212356467
:101EB30090649E12355C90649FE0946490649EE00D
:101EC3009400402BE0FFA3E090649CCFF0A3EFF0DD
:101ED300E490649EF0A3F09064941203C690649817
:101EE3001203EE9064941203FA00000000D224124D
:101EF300355690648D123520404212356490648DBE
:101F030012355C90648EE0946490648DE09400409C
:101F13002BE0FFA3E090648BCFF0A3EFF0E4906499
:101F23008DF0A3F09064831203C69064871203EECE
:101F33009064831203FA00000000D22312355690F6
:101F4300647612353B500F906476123553120219A2
:101F53009064761203EE1235569064A112353B500D
:101F63000F9064A11235531202199064A11203EE6B
:101F73009064F3E0B4011F1235649064F412355C8D
:101F83009064F5E094C49064F4E094094008E4F0AC
:101F9300A3F09064F3F09064F1E0B4011F12356490
:101FA3009064ED12355C9064EEE094649064EDE02F
:101FB30094004008E4F0A3F09064F1F09064F2E040
:101FC300B4011F1235649064EF12355C9064F0E045
:101FD30094649064EFE094004008E4F0A3F090640C
:021FE300F2F01A
:011FE50022D9
:0300210002336C3B
:10336C00C0E0C0F0C083C082C0D075D000C000C027
:10337C0004C005C006C007789DE230E72DE244800A
:10338C00F29064E01203C6EF2401FFE43EFEE43D3C
:0A339C00FDE43CFC9064E01203EE37
:1033A6009064DFE004F0E0C3940A4004E4F0D2261F
:1033B600D007D006D005D004D000D0D0D082D0839C
:0533C600D0F0D0E03260
:04173F00C11DC11EE9
:103AB6001203C6EF2401FFE43EFEE43DFDE43CFCB8
:0E3AC6002274FFFFFEFDFC1203E2C302038F19
:10370D00E5B254FC42B253A9FED2AF75D10490710B
:10371D0000E054E3F0E0F0E054FCF0E04401F09000
:10372D0071057409F0907104745FF0907100E054AC
:10373D001FF0E044A0F0A3E0547FF0E04420F0221D
:103BB400907100E0541FF0E044C0F043A901D2AF7B
:013BC40022DE
:030024000230A8FF
:1030A800C0E0C0F0C083C082C0D075D000C000C0EE
:0D30B80001C002C003C004C005C006C0076F
:1030C500907101E030E744E04480F030821B201D20
:1030D50014906494123AC7500C906494123AB690C6
:1030E50064941203EED21D8002C21D30951B201E72
:1030F50014906483123AC7500C906483123AB690C8
:0B31050064831203EED21E8002C21E83
:10311000D007D006D005D004D003D002D001D00013
:0B312000D0D0D082D083D0F0D0E032BD
:101743005E63E100000000000000000000000000F4
:101753000000000000000000000000000000000086
:10176300004363FF00000043640300000043640779
:10177300000000C122416402004163DC00416406B1
:08178300004463DD00000000DA
:103429009063DD1203C674032FF582E43464F583D7
:1034390022906534E0FF24FFF582E43463F58322AA
:103449007D00EF75F00AA424E1F9746335F0FA7B85
:103459000122E5822EF582E43583F58322E4F0909A
:103469006406E014F090000A229063DCE4F09064B2
:0934790002F0229063DD0203E27F
:0E3C27009063D4EFF0123CD29063D4E0FF2201
:10398D0078C2E2543FF2E254FCF2E24440F290710C
:10399D0081E04404F090716EE04401F043AA20D21E
:0B39AD00AF75D60175D59F75D21122B1
:03004B000221226D
:10212200C0E0C0F0C083C082C0D075D000C000C083
:0D21320001C002C003C004C005C006C00704
:10213F009063DBE4F0E5D420E503022241E5D7F01C
:10214F00202204E0B4A509906406E0C39403400381
:10215F000222349063DBE0B4A515D222123472123E
:10216F003BF790600C1203FA00000000123CEC9059
:10217F0063DCE0B401089063DBE0906402F012349A
:10218F0029E060030222419063DBE0FF12347C9070
:10219F0063E175F00AEB12042BEA75F00AA42583AC
:1021AF00F583C083C0829063DCE0FE04F0D082D060
:1021BF008312345BEFF090600C1203FA0000000002
:1021CF00906402E0606CE0FF9063DCE06F706390FE
:1021DF006402E0FB9063DD1203C674FF2F123441DB
:1021EF00EBF0C2221234721234297401F09064069B
:1021FF00E004F09063DD1203C6EF2401FFE43EFE1E
:10220F00E43DFDE43CFC9063DD1203EEE47F03FE4E
:10221F00FDFC12347CC312038F400A9063DD12035E
:10222F00FA00000000123BF790600C1203FA000056
:02223F0000009D
:10224100D007D006D005D004D003D002D001D000F1
:0B225100D0D0D082D083D0F0D0E0329B
:0D3CD200E5D430E4FB8FD7E5D430E4FB22CD
:10225C00E4906534F0A3F0C2217F0AFEFDFC90608F
:10226C000C1203E2D312038F4019123BF790600C4F
:10227C001203FA00000000E49063DCF0906402F0BA
:10228C00C22222E4906534F0906534E0FFC39403DD
:10229C00400302237F74032F123432E070030223B5
:1022AC0076906534E075F00AA424E2F582E4346398
:1022BC00F583E0FE74FF2F123441E06E601A9065D6
:1022CC0034E02403123432123466C083C0821234D8
:0822DC0049D007D0060204C33B
:1022E400E4906536F0906535F0A3F012343AE014CA
:1022F400FE906536E0FDC39E5022EF75F00AA424DB
:10230400E1F582E43463F583E5822D12345EE0FF67
:10231400906535E02FF0A3E004F080CF906535E0C0
:10232400F012343AE0FEEF75F00AA424E0F582E4FA
:102334003463F58312345BE0FF906535E06F60022F
:02234400D221A4
:1023460030211DC221906534E0FF2403123432127D
:102356003466C083C082123449D007D0061204C343
:10236600906534E02407F582E43464F5837401F063
:09237600906534E004F0022294A9
:01237F00223B
:05178B0042653700007B
:0F000F001202269064C71203EE9064C70203C664
:1039E30078C3E24403F2E2440CF218E2440CF2E23C
:1039F3004403F2907123E054D8F0E054BFF0E04464
:093A03001EF09071227407F022FC
:1038D500EF24FE600F146011146013240370127539
:1038E5009904800D75990580087599018003E4F5A3
:0E38F500997869E24448F27F017E00023B2A86
:103A34007869E24401F2786BE230E1FA7402F2AFA1
:103A440093EF75F010A4FFAEF0E594C4540FFDEFAE
:033A54004DFF2201
:10256500E49064C5F0A3F0A31203FA00000000E4B0
:102575009064CBF0A3F074FFA3F0A3F0E4A3F0F014
:10258500123A349064C5EEF0A3EFF09064CFE0C347
:10259500940240549064CBE0FEA3E0FF9064C5E054
:1025A500FCA3E0FDD39FEC9E40089064CBECF0A328
:1025B500EDF09064CDE0FEA3E0FFC3ED9FEC9E50EF
:1025C5000F9064C5E0FFA3E09064CDCFF0A3EFF0DA
:1025D5009064C71203E29064C5E0FEA3E0FFE4FC4B
:1025E500FD120219A31203EE9064CFE004F0E0C3DC
:1025F5009414408C120018C006C0079064CBE0FE0E
:10260500A3E0FBAA06E4F9F8D007D00612000FC034
:1026150006C0079064CDE0FEA3E0FBAA06E4F8D06F
:1026250007D00612000F78041203A09064C5EEF0DF
:03263500A3EFF020
:01263800227F
:103BC50075AF3F8FAF75AEB975A402E5A530E1FBC2
:013BD50022CD
:1038030090651C12045775AF3F8FAF90651FE0C3DF
:1038130094014022E5A530E0FB90651CE475F001BE
:10382300120440120156F5A675AEB975A401906550
:073833001FE014F080D52214
:10386F009063AD1204579063B0E06027AE070FEE80
:10387F002400FDE4343F8D82F583E493FE9063AD25
:10388F00E475F001120440EE1201CF9063B0E01422
:04389F00F080D322C0
:10390300A3F078E3E254FCF2E24401F2907192E412
:10391300F0229063B2E004F0E0C3940822C2A4C290
:0E39230096D2977F04FE22FFE0FEA80708223E
:1033CB00E4FF78D3E2543FF2E24440F290718DE493
:1033DB00F0E254CFF2E24410F290718CE4F0123927
:1033EB0005C297C29612004EEF7030FD7F8C122AE9
:1033FB00287D017F88122A287D017F86122A287D4D
:10340B00017F8A122A28E4FD7F82122A28E4FD7F9D
:0E341B0084122A28E4FD7F80122A280235B48C
:103B1000E4FDEE25E0FEEF30E004EE4401FEEFC3ED
:093B200013FF0DEDB408EBAF0634
:013B29002279
:02329C00AC077D
:10329E00E49063ADF0AF05123B10EC64816019EC65
:1032AE0064836014EC6485600FEC6487600AEC64E0
:0832BE00896005EC648D70438A
:1032C600E49063AEF0A3F0EC64816004ECB4830692
:1032D600EF547FFF8017EC64856004ECB48706EF3B
:1032E600543FFF8008ECB48904EF541FFFEFC45429
:1032F6000FFE9063AEF0EF540FFFA3F0EE75F00AE9
:03330600A42FFFF2
:0133090022A1
:052DE7009063ADEFF068
:102DEC00E4A3F0123903123920123D04E49063AFCE
:102DFC00F0122E5B9063AFE09063AD12392A800223
:102E0C00C313D8FC30E004D2A48002C2A47F047E99
:102E1C0000123D04122E6540D878E3E254FCF2789F
:102E2C00E0E24410F2E49063AFF09063AEE025E092
:102E3C00F0122E5B30A4079063AEE04401F0122E2A
:0E2E4C006540E7C296C297C2A49063AEE0FF55
:102E5A0022C2967F047E00123D0422D2967F047E0F
:0F2E6A0000123D049063AFE004F0E0C39408222F
:053B72009063ACEFF0D0
:103B7700E4FE122DE7AE079063ACE0FFAD0602321C
:013B87009CA1
:082E79009063B0EFF0A3EDF04F
:102E8100E4123903123920123D04E49063B2F012C6
:102E91002EFF9063B2E09063B012392A8002C3130F
:102EA100D8FC30E004D2A48002C2A4122EEE123962
:102EB1001540DCE49063B2F0122EFF9063B2E0FFA4
:102EC1009063B1E0FEA807088002C313D8FC30E08C
:102ED10004D2A48002C2A4122EEE12391540D9C226
:0C2EE100967F047E00123D04C297C2A43C
:102EED00227F047E00123D04D2967F047E00123DA7
:0C2EFD000422C2967F047E00123D0422D5
:0E004E007F80122DE7EF30E0037F00227F015C
:01005C002281
:052A28009063ACEFF02B
:102A2D00A3EDF0EF6480601D9063ACE0FF64826005
:102A3D0014EF6484600FEF6486600AEF64886005AC
:052A4D00EF648C706CC9
:102A5200E49063AEF0A3F09063ADE0FFC3940A404C
:102A620007EF75F00A84A3F09063ADE075F00A8475
:102A7200AFF09063AFEFF09063AEE0FEC454F04F5E
:102A82009063ADF09063ACE0FF64806004EFB482C9
:102A9200099063ADE0547FF080229063ACE0FF6464
:102AA200846004EFB486099063ADE0543FF0800C7B
:0C2AB2009063ACE0B48805A3E0541FF072
:102ABE00E4FD7F8E122E799063ACE0FFA3E0FD1251
:092ACE002E797D807F8E022E79A5
:103AD40090650DE0FD7F80122A2890650CE0FD7F43
:0E3AE40082122A2890650BE0FD7F84022A28BA
:103A5700906511E0FD7F86122A28906510E0FD7FB2
:103A670088122A2890650EA3E02430FD7F8C022A55
:013A77002826
:1035B4007F81123B7290643FEFF07F83123B7290E5
:1035C400643EEFF07F85123B7290643DEFF07F879D
:1035D400123B7290643CEFF07F89123B7290643B23
:1035E400EFF07F8D123B72EF24D0FEE43407906439
:0635F40039F0A3CEF02225
:04179000416541006E
:103BD600F09065150204379000091201E190000C7F
:013BE60022BC
:10130200906515120457E4906518F07FFFA3F0A3CF
:10131200123BD690000112016FFE120156FDEEC380
:101322009D5003021520123BD7900001E41201E107
:1013320090000E120460120490EFF4600890654170
:101342007423F08009906541E06003E014F0123BE1
:10135200D790000312016F6F601590000512016FA4
:10136200600D900004E41201E190000302151C904C
:10137200000512016FFE90000412016FC39E500B14
:10138200123BD7900004740102019C123BD79000DB
:101392000212016FFE6F606BEFF4702E9000061266
:1013A200016FFD90000812016FC39D400D906518FA
:1013B2007408F0A3EEF0A37401F090651AE07037A0
:1013C200123BD790000A7401801D123BD79000088F
:1013D2007401123BE012016F6F906515600E1204EA
:1013E200377401123BDDEF1201E1800B12043790DA
:1013F2000009740112019C90651AE060030214E571
:10140200021490EFF46003021495123BD790000986
:1014120012016FFED39400407290000B12016FFD17
:1014220090000A12016FD39D4051EE94054008903E
:1014320065187405F08036123BD790000912016FCF
:10144200FEC3940440089065187404F0801FEEC334
:10145200940340089065187403F08011EEC394025F
:1014620090651840057402F080037401F0123BD7B6
:1014720090000C12016F9065198063123BD79000A7
:101482000A740112019C90651A800390651A740215
:10149200F08050123BD7900008740112019C90001A
:1014A2000612016FFE90000812016FFDB50608904A
:1014B20065187406F08023123BD790000712016F63
:1014C200B505119065187407123BD6900008EE120C
:1014D20001E1800690651A7402F0906519EFF0A39D
:1014E2007401F090651AE064026029123BD7900003
:1014F2000D12016FB4011DE4123BDD74FF1201E114
:10150200906519E09000111201E1906518E09000D9
:0E151200121201E1123BD7900002EF1201E12C
:0115200022A8
:0B3D0F007379732072657365740A00FD
:103931001233CB123B5A1237C712398D12395F122B
:10394100374D123CDF123D221239E3122D55123749
:0E3951000D123C07123BB47F017E00023B2AA0
:1000270012248975D95590715EE054FEF075D9BBDD
:100037001239317BFF7A3D790F12059E1200007548
:04004700D9AA80F8BA
:10179400602364310000000000000000000000002D
:1017A4000000000000000000000000000000000035
:0717B400000000000000002E
:0C3CF8007B017A6479317408F0E4FF224B
:103B5A007E007F237D007B017A6479311204C39051
:083B6A0063B0123CF802386F51
:0E3C3500E4FF123BC590651F123CF8023803F5
:10368500FA1203C678081203A07E00EB2FFBEE3A70
:10369500FA9064E50203C67E00EB2FFFEE3AFE3397
:1036A50095E0FDFC221203A07E009064E4E022FD7B
:1036B500E433CD2FFBEE3D22FC9064E90203EE904E
:0536C50064E90203C6E8
:05190A009064E4EFF021
:10190F009064E91203FA000000007FA5123CD21286
:10191F0036C4EF24A5FFE43EFEE43DFDE43C123661
:10192F00BD9064E4E0FF6401602DEF64026028EF76
:10193F0064036023EF6404601EEF64056019EF64B5
:10194F00066014EF6409600FEF640A600AEF641118
:10195F006005EF641270237F05121ABF12369612BC
:10196F001AB5C0001236961236AD2405FDE433CDFC
:10197F002FFFEE3D1236A3021A719064E4E0FF646C
:10198F00076014EF6408600FEF640C600AEF640DDA
:10199F006005EF641070387F06121ABF1236967802
:1019AF00081203A0123CD2123696121AB5C000C00C
:1019BF0002C00312369678081236AA24061236B4DD
:1019CF00FAA31203C612369CD003D002021A7190EA
:1019DF0064E4E0FF640B6005EF640F70317F071262
:1019EF003CD29064E4E0FF121A8F121ACBC000C0F1
:1019FF0002C00312369678101236AA24071236B494
:101A0F00A312368512369CD003D002021A7190644D
:101A1F00E4E0640E70547F08123CD29064E4E0FF5F
:101A2F00123CD212369678181203A0121A8F121A7D
:101A3F00CBC000C002C00312369678181236AA2403
:101A4F00081236B4FAA31203C678101203A07E0050
:101A5F00EB2FFBEE3A9064E512368512369CD003DD
:101A6F00D002D0001202191236BE1236C4E4FEFDA7
:101A7F001236BD1236C4123CD27F017E00023B2AC1
:101A8F00123CD29064E51203C678101203A0123CE8
:101A9F00D29064E51203C678081203A0123CD290CC
:101AAF0064E51203C622123CD29064E91203E222CB
:101ABF00123CD29064E4E0FF123CD222123CD2904E
:061ACF0064E91203E222AB
:0517BB00426539000049
:10395F00123C84123C91123C9E123CAB123CB812AA
:10396F003CC5123C77123C6A123C5D123C50123C33
:0E397F004378E2E254FCF278E0E24401F222E6
:10296E00C390653AE094C8906539E0940050030234
:10297E002A27E4F0A3F090644C30A303F080037494
:10298E0001F0D20630A507E490644EF08006906404
:10299E004E7401F0D21230A207E490644FF080061C
:1029AE0090644F7401F0D21030A107E4906450F09F
:1029BE0080069064507401F0D20B208607E4906478
:1029CE004AF0804020870890644A7401F0803520D8
:1029DE00900890644A7402F0802A20930890644A0A
:1029EE007403F0801F20940890644A7404F08014DD
:1029FE0020B00890644A7405F0800920A706906400
:102A0E004A7406F0D20C20A0079064527401800420
:0A2A1E00E4906452F0A3F0D202220B
:1017C000C12342648D000042648B000048648300A2
:1017D0000000000000000044647E0000000041643E
:0217E000820085
:103B8800E4FAF9F81202BF9065200203EE1203C6A8
:063B98009065200203E22B
:0D3CDF0078D3E254F3F278D0E24420F222D0
:102639009065201203FA0000000020230302270CF2
:10264900C223E47F037E07FDFC9064871203E21234
:1026590002347B20123B889064871203FA00000041
:102669000090647A123B9512021990647A1203EE73
:10267900E47F24FEFDFC123B98120234C006C00719
:1026890090648BE0FEA3E0FBAA06E4F9F8D007D03A
:10269900061202BF7B0A123B88906482E0C3940A47
:1026A9005012E004F090647E123B95120219906476
:1026B9007E0203EEE4906482F090647E1203C6E425
:1026C9007B0AFAF9F81202BF90647E1203EE906455
:1026D9007E1203C69064441203EE90647E1203FADC
:1026E90000000000E47FE77E03FDFC9064441203D0
:1026F900E2D312038F400A9064441203FA000003E4
:03270900E7D20A0A
:01270C0022AA
:1017E20042649E000042649C0000C124486494004C
:1017F2000000000000000041648F0044649000007B
:021802000000E4
:073D220078C2E254CFF22247
:102AD7009065241203FA00000000202403022B82D1
:102AE700C224E47FA67E0EFDFC9064981203E212D6
:102AF7000234C006C00790649CE0FEA3E0FBAA0670
:102B0700E4F9F8D007D0061202BF9065241203EE4D
:102B170090648FE0C394055016E004F0A31203C637
:102B27009065241203E21202199064900203EE905A
:102B370064901203C6E47B05FAF9F81202BF9064A9
:102B4700901203EEE490648FF07FFF7EFFFDFCA3FD
:102B57001203E2C312038F400A9064901203FA0033
:102B670000FFFF9064901203C69064401203EE903A
:0B2B770064901203FA00000000D2017D
:012B82002230
:101804004464760000000044647A000000004464EC
:101814006C00000000446470000000004264740026
:0118240000C3
:1039B800E4FDFC1203E2C302038F1203C6EF2401E5
:1039C800FFE43EFEE43DFDE43CFC221203C6120285
:0B39D80026E47B64FAF9F8C302038FB9
:10270D00906474E475F0081202037F307E75906456
:10271D00761239B8400D9064761203FA000000006D
:10272D00123C357FE87E0390647A1239B840557FAC
:10273D00007ECA7D9A7C3B9064311239BB500C905F
:10274D0064311239C29064311203EE7F407E427DB6
:10275D000F7C009064351239BB500C9064351239E2
:10276D00C29064351203EE90647A1203C6C3EF94DF
:10277D00E8FFEE9403FEED9400FDEC9400FC9064F4
:10278D007A1203EE90646C1203E29064311239D325
:10279D00500E9064311203C690646C1203EED20099
:1027AD009064701203E29064351239D3500E906428
:1027BD00351203C69064701203EED208C39064758F
:1027CD00E09488906474E094134008E4F0A3F0D290
:0327DD0000D2081F
:0127E00022D6
:10182500C10FC10CC104C106C112C110C10BC10158
:10183500C10AC10EC100C108C103C107C109C11355
:10184500C10DC1114164F3004264F400004164F22A
:0F185500004164F1004264EF00004264ED0000C6
:102F090090644AE0FFE4FCFDFE9064E50203EEA84C
:102F190004A905AA06AB07E0FFE4FCFDFE12035174
:102F29009065281203EE9065280203C6E47BE87ACF
:102F390003906431F9F81203C60202BF7808E0FF72
:102F4900E4FCFDFE0203B3906448E0FEA3E0FFE465
:102F5900FCFD22EF75F00AA424E5F582E43463F55B
:102F690083E02275F00AA424E4F582E43463F5834E
:102F7900E02275F00AA424E6F582E43463F583E0DF
:0F2F8900227D017B017A647939FE7F07020130D6
:10238000E4906542F0F0906542E0FFC3940340039F
:1023900002248874072FF582E43464F583E0700327
:1023A00002247F906542E075F00AA424E3F582E4FC
:1023B0003463F583E024D2601314604624FD606426
:1023C00014606524137063D20F02242AD203122FE3
:1023D0005CFDEF122F6C2DFEE433906439F0A3CE38
:1023E000F0906542E0FF122F7B90643BF0EF75F0B8
:1023F0000AA424E7F582E43463F583E090643CF0BA
:102400008028D207906542E0FF122F6C90643DF067
:10241000122F5C90643EF0906542E0122F7B906436
:102420003FF08006D20D8002D211906406E0D39472
:10243000004003E014F0906542E0FF2407F582E4D9
:102440003464F583E4F074FF2FF582E43463F5839C
:10245000E4F074032FF582E43464F583E4F0FE7F46
:102460000AC006C007FD906542E075F00AA424E1A9
:10247000F9746335F0FA7B01D007D0061204C390DB
:082480006542E004F00223862E
:012488002231
:060BD700200F03020CEFE9
:100BDD009065281203FA00000000C20F9064F3E044
:100BED006003020CEF04F0122F097F0112190A9015
:100BFD00644B122F0C7F0212190A90644C122F0CA9
:100C0D007F0312190A90644E122F0C7F0412190AD9
:100C1D0090644F122F0C7F0512190A906450122FF9
:100C2D000C7F0612190A9064401203C6122F127F10
:100C3D000712190A9064441203C6122F127F08126C
:100C4D00190A90644D122F0C7F0912190A122F35B3
:100C5D00122F127F0B12190AE47B64FA906435127D
:100C6D002F3D122F127F0C12190A1235B4906439D0
:100C7D00122F5378101203B3C004C005C006C0076D
:100C8D0090643B122F45D003D002D001D000120347
:100C9D0051A3122F18122F127F0E12190A90643EB3
:100CAD00122F45C004C005C006C00790643D7810E2
:100CBD00122F47D003D002D001D0001203519064FF
:100CCD003F122F18122F127F0F12190A122F5012C6
:100CDD002F127F1012190A906451122F0C7F1112CE
:020CED00190AE2
:100CEF00300C0AC20C122F097F0112190A30040DA1
:100CFF00C20490644B122F0C7F0212190A30060D9A
:100D0F00C20690644C122F0C7F0312190A30120D79
:100D1F00C21290644E122F0C7F0412190A30100D5C
:100D2F00C21090644F122F0C7F0512190A300B0D51
:100D3F00C20B906450122F0C7F0612190A3001104B
:100D4F00C2019064401203C6122F127F0712190AB4
:100D5F00300A10C20A9064441203C6122F127F0881
:100D6F0012190A300E0DC20E90644D122F0C7F090E
:100D7F0012190A300218C202906452122F0C7F12FD
:100D8F0012190A906453122F0C7F1312190A300094
:100D9F000DC200122F35122F127F0B12190A3008B5
:100DAF0016C208E47B64FAF9F8906435122F3F12EB
:100DBF002F127F0C12190A300318C2039064F1E04E
:100DCF007010780E7C65122F8A123A579064F17466
:100DDF0001F0300718C2079064F2E0701078077CBA
:100DEF0065122F8A123AD49064F27401F030090D13
:100DFF00C209122F50122F127F1012190A30130D21
:100E0F00C213906451122F0C7F1112190A300D1951
:100E1F00C20D9064311203FA0000000090647A1240
:100E2F0003FA00000000123C35301119C211906412
:100E3F00351203FA0000000090647A1203FA0000E2
:060E4F000000123C3522F8
:1018640054640A0001015300020473000307530087
:1018740004091D00050CED53641E00000000000067
:0D1884000000000000000000000000000057
:10356A00E4FD90653BF0A3F0ED25E025E0240CF5A1
:10357A0082E43464F583E0FAA3E0D39FEA9E401C18
:10358A00ED25E025E0240AF582E43464F583E0FFC2
:10359A00A3E090653BCFF0A3EFF080050DEDB405F5
:0935AA00C790653BE0FEA3E0FFC1
:0135B30022F5
:1038A300E490653DF0A3F07F021238D5123A3490CC
:1038B300653DEEF0A3EFF090653DE0FEA3E0FF125F
:1038C300356A90653DEEF0A3EFF090653DE0A3E02F
:0138D300FFF5
:0138D40022D1
:101891004464A1000000004464A500000000446409
:0918A100A9000000004164A0FF51
:103A0C00E47F429064A5FDFC1203E2C302038FE441
:103A1C007E0AFDFC9064A51203E2D302038F90642E
:083A2C00A51203EE9064A9222B
:100E55007F031238D5122565906537EEF0A3EFF0C4
:100E65009064A51203E2906537E0FEA3E0FFE4FC81
:100E7500FD120219123A2A1203C6EF2401FFE43EBD
:100E8500FEE43DFDE43CFC9064A91203EEE47FF42E
:100E95007E019064A1123A1250030210AF9064A132
:100EA5001203FA000000009064A51203C69064A91D
:100EB5001203E21202BF123A2A1203FA00000000DE
:100EC500E47F4D7E03123A0F50099064A07464F0DC
:100ED500020F7D7E04123A0C50099064A0745AF0FA
:100EE500020F7DE47F427E06123A0F50099064A0FE
:100EF5007450F0020F7DE47F147E07123A0F5009FB
:100F05009064A07446F0020F7DE47FAC7E07123A30
:100F15000F50099064A0743CF0020F7DE47F3B7E86
:100F250008123A0F50089064A07432F0804AE47FAA
:100F3500D87E08123A0F50089064A07428F08038C3
:100F4500E47F7B7E09123A0F50089064A0741EF06E
:100F55008026E47FEC7E09123A0F50089064A07455
:100F650014F080147E0A123A0C50089064A0740A9A
:100F7500F08005E49064A0F07F7D123A1B4008E400
:100F85009064A0F002109BE47F6D7E0A123A0F5028
:100F9500107F42123A1B40099064A0740AF00210B7
:100FA5009BE47F267E0A123A0F5013E47FEC7E09FC
:100FB500123A1E40099064A07414F002109BE47F5D
:100FC500CE7E09123A0F5013E47F7B7E09123A1E3A
:100FD50040099064A0741EF002109BE47F457E09D1
:100FE500123A0F5013E47FD87E08123A1E4009903A
:100FF50064A07428F002109BE47F9E7E08123A0FCD
:101005005013E47F3B7E08123A1E40099064A07499
:1010150032F002109BE47F0F7E08123A0F5013E462
:101025007FAC7E07123A1E40099064A0743CF00222
:10103500109BE47F727E07123A0F5012E47F147EF4
:1010450007123A1E40089064A07446F08048E47F79
:10105500ED7E06123A0F5012E47F427E06123A1ECA
:1010650040089064A07450F0802CE47FBC7E05128B
:101075003A0F5012E47F427E04123A1E40089064F3
:10108500A0745AF08010E47F4D7E03123A0F50068B
:101095009064A07464F09064A0E090644DF0906456
:0B10A500A51203FA000000FFD20E228B
:1018AA004464AD000000004464B1000000004464D8
:0518BA00B50000000074
:103AF200EF2401FFE43EFEE43DFDE43CFC0203EE64
:0E3B0200E47FE27E04FDFC1203E2C302038FA7
:1027E1007F041238D5122565906537EEF0FAA3EF14
:1027F100F0FB9064B51203C6EF2408FFE43EFEE44B
:102801003DFDE43CFC9064B51203EED3EB9400EA89
:1028110094089064B150151203C69064B1123AF253
:102821009064AD1203FA0000000080071203FA0061
:102831000000009064B1123B0240119064B1120398
:10284100FA00000000E4906451F0D213C39065389F
:10285100E094C7906537E0940B9064AD4015120386
:10286100C69064AD123AF29064B11203FA0000000E
:102871000080071203FA000000009064AD123B02D1
:1028810040129064AD1203FA00000000906451748C
:1028910001F0D213E47FE87E03FDFC9064B5123BA6
:0F28A10009400C9064B51203FA00000000D21336
:0128B0002205
:1018BF004464B9000000004464BD000000004464AB
:0518CF00C10000000053
:103B9E00FFE43EFEE43DFDE43CFC0203EEFDFC12C0
:063BAE0003E2C302038FD5
:103C17007C007D96120496E4FB7A10F9F80202BF45
:10383A00EF75F064A4FFAEF0E4FCFD7B96FAF9F8AC
:10384A001202BF90652C1203EEE47F62FE90652C93
:10385A00123BAB400A90652C1203FA0000006490F8
:05386A00652C0203C6FD
:1028B100E490653FF0A3F07F011238D59064C11216
:1028C10003E2C000C001C002C003122565E4FCFDA3
:1028D100D003D002D001D0001202199064C11203BA
:1028E100EE9064B91203C6EF24019064B9123B9EC5
:1028F1009064BD1203C6EF24089064BD123B9EE4B0
:102901007FE87E039064BD123BAB40609064C112CE
:1029110003C69064B91203E21202BF9064C11203AC
:10292100EE9064C11203C6123C1790653FEFF0129E
:10293100383A906540EFF0FB9064C11203FA000051
:1029410000009064B91203FA000000009064BD1207
:1029510003FA0000000090644BEBF090653FE0FF4C
:0C296100906448E4F0A3EFF0D209D20427
:01296D002247
:102B83006B3120646F75626C652070726573730AB4
:102B9300006B312070726573730A006B3220646FAF
:102BA30075626C652070726573730A006B322070F6
:102BB300726573730A006B31206C6F6E67207072DD
:102BC3006573730A006B32206C6F6E6720707265D9
:102BD30073730A006B3120636F6E74696E756520C1
:102BE30070726573730A006B3220636F6E74696E63
:102BF30075652070726573730A006B31206C6F6E9C
:102C030067207072657373206C6F6F73650A006B56
:102C130032206C6F6E67207072657373206C6F6FF8
:042C230073650A00CB
:1018D4004464D2000000004464D600000000416467
:0718E400DA004264D00000AD
:1035FA00E47E02FFFDFC9064D21203E2C302038F51
:10360A009064D61203C6EF240AFFE43EFEE43DFDB1
:10361A00E43CFC9064D61203EEE422E47E02FFFD51
:10362A00FC90653022AF1BAE1AAD19AC180203EE3E
:06363A009065300203C69A
:0636CA009064F61203EE0D
:1036D000E49064FAF0A31203FA000000007F017E78
:1036E00000123B2A123A789064FB12362F9064FB4A
:1036F0001203C69064F612360370037F01229064B1
:0C370000FAE004F0E0C3949640D37F0090
:01370C00229A
:101521009065301203FA00000000202603021725FF
:10153100C22675D9AA123A7875D9AA9065301236A1
:101541002F9064DAE07043FFFE1235FE700B123605
:101551003A9064D21203EE803112363A123600709C
:101561002312360A7FF47E01FDFC9064D612360305
:1015710040189064D61203FA000000009064DA74F7
:1015810002F080069064DA7404F09064DAE0640496
:02159100705692
:10159300C2257E041235FD70229064D21203C61256
:1015A30036CAEF24FF92257BFF3025067A2B7983F9
:1015B30080047A2B799412059E80251235FA7026C1
:1015C3009064D21203C61236CAEF24FF92257BFF22
:1015D3003025067A2B799E80047A2B79AF12059EEB
:0615E3009064DA7405F0CB
:1015E9009064DAE0640270297E0412362812360308
:1015F90070087BFF7A2B79B9800E123625123603D3
:1016090070097BFF7A2B79C812059E9064DA7403FE
:10161900F09064DAE06403706712363A12360070AB
:101629005912360AFF7E04FDFC90653012360370AC
:101639001F7F96FEFDFC9064D612360340429064EB
:10164900D61203FA000000007BFF7A2B79D7802598
:1016590012362512360370287F96FEFDFC9064D65B
:10166900123603401B9064D61203FA000000007B77
:10167900FF7A2B79EA12059E80069064DA7406F0E7
:0D1689009064DAE064066005E064057065B9
:10169600E4FFFEFDFC90653012360370129064D0B4
:1016A60075F00A1202037F017E00123B2A8007E4CE
:1016B6009064D0F0A3F0C39064D1E0941E9064D0FF
:1016C600E094004030E4F0A3F09064DAE064067041
:1016D6001EFF7E041235FE70087BFF7A2B79FD8093
:1016E6000B1235FA70097BFF7A2C791212059E903F
:0516F60064DA7407F046
:1016FB009064DAE0B407239065301203FA0000001F
:10170B00009064D21203FA000000009064D612031A
:0A171B00FA00000000E49064DAF028
:0117250022A1
:1018EB0041601801426019000041601B0041601CFF
:0E18FB000041601D0041601E7F42601FFFFF24
:10378A00E4F561AE3EAD3DAC3C853F178E168D1516
:10379A008C14787EE254FCF2E24514F218E515F234
:1037AA0018E516F218E517F2787FE254FBF2E254B4
:0D37BA00FB4404F2E24401F27F01023024DE
:1010B000906543EFF0E0FF2458F582E43464F58353
:1010C000E004F0745C2FF582E43464F583E4F0749A
:1010D000582FF582E43464F583E0C395635003022E
:1010E0001301906543E0FB2458F582E43464F583F2
:1010F000E4F0903AA993640160030212B27F01FE0A
:10110000FDFC745E2BF582E43464F583E0F9F8129B
:1011100003B3E51F4FF51FE51E4EF51EE51D4DF50A
:101120001DE51C4CF51CAF1FAE1EAD1DFC78011259
:1011300003A0EF5455FBEE5455FAED5455F9EC5419
:1011400055F8C3E51F9BF53BE51E9AF53AE51D9959
:10115000F539E51C98F538AF3BAE3AAD39FC78026D
:101160001203A0EF5433FBEE5433FAED5433F9EC91
:101170005433F8E53B5433FFE53A5433FEE5395434
:1011800033FDE5385433FCEB2FF53BEA3EF53AE905
:101190003DF539E83CF538AF3BAE3AAD39FC780463
:1011A0001203A0EF253BFFEE353AFEED3539FDEC9D
:1011B0003538FCEF540FF53BEE540FF53AED540F74
:1011C000F539EC540FF538AF3BAE3AAD39FC780841
:1011D0001203A0EF253BFFEE353AED3539FDEC3536
:1011E00038EFF53BE4F53AEDF539E4F538AE3AACD5
:1011F0003878101203A0EF253BFFEE353AFEEFF5ED
:101200003BEEF53AE4F539F538906543E025E02406
:1012100060F582E43464F583E0FEA3E0D39553EEF9
:1012200095524024906543E0FF25E02460F582E478
:101230003464F583E0F552A3E0F553745E2FF58234
:10124000E43464F583E0F564903AA9E493FFE4FCA8
:10125000FDFEAB3BAA3AA939A838D312038F4052FE
:10126000AF650565D3EF9403748094805003021337
:1012700001E4F565F51FF51EF51DF51C7F01FEFD6A
:10128000FCA964A8011203B38F1B8E1A8D198C1848
:10129000E47F01FEFDFCA8011203B38F338E328D73
:1012A000318C30E4F552F55375642012312B4337FD
:1012B0000222E4F5657F01FEFDFC906543E0FB241E
:1012C0005EF582E43464F583E0F9F81203B3E51BBC
:1012D0004FF51BE51A4EF51AE5194DF519E5184CB1
:1012E000F518E47F01FEFDFCA8031203B3E5334FBC
:1012F000F533E5324EF532E5314DF531E5304CF55B
:02130000302299
:10089800E4F566903AADE493FFE566C39F40030232
:1008A8000BD6E56625E02400F582E4346085828A6B
:1008B8007F548F8B7E0E8E8C758903758889E566CB
:1008C80025E02400F582E4346085828A8F8B758C5C
:1008D80012758904758889E56625E02408F582E49F
:1008E8003460F583E0FCA3E0C3950FEC950E502E21
:1008F800E56625E02414F582E43460F583E0FCA382
:10090800E0C39513EC95125015AF600560EF9402A3
:1009180074809480400BE4F5605337FD8003E4F560
:1009280060E53730E125E56625E02460F582E434AA
:1009380064F583E4F0A3F0E56625E02464F582E439
:100948003464F583E4F0A3F00209E6E56625E024C3
:1009580008F582E4346085828A8E8B758C0A7589E5
:10096800267588892088FDE5F130E00875F107E4EF
:10097800F50AF50BAE0AE50B7802C333CE33CED8B1
:10098800F9FFE56625E02460F582E43464F583EE3A
:10099800F0A3EFF0E56625E02414F582E4346085E1
:1009A800828A758B12758C0A7589277588892088C3
:1009B800FDE5F130E00875F107E4F50AF50BAE0A3C
:1009C800E50B7802C333CE33CED8F9FFE56625E0D0
:1009D8002464F582E43464F583EEF0A3EFF0E56671
:1009E80025E02468F582E43464F583E0FEA3E0782A
:1009F80002CEC313CE13D8F9F5518E50E56625E023
:100A08002460F582E43464F583E0FEA3E0FF903AC5
:100A1800A5E493FC740193FDC3EF9DEE9C4017E59C
:100A28006625E02464F582E43464F583E0FEA3E0FF
:100A3800C39DEE9C50028068E56625E02460F5823F
:100A4800E43464F583E0FEA3E0C39551EE9550408D
:100A58001CE56625E02464F582E43464F583E0FE51
:100A6800A3E0C39551EE95504003020AF2745A254B
:100A780066F582E43464F583E004F0745A2566F57B
:100A880082E43464F583E0FF903AAAE493FEEFD35E
:100A98009E4064745A2566F582E43464F583E4F074
:100AA800E56625E02404F582E43460F583E0FEA3DE
:100AB800E0FFE56625E02408F582E43460F583EE7E
:100AC800F0A3EFF0E56625E02410F582E43460F544
:100AD80083E0FEA3E0FFE56625E02414F582E43414
:100AE80060F583EEF0A3EFF0800D745A2566F58269
:100AF800E43464F583E4F0E56625E02404F582E453
:100B0800346085828AE56625E02400F582E4346055
:100B180085828B758C0A7589207588CB2088FDE5C0
:100B2800F130E00875F107E4F50AF50BE56625E014
:100B38002404F582E4346085828A758B547F0E8F95
:100B48008C7589237588897E0A8E8A8F8BE5662540
:100B5800E02404F582E4346085828CE4F5897588A4
:100B680029E56625E02410F582E4346085828AE56B
:100B78006625E02400F582E4346085828B8E8C75CE
:100B880089207588CB2088FDE5F130E00875F107EC
:100B9800E4F50AF50BE56625E02410F582E43460F7
:100BA80085828A758B547F0E8F8C75892475888908
:100BB800758A0A8F8BE56625E02410F582E4346097
:0F0BC80085828CE4F589758829056602089B22D1
:101AD500E4F566903AADE493FFE566C39F400302E3
:101AE5001C8DE56625E02468F582E43464F583E021
:101AF500FEA3E07802CEC313CE13D8F9F5518E506C
:101B0500E56625E02460F582E43464F583E0FEA310
:101B1500E0D39551EE9550402EE56625E02464F519
:101B250082E43464F583E0FEA3E0D39551EE95504D
:101B35004015745C2566F582E43464F583E4F0AF02
:101B4500661210B0021C88903AACE493FFC3E551CD
:101B55009FFFE5509400FED3EF9400EE9400400201
:101B650080047E007F00E56625E02460F582E4348C
:101B750064F583E0FCA3E0C39FEC9E4003021C7B5D
:101B8500903AACE493FFC3E5519FFFE5509400FE06
:101B9500D3EF9400EE9400400280047E007F00E5C0
:101BA5006625E02464F582E43464F583E0FCA3E073
:101BB500C39FEC9E4003021C7B74582566F582E4A6
:101BC5003464F583E4F0745C2566F582E43464F5E9
:101BD50083E004F0745C2566F582E43464F583E003
:101BE500C395635003021C88745C2566F582E43452
:101BF50064F583E4F07F01FEFDFC745E2566F582E5
:101C0500E43464F583E0F9F81203B312035EE51FCB
:101C15005FF51FE51E5EF51EE51D5DF51DE51C5C0A
:101C2500F51CE47F01FEFDFCA966A8011203B312B1
:101C3500035EE5335FF533E5325EF532E5315DF59B
:101C450031E5305CF530E47F01FEFDFC745E256610
:101C5500F582E43464F583E0F9F81203B312035E08
:101C6500E51B5FF51BE51A5EF51AE5195DF519E546
:101C7500185CF518800D745C2566F582E43464F50E
:091C850083E4F00566021AD8227E
:10312B00E4F566903AADE493FFE566C39F506EE518
:10313B006625E02460F582E43464F583E4F0A3F0C3
:10314B00E56625E02464F582E43464F583E4F0A3BA
:10315B00F0E56625E02404F582E43460F583E0FEB7
:10316B00A3E0FFE56625E02408F582E43460F583EF
:10317B00EEF0A3EFF0E56625E02410F582E4346071
:10318B00F583E0FEA3E0FFE56625E02414F582E479
:0E319B003460F583EEF0A3EFF0056680862227
:102CC200E4F566903AADE493FFE566C39F506790E2
:102CD2006018E0FF7E00C39410748094805053EF1C
:102CE2009408748094804025E56625E02400F582EE
:102CF200E43460F583E0FEA3E0FFE56625E024040A
:102D0200F582E43460F583EE8FF0120203E5662566
:102D1200E02400F582E43460F583E0FEA3E0FFE501
:102D22006625E02410F582E43460F583EE8FF0121C
:102D320002030566808D906018E0C394107480943D
:102D42008040054337048006906018E004F07F015C
:032D520002302428
:1031A900E4FFFEFDFCAB1BAA1AA919A818C3120358
:1031B9008F606390601AE004F07006906019E00473
:1031C900F0903AA1E493FE740193FF4E602ED390E0
:1031D900601AE09F906019E09E4021E4F0A3F0F5A9
:1031E9001FF51EF51DF51CF533F532F531F530F5F2
:1031F9001BF51AF519F518C22002312B903AA3E4F0
:1032090093FE740193FFD390601AE09F906019E0D8
:0D3219009E400AD22022E4906019F0A3F03C
:013226002285
:051C8E009063D6EFF0A9
:101C9300A3E0FCA3E0FDA3E0FEA3E0F54C8E4B8D97
:101CA3004A8C497884E2F50A08E2F50B758A0875CF
:101CB3008B49758C4575881D2088FDE4FFFEFDFC6E
:101CC300AB48AA47A946A845D31203794006AC45B9
:101CD300A8048013AF48AE47AD46AC4512036BABC7
:101CE30007AA06A905A80490601FE0FEA3E0FFE48D
:101CF300FCFDC31203795041E4FFFEFDFCAB48AA8F
:101D030047A946A8451203794006AF48AE47800B62
:101D1300AF48AE47AD46AC4512036B90601FEEF083
:101D2300A3EFF09063D6E025E02454F582E4346415
:101D3300F583E0A3E090601EF0903A9EE493FE7476
:101D43000193FFD3906020E09F90601FE09E501BA3
:101D53009063D6E025E02454F582E43464F583E00F
:101D6300A3E090601EF090601B8079E4FFFEFDFC11
:101D7300AB48AA47A946A845D312037940349063D8
:101D8300D6E0FF25E02454F582E43464F583E0FCD7
:101D9300A3E0D39400EC9400404DEF25E02454F5E8
:101DA30082E43464F58374FFF5F012020390601C3F
:101DB30080329063D6E0FF25E02454F582E4346456
:101DC300F583E0FCA3E0C3947FEC94005019EF2566
:101DD300E02454F582E43464F583E475F0011202DF
:101DE3000390601D7401F090601CE064017011A306
:101DF300E06401700B90601CF0A3F090601B04F092
:101E030090601BE06401703590601EE0FF9063D624
:101E1300E025E02454F582E43464F583E4F0A3EF91
:101E2300F074FF90601FF0A3F090601E747FF0E4E5
:0F1E330090601CF0A3F090601BF07F01227F00F5
:011E4200227D
:10330A00E49063D5F0903A981203D278011203B38D
:10331A009063D71203EEAF61121C8EEF6022056133
:10332A00E53730E4095337EF9063D57401F0903AEA
:10333A00ADE493FFE561C39F4006E4F561433710AE
:10334A00C3903A9C7401939562E493940040089068
:10335A0063D5E064017005D21F02378AE4FF123098
:01336A00243E
:01336B00223F
:10302400EF70607F01FEFDFC745E2561F582E4347F
:1030340064F583E0F9F81203B38F178E168D158C9F
:1030440014787EE254FCF2E24514F218E515F21805
:10305400E516F218E517F2E56125E02454F582E45B
:103064003464F583E0A3E0547FFF7878E254804F22
:10307400F2787FE254FBF2E254FB4404F2E24401AE
:10308400F2801CE56125E02454F582E43464F58380
:10309400E0A3E0547FFF7878E254804FF2787FE237
:0430A4004402F222CE
:102C2700E49063ACF0A3F09063ACE0FEA3E0FFC3D5
:102C37009488EE94035031EF2498FFEE34088F8286
:102C4700F583E493FF9063ADE02421FD9063ACE04E
:102C570034608D82F583EFF09063ADE004F070C7C8
:082C67009063ACE004F080BFB3
:102C6F009063A97401F0A37460F0A37421F0E4F5EC
:102C7F0061F537F536F535F534C21FC220F51FF56E
:102C8F001EF51DF51CF533F532F531F530F51BF555
:102C9F001AF519F518903AA793FF903AABE493FE03
:102CAF00A807088002C333D8FCF563756420E4FFDE
:032CBF00023024BC
:103227007884E2F50A08E2F50BAE0A7803CEC313F9
:10323700CE13D8F97802C333CE33CED8F9FFE56180
:1032470025E02400F582E43460F583EEF0A3EFF087
:10325700201F0F903AA0E4937005D21F02378A020D
:10326700330A0561903AADE493FFE561C39F401FC0
:10327700787FE254FBF2E254FB4404F2E24401F2A9
:10328700E4F561E53720E203022CC2433701227FD0
:053297000112302422A9
:053D290005620231A952
:103A7800E53730E01A9063A9A3E0FAA3E0F912044D
:103A880090121AD5E4F5617F011230245337FE22D3
:102FA400020027E493A3F8E493A34003F68001F21C
:102FB40008DFF48029E493A3F85407240CC8C3332E
:102FC400C4540F4420C8834004F456800146F6DFFD
:102FD400E4800B0102040810204080901726E47E50
:102FE400019360BCA3FF543F30E509541FFEE493F2
:102FF400A360010ECF54C025E060A840B8E493A3B9
:10300400FAE493A3F8E493A3C8C582C8CAC583CAE3
:10301400F0A3C8C582C8CAC583CADFE9DEE780BE9B
:0119090000DD
:10006000E709F608DFFA8046E709F208DFFA803E82
:1000700088828C83E709F0A3DFFA8032E309F6086F
:10008000DFFA8078E309F208DFFA807088828C83D7
:10009000E309F0A3DFFA806489828A83E0A3F6088B
:1000A000DFFA805889828A83E0A3F208DFFA804C65
:1000B00080D280FA80C680D4806980F2803380103C
:1000C00080A680EA809A80A880DA80E280CA8033A5
:1000D00089828A83ECFAE493A3C8C582C8CCC5831D
:1000E000CCF0A3C8C582C8CCC583CCDFE9DEE780ED
:1000F0000D89828A83E493A3F608DFF9ECFAA9F06C
:10010000EDFB2289828A83ECFAE0A3C8C582C8CCC1
:10011000C583CCF0A3C8C582C8CCC583CCDFEADEDA
:10012000E880DB89828A83E493A3F208DFF980CC3C
:1001300088F0EF60010E4E60C388F0ED2402B40435
:100140000050B9F582EB2402B4040050AF232345DC
:0601500082239000B07351
:10015600BB010689828A83E0225002E722BBFE02A7
:09016600E32289828A83E49322DA
:10016F00BB010CE58229F582E5833AF583E0225045
:10017F0006E92582F8E622BBFE06E92582F8E2228F
:0D018F00E58229F582E5833AF583E49322A9
:10019C00BB010FF8E58229F582E5833AF583E02867
:1001AC00F0225009C58229F8E58226F622BBFE0909
:1001BC00C58229F8E22582F222F8EA2583F583E943
:0301CC0093282253
:1001CF00BB010689828A83F0225002F722BBFE010F
:0201DF00F32209
:1001E100F8BB010DE58229F582E5833AF583E8F054
:1001F100225006E92582C8F622BBFE05E92582C800
:02020100F222E7
:10020300C5F0F8A3E028F0C5F0F8E5821582700286
:060213001583E038F02223
:0D021900EF2BFFEE3AFEED39FDEC38FC2234
:0E022600C3EF9BFFEE9AFEED99FDEC98FC22D3
:10023400E88FF0A4CC8BF0A42CFCE98EF0A42CFC69
:100244008AF0EDA42CFCEA8EF0A4CDA8F08BF0A4E7
:100254002DCC3825F0FDE98FF0A42CCD35F0FCEB46
:100264008EF0A4FEA9F0EB8FF0A4CFC5F02ECD390B
:0F027400FEE43CFCEAA42DCE35F0FDE43CFC2278
:1002830075F008758200EF2FFFEE33FECD33CDCC32
:1002930033CCC58233C5829BED9AEC99E5829840B5
:1002A3000CF582EE9BFEED9AFDEC99FC0FD5F0D692
:1002B300E4CEFBE4CDFAE4CCF9A88222B800C1B9BC
:1002C3000059BA002DEC8BF084CFCECDFCE5F0CBFA
:1002D300F97818EF2FFFEE33FEED33FDEC33FCEB33
:1002E30033FB10D703994004EB99FB0FD8E5E4F9EE
:1002F300FA227818EF2FFFEE33FEED33FDEC33FCDB
:10030300C933C910D7059BE99A4007EC9BFCE99ACE
:10031300F90FD8E0E4C9FAE4CCFB2275F010EF2F13
:10032300FFEE33FEED33FDCC33CCC833C810D70713
:100333009BEC9AE899400AED9BFDEC9AFCE899F84E
:0E0343000FD5F0DAE4CDFBE4CCFAE4C8F922E1
:0D035100EF4BFFEE4AFEED49FDEC48FC22AB
:0D035E00CFF4CFCEF4CECDF4CDCCF4CC2234
:0E036B00C3E49FFFE49EFEE49DFDE49CFC22A3
:10037900EB9FF5F0EA9E42F0E99D42F0EC6480C8FB
:0603890064809845F0229B
:10038F00EB9FF5F0EA9E42F0E99D42F0E89C45F0C4
:01039F00223B
:1003A000E8600FECC313FCED13FDEE13FEEF13FF3B
:0303B000D8F1225F
:1003B300E8600FEFC333FFEE33FEED33FDEC33FCA8
:0303C300D8F1224C
:0C03C600E0FCA3E0FDA3E0FEA3E0FF22AA
:1003D200E493FC740193FD740293FE740393FF2271
:0C03E200E0F8A3E0F9A3E0FAA3E0FB229E
:0C03EE00ECF0A3EDF0A3EEF0A3EFF02282
:1003FA00A8828583F0D083D08212041112041112CC
:10040A000411120411E473E493A3C583C5F0C583F0
:10041A00C8C582C8F0A3C583C5F0C583C8C582C84C
:01042A0022AF
:0C042B00A42582F582E5F03583F58322DC
:09043700E0FBA3E0FAA3E0F922C6
:10044000F8E0FBA3A3E0F925F0F0E5821582700245
:070450001583E0FA38F022E9
:09045700EBF0A3EAF0A3E9F022A6
:10046000BB010DE58229F582E5833AF58302043765
:100470005007E92582F80204EFBBFE07E92582F860
:100480000204F8E58229F582E5833AF58302050145
:060490008A838982E473F7
:10049600EC8EF0A4CCC5F0CCCDF8EFA4CEC5F02DF3
:1004A600FDE43CFCE8A42EC8C5F03DFDE43CFCEFB1
:0D04B600A4FFE5F028FEE43DFDE43CFC223F
:10053300E54024AFF582E43463F583E0054022907F
:1005430063AC301B039063AFE475F0011204400207
:1005530001562014E97F2ED2148018EF540F2490F3
:10056300D43440D4FF30180BEF24BFB41A00500327
:100573002461FFE541600215410544E5447002052D
:1005830043301B0E9063ACE475F001120440EF029C
:1005930001CF023C277403D21B8003E4C21BF54046
:1005A3009063AC120457E4F541F543F544E541602B
:1005B300077F2012057680F57542FFC215C214C26B
:1005C30016C217C219C21AC21C120542FF700D309F
:1005D3001B057F00120587AF44AE4322B4255FC2DB
:1005E300D5C218120542FF24D0B40A00501A75F080
:1005F3000A784130D50508B6FF0106C6A426F620C1
:10060300D5047002D21780D924CFB41A00EF500456
:10061300C2E5D218020788D21580C6D21480C0D290
:100623001680BCD2D580BAD21980B47F2012057649
:100633002016077401B5410040F1120533FF12057E
:10064300760205B0D21CD21A8095120533FB12052F
:1006530033FA120533F94A4B700679597A087BFF4E
:1006630020162EE541602A7E008E827583001201DA
:100673006F60060EEE654270F0C2D5EBC0E0EAC0D3
:10068300E0E9C0E0EE1207CFD0E0F9D0E0FAD0E025
:10069300FB120156FF60AAEBC0E0EAC0E0E9C0E04C
:1006A300120576D0E02401F9D0E03400FAD0E0FB63
:1006B300E5420460DCD542D980877BFF7A0779CB9A
:1006C300D216809C791080027908C21AC21C800855
:1006D300D2D5790A8004790AC2D5E542047002F5BD
:1006E30042E4FAFDFEFF120533FC7B0820151312CA
:1006F3000533FD7B1030140A120533FE120533FF58
:100703007B20EC3382D592D55013C3E43014069F7B
:10071300FFE49EFEE42015039DFDE49CFCE4CBF87E
:10072300C215EC700CCFCECDCCE824F8F870F38072
:1007330017C3EF33FFEE33FEED33FDEC33FCEB3346
:10074300FB994002FB0FD8E9EB301505F8D0E0C464
:1007530048B215C0E00AEC4D4E4F78207B0070C2C2
:10076300EAB5420040BCC0E01207D1D0F0D0E0208F
:100773001504C4C0E0C4B215C0F012055FD0F0D5B3
:10078300F0EB0205B012050D064D5306C758061EC1
:100793004C061A4206CB4F06D34406D349063343CD
:0807A30006D95506BD4606BD4E
:1007AB004506BD4708795006222D06262E06492BF5
:1007BB00062A2306472008622A05E2480000064164
:1007CB003F3F3F00790AA2D5201714301909B91001
:1007DB00020404B9080104A2D5201A025001042016
:1007EB0016689216B541005034C0E07F20301719BF
:1007FB007F30A216721A7219500F120828C216C235
:10080B001AC219C21C7F30800F301903E9C0E012E5
:10081B000576301903D0E0F9D0E0B541CC3019178B
:10082B007F30B9100C1205767F583018077F78800F
:10083B0003B908031205763016057F2D0205767F66
:10084B0020201CF87F2B201AF322921680CF286EC3
:10085B00756C6C2900D2151205333015F8C215785A
:10086B004130D50108F60205E22D504349581205D7
:10087B00332403B405004001E49008749312056718
:0D088B00743A120567D2177541040206C7C2
:1004C300EF4E6012EF60010EEDBB010B89828A8350
:1004D300F0A3DFFCDEFA2289F05007F709DFFCA95D
:0C04E300F022BBFEFCF309DFFCA9F022B4
:0904EF00E6FB08E6FA08E6F92232
:0904F800E2FB08E2FA08E2F92235
:0C050100E493FB740193FA740293F92256
:10050D00D083D082F8E4937012740193700DA3A37D
:10051D0093F8740193F5828883E473740293686091
:06052D00EFA3A3A380DF91
:00000001FF
