:03000000022BAD23
:0C2BAD00787FE4F6D8FD758166022BF4F9
:0C000300000000000000000000000000F1
:0B3B5700EF1FAC0670011E4C70F62240
:10391F00AB07AA06EB1BAE0270011A4E600C75D9ED
:0B392F00AA7FAA7E05123B5780EA2207
:10211C00907120E04480F07F057E00123B57E4FF75
:10212C00FE12391F75A75575AC5C9071327450F066
:10213C009071307403F0907136742FF090715C7460
:10214C0003F090715BE054FCF07F18EF2466FDE423
:10215C0034718D82F583E4F00FEFB433EE904011BF
:10216C00E4935407FF90711CE054F84FF090401723
:10217C00E493547FFF90711DE054804FF090401019
:10218C00E493FF5401C43333335480FE907123E045
:10219C00547F4EF0EFC313543F4440FFA3E05480F0
:1021AC004FF0904012E493FF540FFE907146E054B0
:1021BC00F04EF0EFC4540FFF90714FE054F04FF01D
:1021CC00904013E493543FFF907140E054C04FF0A3
:1021DC00904014E493907126F0904015E493907124
:0B21EC0028F0904016E49390712AF058
:0121F70022C5
:1038E300000009C4006400C80101F4004B000A0091
:0E38F30000010F04050200090064000A0064D1
:10396F00E2FE74DB2FF582E43464F583E02224FC5D
:08397F0025E0FDF874030822A5
:101B6700E4FF123971C394085058123971C39404B1
:101B7700502878C2C00012396F12397F8002C333F0
:101B8700D8FCF45ED000F278C2C00012396F123967
:101B97007F8002C333D8FC021C9578C3C00012397A
:101BA7006F12397D8002C333D8FCF45ED000F2781F
:101BB700C3C00012396F12397D8002C333D8FC02CB
:101BC7001C95123971C394084068123971C3941077
:101BD7005060123971C3940C502C78D2C00012395E
:101BE7006F24F812397F8002C333D8FCF45ED0002B
:101BF700F278D2C00012396F24F812397F8002C3FD
:101C070033D8FC021C9578D3C00012396F24F41224
:101C1700397F8002C333D8FCF45ED000F278D3C09A
:101C27000012396F24F412397F8002C333D8FC02C3
:101C37001C95123971C39414502B78E2C0001239E5
:101C47006F24F012397F8002C333D8FCF45ED000D2
:101C5700F278E2C00012396F24F012397F8002C394
:101C670033D8FC802978E3C00012396F24EC12398D
:101C77007F8002C333D8FCF45ED000F278E3C00063
:101C870012396F24EC12397F8002C333D8FC4ED04F
:0B1C970000F20FEF64026003021B6903
:011CA200221F
:03005D0002331259
:10331200C0E0C0F0C083C082C0D075D000C000C081
:1033220001C002C003C004C005C006C0077881E224
:1033320030E607E24440F2122E43D007D006D00511
:10334200D004D003D002D001D000D0D0D082D0831C
:05335200D0F0D0E032D4
:10310500D2AF43AB0843B6C0907132E04440F043C0
:10311500AB087877743FF208744BF2787A7430F222
:10312500788914F27871744FF2187427F2787274F2
:10313500A8F2087410F208E4F208F208F2787E7436
:0F314500D0F2087404F208741EF2087402F22229
:1029F900E4FBEB25E025E024F9F582E43438F5839E
:102A0900740193FF74DB2BF582E43464F583EFF0F2
:102A1900EB25E025E024FBF582E43438F583E493E3
:102A2900FE740193FFEB25E024DDF582E43464F5BF
:102A390083EEF0A3EFF0EB25E024E1F582E43464C2
:102A4900F583E4F0A37441F0E47F01FEFDFC74DB3F
:102A59002B123974F9F812040DE53F4FFFE53E4E8C
:102A6900FEE53D4DFDE53C4C8F3F8E3E8D3DF53CF1
:102A79000BEB640260030229FB121B671228CB02CD
:022A8900310515
:103A130078C2E254BFF2E24440F2907181E4F022B2
:0D3A7D0078C3E254CFF278C0E24440F22258
:0D3A8A0078C3E2543FF278C0E24480F2229B
:0D3A970078D2E254FCF278D0E24401F22231
:0D3AA40078D2E2543FF278D0E24408F222DA
:0D3AB10078D3E254FCF278D0E24410F22207
:0D3ABE0078E2E254F3F278E0E24402F222F2
:0D3ACB0078E2E254CFF278E0E24404F22207
:0D3AD80078E2E2543FF278E0E24408F22286
:0D3AE50078E3E254F3F278E0E24420F222AC
:0D3AF20078E3E2543FF278E0E24480F222F3
:0D3AFF0078F2E254FCF278F0E24401F22289
:070E830044600C00000000B8
:083B62007890E2541FF2E22208
:10355000E5B154F342B153A8DFD2AF7892E4F20858
:10356000F27890E254E3F2E2441CF2E254FCF2E21C
:103570004401F208E2547FF2E24420F278957401AB
:0C358000F2187476F2123B6244A0F222B2
:0C3B3300123B6244C0F243A820D2AF2233
:103A2300123B6244A0F27892E4F208F253A8DF2238
:03001E0002315458
:10315400C0E0C0F0C083C082C0D075D000C000C041
:1031640004C005C006C0077891E230E71DE2448040
:10317400F290600C120420EF2401FFE43EFEE43DD3
:10318400FDE43CFC90600C120448D007D006D00546
:0F319400D004D000D0D0D082D083D0F0D0E032A1
:0E0E8A00446544000000004465400000000084
:1031EF00C374FF9BFF74FF9AFE74FF99FD74FF98E1
:1031FF00FC12043CC30203E9120420EF2401FFE494
:10320F003EFEE43DFDE43CFC2212042090643202B9
:10321F00043CE4FCFD7BFF7AFFF9F8D30203D39063
:0B322F006432020420EE8FF002026AFD
:1034D600E5B154CF42B153A8BFD2AF75D102789CA3
:1034E600E254E3F2E2441CF2E254FCF2E24401F25A
:1034F60008E2547FF2E24420F278A17401F21874D3
:0D35060076F2789CE2541FF2E244A0F2221B
:103A3300789CE2541FF2E244C0F243A840D2AF2282
:101DDB0090654412042090642E12044890643212D1
:101DEB0004540000000090654412045400000000ED
:101DFB0090654012043C90642E12042012028D90C8
:101E0B0064321204489065401204540000000090A4
:101E1B00655BE0FEA3E0FF123221400912322E90E7
:101E2B00655B12323412321B9064F91231EF500F92
:101E3B009064F91232181202809064F9120448125D
:101E4B00321B9064621231EF500F906462123218A1
:101E5B00120280906462120448906537E0B401204E
:101E6B0012322E906538123234C3906539E094C427
:101E7B00906538E094094008E4F0A3F0906537F0E2
:101E8B0090653BE0B4012012322E90653E12323445
:101E9B00C390653FE0946490653EE094004008E495
:101EAB00F0A3F090653BF090653AE0B4012012325C
:101EBB002E90653C123234C390653DE0946490657E
:101ECB003CE094004008E4F0A3F090653AF0906495
:101EDB00FDE0FEA3E0FF123221400A9064FDE475A1
:101EEB00F00112026A74FFFFFEFDFC9065331232A3
:0F1EFB0000500C90653312320790653312044883
:011F0A0022B4
:0300210002305258
:10305200C0E0C0F0C083C082C0D075D000C000C044
:1030620004C005C006C007789DE230E728E244802C
:10307200F29065441232079065441204489063ADA1
:10308200E0C394FF5003E004F09064B7E0C394FF00
:103092005003E004F0D007D006D005D004D000D011
:0A30A200D0D082D083D0F0D0E0320D
:0D0E9800C11EC11F4165530042655400009A
:1038A500120420EF2401FFE43EFEE43DFDE43CFC70
:0F38B50022E47F587E02FDFC12043CC30203E9AB
:10339B00E5B254FC42B253A9FED2AF75D104907181
:1033AB0000E054E3F0E0F0E054FCF0E04401F09076
:1033BB0071057409F0907104745FF0907100E05422
:1033CB001FF0E044A0F0A3E0547FF0E04420F02293
:1039E000907100E0541FF0E044C0F043A901D2AF51
:0139F00022B4
:0300240002202F88
:10202F00C0E0C0F0C083C082C0D075D000C000C077
:0D203F0001C002C003C004C005C006C007F8
:0E204C00907101E020E703022101E04480F0E2
:10205A00906553E004F0E0C394144025E4F09065E1
:10206A00131238A59065131204489065131238B6F6
:10207A00400F20240C90651312045400000000D273
:01208A002431
:10208B00308216201E0F90650F1238A590650F1227
:0B209B000448123459D21E8002C21EFD
:1020A600906554E475F00112026AC3906555E09498
:1020B60014906554E094004027E4F0A3F090650383
:1020C6001238A59065031204489065031238B6408D
:1020D6000F20230C90650312045400000000D22345
:1020E600309516201F0F9064FF1238A59064FF12DA
:0B20F60004481235C6D21F8002C21F32
:10210100D007D006D005D004D003D002D001D00032
:0B211100D0D0D082D083D0F0D0E032DC
:100EA500602D63F10000000000000000000000005C
:100EB500000000000000000000000000000000002D
:100EC500000000000000000000000000000000001D
:100ED5000043641E000000436421000000436425B4
:100EE500000000C1224164280041642900416424B6
:080EF5000044642A0000000023
:1030AC0090642A12042074212FF582E43464F58391
:1030BC002290642EE0FF241EF582E43464F5832212
:1030CC007D00EF75F00FA424F1F9746335F0FA7BF1
:1030DC000122E5822EF582E43583F58322E4F0901B
:1030EC006424E014F090000F22906429E4F09064C2
:0930FC0028F02290642A02043C31
:0E3A5300906459EFF0123B0C906459E0FF2292
:10375B0078C2E2543FF2E254FCF2E24440F2907140
:10376B0081E04404F0907175E04401F043AA20D24B
:0B377B00AFE4F5D675D51F75D2112202
:03004B00021CA3F1
:101CA300C0E0C0F0C083C082C0D075D000C000C007
:0D1CB30001C002C003C004C005C006C00788
:101CC000906460E4F0E5D420E503021DC0E5D7F0A0
:101CD000202204E0B4A509906424E0C394034003E7
:101CE000021DB3906460E0B4A515D2221230F51243
:101CF0003A2390600C12045400000000123B339011
:101D00006429E0B40108906460E0906428F0123027
:101D1000ACE06003021DC0906460E0FF1230FF90F1
:101D200063F175F00FEB120485EA75F00FA42583BB
:101D3000F583C083C082906429E0FE04F0D082D095
:101D4000831230DEEFF090600C12045400000000AB
:101D5000906428E0606AE0FFA3E06F7063906428FD
:101D6000E0FB90642A120420741E2F1230C4EBF0A2
:101D7000C2221230F51230AC7401F0906424E004F9
:101D8000F090642A120420EF2401FFE43EFEE43DBB
:101D9000FDE43CFC90642A120448E47F03FEFDFC51
:101DA0001230FFC31203E9400A90642A120454005F
:101DB000000000123A2390600C120454000000004E
:101DC000D007D006D005D004D003D002D001D00077
:0B1DD000D0D0D082D083D0F0D0E03221
:0D3B0C00E5D430E4FB8FD7E5D430E4FB2294
:060027009065561204B1C1
:10002D00E4FEEEC39D50159065561204918E8275B7
:0C003D00830012016FFF123B0C0E80E6E6
:010049002294
:101F0B00E490642EF0A3F0C2157F0AFEFDFC9060F6
:101F1B000C12043CD31203E94019123A2390600CC3
:101F2B0012045400000000E4906429F0906428F03F
:101F3B00C22222E490642EF090642EE0FFC394033F
:101F4B00400302202E74212F1230B5E070030220C3
:101F5B002590642EE075F00FA424F2F582E434632F
:101F6B00F583E0FE741E2F1230C4E06E601A90648D
:101F7B002EE024211230B51230E9C083C08212301A
:081F8B00CCD007D0060205438B
:101F9300E4906430F090642FF0A3F01230BDE014AD
:101FA300FE906430E0FDC39E5022EF75F00FA42431
:101FB300F1F582E43463F583E5822D1230E1E0FF2D
:101FC30090642FE02FF0A3E004F080CF90642FE023
:101FD300F01230BDE0FEEF75F00FA424F0F582E4BB
:101FE3003463F5831230DEE0FF90642FE06F60020C
:021FF300D21505
:101FF50030151DC21590642EE0FF24211230B51254
:1020050030E9C083C0821230CCD007D00612054318
:1020150090642EE02425F582E43464F5837401F0A0
:0920250090642EE004F0021F4358
:01202E00228F
:050EFD004265590000F0
:10393A00907123E05498F0E0441EF02212028D9018
:0B394A00643312044890643302042030
:1038220078C3E24403F2E2440CF218E2440CF27868
:103832006AE24478F27591FF12393A907122740764
:02384200F02272
:1035FF00EF24FE601714601C2402701E907123E0EC
:10360F0054D8F0E0445AF0759904800E12393A7587
:10361F009905800612393A7599017869E24448F2A2
:07362F007F017E0002391F3C
:1037DC007869E24401F2786BE230E1FA7402F2AFFC
:1037EC0093EF75F010A4FFAEF0E594C4540FFDEF09
:0337FC004DFF225C
:1022D000E4906431F0A3F0A312045400000000E481
:1022E000906437F0A3F074FFA3F0A3F0E4A3F0F040
:1022F0001237DC906431EEF0A3EFF090643BE0C362
:1023000094024054906437E0FEA3E0FF906431E013
:10231000FCA3E0FDD39FEC9E4008906437ECF0A353
:10232000EDF0906439E0FEA3E0FFC3ED9FEC9E501A
:102330000F906431E0FFA3E0906439CFF0A3EFF099
:1023400090643312043C906431E0FEA3E0FFE4FCAF
:10235000FD120280A312044890643BE004F0E0C345
:102360009414408C12394FC006C007906437E0FEC9
:10237000A3E0FBAA06E4F9F8D007D006123946C05C
:1023800006C007906439E0FEA3E0FBAA06E4F8D09B
:1023900007D00612394678041203FA906431EEF041
:0323A000A3EFF0B8
:0123A3002217
:1039F10075AF3F8FAF75AEB975A402E5A530E1FB98
:013A010022A2
:103636009064331204B175AF3F8FAF906436E0C328
:1036460094014022E5A530E0FB906433E475F00177
:1036560012049A120156F5A675AEB975A4019064C6
:0736660036E014F080D522CC
:10366D0090642F1204B1906432E06027AE070FEE24
:10367D002400FDE4343F8D82F583E493FE90642FA6
:10368D00E475F00112049AEE1201CF906432E01449
:04369D00F080D322C4
:1036D300A3F078E3E254FCF2E24401F2907192E445
:1036E300F02290643FE004F0E0C3940822C2A4C235
:0E36F30096D2977F04FE22FFE0FEA807082271
:102FF400E4FF78D3E2543FF2E24440F290718DE46E
:10300400F0E254CFF2E24410F290718CE4F0123604
:10301400D5C297C29612000FEF7030FD7F8C122735
:10302400747D017F881227747D017F861227747D49
:10303400017F8A122774E4FD7F82122774E4FD7FE6
:0E30440084122774E4FD7F801227740232CCC0
:10395500E4FDEE25E0FEEF30E004EE4401FEEFC3AA
:0939650013FF0DEDB408EBAF06F1
:01396E002236
:022EB800AC0765
:102EBA00E4906433F0AF05123955EC64816019EC83
:102ECA0064836014EC6485600FEC6487600AEC64C8
:082EDA00896005EC648D704372
:102EE200E4906434F0A3F0EC64816004ECB48306F3
:102EF200EF547FFF8017EC64856004ECB48706EF23
:102F0200543FFF8008ECB48904EF541FFFEFC45410
:102F12000FFE906434F0EF540FFFA3F0EE75F00A49
:032F2200A42FFFDA
:012F25002289
:052A8B00906433EFF040
:102A9000E4A3F01236D31236F0123B57E4906435BB
:102AA000F0122AFF906435E09064331236FA800207
:102AB000C313D8FC30E004D2A48002C2A47F047EF9
:102AC00000123B57122B0940D878E3E254FCF2780D
:102AD000E0E24410F2E4906435F0906434E025E0E4
:102AE000F0122AFF30A407906434E04401F0122B66
:0E2AF0000940E7C296C297C2A4906434E0FF8A
:102AFE0022C2967F047E00123B5722D2967F047E1E
:0F2B0E0000123B57906435E004F0E0C3940822B6
:05399F00906432EFF01E
:1039A400E4FE122A8BAE07906432E0FFAD06022ECD
:0139B400B85A
:082B1D0090643DEFF0A3EDF020
:102B2500E41236D31236F0123B57E490643FF012AC
:102B35002BA390643FE090643D1236FA8002C313E4
:102B4500D8FC30E004D2A48002C2A4122B92123623
:102B5500E540DCE490643FF0122BA390643FE0FF76
:102B650090643EE0FEA807088002C313D8FC30E05D
:102B750004D2A48002C2A4122B921236E540D9C217
:0C2B8500967F047E00123B57C297C2A44A
:102B9100227F047E00123B57D2967F047E00123BB7
:0C2BA1005722C2967F047E00123B572290
:0E000F007F80122A8BEF30E0037F00227F01FA
:01001D0022C0
:05277400906439EFF054
:10277900A3EDF0EF6480601D906439E0FF6482602E
:1027890014EF6484600FEF6486600AEF6488600563
:05279900EF648C706C80
:10279E00E490643BF0A3F090643AE0FFC3940A40E7
:1027AE0007EF75F00A84A3F090643AE075F00A849E
:1027BE00AFF090643CEFF090643BE0FEC454F04FF9
:1027CE0090643AF0906439E0FF64806004EFB48264
:1027DE000990643AE0547FF08022906439E0FF64FF
:1027EE00846004EFB4860990643AE0543FF0800CA4
:0C27FE00906439E0B48805A3E0541FF09B
:10280A00E4FD7F8E122B1D906439E0FFA3E0FD12D8
:09281A002B1D7D807F8E022B1D19
:1033DB0090654EE0FD7F8012277490654DE0FD7F78
:1033EB008212277490654CE0FD7F841227749065E0
:1033FB004BE0FD7F8612277490654AE0FD7F8812B3
:0F340B002774906548A3E02430FD7F8C0227745E
:10341A00906432A3E02430FD7F8C122774906434C8
:10342A00E0FD7F88122774906435E0FD7F861227BD
:10343A0074906436E0FD7F84122774906437E0FD4F
:0F344A007F82122774906438E0FD7F8002277420
:1032CC007F8112399F9064A1EFF07F8312399F9018
:1032DC0064A0EFF07F8512399F90649FEFF07F8799
:1032EC0012399F90649EEFF07F8912399F90649DF4
:1032FC00EFF07F8D12399FEF24D0FEE434079064F9
:06330C009BF0A3CEF022AD
:040F020041654F00F6
:1038440090642EF090655002049190000612016F6E
:10385400FE90000802016F9000091201E190000C33
:013864002241
:10188600E490642EF07FFFA374FFF090655012047D
:10189600B190000112016FFE120156FDEEC39D507C
:1018A60003021A18123848900001E41201E1900070
:1018B6000E1204BA120510EFF4600890654F7423F7
:1018C600F0800990654FE06003E014F0123848900C
:1018D600000312016F6F601590000512016F600D15
:1018E600900004E41201E1900003021A149000052E
:1018F60012016FFE90000412016FC39E500B123846
:1019060048900004740102019C12384890000212AB
:10191600016F6F6048EFF4701C12384EC39E400A88
:101926007405123844900002806112384890000A0B
:101936007401021A0B123848900008740112385EBE
:1019460012016F6F906550600C1204917401123889
:101956005BEF021A0B120491900009803DEFF470C0
:101966004112384890000912016FD39400500302C7
:101976001A0E90000B12016FFE90000A12016FD32F
:101986009E4011740112384490000C12016F90644D
:101996002FF0805412384890000A740112019C02FC
:1019A6001A0E123848123855C394FF500890000892
:1019B600740112019C12384EB5060890642E740309
:1019C600F080201238489000071238516E70399016
:1019D600642E740412384790000612016F900008B6
:1019E6001201E190642FEFF0123848E412385B746C
:1019F600FF1201E190642FE09000111201E1906462
:101A06002EE09000121201E1123848900002EF1207
:021A160001E1EC
:011A180022AB
:10358C0078E2E2543FF2E24440F2907191E0F012A2
:10359C00398712355012375B1237861234D6123BEC
:1035AC0019123B26123822122FF412339B123A3383
:0A35BC001239E07F017E0002391F82
:10323A0012211C75D95590715EE054FEF075D9BB08
:10324A0012358CD2A37FE87E0312391FC2A37B01F9
:10325A007A6379AC1218861226041223A41221F872
:10326A00122C391226BE122544121F0B121A1912D9
:0A327A0010CB121DDB75D9AA80D419
:100F06006027648F00000000000000000000000061
:100F160000000000000000000000000000000000CB
:0B0F26000000000000000000000000C0
:0C3B3F007B017A64798F740CF0E4FF22A3
:103987007E007F277D007B017A64798F1205439043
:083997006432123B3F02366D61
:0E3A6100E4FF1239F1906436123B3F02363614
:10349800FEE02FFFEC3EFEA3E02FFFEC3EFE22FAFB
:1034A8001204207E00EB2FFFEE3AFE3395E0FDFC80
:1034B800221203FA7E00906432E022FC9064370204
:0E34C80004489064370204209064330204200C
:05131200906432EFF0D1
:10131700906437120454000000007FA5123B0C12A2
:1013270034CAEF24A5FFE43EFEE43DFDE43C12345D
:10133700C3906432E0FF64016032EF6402602DEF16
:1013470064036028EF64046023EF6405601EEF64A4
:10135700066019EF64096014EF640A600FEF641107
:10136700600AEF64126005EF641370207F051214A2
:10137700F2121504C0001234D01234BC2405FDE467
:1013870033CD2FFFEE3D1234B20214BC906432E02D
:10139700FF64076014EF6408600FEF640C600AEFE6
:1013A70064146005EF641070337F06123B0C906481
:1013B70032E0FF1214DA121504C000C002C0031293
:1013C70034D078081234B92406FDE433CD2FFBEE70
:1013D7003DA31234A7D003D0020214BC906432E0BC
:1013E700FF640B6005EF640D70467F071214F278F7
:1013F700101203FA1214DA12150EC000C002C0034D
:101407001234D078101234B92407FDE433CD2FFB02
:10141700EE3DFAA312042078081203FA7E00EB2FA0
:10142700FBEE3A9064331234A7D003D0020214BC07
:10143700906432E0640E60030214C47F0B123B0C0D
:101447007F0E123B0C90649BE0FF123B0C90649B59
:10145700E0A3E0FF123B0C90649DE0FF123B0C9071
:10146700649EE0FF123B0C90649FE0FF123B0C90E0
:1014770064A0E0FF123B0C9064A1E0FF12150EC0C0
:1014870000C001C002C00390649BE02419FFE4334D
:10149700FEE0A3E07C002FFFEC3E90649D123498A1
:1014A700A3E02FFFEC3EA31234983395E0FDFCD068
:1014B70003D002D001D0001202801234C41234CA01
:1014C700E4FEFD1234C31234CA123B0C7F017E00C6
:0314D70002391FB8
:1014DA00123B0C90643312042078081203FA123B70
:1014EA000C90643312042022123B0C906432E0FF09
:1014FA00123B0C90643312042022123B0C90643786
:0E150A0012043C22123B0C90643712043C2267
:050F310042655B0000B9
:10378600123ABE123ACB123AE5123AF2123AFF1246
:103796003AB1123AA4123A97123A8A123A7D78E26C
:0B37A600E254FCF278E0E24401F22261
:10282300C390655CE094C890655BE094005003023C
:1028330028CAE4F0A3F09064B030A503F0800374D9
:1028430001F0D20430A207E49064B1F080069064F2
:10285300B17401F0D20530A107E49064B2F08006B0
:102863009064B27401F0D206208607E49064ACF061
:1028730080402087089064AC7401F0803520900874
:102883009064AC7402F0802A2093089064AC7403C3
:10289300F0801F2094089064AC7404F0801420B07E
:1028A300089064AC7405F0800920A7069064AC74AA
:1028B30006F0D20120A0079064B474018004E49070
:0828C30064B4F0A3F0D20A2274
:100F3600C1234464FF000000004465030000000074
:0E0F46004465070000000044650B0000000039
:0C3B4B00E4FDFC02043C12043C02028079
:0D3B190078D3E254F3F278D0E24420F22297
:1035C600906507120420906503123B51906507121F
:1035D60004489065031204540000000090650B1225
:1035E60004209064FF123B5190650B1204489064CE
:0935F600FF120454000000002241
:1023A40090642E120454000000009064321204540D
:1023B400000000007FF47E01906507123B4BC312BE
:1023C40003E950062023030224737F2E7E049065C4
:1023D4000B123B4B12029BE47B03FAF9F81203261F
:1023E40090643212044830230C90642E120454007A
:1023F4000000008027E47F24FEFDFC906432120478
:102404003C12029BE47B0AFAF9F812032690650752
:1024140012043C12032690642E1204489064F512B0
:102424000420906432123B519064F5120448906584
:102434000B120454000000009065071204540000BD
:102444000000C22390642E1204209064A612044853
:10245400E47FE77E03FDFC9064A612043CD31203E0
:0F246400E9400A9064A6120454000003E7D2086E
:012473002246
:100F540044650F0000000044651300000000446570
:0E0F6400170000000044651B00000000C124BF
:063B6A00E4FDFC02043C36
:0D3B260078C2E254CFF278C0E24404F222EB
:1034590090651712042090650F12043C12028090A7
:10346900651712044890650F12045400000000907B
:10347900651B12042090651312043C1202809065AA
:0F3489001B120448906513120454000000002227
:102C390090642E120454000000007FF47E01906518
:102C49001B123B6AC31203E9500330246C30240C75
:102C590090642E12045400000000801C7FA67E0E92
:102C6900906517123B6A12029B90651B12043C1275
:102C7900032690642E12044890651712045400002C
:102C8900000090651B12045400000000C224E47F78
:102C9900FF7EFFFDFC90642E12043CC31203E94041
:102CA9000A90642E1204540000FFFF90642E12044F
:092CB900209064A2120448D20725
:012CC20022EF
:100F72004464F9000000004464F50000000042648B
:100F8200FD00004464ED000000004464F100000034
:010F9200005E
:1037B100120420EF2401FFE43EFEE43DFDE43CFC65
:1037C10022E4FDFC12043CC30203E91204201202AC
:0B37D1008DE47B64FAF9F8C30203E901
:1021F8007F307E759064F91237C2400D9064F912F1
:10220800045400000000123A617FE87E039064F5F0
:102218001237C240617F007ECA7D9A7C3B90648FF2
:102228001237C5500C90648F1237B190648F120426
:10223800487F407E427D0F7C009064931237C550E2
:10224800189064931237B19064931204489064977D
:102258001237B19064971204489064F5120420C3B1
:10226800EF94E8FFEE9403FEED9400FDEC9400FC7F
:102278009064F51204489064ED12043C90648F1247
:1022880037CC500E90648F1204209064ED120448ED
:10229800D20C9064F112043C9064931237CC500E27
:1022A8009064931204209064F1120448D20DC390F4
:1022B80064FEE094889064FDE09413400AE4F0A37F
:0722C800F0D20CD20DD20E82
:0122CF0022EC
:100F9300C100C101C102C103C104C105C106C1072A
:100FA300C108C109C10CC10DC10EC10FC110C111CE
:100FB300C112C113C11441653700426538000041B5
:100FC300653A0041653B0042653C000042653E00D6
:010FD300001D
:103284009064ACE0FFE4FCFDFE90643302044890DB
:103294006493E47B64FAF9F8120420020326906430
:1032A4002EE075F00FA4229064AAE0FEA3E0FFE4F0
:1032B400FCFD22E47BE87A03F9F890648F229064A1
:0832C4002EE0FF75F00FA422BB
:101A1900E490642EF0F090642EE0FFC39403400339
:101A2900021B6674252FF582E43464F583E07003A4
:101A3900021B5D1232A224F3F582E43463F583E0DC
:101A49001204EA1A68801A6D8B1A728C1A7C8E1A23
:101A590077941B03981B07991B0B9A00001B0DD247
:101A690000021B0DD20C021B0DD20D021B0DD20E52
:101A7900021B0DD20FEF75F00FA424F5F582E434A3
:101A890063F583E0FDEF75F00FA424F4F582E434E7
:101A990063F583E02DFEE43390649BF0A3CEF0124E
:101AA90032C224F6F582E43463F583E090649DF054
:101AB900EF75F00FA424F7F582E43463F583E09021
:101AC900649EF01232C224F8F582E43463F583E0AF
:101AD90090649FF0EF75F00FA424F9F582E4346364
:101AE900F583E09064A0F01232A224FAF582E4347E
:101AF90063F583E09064A1F0800AD2128006D213C4
:101B09008002D214906424E0D394004003E014F0DE
:101B190090642EE0FF2425F582E43464F583E4F033
:101B2900741E2FF582E43464F583E4F074212FF5F3
:101B390082E43464F583E4F0FE7F0FC006C007FD3C
:101B49001232A224F1F9746335F0FA7B01D007D07F
:0D1B59000612054390642EE004F0021A1FEE
:011B6600225C
:0610CB0020000302119D4C
:1010D10090642E12045400000000C200906537E0B5
:1010E100600302119D04F01232847F0112131290E9
:1010F10064AD1232877F021213129064AE123287EE
:101101007F031213129064B01232877F04121312FC
:101111009064B11232877F051213129064B21232B9
:10112100877F061213129064A212042012328D7F5F
:10113100071213129064A612042012328D7F081236
:1011410013129064AF1232877F091213121232B751
:1011510012329C12328D7F0B121312123293123201
:101161008D7F0C1213121232CC906433120454008E
:101171000000007F0E1213121232AB12328D7F105B
:101181001213129064B31232877F111213129064FA
:0C1191009712329612328D7F1412131246
:10119D0030010AC2011232847F0112131230020D86
:1011AD00C2029064AD1232877F0212131230040D09
:1011BD00C2049064B01232877F0412131230050DF1
:1011CD00C2059064B11232877F0512131230060DDD
:1011DD00C2069064B21232877F06121312300710C6
:1011ED00C2079064A212042012328D7F07121312CF
:1011FD00300810C2089064A612042012328D7F08A8
:10120D0012131230090DC2099064AF1232877F0993
:10121D00121312300A18C20A9064B41232877F1268
:10122D001213129064B51232877F13121312300C01
:10123D0010C20C1232B712329C12328D7F0B121368
:10124D0012300D0DC20D12329312328D7F0C12130E
:10125D0012300E16C20EE47B64FAF9F89064971200
:10126D00329C12328D7F14121312300F23C20F9045
:10127D00653AE0701B78327C647D017B017A64797C
:10128D009BFE7F0712013012341A90653A7401F0FB
:10129D0030100DC2101232AB12328D7F101213129C
:1012AD0030110DC2119064B31232877F11121312D7
:1012BD00301219C21290648F120454000000009075
:1012CD0064F512045400000000123A61301319C283
:1012DD0013906493120454000000009064F51204FE
:1012ED005400000000123A61301419C21490649732
:1012FD00120454000000009064F512045400000024
:05130D0000123A61220C
:100FD4005463BF000101530002047300030753006C
:100FE40004091D00050CED5E63D301010203040531
:100FF40002060708090A030B0C0D0E0F0410111248
:1010040013140515161718195363AC0A00000000D1
:0E101400033241000000140001FF36A100006D
:0F004E00EC75F006A424D3F582E43463F5832225
:1031A300E4FD906430F0A374FFF0ED25E025E02406
:1031B300C1F582E43463F583E0FAA3E0D39FEA9E8A
:1031C300401CED25E025E024BFF582E43463F5835C
:1031D300E0FFA3E0906430CFF0A3EFF080050DEDA6
:0B31E300B405C7906430E0FEA3E0FFDD
:0131EE0022BE
:1037FF00E4FEFC12004EE0B5071112004EE5822DDB
:10380F00F582E43583F583E0FE80050CECB405E327
:02381F00AF06F2
:013821002284
:1036A100E490642EF0A3F07F021235FF1237DC9014
:1036B100642EEEF0A3EFF090642EE0FEA3E0FF1283
:1036C10031A390642EEEF0A3EFF090642EE0A3E01E
:0136D100FFF9
:0136D20022D5
:102604009063BDE070030226BDE0FFA3E0FD123736
:10261400FFE49063BDF0A3F0EF1204EA2642012622
:102624004E04265A0626660926720B267E0E268A34
:102634001026961326A21526AE18000026BD906417
:1026440033120454000000CF806A9064331204549F
:10265400000100CF805E906433120454000000D265
:102664008052906433120454000100D28046906476
:1026740033120454000000D1803A9064331204549D
:10268400000100D1802E9064331204540000007FB6
:1026940080229064331204540001007F80169064F9
:1026A40033120454000000D0800A9064331204549E
:0926B400000100D07F0D12131289
:0126BD0022FA
:10370100706F776572206F6E2C206675656C5F70C7
:10371100657263656E743A2562750A006675656C3B
:0E3721005F70657263656E743A2562750A000A
:101022004464620000000060286466000000000062
:1010320000000000000000000000000000000000AE
:10104200000000000000000000000000000000009E
:0B10520000000041648E00416461005A
:1039CB0025E02466F582E43464F58322FDFC1204C1
:0539DB003CC30203E9FA
:042F2600AB07AA0645
:102F2A00E4906431F0A312045400000000AE02AF32
:102F3A000390648EE0FD04F0ED1239CBEEF0A3EFBE
:102F4A00F090648EE0C394144002E4F0E49064319B
:102F5A00F090643212043C906431E01239CBE0FE06
:102F6A00A3E0FFE4FCFD1202809064321204489050
:102F7A006431E004F0E0B414D8E47B14FAF9F89070
:082F8A00643212042002032648
:103A0200E4FDED1239CBEEF0A3EFF00DEDB414F2BC
:013A12002291
:10335700C3EF940BEE940E40047DFF8034D3EF94BB
:10336700D0EE94074004E4FD8027C3EF94B6EE94B3
:073377000350047D64801A7D
:10337E00906431E4F0A3740AF0EF244AFFEE34FCBB
:0A338E00FE7D0A7C00120215AD0757
:02339800AF057F
:01339A002210
:1026BE00E490642EF0A3F0A3F07F031235FF1227EF
:0C26CE0068122F2690642FEEF0A3EFF0AE
:1026DA00906461E0703E7FF47E01A31239D74034E2
:1026EA0090646212045400000000122768123A0231
:1026FA00906559E0FEA3E0FF90642FEEF0A3EFF09F
:10270A0012335790642EEFF07A37790112274D90E1
:04271A00646104F002
:10271E00E47F107E279064621239D7402190646264
:10272E001204540000000090642FE0FEA3E0FF129C
:0E273E00335790642EEFF07A37791D12274D35
:10274C00227BFF906434F01205F890642EE09064C4
:10275C00AFF0E490642FF0A3F0D209221222D090B3
:08276C006559EEF0A3EFF02225
:10105D0044651F0000000044652300000000446546
:05106D00270000000057
:10390100EF2401FFE43EFEE43DFDE43CFC020448FB
:0E391100E47FE27E04FDFC12043CC30203E9E5
:102474007F041235FF1222D0906559EEF0FAA3EFD3
:10248400F0FB906527120420EF2408FFE43EFEE4ED
:102494003DFDE43CFC906527120448D3EB9400EA2C
:1024A4009408906523501512042090652312390175
:1024B40090651F12045400000000800712045400A9
:1024C4000000009065231239114011906523120415
:1024D4005400000000E49064B3F0D211C390655A34
:1024E400E094C7906559E0940B90651F4015120461
:1024F4002090651F123901906523120454000000D6
:102504000080071204540000000090651F12391166
:10251400401290651F120454000000009064B374CC
:1025240001F0D211E47FE87E03FDFC9065271239A7
:0F25340018400C90652712045400000000D211CB
:012543002275
:101072004465330000000044652B00000000446515
:051082002F000000003A
:103A43007C007DF0120516E4FB7A10F9F8020326D8
:0E3A6F007E007C007D641202037D960202152B
:10254400E490642EF0A3F07F011235FF90652F1202
:10255400043CC000C001C002C0031222D0E4FCFD50
:10256400D003D002D001D00012028090652F120453
:102574004890652B120420EF2401FFE43EFEE43D65
:10258400FDE43CFC90652B120448E47FE87E03FDE7
:10259400FC90653312043CC31203E9406290652F3A
:1025A40012042090652B12043C12032690652F120E
:1025B400044890652F120420123A4390642EEFF0E1
:1025C400E0FF123A6FA3EFF090652F12045400005D
:1025D400000090652B120454000000009065331233
:1025E40004540000000090642FE09064ADF0906407
:0F25F4002EE0FF9064AAE4F0A3EFF0D210D20221
:0126030022B4
:101087004C64C901010203040502060708090A5353
:1010970064B60A0000000003324100000014000299
:0510A700FF38650000A8
:1038C400E4FFFDFCAB1BAA1AA919A818C30203E95B
:0F38D400EE75F006A424C9F582E43464F583226E
:1038650075D9AA12388575D9AA7E021238C4700393
:103875007F01227E041238C470037F02227FFF225B
:10372F00E490655FF0FE1238D4E0B507141238D478
:10373F00E5822DF582E43583F583E090655FF080B7
:0B374F00050EEEB402E090655FE0FFA5
:01375A00224C
:1039B5009064C7E0600FE0FFA3E0FD12372FE490AD
:0539C50064C7F0A3F04F
:0139CA0022DA
:1010AC0041601801426019000041601B0041601C46
:0E10BC000041601D0041601E7F42601FFFFF6B
:10351300E4F561AE3EAD3DAC3C853F178E168D158F
:103523008C14787EE254FCF2E24514F218E515F2AD
:1035330018E516F218E517F2787FE254FBF2E2542D
:0D354300FB4404F2E24401F27F01022CC3BC
:100C310090642EEFF0E0FF24D7F582E43464F5836D
:100C4100E004F074D92FF582E43464F583E4F074A0
:100C5100D72FF582E43464F583E0C3956350030232
:100C61000E8290642EE0FB24D7F582E43464F58390
:100C7100E4F09038F49364016003020E337F01FEC7
:100C8100FDFC74DB2BF582E43464F583E0F9F812A2
:100C9100040DE51F4FF51FE51E4EF51EE51D4DF533
:100CA1001DE51C4CF51CAF1FAE1EAD1DFC780112DD
:100CB10003FAEF5455FBEE5455FAED5455F9EC5443
:100CC10055F8C3E51F9BF53BE51E9AF53AE51D99DD
:100CD100F539E51C98F538AF3BAE3AAD39FC7802F1
:100CE1001203FAEF5433FBEE5433FAED5433F9ECBB
:100CF1005433F8E53B5433FFE53A5433FEE53954B8
:100D010033FDE5385433FCEB2FF53BEA3EF53AE988
:100D11003DF539E83CF538AF3BAE3AAD39FC7804E6
:100D21001203FAEF253BFFEE353AFEED3539FDECC6
:100D31003538FCEF540FF53BEE540FF53AED540FF7
:100D4100F539EC540FF538AF3BAE3AAD39FC7808C4
:100D51001203FAEF253BFFEE353AED3539FDEC355F
:100D610038EFF53BE4F53AEDF539E4F538AE3AAC58
:100D71003878101203FAEF253BFFEE353AFEEFF516
:100D81003BEEF53AE4F539F53890642EE025E024A0
:100D9100E5F582E43464F583E0FEA3E0D39553EEF8
:100DA1009552402490642EE0FF25E024E5F582E48D
:100DB1003464F583E0F552A3E0F55374DB2FF5823B
:100DC100E43464F583E0F5649038F4E493FFE4FCE3
:100DD100FDFEAB3BAA3AA939A838D31203E9405228
:100DE100AF650565D3EF9403748094805003020EC0
:100DF10082E4F565F51FF51EF51DF51C7F01FEFD6D
:100E0100FCA964A80112040D8F1B8E1A8D198C1870
:100E1100E47F01FEFDFCA80112040D8F338E328D9B
:100E2100318C30E4F552F553756420122D47433768
:100E31000222E4F5657F01FEFDFC90642EE0FB24B7
:100E4100DBF582E43464F583E0F9F812040DE51B67
:100E51004FF51BE51A4EF51AE5194DF519E5184C34
:100E6100F518E47F01FEFDFCA80312040DE5334FE4
:100E7100F533E5324EF532E5314DF531E5304CF5DE
:020E810030221D
:1008F200E4F5669038F8E493FFE566C39F4003028F
:100902000C30E56625E02400F582E4346085828AB5
:100912007F548F8B7E0E8E8C758903758889E56670
:1009220025E02400F582E4346085828A8F8B758C01
:1009320012758904758889E56625E02408F582E444
:100942003460F583E0FCA3E0C3950FEC950E502EC6
:10095200E56625E02414F582E43460F583E0FCA327
:10096200E0C39513EC95125015AF600560EF940249
:1009720074809480400BE4F5605337FD8003E4F506
:1009820060E53730E125E56625E024E5F582E434CB
:1009920064F583E4F0A3F0E56625E024E9F582E45A
:1009A2003464F583E4F0A3F0020A40E56625E0240E
:1009B20008F582E4346085828A8E8B758C0A75898B
:1009C200267588892088FDE5F130E00875F107E495
:1009D200F50AF50BAE0AE50B7802C333CE33CED857
:1009E200F9FFE56625E024E5F582E43464F583EE5B
:1009F200F0A3EFF0E56625E02414F582E434608587
:100A0200828A758B12758C0A758927758889208868
:100A1200FDE5F130E00875F107E4F50AF50BAE0AE1
:100A2200E50B7802C333CE33CED8F9FFE56625E075
:100A320024E9F582E43464F583EEF0A3EFF0E56691
:100A420025E024DDF582E43464F583E0FEA3E0785A
:100A520002CEC313CE13D8F9F5518E50E56625E0C8
:100A620024E5F582E43464F583E0FEA3E0FF9038E8
:100A7200F0E493FC740193FDC3EF9DEE9C4017E5F7
:100A82006625E024E9F582E43464F583E0FEA3E020
:100A9200C39DEE9C50028068E56625E024E5F58260
:100AA200E43464F583E0FEA3E0C39551EE95504033
:100AB2001CE56625E024E9F582E43464F583E0FE72
:100AC200A3E0C39551EE95504003020B4C74D5251B
:100AD20066F582E43464F583E004F074D52566F5A6
:100AE20082E43464F583E0FF9038F5E493FEEFD3BB
:100AF2009E406474D52566F582E43464F583E4F09F
:100B0200E56625E02404F582E43460F583E0FEA383
:100B1200E0FFE56625E02408F582E43460F583EE23
:100B2200F0A3EFF0E56625E02410F582E43460F5E9
:100B320083E0FEA3E0FFE56625E02414F582E434B9
:100B420060F583EEF0A3EFF0800D74D52566F58293
:100B5200E43464F583E4F0E56625E02404F582E4F8
:100B6200346085828AE56625E02400F582E43460FB
:100B720085828B758C0A7589207588CB2088FDE566
:100B8200F130E00875F107E4F50AF50BE56625E0BA
:100B92002404F582E4346085828A758B547F0E8F3B
:100BA2008C7589237588897E0A8E8A8F8BE56625E6
:100BB200E02404F582E4346085828CE4F58975884A
:100BC20029E56625E02410F582E4346085828AE511
:100BD2006625E02400F582E4346085828B8E8C7574
:100BE20089207588CB2088FDE5F130E00875F10792
:100BF200E4F50AF50BE56625E02410F582E434609D
:100C020085828A758B547F0E8F8C758924758889AD
:100C1200758A0A8F8BE56625E02410F582E434603C
:0F0C220085828CE4F58975882905660208F5221C
:10151800E4F5669038F8E493FFE566C39F4003025C
:1015280016D0E56625E024DDF582E43464F583E031
:10153800FEA3E07802CEC313CE13D8F9F5518E502E
:10154800E56625E024E5F582E43464F583E0FEA34E
:10155800E0D39551EE9550402EE56625E024E9F557
:1015680082E43464F583E0FEA3E0D39551EE955010
:10157800401574D92566F582E43464F583E4F0AF48
:1015880066120C310216CB9038F7E493FFC3E5518D
:101598009FFFE5509400FED3EF9400EE94004002C4
:1015A80080047E007F00E56625E024E5F582E434CA
:1015B80064F583E0FCA3E0C39FEC9E40030216BEE3
:1015C8009038F7E493FFC3E5519FFFE5509400FE80
:1015D800D3EF9400EE9400400280047E007F00E583
:1015E8006625E024E9F582E43464F583E0FCA3E0B1
:1015F800C39FEC9E40030216BE74D72566F582E4AD
:101608003464F583E4F074D92566F582E43464F52E
:1016180083E004F074D92566F582E43464F583E048
:10162800C3956350030216CB74D92566F582E4345A
:1016380064F583E4F07F01FEFDFC74DB2566F5822A
:10164800E43464F583E0F9F812040D1203B8E51FD9
:101658005FF51FE51E5EF51EE51D5DF51DE51C5CCD
:10166800F51CE47F01FEFDFCA966A80112040D1219
:1016780003B8E5335FF533E5325EF532E5315DF504
:1016880031E5305CF530E47F01FEFDFC74DB256656
:10169800F582E43464F583E0F9F812040D1203B816
:1016A800E51B5FF51BE51A5EF51AE5195DF519E509
:1016B800185CF518800D74D92566F582E43464F554
:0916C80083E4F0056602151B2203
:102D4700E4F5669038F8E493FFE566C39F506EE5B7
:102D57006625E024E5F582E43464F583E4F0A3F026
:102D6700E56625E024E9F582E43464F583E4F0A31D
:102D7700F0E56625E02404F582E43460F583E0FE9F
:102D8700A3E0FFE56625E02408F582E43460F583D7
:102D9700EEF0A3EFF0E56625E02410F582E4346059
:102DA700F583E0FEA3E0FFE56625E02414F582E461
:0E2DB7003460F583EEF0A3EFF005668086220F
:10296600E4F5669038F8E493FFE566C39F506790F8
:102976006018E0FF7E00C39410748094805053EF7B
:102986009408748094804025E56625E02400F5824D
:10299600E43460F583E0FEA3E0FFE56625E0240469
:1029A600F582E43460F583EE8FF012026AE566255F
:1029B600E02400F582E43460F583E0FEA3E0FFE561
:1029C6006625E02410F582E43460F583EE8FF0127C
:1029D600026A0566808D906018E0C3941074809436
:1029E6008040054337048006906018E004F07F01BC
:0329F600022CC3ED
:102DC500E4FFFEFDFCAB1BAA1AA919A818C3120340
:102DD500E9606390601AE004F07006906019E00401
:102DE500F09038ECE493FE740193FF4E602ED3907F
:102DF500601AE09F906019E09E4021E4F0A3F0F591
:102E05001FF51EF51DF51CF533F532F531F530F5D9
:102E15001BF51AF519F518C221022D479038EEE475
:102E250093FE740193FFD390601AE09F906019E0C0
:0D2E35009E400AD22122E4906019F0A3F023
:012E4200226D
:0516D10090645BEFF0E6
:1016D600A3E0FCA3E0FDA3E0FEA3E0F54C8E4B8D5A
:1016E6004A8C497884E2F50A08E2F50B758A087592
:1016F6008B49758C4575881D2088FDE4FFFEFDFC31
:10170600AB48AA47A946A845D31203D34006AC4521
:10171600A8048013AF48AE47AD46AC451203C5AB2F
:1017260007AA06A905A80490601FE0FEA3E0FFE44F
:10173600FCFDC31203D35041E4FFFEFDFCAB48AAF7
:1017460047A946A8451203D34006AF48AE47800BCB
:10175600AF48AE47AD46AC451203C590601FEEF0EC
:10176600A3EFF090645BE025E024E1F582E43464C5
:10177600F583E0A3E090601EF09038E9E493FE74F0
:101786000193FFD3906020E09F90601FE09E501B66
:1017960090645BE025E024E1F582E43464F583E0BF
:1017A600A3E090601EF090601B8079E4FFFEFDFCD4
:1017B600AB48AA47A946A845D31203D34034906440
:1017C6005BE0FF25E024E1F582E43464F583E0FC88
:1017D600A3E0D39400EC9400404DEF25E024E1F51E
:1017E60082E43464F58374FFF5F012026A90601C9B
:1017F600803290645BE0FF25E024E1F582E4346406
:10180600F583E0FCA3E0C3947FEC94005019EF2528
:10181600E024E1F582E43464F583E475F001120214
:101826006A90601D7401F090601CE064017011A361
:10183600E06401700B90601CF0A3F090601B04F054
:1018460090601BE06401703590601EE0FF90645B61
:10185600E025E024E1F582E43464F583E4F0A3EFC7
:10186600F074FF90601FF0A3F090601E747FF0E4A8
:0F18760090601CF0A3F090601BF07F01227F00B8
:011885002240
:102F9200E490645AF09038E312042C780112040D84
:102FA20090645C120448AF611216D1EF6022056191
:102FB200E53730E4095337EF90645A7401F09038E2
:102FC200F8E493FFE561C39F4006E4F561433710DF
:102FD200C39038E77401939562E49394004008909B
:102FE200645AE064017005D220023513E4FF122C0A
:012FF200C31B
:012FF30022BB
:102CC300EF70607F01FEFDFC74DB2561F582E43467
:102CD30064F583E0F9F812040D8F178E168D158CA9
:102CE30014787EE254FCF2E24514F218E515F2186A
:102CF300E516F218E517F2E56125E024E1F582E433
:102D03003464F583E0A3E0547FFF7878E254804F86
:102D1300F2787FE254FBF2E254FB4404F2E2440112
:102D2300F2801CE56125E024E1F582E43464F58357
:102D3300E0A3E0547FFF7878E254804FF2787FE29B
:042D43004402F22232
:1028CB00E490655DF0A3F090655DE0FEA3E0FFC3CF
:1028DB009488EE94035031EF24F2FFEE34088F828C
:1028EB00F583E493FF90655EE02421FD90655DE048
:1028FB0034608D82F583EFF090655EE004F070C775
:08290B0090655DE004F080BF5F
:102913009063A97401F0A37460F0A37421F0E4F54B
:1029230061F537F536F535F534C220C221F51FF5CB
:102933001EF51DF51CF533F532F531F530F51BF5B4
:102943001AF519F5189038F293FF9038F6E493FED0
:10295300A807088002C333D8FCF563756420E4FF3D
:03296300022CC380
:102E43007884E2F50A08E2F50BAE0A7803CEC313E1
:102E5300CE13D8F97802C333CE33CED8F9FFE56168
:102E630025E02400F582E43460F583EEF0A3EFF06F
:102E730020200F9038EBE4937005D2200235130223
:102E83002F9205619038F8E493FFE561C39F401FDB
:102E9300787FE254FBF2E254FB4404F2E24401F291
:102EA300E4F561E53720E203022966433701227F17
:052EB30001122CC322F6
:053B70000562022DC5F5
:10388500E53730E01A9063A9A3E0FAA3E0F9120541
:1038950010121518E4F5617F01122CC35337FE226F
:102BB90002323AE493A3F8E493A34003F68001F2C6
:102BC90008DFF48029E493A3F85407240CC8C3331D
:102BD900C4540F4420C8834004F456800146F6DFEC
:102BE900E4800B0102040810204080900E83E47EEB
:102BF900019360BCA3FF543F30E509541FFEE493E1
:102C0900A360010ECF54C025E060A840B8E493A3A7
:102C1900FAE493A3F8E493A3C8C582C8CAC583CAD2
:102C2900F0A3C8C582C8CAC583CADFE9DEE780BE8A
:0110CA000025
:10006000E709F608DFFA8046E709F208DFFA803E82
:1000700088828C83E709F0A3DFFA8032E309F6086F
:10008000DFFA8078E309F208DFFA807088828C83D7
:10009000E309F0A3DFFA806489828A83E0A3F6088B
:1000A000DFFA805889828A83E0A3F208DFFA804C65
:1000B00080D280FA80C680D4806980F2803380103C
:1000C00080A680EA809A80A880DA80E280CA8033A5
:1000D00089828A83ECFAE493A3C8C582C8CCC5831D
:1000E000CCF0A3C8C582C8CCC583CCDFE9DEE780ED
:1000F0000D89828A83E493A3F608DFF9ECFAA9F06C
:10010000EDFB2289828A83ECFAE0A3C8C582C8CCC1
:10011000C583CCF0A3C8C582C8CCC583CCDFEADEDA
:10012000E880DB89828A83E493A3F208DFF980CC3C
:1001300088F0EF60010E4E60C388F0ED2402B40435
:100140000050B9F582EB2402B4040050AF232345DC
:0601500082239000B07351
:10015600BB010689828A83E0225002E722BBFE02A7
:09016600E32289828A83E49322DA
:10016F00BB010CE58229F582E5833AF583E0225045
:10017F0006E92582F8E622BBFE06E92582F8E2228F
:0D018F00E58229F582E5833AF583E49322A9
:10019C00BB010FF8E58229F582E5833AF583E02867
:1001AC00F0225009C58229F8E58226F622BBFE0909
:1001BC00C58229F8E22582F222F8EA2583F583E943
:0301CC0093282253
:1001CF00BB010689828A83F0225002F722BBFE010F
:0201DF00F32209
:1001E100F8BB010DE58229F582E5833AF583E8F054
:1001F100225006E92582C8F622BBFE05E92582C800
:02020100F222E7
:10020300EF8DF0A4A8F0CF8CF0A428CE8DF0A42E0F
:02021300FE22C9
:10021500BC000BBE0029EF8DF084FFADF022E4CCCD
:10022500F875F008EF2FFFEE33FEEC33FCEE9DEC96
:10023500984005FCEE9DFE0FD5F0E9E4CEFD22EDDC
:10024500F8F5F0EE8420D21CFEADF075F008EF2F26
:10025500FFED33FD4007985006D5F0F222C398FD17
:050265000FD5F0EA22B4
:10026A00C5F0F8A3E028F0C5F0F8E582158270021F
:06027A001583E038F022BC
:0D028000EF2BFFEE3AFEED39FDEC38FC22CD
:0E028D00C3EF9BFFEE9AFEED99FDEC98FC226C
:10029B00E88FF0A4CC8BF0A42CFCE98EF0A42CFC02
:1002AB008AF0EDA42CFCEA8EF0A4CDA8F08BF0A480
:1002BB002DCC3825F0FDE98FF0A42CCD35F0FCEBDF
:1002CB008EF0A4FEA9F0EB8FF0A4CFC5F02ECD39A4
:0F02DB00FEE43CFCEAA42DCE35F0FDE43CFC2211
:1002EA0075F008758200EF2FFFEE33FECD33CDCCCB
:1002FA0033CCC58233C5829BED9AEC99E58298404E
:10030A000CF582EE9BFEED9AFDEC99FC0FD5F0D62A
:10031A00E4CEFBE4CDFAE4CCF9A88222B800C1B954
:10032A000059BA002DEC8BF084CFCECDFCE5F0CB92
:10033A00F97818EF2FFFEE33FEED33FDEC33FCEBCB
:10034A0033FB10D703994004EB99FB0FD8E5E4F986
:10035A00FA227818EF2FFFEE33FEED33FDEC33FC73
:10036A00C933C910D7059BE99A4007EC9BFCE99A67
:10037A00F90FD8E0E4C9FAE4CCFB2275F010EF2FAC
:10038A00FFEE33FEED33FDCC33CCC833C810D707AC
:10039A009BEC9AE899400AED9BFDEC9AFCE899F8E7
:0E03AA000FD5F0DAE4CDFBE4CCFAE4C8F9227A
:0D03B800CFF4CFCEF4CECDF4CDCCF4CC22DA
:0E03C500C3E49FFFE49EFEE49DFDE49CFC2249
:1003D300EB9FF5F0EA9E42F0E99D42F0EC6480C8A1
:0603E30064809845F02241
:1003E900EB9FF5F0EA9E42F0E99D42F0E89C45F06A
:0103F90022E1
:1003FA00E8600FECC313FCED13FDEE13FEEF13FFE1
:03040A00D8F12204
:10040D00E8600FEFC333FFEE33FEED33FDEC33FC4D
:03041D00D8F122F1
:0C042000E0FCA3E0FDA3E0FEA3E0FF224F
:10042C00E493FC740193FD740293FE740393FF2216
:0C043C00E0F8A3E0F9A3E0FAA3E0FB2243
:0C044800ECF0A3EDF0A3EEF0A3EFF02227
:10045400A8828583F0D083D08212046B12046B12BD
:10046400046B12046BE473E493A3C583C5F0C583E2
:10047400C8C582C8F0A3C583C5F0C583C8C582C8F2
:010484002255
:0C048500A42582F582E5F03583F5832282
:09049100E0FBA3E0FAA3E0F9226C
:10049A00F8E0FBA3A3E0F925F0F0E58215827002EB
:0704AA001583E0FA38F0228F
:0904B100EBF0A3EAF0A3E9F0224C
:1004BA00BB010DE58229F582E5833AF583020491B1
:1004CA005007E92582F802056FBBFE07E92582F885
:1004DA00020578E58229F582E5833AF583020581EA
:1004EA00D083D082F8E4937012740193700DA3A3A1
:1004FA0093F8740193F5828883E4737402936860B5
:06050A00EFA3A3A380DFB4
:060510008A838982E47376
:10051600EC8EF0A4CCC5F0CCCDF8EFA4CEC5F02D72
:10052600FDE43CFCE8A42EC8C5F03DFDE43CFCEF30
:0D053600A4FFE5F028FEE43DFDE43CFC22BE
:10058D00E5402434F582E43464F583E0054022909F
:10059D006431301C03906434E475F00112049A0246
:1005AD0001562015E97F2ED2158018EF540F249097
:1005BD00D43440D4FF30190BEF24BFB41A005003CC
:1005CD002461FFE541600215410544E544700205D3
:1005DD0043301C0E906431E475F00112049AEF0261
:1005ED0001CF023A537403D21C8003E4C21CF540C0
:1005FD009064311204B1E4F541F543F544E54160F1
:10060D00077F201205D080F57542FFC216C215C2B4
:10061D0017C218C21AC21BC21D12059CFF700D30E5
:10062D001C057F001205E1AF44AE4322B4255FC225
:10063D00D5C21912059CFF24D0B40A00501A75F0CA
:10064D000A784130D50508B6FF0106C6A426F62066
:10065D00D5047002D21880D924CFB41A00EF5004FB
:10066D00C2E5D2190207E2D21680C6D21580C0D2D9
:10067D001780BCD2D580BAD21A80B47F201205D093
:10068D002017077401B5410040F112058DFF1205C9
:10069D00D002060AD21DD21B809512058DFB1205C4
:1006AD008DFA12058DF94A4B700679B37A087BFFE6
:1006BD0020172EE541602A7E008E8275830012017F
:1006CD006F60060EEE654270F0C2D5EBC0E0EAC079
:1006DD00E0E9C0E0EE120829D0E0F9D0E0FAD0E070
:1006ED00FB120156FF60AAEBC0E0EAC0E0E9C0E0F2
:1006FD001205D0D0E02401F9D0E03400FAD0E0FBAF
:10070D00E5420460DCD542D980877BFF7A087925E4
:10071D00D217809C791080027908C21BC21D8008F7
:10072D00D2D5790A8004790AC2D5E542047002F562
:10073D0042E4FAFDFEFF12058DFC7B082016131214
:10074D00058DFD7B1030150A12058DFE12058DFFEE
:10075D007B20EC3382D592D55013C3E43015069F20
:10076D00FFE49EFEE42016039DFDE49CFCE4CBF823
:10077D00C216EC700CCFCECDCCE824F8F870F38017
:10078D0017C3EF33FFEE33FEED33FDEC33FCEB33EC
:10079D00FB994002FB0FD8E9EB301605F8D0E0C409
:1007AD0048B216C0E00AEC4D4E4F78207B0070C267
:1007BD00EAB5420040BCC0E012082BD0F0D0E020DA
:1007CD001604C4C0E0C4B216C0F01205B9D0F0D5FD
:1007DD00F0EB02060A1204EA06A753072158067821
:1007ED004C06744207254F072D44072D49068D43AE
:0807FD000733550717460717E3
:100805004507174708D350067C2D06802E06A32BD7
:1008150006842306A12008BC2A063C480000069B46
:100825003F3F3F00790AA2D5201814301A09B910A4
:10083500020404B9080104A2D5201B0250010420BA
:1008450017689217B541005034C0E07F2030181961
:100855007F30A217721B721A500F120882C217C27C
:100865001BC21AC21D7F30800F301A03E9C0E01287
:1008750005D0301A03D0E0F9D0E0B541CC301A17D5
:100885007F30B9100C1205D07F583019077F78805A
:1008950003B908031205D03017057F2D0205D07F57
:1008A50020201DF87F2B201BF322921780CF286E66
:1008B500756C6C2900D21612058D3016F8C21678A3
:1008C5004130D50108F602063C2D50434958120522
:1008D5008D2403B405004001E49008CE931205C1B0
:0D08E500743A1205C1D218754104020721B2
:10054300EF4E6012EF60010EEDBB010B89828A83CF
:10055300F0A3DFFCDEFA2289F05007F709DFFCA9DC
:0C056300F022BBFEFCF309DFFCA9F02233
:09056F00E6FB08E6FA08E6F922B1
:09057800E2FB08E2FA08E2F922B4
:0C058100E493FB740193FA740293F922D6
:00000001FF
